:100000000C9476010C949E010C949E010C949E011C
:100010000C949E010C949E010C949E010C949E01E4
:100020000C949E010C949E010C94DE090C94650ABC
:100030000C949E010C949E010C949E010C949E01C4
:100040000C949E010C949E010C949E010C949E01B4
:100050000C949E010C949E010C949E010C94290515
:100060000C949E010C949E010C949E010C949E0194
:100070000C949E010C949E010C949E010C949E0184
:100080000C949E010C949E010C949E010C949E0174
:100090000C949E010C949E010C949E010C949E0164
:1000A0000C949E010C949E010C949E010000000093
:1000B000240027002A002D00300000000000250049
:1000C00028002B002E003100000000002300260035
:1000D00029002C002F000404040404030405020278
:1000E00002020403020202020606060606060404D1
:1000F00002020204040802011040804010204080E7
:10010000408008020401804020100201108010206D
:1001100040400000000200080E0000030401000B34
:1001200000000000000000000000000000000000CF
:10013000070605040100080A0B0C0D09080B000254
:10014000020201000904000001020200000524006F
:100150001001052401010104240206052406000102
:100160000705810310004009040100020A00000095
:100170000705020240000007058302400000040357
:1001800009042203410072006400750069006E00DA
:100190006F0020004C0065006F006E00610072006F
:1001A00064006F001803410072006400750069006C
:1001B0006E006F0020004C004C0043001201000252
:1001C00000000040412336800001010200011201BD
:1001D00000020200004041233680000101020001BC
:1001E00000C18081C105010902A1010901A10085A9
:1001F00001050919012903150025019503750181E0
:100200000295017505810305010930093109381589
:1002100081257F750895038106C0C005010906A1E7
:10022000018502050719E029E715002501750195EB
:10023000088102950175088103950675081500254A
:10024000650507190029658100C009040200010342
:100250000000000921010100012265000705840357
:1002600040000100000000000000002A2B280000D0
:10027000000000000000000000000000000000007E
:100280000000002C9EB4A0A1A2A434A6A7A5AE365F
:100290002D3738271E1F20212223242526B333B6CD
:1002A0002EB7B89F8485868788898A8B8C8D8E8FA0
:1002B000909192939495969798999A9B9C9D2F31A3
:1002C00030A3AD350405060708090A0B0C0D0E0F07
:1002D000101112131415161718191A1B1C1DAFB183
:1002E000B0B50000A7015F071A09E80B11241FBE73
:1002F000CFEFDAE0DEBFCDBF11E0A0E0B1E0EAE190
:10030000FAE102C005900D92AE32B107D9F711E0C3
:10031000AEE2B1E001C01D92A13CB107E1F712E0ED
:10032000CCEED2E004C02297FE010E94070DC43E2D
:10033000D107C9F70E942A080C940B0D0C940000F9
:10034000DC0101C06D9341505040E0F708958EE20A
:1003500091E06CE370E045E023E00E9470038FE3DE
:1003600091E00E94B4030895AF92BF92CF92DF92C2
:10037000EF92FF921F93DF93CF9300D00F92CDB7F0
:10038000DEB76E010894C11CD11C84E0A82EB12CEC
:10039000AC0EBD1E8BE991E00E9415070397D4F3C4
:1003A00076018BE991E00E943C078F3F39F0F7011D
:1003B00080838E2D8C198230F1F407C08EE291E09B
:1003C0000E94B00210924901E5CF109149018EE2DE
:1003D00091E069814A812B810E948C029B01AC01D2
:1003E0008EE291E0612F70E00E94500280914901FD
:1003F0008F5F809349010894E11CF11CEA14FB040F
:1004000081F6C8CF8BE991E00E94150718161906EE
:1004100014F40E94B4018FE391E06EE271E00E9457
:10042000930464E170E080E090E00E94A5050895E7
:100430000F931F938BE991E060E071EE0E94140727
:100440000EE211E0C8010E946003C8010E94B002E0
:100450000E94710560934A0170934B0180934C0197
:1004600090934D01ECEFFFE63491EDEFFFE6249120
:10047000EEEFFFE644918FEF9FE6FC018491742F2D
:1004800060E0680F711D532F40E0420F511D8FE354
:1004900091E021E00CE30E94C0031F910F910895A9
:1004A000AF92BF92CF92DF92EF92FF920F931F9382
:1004B000DC0159016A0112968D919C91139768177E
:1004C000790708F5CB01880F991F860F971F16969D
:1004D000ED91FC911797E80FF91F1A968C9111274F
:1004E0000D2DFC2CEB2CBF016F5F7F4F9601442735
:1004F000552780FF03C0E082218302C02083E18270
:10050000FB013196A0821F910F91FF90EF90DF9039
:10051000CF90BF90AF900895EF92FF920F931F93EB
:10052000E42EFF2400E010E0102F0F2DFE2CEE240F
:1005300030E040E050E0E22AF32A042B152B70E073
:1005400080E090E0CB0177276627E62AF72A082B80
:10055000192BB701C8011F910F91FF90EF900895DB
:10056000EF92FF920F931F93DF93CF93CDB7DEB738
:1005700027970FB6F894DEBF0FBECDBF8C01DC010C
:1005800012968D919C911397892B09F48CC0149627
:100590008D919C9115979F838E831696ED90FC907C
:1005A0001797F70181917F0189830E947F05D80108
:1005B0001D962D913D914D915C915097621B730B4F
:1005C000840B950B623371058105910570F3F894E6
:1005D000F80182850384F485E02DD80119969C9159
:1005E00081FD33C08081892B8A838A8190959823ED
:1005F0009B838B818D8388E08C836A8159814C81B8
:100600003D812B818E819F81D701608357FD362FDD
:10061000009C009C3083009C009C009C009C009CE3
:10062000009C0000322F4A9541F0551F0000009CAD
:10063000009C2083009C009CE8CF48E05D91009CDA
:100640002083009C019709F726C08081892B8A832B
:100650008A81909598239B838B818C8388E08D83FE
:100660006A8159814D813C812B818E819F81D70187
:10067000608357FD362F3083322F4A9531F0551F56
:10068000009C009C009C2083F3CF000048E05D911B
:100690000197208369F778940E947F05F8016587A8
:1006A00076878787908B27960FB6F894DEBF0FBEAC
:1006B000CDBFCF91DF911F910F91FF90EF900895E3
:1006C0000F931F938C01FC01808561E00E9454060A
:1006D000F801808560E00E94E1061F910F91089566
:1006E000EF92FF920F931F93CF93DF93EC018B0157
:1006F000F42EE22E9B01220F331F260F371F2C836F
:100700003D83C9010E94A2049F838E83009719F143
:100710004C815D8160E070E00E94A0011B830A8330
:10072000EA86F8862F2D30E0F901EA52FF4FE49176
:10073000F0E0EE0FFF1FE654FF4F859194919C87E8
:100740008B872C503F4FF901449149871D861E86A7
:100750001F86188A02C01B821A82DF91CF911F91D7
:100760000F91FF90EF900895FC0111821082138287
:1007700012821482158217821682118610860895BD
:100780000F93FC0171836083538342832483058329
:1007900017821682518740870F9108958F929F92FA
:1007A000AF92BF92CF92DF92EF92FF920F931F937F
:1007B000CF93DF93EC016B01AA24E885F985B4900F
:1007C0008FE7B822319644913196E49158EF852E07
:1007D00084222E2F30E0C901807E907033E0959501
:1007E00087953A95E1F7E42EE294EE0C90EEE9223B
:1007F000E82A9E2E990C990C990C0A2D10E0FF24E2
:100800000FC0C601682D4E2D292D0E948C029B0120
:10081000AC01C601B8010E945002F3940F5F1F4F54
:10082000FB1478F3AB0C88859985039699878887A4
:100830008BE38A1508F0C1CFC6010E94B0028E81F9
:100840009F816881798101960E94F10C9F838E833C
:10085000009721F48A819B8199878887DF91CF91C6
:100860001F910F91FF90EF90DF90CF90BF90AF90CE
:100870009F908F900895EF92FF920F931F93CF93C5
:10088000DF93EC017B018E819F819C01220F331F3E
:10089000280F391F8D8190E0A901489F9001499F41
:1008A000300D589F300D11248A819B81820F931F38
:1008B0009987888710E003E020C0A885B985109F3C
:1008C000C00111249D01280F391FF901649101967F
:1008D0009D01280F391FF90144910196A80FB91FF6
:1008E000FD012491C7010E948C029B01AC01C7014C
:1008F000612F70E00E9450021F5F8D811817E8F28F
:10090000C7010E94B0028E819F8168817981019622
:100910000E94F10C9F838E83DF91CF911F910F91E5
:10092000FF90EF900895FC018481882319F08130B5
:1009300041F404C0CF010E943B040895CF010E94FE
:10094000CE0308950F931F93CF93DF93BC018230A2
:10095000910510F462E070E0E091BF01F091C001F8
:10096000A0E0B0E040E050E024C080819181861793
:100970009707D0F08617970771F4828193811097BB
:1009800029F013969C938E9312972CC09093C001DC
:100990008093BF0127C04115510519F084179507B1
:1009A00018F4EF018D01AC01DF01828193819C017C
:1009B000F9013097D1F641155105F9F0CA01861BAE
:1009C000970B8430910580F48A819B810115110574
:1009D00021F0F8019383828304C09093C001809337
:1009E000BF01FE0132962FC0FE01E80FF91F61938F
:1009F000719302979983888326C08DB79EB78857D5
:100A00009040209100013091010128173907C8F466
:100A1000AC01421B530B4617570798F0CB010296C7
:100A20004817590770F0820F931F9093010180932C
:100A300000019093030180930201F9016193719386
:100A400002C0E0E0F0E0CF01DF91CF911F910F9164
:100A500008951F920F920FB60F9211242F933F9378
:100A60008F939F93AF93BF938091520190915301C5
:100A7000A0915401B0915501309156010196A11DEC
:100A8000B11D232F2D5F2D3720F02D570196A11D6D
:100A9000B11D209356018093520190935301A0936E
:100AA0005401B093550180914E0190914F01A09156
:100AB0005001B09151010196A11DB11D80934E01CD
:100AC00090934F01A0935001B0935101BF91AF910A
:100AD0009F918F913F912F910F900FBE0F901F907C
:100AE00018958FB7F894209152013091530140919D
:100AF0005401509155018FBFB901CA0108959FB7A4
:100B0000F89420914E0130914F0140915001509145
:100B1000510186B5A89B06C08F3F21F02F5F3F4F44
:100B20004F4F5F4F9FBF542F432F322F2227280F45
:100B3000311D411D511D82E0220F331F441F551FDF
:100B40008A95D1F7B901CA0108959B01AC017FB71D
:100B5000F89480914E0190914F01A0915001B09175
:100B6000510166B5A89B05C06F3F19F00196A11D04
:100B7000B11D7FBFBA2FA92F982F8827860F911DEF
:100B8000A11DB11D62E0880F991FAA1FBB1F6A95A6
:100B9000D1F7BC012DC0FFB7F89480914E01909120
:100BA0004F01A0915001B0915101E6B5A89B05C03D
:100BB000EF3F19F00196A11DB11DFFBFBA2FA92F5C
:100BC000982F88278E0F911DA11DB11DE2E0880F7F
:100BD000991FAA1FBB1FEA95D1F7861B970B885E4A
:100BE0009340C8F2215030404040504068517C4F03
:100BF000211531054105510571F60895789484B5A4
:100C0000826084BD84B5816084BD85B5826085BD08
:100C100085B5816085BDEEE6F0E0808181608083EE
:100C2000E1E8F0E0108280818260808380818160D1
:100C30008083E0E8F0E0808181608083E1E9F0E09A
:100C4000808182608083808181608083E0E9F0E040
:100C5000808181608083E1ECF0E08081846080832A
:100C6000808182608083808181608083E3ECF0E01A
:100C7000808181608083E0ECF0E08081826080830D
:100C8000E2ECF0E0808181608083EAE7F0E080813F
:100C900084608083808182608083808181608083A2
:100CA0008081806880830895CF93DF93482F50E040
:100CB000CA018C509F4FFC0134914A525F4FFA0198
:100CC0008491882369F190E0880F991FFC01E45515
:100CD000FF4FA591B491FC01E654FF4FC591D4910B
:100CE000662351F42FB7F8948C91932F9095892314
:100CF0008C93888189230BC0623061F42FB7F894FC
:100D00008C91932F909589238C938881832B888352
:100D10002FBF06C09FB7F8948C91832B8C939FBFF5
:100D2000DF91CF910895883071F1893068F4823075
:100D300031F1833020F4813009F042C01DC083308E
:100D400089F08430E9F512C08B3059F18C3028F4E9
:100D50008930E9F08A30A1F51EC08C3031F18E3037
:100D600079F529C0809180008F7703C08091800041
:100D70008F7D80938000089584B58F7702C084B5FD
:100D80008F7D84BD0895809190008F7707C08091FA
:100D900090008F7D03C080919000877F80939000AA
:100DA00008958091C0008F7703C08091C0008F7D2F
:100DB0008093C00008958091C200877F8093C20015
:100DC0000895FF920F931F93F62E482F50E0CA010B
:100DD0008E5E9E4FFC012491CA018C509F4FFC01F6
:100DE00014914A525F4FFA0104910023C9F0222363
:100DF00019F0822F0E949306E02FF0E0EE0FFF1F04
:100E0000E654FF4FA591B4919FB7F894FF2021F4C9
:100E10008C911095812302C08C91812B8C939FBF64
:100E20001F910F91FF90089508952091970130919F
:100E300098018091990190919A01281B390B2F7389
:100E40003070C901089520919701309198018091E7
:100E5000990190919A012817390719F42FEF3FEF64
:100E600009C0E0919901F0919A01E95AFE4F808101
:100E7000282F30E0C9010895209197013091980101
:100E80008091990190919A012817390719F42FEF51
:100E90003FEF13C0E0919901F0919A01E95AFE4F9A
:100EA00020818091990190919A0101968F739070A1
:100EB00090939A018093990130E0C90108951092AE
:100EC0009E0110929D0188EE93E0A0E0B0E0809337
:100ED0009F019093A001A093A101B093A20182E190
:100EE00091E090939C0180939B0108950F931F9331
:100EF000DF93CF930F92CDB7DEB78C0169838091DA
:100F00000B01882369F083E0BE016F5F7F4F41E0F2
:100F100050E00E9439091816190614F49C0107C004
:100F200081E090E0F8019383828320E030E0C90102
:100F30000F90CF91DF911F910F91089583E00E9450
:100F400010090895CF93DF9312C082E00E949B089E
:100F50002FEF8F3F9207C9F0E0919701F091980130
:100F6000E95AFE4F8083D0939801C0939701C091B6
:100F70009701D09198012196CF73D07080919901FB
:100F800090919A01C817D90701F7DF91CF91089581
:100F9000FC0180818E5F808380E86CE371E042E435
:100FA00050E00E94B4080895FC0181819081913A3B
:100FB00059F4813209F04CC080E064E071E047E010
:100FC00050E00E94B40842C0913209F041C0803222
:100FD00039F484E091E067E070E00E94F80836C0E0
:100FE000823209F035C0828180930B018091040127
:100FF00090910501A0910601B0910701805B94409A
:10100000A040B04019F580910B0180FD12C087E728
:1010100097E790930108809300082BE088E190E027
:101020000FB6F894A895809360000FBE20936000DF
:101030000DC088E10FB6F8948093600010926000B4
:101040000FBEA895109201081092000881E0089543
:1010500080E00895CF93DF930E94FE0581EB91E03D
:101060000E941B090E941802C0E0D0E00E94020208
:101070002097E1F30E940000F9CFCF92DF92EF9228
:10108000FF920F931F93CF93DF937C016B018A0133
:10109000C0E0D0E00FC0D6016D916D01D701ED9198
:1010A000FC910190F081E02DC7010995C80FD91F6F
:1010B000015010400115110571F7CE01DF91CF915C
:1010C0001F910F91FF90EF90DF90CF900895282F00
:1010D0008091AB018823C1F057FF1AC015C0289832
:1010E0009093AA018091F1008193E217F307B9F779
:1010F0004115510539F08091F200882319F48BE6EF
:101100008093E800AFBF02C04FEF5FEFCA010895C0
:10111000AFB7F89427702093E9008091F200282F50
:1011200030E0241735070CF4A901FB019B01240FC3
:10113000311D94E6DACFDF93CF930F92CDB7DEB7B0
:10114000BE016F5F7F4F41E050E00E94670801974A
:1011500019F02FEF3FEF03C08981282F30E0C9013C
:101160000F90CF91DF910895FF920F931F93F82E68
:10117000142F052F4091AE015091AF01212F302F38
:10118000C901DC01FB016EEF29C0F7FE02C094919A
:1011900001C090812091AC013091AD012417350739
:1011A000ACF48091E8008570E1F38091E80082FF63
:1011B00003C02FEF3FEF17C09093F100C9010196D4
:1011C0008F739070892B11F46093E8002F5F3F4F6D
:1011D0003093AD012093AC01119731961097A9F689
:1011E000812F902F9C01C9011F910F91FF900895AD
:1011F0009C018091E80082FFFCCFF901260F311D90
:1012000003C08091F1008193E217F307D1F728988A
:1012100084E68093AA018BEF8093E800CB010895C8
:101220008093E9008091F200882319F08AE380938B
:10123000E800089508951092AB0181E08093D700F3
:1012400080EA8093D80082E189BD09B400FEFDCF19
:1012500061E070E080E090E00E94A50580E9809365
:10126000D8008CE08093E2001092E000559A209A1A
:1012700008955F926F927F928F929F92AF92BF92EA
:10128000CF92DF92EF92FF920F931F93CF93DF9352
:10129000E82E842E752E8091AB01882371F18B018D
:1012A000242F352FC901EC017AEFF72E67E0962E37
:1012B0009E2050E4552E8E2D90E040E2A42EB12CBD
:1012C000A822B9223AE3632E20E4C22ED12CC822F0
:1012D000D92258C09FB7F8949092E9008091E80015
:1012E00085FD02C020E004C08091F200252D281B5E
:1012F0009FBF222361F4FA9419F42FEF3FEF4DC002
:1013000061E070E080E090E00E94A5053BC0822F84
:1013100090E0C817D9070CF42C2FC21BD1094FB786
:10132000F8949092E900A114B10421F406C010923F
:10133000F10021502223D9F719C0E7FC03C0F801BE
:10134000922F10C0C801322F06C0FC010196E49113
:10135000E093F10031503323C1F706C081918093AF
:10136000F10091509923D1F7020F111D8091E800EF
:1013700085FF05C0209729F4C114D10411F06092B3
:10138000E8004FBF209709F0A5CF5D9884E68093D1
:10139000A901282D372DC9019C01C901DF91CF91E9
:1013A0001F910F91FF90EF90DF90CF90BF90AF9083
:1013B0009F908F907F906F905F9008951F920F92F3
:1013C0000FB60F9211242F933F934F935F936F9318
:1013D0007F938F939F93AF93BF93EF93FF938091EE
:1013E000E1001092E100982F83FF0FC01092E900F6
:1013F00081E08093EB001092EC0082E38093ED009B
:101400001092AB0188E08093F00092FF34C083E03B
:101410008093E9008091F200882319F08AE3809399
:10142000E8008FB7F89492E09093E9009091F20071
:101430008FBF992321F08BE991E00E94A207809150
:10144000A901882351F08091A90181508093A901BD
:101450008091A901882309F45D9A8091AA018823CB
:1014600051F08091AA0181508093AA018091AA0134
:10147000882309F4289AFF91EF91BF91AF919F9132
:101480008F917F916F915F914F913F912F910F902D
:101490000FBE0F901F9018950F931F93DF93CF935C
:1014A0000F92CDB7DEB719828E010F5F1F4FC801B3
:1014B0000E94C807C8010E94E50C898190E00F9046
:1014C000CF91DF911F910F9108951F920F920FB648
:1014D0000F921124EF92FF921F932F933F934F93FC
:1014E0005F936F937F938F939F93AF93BF93EF938C
:1014F000FF93DF93CF93CDB7DEB76197DEBFCDBF4C
:101500001092E9008091E80083FF0FC1FE0131963F
:101510009E01275F3F4F03C08091F1008193E21746
:10152000F307D1F7289884E68093AA0182EF80938D
:10153000E800998197FF05C08091E80080FFFCCF0B
:1015400003C08EEF8093E800292F30E0C901807638
:101550009070892B09F0C2C08A81882329F41092E7
:10156000F1001092F100D6C0813009F4D3C083306D
:1015700009F4D0C0853049F48091E80080FFFCCFA9
:101580008B8180688093E300C5C0863009F07CC001
:101590001C81EF80F8841230C1F51092E90010929E
:1015A000AD011092AC011092AF011092AE010E94F9
:1015B0004C0A99E0FE013996DF01292F1D922A95E8
:1015C000E9F799871A8791E09E8790E8988B9AEFC0
:1015D000998B2091AC013091AD01275F3F4F3C8743
:1015E0002B878D871092E9001092AD011092AC010B
:1015F000F092AF01E092AE0180E0BF0149E050E01F
:101600000E94B4080E944C0A85C01092E900109212
:10161000AD011092AC01F092AF01E092AE01123236
:1016200041F482E290E00E94DD0C892B09F476C03F
:1016300071C0113079F488E0E816F10419F481E002
:101640008093B0018091B001882309F06BC0ECEB6E
:10165000F1E013C0133009F061C08B81882319F4C5
:10166000EEE7F1E00AC0823019F4E2E8F1E005C0EB
:10167000813009F053C0E4EAF1E0449180E8BF0111
:1016800050E00E94B40846C0873009F447C0883053
:1016900021F481E08093F1003DC08930D9F52370B9
:1016A0003070232BD9F5E1EEF1E091E031E026E353
:1016B0009093E9003093EB0084918093EC002093A9
:1016C000ED009F5F3196953099F78EE78093EA00A1
:1016D0001092EA008B818093AB011CC08F819885AA
:1016E0001092E9001092AD011092AC019093AF01FD
:1016F0008093AE018D81882329F4CE0101960E944A
:10170000D40706C0823051F4CE0101960E94AE0B80
:10171000882321F08EEF8093E80007C081E2809358
:10172000EB0003C0EEECF1E0A8CF6196DEBFCDBFC9
:10173000CF91DF91FF91EF91BF91AF919F918F91E9
:101740007F916F915F914F913F912F911F91FF90EA
:10175000EF900F900FBE0F901F901895FC01918194
:101760008081813A31F4913089F080E0933089F4BE
:101770000DC0813269F49B3021F4828180930C0189
:1017800005C09A3029F4828180930D0181E008958B
:1017900080E00895EF92FF920F931F938C01E62E45
:1017A000DC01ED91FC910480F581E02D0995F82E86
:1017B000D801ED91FC910680F781E02DC8016E2DD6
:1017C00009958F2D90E01F910F91FF90EF90089554
:1017D0001092B2011092B6011092B50184E291E02C
:1017E0009093B4018093B3010895EF92FF920F9309
:1017F0001F93DF93CF930F92CDB7DEB789838B0111
:101800007A0184E0BE016F5F7F4F41E050E00E94AB
:10181000390984E4B801A7010E9439090F90CF91DA
:10182000DF911F910F91FF90EF90089582E048E0C3
:1018300050E00E94F50B0895FC0116821782108675
:1018400011861286138614823496BF010E94160CEC
:101850000895DC01683810F0685829C0E62FF0E0E0
:1018600067FF13C0E058F04081E090E002C0880FAD
:10187000991FEA95E2F7809514962C9114972823E6
:1018800014962C93149760E012C0ED59FD4F6491AB
:10189000662319F420E030E01DC067FF08C01496ED
:1018A0008C9114978D7F14968C9314976F77FD010C
:1018B00090E0662321F08681861709F416829F5FE7
:1018C00031969630B1F7CD011496BD010E94160CE9
:1018D00021E030E0C9010895CF93DF93DC0168383F
:1018E00010F0685825C0E62FF0E067FF12C0E058FE
:1018F000F04081E090E002C0880F991FEA95E2F77E
:1019000014962C911497282B14962C93149760E01E
:101910000FC0ED59FD4F64916623D9F167FF08C0F0
:1019200014968C911497826014968C9314976F7709
:1019300016968C9116978617A9F117968C91179782
:10194000861781F118968C911897861759F1199678
:101950008C911997861731F11A968C911A978617E0
:1019600009F11B968C911B978617E1F0ED01E0E0E1
:10197000F0E09E2F8E81882321F4EA0FFB1F6683FF
:1019800006C09F5F31962196E630F10591F79630BB
:1019900049F481E090E013969C938E93129720E097
:1019A00030E007C0CD011496BD010E94160C21E065
:1019B00030E0C901DF91CF91089580E865EE71E0D4
:1019C00045E650E00E94B4080895FC0180818F5FD5
:1019D000808380E86AE472E049E150E00E94B40844
:1019E0000895AA1BBB1B51E107C0AA1FBB1FA61766
:1019F000B70710F0A61BB70B881F991F5A95A9F7B8
:101A000080959095BC01CD010895EE0FFF1F0590C4
:0A1A1000F491E02D0994F894FFCF43
:101A1A00C101640000E100000000000001010000B3
:101A2A00000076073D0815073C0723079E07A20713
:0E1A3A0000000000CA0B3D086C0C290C1C0CAF
:00000001FF
