:1070000055C000006EC000006CC000006AC00000E7
:1070100068C0000066C0000064C0000062C00000DC
:1070200060C000005EC00000B8C400005AC000008C
:1070300058C0000056C0000054C0000052C00000FC
:1070400050C00000C6C000004CC000004AC0000094
:1070500048C0000046C0000044C0000042C000001C
:1070600040C000003EC000003CC000003AC000002C
:1070700038C0000036C0000034C0000032C000003C
:1070800030C000002EC000002CC000002AC000004C
:1070900028C0000026C0000024C0000022C000005C
:1070A00020C000001EC000001CC0000011241FBE34
:1070B000CFEFDAE0DEBFCDBF11E0A0E0B1E0EEEB54
:1070C000FEE702C005900D92A83AB107D9F711E08A
:1070D000A8EAB1E001C01D92AE3BB107E1F753D37E
:1070E000ECC68ECF84E08093E9000DC08091E8006B
:1070F0008B778093E80003C08EB3882359F080918A
:10710000E80082FFF9CF8091E80085FFEFCF809102
:10711000F100089580E0089593E09093E900909144
:10712000E80095FD0DC09091E8009E779093E800EF
:1071300003C09EB3992361F09091E80090FFF9CFCE
:107140008093F10084E690E09093AD018093AC01D0
:107150000895F89410926F001092810010928500AB
:107160001092840081E085BF15BE0C940000089544
:107170008091B2019091B30101969093B3018093F5
:10718000B201089584B7877F84BF88E10FB6F89471
:1071900080936000109260000FBE90E880E00FB610
:1071A000F89490936100809361000FBE81E085BFE9
:1071B00082E085BFE1E6F0E09083108210928900C2
:1071C0009AEF9093880080936F0083E08093810012
:1071D000CCC31F920F920FB60F9211242F938F934F
:1071E0009F93EF93FF9310928500109284008091FB
:1071F000AC019091AD01009729F001979093AD01FA
:107200008093AC018091AA019091AB01009729F085
:1072100001979093AB018093AA01E0E0F0E08591A3
:1072200094912FEF8F3F920749F08091A8019091A0
:10723000A90101969093A9018093A801FF91EF9174
:107240009F918F912F910F900FBE0F901F901895C7
:1072500082E061EC42E01CD383E061E842E118D3B4
:1072600084E060E842E114C38091B601982F9F77D3
:10727000913249F59091B7019032A1F0913219F510
:10728000813A09F58091E800877F8093E8008EE0DD
:1072900091E067E070E032D48091E8008B778093D2
:1072A000E8000895813279F48091E800877F809327
:1072B000E8008EE091E067E070E07FD48091E80024
:1072C0008E778093E80008954F925F926F927F923D
:1072D0008F929F92AF92BF92CF92DF92EF92FF92E6
:1072E0000F931F93CF93DF9384E08093E900809105
:1072F000E80082FF37C284E690E09093AB01809370
:10730000AA01F0DEC82F853481F48CE49DE19093CE
:10731000A9018093A80107B600FCFDCFF999FECF23
:1073200081E180935700E89503C0843519F4DADED3
:107330008DE0EEC18C34E1F38035D1F3843721F454
:1073400084E4EADE80E0E4C1813611F489E5E0C13D
:10735000813401F5C7DEC82FC5DE482F50E0440F49
:10736000551F662757FD6095762F3C2F330F20E081
:10737000C901AA2797FDA095BA2F482B592B6A2B34
:107380007B2B4093AE015093AF016093B00170939B
:10739000B101CECF803711F483E5BAC1833541F412
:1073A000C0E0D1E007E08991B7DE0150E1F7B1C15B
:1073B000863521F481E3B0DE80E3AAC1833731F45E
:1073C00087E8AADE85E9A8DE8EE1A2C18536B9F498
:1073D000E0E0F0E093E085E090935700E89507B691
:1073E00000FCFDCF80935700E89507B600FCFDCF69
:1073F000E058FF4F20E7E030F20771F799CF82376E
:1074000019F4E1E0F0E00EC0863419F4E0E0F0E0B9
:1074100009C08E3419F4E3E0F0E004C0813539F49A
:10742000E2E0F0E089E080935700849171C18236F8
:1074300031F489E571DE80E06FDE80E869C1823475
:1074400019F0873609F0DAC01092A9011092A8014C
:1074500049DEC82E47DE082F45DED82F85548230FE
:1074600008F055C13C2D20E010E0022B132B1092A8
:107470006F00C73609F045C081E180935700E89559
:10748000C0E0BB24B39438C0C090AE01D090AF012F
:10749000E090B001F090B101D634B9F4EC2FF0E0F7
:1074A000EC29FD29849138DECC2369F0D701C6018F
:1074B0000296A11DB11D8093AE019093AF01A093E0
:1074C000B001B093B101CB2515C0D701C601B69567
:1074D000A79597958795DBD41FDED701C601029645
:1074E000A11DB11D8093AE019093AF01A093B00197
:1074F000B093B101015010400115110509F0C4CF3E
:1075000079C04090AE015090AF016090B001709092
:10751000B101D63409F05AC083E0F20180935700DC
:10752000E89507B600FCFDCF51C0D63449F5CC2311
:1075300019F1C090AE01D090AF01E090B001F09091
:10754000B101D0DD982E88248B2D90E088299929CF
:10755000F6010C01A0925700E8951124D701C6014D
:107560000296A11DB11D8093AE019093AF01A0932F
:10757000B001B093B10102C0B5DDB82ECA2523C059
:10758000C090AE01D090AF01E090B001F090B10199
:10759000F694E794D794C794A5DD682FC6017FD4ED
:1075A0008091AE019091AF01A091B001B091B10175
:1075B0000296A11DB11D8093AE019093AF01A093DF
:1075C000B001B093B1010150104004C0BB24C0E031
:1075D000AA24A3940115110509F0A7CFD63441F4CC
:1075E00085E0F20180935700E89507B600FCFDCFD7
:1075F0008DE092DD82E080936F008BC0833471F464
:10760000C091AE01D091AF016DDD90E021E0FE01AF
:107610000C0120935700E89511248ACE8336A9F4F3
:10762000C090AE01D090AF01E090B001F090B101F8
:1076300059DDF601E16090E021E00C012093570054
:10764000E8951124D701C60134C08D3661F4E0916C
:10765000AE01F091AF0185E080935700E89507B641
:1076600000FCFDCF65CE823551F4E091AE01F09182
:10767000AF01C591D4918D2F4FDD8C2F49C084343B
:1076800021F5C090AE01D090AF01E090B001F09034
:10769000B101F694E794D794C79424DD682FC6010E
:1076A000FED38091AE019091AF01A091B001B09155
:1076B000B1010296A11DB11D8093AE019093AF015F
:1076C000A093B001B093B10133CE8436F1F4C090F1
:1076D000AE01D090AF01E090B001F090B101D701C0
:1076E000C601B695A79597958795D1D315DDD70196
:1076F000C6010296A11DB11D8093AE019093AF010A
:10770000A093B001B093B10104C08B3111F08FE3AD
:1077100003DD83E08093E9009091E8008091E80028
:107720008E778093E80095FF04C010C08EB3882345
:10773000C9F08091E80080FFF9CF8091E8008E7752
:107740008093E80003C08EB3882361F08091E80045
:1077500080FFF9CF84E08093E9008091E8008B7787
:107760008093E800DF91CF911F910F91FF90EF90F0
:10777000DF90CF90BF90AF909F908F907F906F9051
:107780005F904F9008954091000850910108109229
:1077900001081092000824B714BE88E10FB6F894CF
:1077A00080936000109260000FBE26982E9A30E001
:1077B000F901E270F07021FD1CC01E9B1AC020FF71
:1077C00006C0859194916FEF8F3F960789F423FF50
:1077D00010C080910B0190910C014817590749F096
:1077E000E0E0F0E0859194912FEF8F3F920709F050
:1077F000B0DCC8DC78941092A9011092A8010DC0E9
:1078000063DD33D38091A8019091A9016FE18134A8
:10781000960710F010920D01ABDC80910D018823CA
:1078200079F78091E00081608093E00092DC80E055
:1078300090E00895923029F0933041F0913061F456
:1078400010C08EE390E027E531E01EC0882371F080
:10785000813089F08230A1F080E090E020E030E0DB
:1078600013C082E190E025E931E00EC084E090E0B1
:1078700023E531E009C082E290E02FE231E004C06C
:1078800088E190E025E131E0FA0131832083089519
:107890008093E900EBEEF0E0808181608083EDEE83
:1078A000F0E010826093EC0040838091EE00881F2E
:1078B0008827881F08958091B60187FF11C003C0F3
:1078C0008EB38823B1F08091E80082FFF9CF8091D8
:1078D000E8008B778093E80008958EB3882349F001
:1078E0008091E80080FFF9CF8091E8008E77809347
:1078F000E80008950F931F93CF93DF9341D048D0B2
:10790000C8EDD0E088818F778883888180688883FC
:1079100088818F7D888319BC1EBA1092B40100EE55
:1079200010E0F80180818B7F80838881816088836B
:1079300080E060E042E0ACDFE1EEF0E080818E7F4D
:107940008083E2EEF0E080818160808380818860C6
:107950008083F80180818E7F808388818061888325
:10796000DF91CF911F910F910895E7EDF0E08081B5
:10797000816080838AE482BF81E08093B501BACFC1
:10798000E8EDF0E080818E7F80831092E200089520
:107990001092DA001092E10008951F920F920FB634
:1079A0000F9211242F933F934F935F936F937F9385
:1079B0008F939F93AF93BF93EF93FF938091DA00E0
:1079C00080FF1BC08091D80080FF17C08091DA0033
:1079D0008E7F8093DA008091D90080FF0BC080E118
:1079E00089BD82E189BD09B400FEFDCF81E08EBB77
:1079F0003BD203C019BC1EBA37D28091E10080FF90
:107A000017C08091E20080FF13C08091E2008E7F5A
:107A10008093E2008091E20080618093E200809197
:107A2000D80080628093D80019BC85E08EBB1CD240
:107A30008091E10084FF2CC08091E20084FF28C087
:107A400080E189BD82E189BD09B400FEFDCF80914E
:107A5000D8008F7D8093D8008091E1008F7E809345
:107A6000E1008091E2008F7E8093E2008091E2004D
:107A700081608093E2008091B401882321F4809199
:107A8000E30087FF02C084E001C081E08EBBECD13F
:107A90008091E10083FF21C08091E20083FF1DC03F
:107AA0008091E100877F8093E10082E08EBB10929D
:107AB000B4018091E1008E7F8093E1008091E2002B
:107AC0008E7F8093E2008091E20080618093E200EB
:107AD00080E060E042E0DCDEC7D1FF91EF91BF9132
:107AE000AF919F918F917F916F915F914F913F9156
:107AF0002F910F900FBE0F901F9018954091BC01D1
:107B00005091BD014617570720F4BA01FC0140E02F
:107B10003BC061157105D1F74091E8004E77409365
:107B2000E800F4CF8EB3882309F443C08530E9F12F
:107B30008091E80083FD3BC08091E80082FD2FC06A
:107B40008091E80080FF20C09091F3008091F200C6
:107B5000392F20E090E0822B932B06C04191409377
:107B6000F1006150704001966115710519F088307F
:107B70009105A0F341E08830910509F040E0809143
:107B8000E8008E778093E8006115710559F644236B
:107B900049F605C08EB3882361F0853061F080918D
:107BA000E80082FFF7CF80E0089583E0089581E048
:107BB000089582E0089583E008956115710529F420
:107BC0004091E8004B774093E800582F492F2AC096
:107BD0008EB38823D1F18530A1F18091E80083FD37
:107BE00032C08091E80082FFF3CFE52FF42F08C068
:107BF0008091F10081935E2F4F2F6150704069F0AA
:107C00005E2F4F2F9091F3008091F200392F20E0EA
:107C100090E0822B932B009759F78091E8008B77A7
:107C20008093E8006115710599F605C08EB388232D
:107C300061F0853061F08091E80080FFF7CF80E04F
:107C4000089583E0089581E0089582E0089583E037
:107C500008950F931F93CF93DF9300D0CDB7DEB776
:107C600088E0E6EBF1E09091F10091938150D9F733
:107C7000FBDA8091E80083FFE2C08091B601909129
:107C8000B701953009F46BC0963040F4913061F142
:107C9000913070F0933009F0D2C026C0983009F4CA
:107CA000A1C0993009F4B0C0963009F0C8C07AC0BC
:107CB000803809F4C4C0823809F0C1C08091BA018B
:107CC00087708093E9009091EB001092E900809119
:107CD000E800877F8093E80081E095FF80E0809353
:107CE000F1001092F10089C0882319F0823009F068
:107CF000A6C08F71823009F0A2C08091B80188239C
:107D000041F52091BA01277009F499C02093E90048
:107D10008091EB0080FF1DC08091B701833021F47A
:107D20008091EB00806213C08091EB0080618093B2
:107D3000EB0081E090E002C0880F991F2A95E2F7DE
:107D40008093EA001092EA008091EB0088608093B3
:107D5000EB001092E9008091E800877F51C08823F2
:107D600009F06DC01091B8011F770FB7F89480919A
:107D7000E800877F8093E8009EDD8091E80080FF27
:107D8000FCCF8091E3008078812B8093E3008068B2
:107D90008093E300112311F083E001C082E08EBBE9
:107DA0000FBF4DC08058823008F049C08091B801A3
:107DB0009091B9016091BA01AE014F5F5F4F3ADD1A
:107DC000BC01009709F43BC08091E800877F809355
:107DD000E80089819A8192DE8091E8008B77809318
:107DE000E8002DC0803859F58091E800877F8093A6
:107DF000E8008091B4018093F1008091E8008E77D3
:107E00008093E80058DD1BC08823C9F49091B80125
:107E10009230A8F48091E800877F8093E8009093E7
:107E2000B40149DD8091B401882321F48091E300FD
:107E300087FF02C084E001C081E08EBB09DA809137
:107E4000E80083FF0AC08091EB0080628093EB0022
:107E50008091E800877F8093E8000F900F90DF917A
:107E6000CF911F910F9108950895CF938EB38823DA
:107E700061F0C091E900C7701092E9008091E800BC
:107E800083FF01C0E6DEC093E900CF910895F99920
:107E9000FECF92BD81BDF89A992780B50895262F0F
:107EA000F999FECF1FBA92BD81BD20BD0FB6F894DF
:0E7EB000FA9AF99A0FBE01960895F894FFCF42
:107EBE004341544552494E41000008777701000076
:107ECE000000000008180342006C0069006E006B91
:107EDE000069006E006C00610062007300000022F9
:107EEE000342006C0069006E006B00790054006163
:107EFE0000700065002000200020002000200020DF
:107F0E000000000403090409023E00020100803251
:107F1E0009040000010202010005240010010424DE
:107F2E0002040524060001070582030800FF090468
:107F3E000100020A000000070504021000010705F7
:107F4E0083021000011201100102000008501D6C86
:087F5E006001000201000100B6
:100000000C94D7000C94FF000C94FF000C94FF009C
:100010000C94FF000C94FF000C94FF000C94FF0064
:100020000C94FF000C9482020C9481110C945F10CC
:100030000C94FF000C94FF000C94FF000C94FF0044
:100040000C94FF000C94FF000C94FF000C94FF0034
:100050000C94FF000C94FF000C94FF000C94430CD4
:100060000C94FF000C94FF000C94FF000C94FF0014
:100070000C94FF000C94FF000C94FF000C94FF0004
:100080000C94FF000C94FF000C94FF000C94FF00F4
:100090000C94FF000C94FF000C94FF000C94FF00E4
:1000A0000C94FF000C94CD020C94FF0005A84CCDDD
:1000B000B2D44EB93836A9020C50B9918688083CA2
:1000C000A6AAAA2ABE000000803F04080201104030
:1000D00080401020408040800802040180402010B1
:1000E00002011080102040400404040404030405AD
:1000F00002020202040302020202060606060606C5
:1001000004040202020400000000250028002B0065
:100110002E00310000000000240027002A002D00DE
:100120003000080B00020202010009040000010275
:10013000020000052400100105240101010424022D
:10014000060524060001070581031000400904018B
:1001500000020A00000007050202400000070583B4
:100160000240000000C18081120100020200004034
:10017000501D5E600001010200011201000200003A
:100180000040501D5E60000101020001426C696E7A
:100190006B696E6C61627300426C696E6B7954615D
:1001A0007065000403090400DD063B0C360E1124C3
:1001B0001FBECFEFDAE0DEBFCDBF11E0A0E0B1E0BF
:1001C000EAEAFBE202C005900D92A037B107D9F729
:1001D00025E0A0E7B1E001C01D92AD3AB207E1F71A
:1001E00011E0CEEAD1E004C02297FE010E9433154F
:1001F000C83AD107C9F70E94540E0C94D3150C9439
:100200000000FC0117861686118A108A138A128A4A
:1002100008954F925F926F927F92AF92BF92CF926A
:10022000DF92EF92FF920F931F93CF93DF93EC0136
:100230008B01A12CB12CB50180E090E00E941C1331
:100240006B017C0120E030E040E05FE30E94D213CC
:100250002B013C016E857F85882777FD8095982F3F
:100260000E941E1320E030E040E85EE30E94D213BB
:100270009B01AC01C301B2010E941B120E94351404
:1002800020E030E040E85FE30E941B1220E030E015
:1002900040E852E40E94D2132A813B814C815D8167
:1002A0000E94D2130E94F012F80160836889798954
:1002B000882777FD8095982F0E941E1320E030E05C
:1002C00040E151E40E9483129B01AC01C701B601D9
:1002D0000E941B1226E636E646E050E40E941B12FE
:1002E0000E94351420E030E040E85FE30E941B12DA
:1002F00020E030E040E852E40E94D2132E813F819A
:10030000488559850E94D2130E94F012F80161833A
:1003100020E030E040E450E4C701B6010E948312BF
:100320006B017C016A897B89882777FD8095982FEE
:100330000E941E1320E030E040E651E40E94831248
:100340009B01AC01C701B6010E941B1226E636E6EE
:1003500046E850E40E941B120E94351420E030E071
:1003600040E85FE30E941B1220E030E040E852E4E6
:100370000E94D2132A853B854C855D850E94D2134D
:100380000E94F012F8016283FFEFAF1ABF0A0D5FFF
:100390001F4F80E4A816B10409F04DCF8E859F85CC
:1003A00001969F878E87888999890196998B888B7A
:1003B0008A899B8902969B8B8A8BDF91CF911F91B3
:1003C0000F91FF90EF90DF90CF90BF90AF907F9014
:1003D0006F905F904F900895CF92DF92EF92FF92CF
:1003E0000F931F93FC0188E391E091838083428304
:1003F0005383648375830683178320873187C2867E
:10040000D386E486F5861F910F91FF90EF90DF90E1
:10041000CF9008950895FC0120E030E08281DB0157
:10042000A20FB31F8C93838111968C9311978481B3
:1004300012968C932D5F3F4F203C310579F708953C
:10044000FC01DB0180E491E0918380838C918283C5
:1004500011968C911197838312968C9184830895C1
:100460003F9A089520916A042A3058F4E22FF0E070
:10047000EE0FFF1FEA5AFB4F918380832F5F20937B
:100480006A040895CF93C82F8A3040F5682F82E020
:1004900090E00E94BD15C0936B04EC2FF0E0EE0FCE
:1004A000FF1FEA5AFB4F80819181DC01ED91FC91A5
:1004B0000280F381E02D09950E948D0C60937A04EF
:1004C00070937B0480937C0490937D041092760457
:1004D000109277041092780410927904CF910895C5
:1004E000E0916B04F0E0EE0FFF1FEA5AFB4F8081B2
:1004F0009181DC01ED91FC910190F081E02D6EE79E
:1005000074E009941F920F920FB60F9211242F934B
:100510003F934F935F936F937F938F939F93AF938B
:10052000BF93EF93FF9383B186FB882780F991E017
:100530008927809375048823E9F00E948D0C6093CD
:1005400070047093710480937204909373041092FA
:1005500074048FE08093C10083E08093C30080E146
:100560008093D1001092BF001092BE0084E080936F
:10057000720002C010927200FF91EF91BF91AF9193
:100580009F918F917F916F915F914F913F912F91AB
:100590000F900FBE0F901F9018951F920F920FB6DD
:1005A0000F9211240F931F932F933F934F935F93B9
:1005B0006F937F938F939F93AF93BF93EF93FF932B
:1005C00080917404811113C081E080937404809140
:1005D0000B0180930A0190E0019687709927809320
:1005E0000B01FC01E45FFE4F8081809348050E946F
:1005F0008D0C00917004109171042091720430915F
:100600007304601B710B820B930B60936C047093EB
:100610006D0480936E0490936F04693E734081056E
:100620009105FCF0E0910A01E0930B01F0E0E45F3A
:10063000FE4F80818093480580916B0490E0019685
:1006400060916A0470E00E94DC140E9442020E94E1
:100650008D0C609370047093710480937204909376
:100660007304FF91EF91BF91AF919F918F917F9113
:100670006F915F914F913F912F911F910F910F902B
:100680000FBE0F901F90189540E051EE60E070E0B3
:1006900084E595E00E94300E80918201811145C071
:1006A00010927401109273018FEF80937701809301
:1006B00078018093790180937A0180937B01809304
:1006C0007C0181E080937D0110927F0110927E0178
:1006D0001092760110927501809146059091470520
:1006E000892B31F481E791E090934705809346058B
:1006F000E0914405F0914505309721F081E791E0C4
:100700009583848381E791E0909345058093440528
:10071000109281011092800188E491E0909372011F
:100720008093710181E08093820120E030E040E419
:1007300050E06EE774E081E791E00E94690B84E08D
:1007400080930B01609110016093480588E495E067
:100750000E94E60B62E08AE00E943A0D62E08BE1C3
:100760000E943A0D62E087E00E943A0D62E08BE061
:100770000E943A0DD89A80916B00806480936B0040
:100780008091680081608093680080E494E00E941A
:1007900032028AE294E00E94320280E294E00E94F7
:1007A00032028AE891E00E9432028BE194E00E94DA
:1007B000320280E090E00E94B515823131F481E090
:1007C00090E00E94B515843381F062E180E090E012
:1007D0000E94BD1564E380E090E00E94BD15109278
:1007E0006B0480916B040C94420282E090E00E94C2
:1007F000B51580936B0490916A04891780F7F1CF47
:10080000FF920F931F93CF93DF93EC0180917001C0
:100810008F5F982F97709093700180FD02C080E0E9
:1008200001C080E891FD8064947009F0806260E10D
:10083000F62EF80E20E030E000E011E0FE01E20FBD
:10084000F31F6285662331F070E0C8010E94DC145A
:100850006F5F01C060E067834F2D469F412D1124DB
:100860004483662311F0615067832F5F3F4F23302D
:10087000310521F7DF91CF911F910F91FF900895DE
:100880002F923F924F925F926F927F928F929F92A0
:10089000AF92BF92CF92DF92EF92FF920F931F938E
:1008A000CF93DF93CDB7DEB761970FB6F894DEBF75
:1008B0000FBECDBF6C015A01F901DC011C968C9171
:1008C0007A8369835C834B8390819B8791819C872A
:1008D00092819D87813029F4CE0101960E94000407
:1008E00006C01A86198618861F821E821D8289817B
:1008F0009A818E0D911D9A838983002319F083E0DC
:100900008E0D01C080E08E870E94990CF60127852C
:100910003089621B730B62337105B0F3F894E9817F
:10092000FA8188B1479859848E81452D481B4E83A2
:100930007181772321F0740F08F47FEF01C070E01C
:100940002C85729F712D11248E85AB81BC819B8576
:100950003D856D80688A7F80798A38844A84E12C5D
:100960001F86212CF12C3D0161E0661A7108AB2B2A
:1009700009F499C1052D041B402F132D5889151B0F
:10098000188B642D0989601B698B98B0192D10682C
:10099000912E88B0582D5F77852ED301122D0F85AB
:1009A0007888662E6F2D5E2D98B800C077FF88B8C6
:1009B00060811127889400C000C0002C88B86111A4
:1009C000670D00C0002C98B800C076FF88B808F406
:1009D0006FEF889400C000C000C088B890FD160F6B
:1009E00000C0002C98B800C075FF88B8179588948F
:1009F00091FD160F00C000C0002C88B81795889490
:100A000000C0002C98B800C074FF88B892FD160F83
:100A10001795889400C000C0002C88B893FD160F6D
:100A200000C0002C98B800C073FF88B81795889450
:100A300094FD160F00C000C0002C88B8179588944C
:100A400000C0002C98B800C072FF88B895FD160F42
:100A50001795889400C000C0002C88B896FD160F2A
:100A600000C0002C98B800C071FF88B81795889412
:100A700097FD160F00C000C0002C88B81795889409
:100A800000C0002C98B800C070FF88B800C000C03B
:100A9000002C00C000C088B800C000C0002C98B86E
:100AA00000C017FF88B862810027889400C000C08A
:100AB000002C88B86111660D00C0002C98B800C0E9
:100AC00016FF88B808F46FEF889400C000C000C01B
:100AD00088B830FD060F00C0002C98B800C015FF84
:100AE00088B80795889431FD060F00C000C0002C1F
:100AF00088B80795889400C0002C98B800C014FFEF
:100B000088B832FD060F0795889400C000C0002CFD
:100B100088B833FD060F00C0002C98B800C013FF42
:100B200088B80795889434FD060F00C000C0002CDB
:100B300088B80795889400C0002C98B800C012FFB0
:100B400088B835FD060F0795889400C000C0002CBA
:100B500088B836FD060F00C0002C98B800C011FF01
:100B600088B80795889437FD060F00C000C0002C98
:100B700088B80795889400C0002C98B800C010FF72
:100B800088B8E80FF11D889400C000C000C088B884
:100B900000C000C0002C98B800C007FF88B8618171
:100BA0007727889400C000C0002C88B86111640FBA
:100BB00000C0002C98B800C006FF88B808F46FEF9A
:100BC000889400C000C000C088B820FD760F00C027
:100BD000002C98B800C005FF88B87795889421FD4F
:100BE000760F00C000C0002C88B87795889400C0AC
:100BF000002C98B800C004FF88B822FD760F7795C6
:100C0000889400C000C0002C88B823FD760F00C077
:100C1000002C98B800C003FF88B87795889424FD0D
:100C2000760F00C000C0002C88B87795889400C06B
:100C3000002C98B800C002FF88B825FD760F779584
:100C4000889400C000C0002C88B826FD760F00C034
:100C5000002C98B800C001FF88B87795889427FDCC
:100C6000760F00C000C0002C88B87795889400C02B
:100C7000002C98B800C000FF88B800C000C0002C4D
:100C800000C000C00F87F62E788A698A612F1F2D59
:100C900088B8698A788AE52EF12E0F87262E00C043
:100CA00000C0002C60CE20EE31E0D5010E94371547
:100CB0006130A0E47A0781059105B0F000914C0500
:100CC00010914D0520914E0530914F05DC01CB016F
:100CD0007EE0B695A795979587957A95D1F7800F81
:100CE000911FA21FB31F0BC080914C0590914D0521
:100CF000A0914E05B0914F050196A11DB11D8093A5
:100D00004C0590934D05A0934E05B0934F057894F4
:100D10000E94990CF601708B678761960FB6F89464
:100D2000DEBF0FBECDBFDF91CF911F910F91FF901E
:100D3000EF90DF90CF90BF90AF909F908F907F907B
:100D40006F905F904F903F902F900895EF92FF9299
:100D50000F93E12CF12C00E00E9440040F91FF90D2
:100D6000EF900895EF92FF920F93E12CF12C01E0A8
:100D70000E9440040F91FF90EF900895EF92FF9230
:100D80000F93CF93DF9300D01F92CDB7DEB7AB01A7
:100D900019821A821B82E12CF12C00E09E012F5F48
:100DA0003F4FB9010E9440040F900F900F90DF91C8
:100DB000CF910F91FF90EF900895CF92DF92EF9235
:100DC000FF920F931F93CF93DF9300D01F92CDB765
:100DD000DEB7C12CD12CE0E8EE2EEFE3FE2E97011A
:100DE0008601B701A60180E494E00E94EC0197011E
:100DF00086014DEC5CEC6CE47EE38AE294E00E94B8
:100E0000EC011FEF19831A821B82AE014F5F5F4F07
:100E100064E070E080E294E00E94010819831A8384
:100E20001B83BE016F5F7F4F8BE194E00E94200225
:100E300060E08AE891E00E94110B0F900F900F90F4
:100E4000DF91CF911F910F91FF90EF90DF90CF90A6
:100E500008958F929F92AF92BF92CF92DF92EF92BE
:100E6000FF9284E595E00E949D0D1816190624F462
:100E70008EE794E00E9413080E9470020E948D0C7D
:100E8000C0907A04D0907B04E0907C04F0907D04C4
:100E90006C197D098E099F096031710581059105E5
:100EA00080F020E030E048E452E4609176047091F4
:100EB000770480917804909179040E947F1287FDD5
:100EC0000EC06091480588E495E0FF90EF90DF90B8
:100ED000CF90BF90AF909F908F900C94E60B0E94A4
:100EE0008D0C60937A0470937B0480937C049093C0
:100EF0007D0420E030E040E85FE36091760470918B
:100F0000770480917804909179040E941B126B0100
:100F10007C016093760470937704809378049093B7
:100F20007904E0910B01F0E0E45FFE4F608170E036
:100F300080E090E00E941E134B015C0120E030E055
:100F400048E452E4C701B6010E9483129B01AC0140
:100F5000C501B4010E94D2130E94F01260934805AB
:100F6000B0CF22E030E0FC013087278321E02187E9
:100F70000895FC01DB0180E090E0478150858417F3
:100F8000950790F022813381240F351F8217930734
:100F900058F424812C93258111962C931197268146
:100FA00012962C93129707C01C9211961C921197BF
:100FB00012961C9212970196139680349105E9F6C9
:100FC000218587819085211102C0019601C001977A
:100FD000908787832781308580E490E04281538128
:100FE000841B950B8217930718F481E0818703C057
:100FF000232B09F411866EE170E080E090E00C9400
:10100000BC0CFC01DA0184E591E091838083738359
:1010100062838C91848311968C91119785831296AB
:101020008C9186830895CF93DF9300D01F92CDB724
:10103000DEB77C01D12C84E595E00E949D0D181649
:101040001906CCF784E595E00E94AD0D8F3F59F469
:101050006091480588E495E00E94E60B90E000E08E
:1010600010E0D92EE8CF91E09D0DE1E0F0E0EC0F2B
:10107000FD1FED0DF11D8083933099F700341105AC
:1010800010F090E0EECF8B819A81F801EE0FFF1FF8
:10109000E00FF11FEE0DFF1D2981208391838283D4
:1010A0000F5F1F4FEECF2F923F924F925F926F9242
:1010B0007F928F929F92AF92BF92CF92DF92EF92E8
:1010C000FF920F931F93CF93DF93CDB7DEB7639754
:1010D0000FB6F894DEBF0FBECDBF1C018C010E57BA
:1010E0001F4F6A8B7B8B9C01205C3F4F398B288B79
:1010F0008D579D4F9F838E83D101AE57BD4FB987CA
:10110000A887F101EB57FD4FFB87EA87275B3D4F2F
:101110003D872C870A969F878E87D10112966C9106
:10112000EE81FF81F081F983A885B9857C9021014A
:10113000B2E44B0E511CF2018081813009F07FC076
:1011400070E080E090E00E941E136B017C01D801EA
:101150008D919D910D90BC91A02D8A839B83AC8332
:10116000BD83A7019601BC01CD010E947F1287FFBC
:1011700063C0B9816B2F70E080E090E00E941C1387
:101180004B015C019B01AC01C701B6010E948312B7
:101190006B017C01672D70E080E090E00E941C13E1
:1011A0002B013C012FE832EC45E75CE30E94D213AF
:1011B000A70196010E94D213A70196010E94D213A3
:1011C000A70196010E94D213A70196010E94D21393
:1011D0009B01AC01C501B4010E94D2139B01AC017B
:1011E000C301B2010E941B120E94EB12882777FDF7
:1011F0008095982F0E941E139B01AC016A817B8110
:101200008C819D810E941B126B017C01E9816E2FF4
:1012100070E080E090E00E941E139B01AC01C701CA
:10122000B6010E94CE1318160CF043C0F80180825C
:101230009182A282B38249C0F2011082D3C0D80148
:101240008D909D90AD90BC9020E030E0A901C5014B
:10125000B4010E94CE13F801F3957F01272D30E0F1
:1012600018160CF06AC0B901882777FD8095982F71
:101270000E941E132B013C019B01AC01D7016D9113
:101280007D918D919C910E941A12F7016083718368
:1012900082839383A3019201C501B4010E941A12B3
:1012A0006B017C0120E030E0A9010E947F1287FDE4
:1012B00007C0D801CD92DD92ED92FC92139705C044
:1012C000F8011082118212821382AA85BB852D91AA
:1012D0003D914D915C91F801608171818281938192
:1012E0000E94D2130E94EB12AA89BB896C93EC85F1
:1012F000FD852081318142815381D8016D917D919D
:101300008D919C910E94D2130E94EB12EA89FB8975
:101310006183AE85BF852D913D914D915C91F80122
:1013200060817181828193810E94D2130E94EB12AD
:10133000AA89BB8912966C9355C0B901882777FD9D
:101340008095982F0E941E139B01AC01F7016081CC
:101350007181828193810E941A12D7016D937D93CE
:101360008D939C93139720E030E0A9010E947F1297
:1013700087FF38C021E0F20120833981632F70E0BC
:1013800080E090E00E94F511D10112966C93E885FF
:10139000F9858081869590E0860F911DBC01882794
:1013A00077FD8095982F0E941E134B015C01AE8142
:1013B000BF816C9170E080E090E00E94F5110E9486
:1013C0001E1320E030E040E05FE30E94D2139B0157
:1013D000AC01C501B4010E941B12F7016083718347
:1013E00082839383FFEF2F1A3F0A0C5F1F4F2A89D6
:1013F0003B892D5F3F4F3B8B2A8B88899989281623
:10140000390609F08ACE6EE170E080E090E06396E4
:101410000FB6F894DEBF0FBECDBFDF91CF911F9105
:101420000F91FF90EF90DF90CF90BF90AF909F9083
:101430008F907F906F905F904F903F902F900C9483
:10144000BC0CCF93DF93EC01CB57DD4FDC01A757EA
:10145000BD4FFC01E357FD4F61110EC040E050E06D
:1014600060E87FE3488359836A837B834D935D9370
:101470006D937C93139745C0613011F5409128011D
:101480005091290160912A0170912B014883598361
:101490006A837B834091240150912501609126014C
:1014A000709127014D935D936D937C9313974091B9
:1014B000200150912101609122017091230121C0EE
:1014C00040911C0150911D0160911E0170911F01FE
:1014D000488359836A837B83409118015091190195
:1014E00060911A0170911B014D935D936D937C93F4
:1014F000139740911401509115016091160170915C
:1015000017014083518362837383DF91CF910895E4
:101510002F923F924F925F926F927F928F929F9203
:10152000AF92BF92CF92DF92EF92FF920F931F93F1
:10153000CF93DF93EC017C0100E010E06C012DE71C
:10154000C21A2DEFD20A4C018EE7881A8DEF980A45
:10155000F701EE57FF4F1082118212821382F601BB
:10156000608170E080E090E00E94F511962F5E01AE
:10157000A00EB11EF5016283F40180818695682F6B
:1015800070E0690F711D882777FD8095982F0E9464
:101590001E132B013C01F601608170E080E090E0B9
:1015A0000E94F5111701FEE72F1AFEEF3F0A0E9475
:1015B0001E1320E030E040E05FE30E94D2139B0165
:1015C000AC01C301B2010E941B12F101608371835F
:1015D00082839383F501EE5BFF4F21E020830F5F51
:1015E0001F4F84E0E80EF11C0034110509F0B0CF64
:1015F000FE01EC57FD4F6081CE01DF91CF911F912D
:101600000F91FF90EF90DF90CF90BF90AF909F90A1
:101610008F907F906F905F904F903F902F900C94A1
:10162000210A2CE531E0FC0131832083EE57FD4F88
:1016300025E0208331962FEF208331966083089533
:10164000CF92DF92EF92FF920F931F93CF93DF938E
:10165000FC018B01108211821282442381F1C0E0CF
:10166000D0E0C42ED12CE12CF12CD801AC0FBD1F41
:1016700016962C91169719966C912223E1F0662309
:10168000D1F030E040E050E02F5F3F4F4F4F5F4FD1
:1016900070E080E090E06F5F7F4F8F4F9F4F0E9420
:1016A000B8149B01AC01C701B6010E94B814DF0158
:1016B000AC0FBD1F8C932196C330D105B1F6CF017D
:1016C000DF91CF911F910F91FF90EF90DF90CF901E
:1016D0000895CF92DF92EF92FF920F931F93CF93D3
:1016E000DF93EC016B018A017901121613061CF0DD
:1016F0007A0100E010E0E881F9810480F581E02DB5
:10170000CE010995C801880F991F800F911F8C0D7C
:101710009D1D9B838A83FE86ED86CE01DF91CF914E
:101720001F910F91FF90EF90DF90CF900895CF928F
:10173000DF92EF92FF92CF93DF93EC01809142050D
:10174000909143059C012F5F3F4F309343052093B9
:101750004205861797079CF10E948D0C9B01AC01F6
:10176000E0914205F091430588EE93E0E89FB001D7
:10177000E99F700DF89F700D1124882777FD8095E3
:10178000982FC0903E05D0903F05E0904005F09026
:1017900041052C193D094E095F090E94F0143A8356
:1017A000298310924305109242050E948D0C60938C
:1017B0003E0570933F058093400590934105DF916E
:1017C000CF91FF90EF90DF90CF900895AF92BF92AE
:1017D000CF92DF92EF92FF920F931F93CF93DF93FD
:1017E00000D01F92CDB7DEB77C01B62E0091460522
:1017F000109147050115110559F1D8011C96AC90BF
:101800001C97F701818192818436910510F41C9612
:101810001C92D801ED91FC91C280D3804B2DB80170
:10182000CE0101960E94200BF80145855685628104
:1018300073819E012F5F3F4FC801F6010995D801C2
:101840001C96AC921C9714960D911C911597D2CFB3
:1018500069E170E0C7010E94970B0F900F900F9005
:10186000DF91CF911F910F91FF90EF90DF90CF907C
:10187000BF90AF9008958FEF8093480510924A056E
:101880001092490508951F920F920FB60F921124DE
:101890002F933F938F939F93AF93BF9380914C056A
:1018A00090914D05A0914E05B0914F0530914B059B
:1018B00023E0230F2D3720F40196A11DB11D05C093
:1018C00026E8230F0296A11DB11D20934B0580939E
:1018D0004C0590934D05A0934E05B0934F05809114
:1018E000500590915105A0915205B0915305019674
:1018F000A11DB11D8093500590935105A0935205F1
:10190000B0935305BF91AF919F918F913F912F91CC
:101910000F900FBE0F901F9018952FB7F8946091FD
:101920004C0570914D0580914E0590914F052FBF4C
:1019300008953FB7F8948091500590915105A0917A
:101940005205B091530526B5A89B05C02F3F19F04D
:101950000196A11DB11D3FBF6627782F892F9A2FB1
:10196000620F711D811D911D42E0660F771F881F58
:10197000991F4A95D1F70895CF92DF92EF92FF9287
:10198000CF93DF936B017C010E94990CEB01C11492
:10199000D104E104F10489F00E9419120E94990C0B
:1019A0006C1B7D0B683E734090F381E0C81AD10830
:1019B000E108F108C851DC4FEACFDF91CF91FF90E9
:1019C000EF90DF90CF900895789484B5826084BDC5
:1019D00084B5816084BD85B5826085BD85B5816033
:1019E00085BDEEE6F0E0808181608083E1E8F0E093
:1019F0001082808182608083808181608083E0E8C2
:101A0000F0E0808181608083E1E9F0E080818260A4
:101A10008083808181608083E0E9F0E08081816063
:101A20008083E1ECF0E0808184608083808182604B
:101A30008083808181608083E3ECF0E0808181603D
:101A40008083E0ECF0E0808182608083E2ECF0E073
:101A5000808181608083EAE7F0E080818460808318
:101A600080818260808380818160808380818068C2
:101A700080830895CF93DF9390E0FC01E653FF4FFE
:101A80002491FC01E851FF4F8491882349F190E0B3
:101A9000880F991FFC01EC5EFE4FA591B4918A5FFF
:101AA0009E4FFC01C591D4919FB7611108C0F89475
:101AB0008C91209582238C93888182230AC0623086
:101AC00051F4F8948C91322F309583238C93888134
:101AD000822B888304C0F8948C91822B8C939FBFB7
:101AE000DF91CF910895CF93DF931F92CDB7DEB7EB
:101AF0006983DC01ED91FC910280F381E02D41E0EE
:101B000050E0BE016F5F7F4F09950F90DF91CF913D
:101B10000895CF93DF93EC018C859D8597FF05C0D9
:101B200082E00E94380F9D878C878C859D85DF9190
:101B3000CF91089583E00C947711FC0184859585FD
:101B400097FD06C082E00E94E00E90E001960895A5
:101B500082E00E94E00E90E00895FC018485958566
:101B600097FD05C02FEF3FEF35872487089582E06A
:101B70000C94380FCF93DF93EC01809133018823CD
:101B800031F083E00E94690F1816190634F081E0E5
:101B900090E09B838A8380E090E0DF91CF9108956D
:101BA000FC0120812E5F208342E450E062E271E07C
:101BB00080E80C940410FC0181819081913A59F4E1
:101BC000813209F03CC047E050E06CE271E080E017
:101BD0000E94041043C0913291F5803239F467E0DD
:101BE00070E08CE291E00E94351006C0823209F06C
:101BF00035C082818093330180912C0190912D0119
:101C0000A0912E01B0912F01803B9440A105B10518
:101C1000C1F48091330180FD14C087E797E790936A
:101C20000108809300082BE088E190E00FB6F8945B
:101C3000A895809360000FBE209360000FC080E0E5
:101C4000089588E10FB6F8948093600010926000C8
:101C50000FBEA895109201081092000881E0089527
:101C60002FEF3FEFFC013587248708951092570529
:101C70001092560588EE93E0A0E0B0E080935805FE
:101C800090935905A0935A05B0935B0584E691E0C3
:101C900090935505809354058FEF9FEF90936105C6
:101CA00080936005089508950E94E40C0E94530EED
:101CB00084EA95E00E94D7110E944403C0E0D0E07E
:101CC0000E9429072097E1F30E940000F9CF40917C
:101CD000A8055091A9052091A6053091A7054217A6
:101CE0005307B4F49091E8009570E1F39091E80007
:101CF00092FD19C08093F1008091A8059091A905EB
:101D000001968F739927892B19F48EEF8093E80041
:101D10008091A8059091A90501969093A9058093BB
:101D2000A80581E0089580E00895CF92DF92FF92A8
:101D30000F931F93CF93DF931F92CDB7DEB7082F7A
:101D4000162F862F880F8E5F99830E94670E83E07F
:101D50000E94670EF02EC02E9981D92E8C2D8F19DE
:101D6000811778F4F60184910E94670E082F80E0B5
:101D70000E94670E8023FFEFCF1ADF0A8111EECF9A
:101D800001C081E00F90DF91CF911F910F91FF90E3
:101D9000DF90CF900895615030F02091F100FC0168
:101DA00020830196F8CF289884E68093AB050895A8
:101DB0002FB7FC012083F89467706093E9000895C1
:101DC000CF93DF931F92CDB7DEB7682FCE01019678
:101DD0000E94D80E8091F20099819FBF0F90DF91F1
:101DE000CF910895FF920F931F93CF93DF9300D06D
:101DF000CDB7DEB7F62E8A019091AA05992311F08E
:101E000057FF03C08FEF9FEF2BC0682FCE010196C5
:101E10007A830E94D80E8091F20090E0A8017A8126
:101E2000801791070CF4AC01EF2DF72FF40E84E628
:101E3000FE1639F028988093AB059091F1009193AC
:101E4000F7CF4115510521F08091F200882321F050
:101E500089818FBFCA0104C08BE68093E800F8CF68
:101E60000F900F90DF91CF911F910F91FF900895E8
:101E7000CF93DF931F92CDB7DEB741E050E0BE01B4
:101E80006F5F7F4F0E94F20E019719F4898190E0F5
:101E900002C08FEF9FEF0F90DF91CF910895CF9306
:101EA000DF931F92CDB7DEB7682FCE0101960E9457
:101EB000D80E9091E800892F807295FF04C0909110
:101EC000F20080E4891B99819FBF0F90DF91CF9131
:101ED00008956F927F928F929F92AF92BF92CF920E
:101EE000DF92EF92FF920F931F93CF93DF931F9296
:101EF000CDB7DEB7782E7B01C42EB52E8091AA0512
:101F0000882369F0042F152F8AEFD82E872D807231
:101F1000982E9AE3A92E872D8074882E11C08FEFFA
:101F20009FEF57C0872D0E944F0F682E81110CC064
:101F3000DA94A9F361E070E080E090E00E94BC0CCC
:101F40000115110579F73BC0282F30E00217130760
:101F50000CF4602E672DCE0101960E94D80E809160
:101F6000E80085FF29C0262D30E0021B130B9920C5
:101F700039F06A948FEF6816B1F01092F100F9CF42
:101F8000F701862D77FE07C0815058F09491909309
:101F9000F1003196F9CF815020F091919093F100AA
:101FA000FACFE20EF31E8091E80085FF0FC0011505
:101FB000110511F481100AC089818FBFC1CF5D98CE
:101FC00084E68093AC058C2D9B2D03C0A092E80085
:101FD000F3CF0F90DF91CF911F910F91FF90EF9072
:101FE000DF90CF90BF90AF909F908F907F906F9039
:101FF00008951092E9001092A9051092A8059093F7
:10200000A7058093A6050895CF92DF92FF920F93C4
:102010001F93CF93DF9300D0CDB7DEB7F82E8A01A0
:102020006B0101151105B1F0F601F7FE02C08491B4
:1020300001C0808149835A830E94670E01501109B3
:10204000FFEFCF1ADF0A49815A818111EACF8FEF62
:102050009FEF01C0CA010F900F90DF91CF911F91A8
:102060000F91FF90DF90CF9008951F93CF93DF9350
:102070001F92CDB7DEB7162F2091E80022FFFCCFCC
:10208000612F79830E94CB0E8BEF8093E800812F24
:102090007981972F0F90DF91CF911F910895CF9362
:1020A000DF931F92CDB7DEB71982CE0101960E9451
:1020B000D00D898190E00F90DF91CF9108951F920C
:1020C0000F920FB60F921124DF92EF92FF920F93AF
:1020D0001F932F933F934F935F936F937F938F93B0
:1020E0009F93AF93BF93EF93FF93CF93DF93CDB7BE
:1020F000DEB76197DEBFCDBF1092E9008091E800A6
:1021000083FFD7C068E0CE010A960E94CB0E82EF13
:102110008093E8009A8597FF05C08091E80080FFD2
:10212000FCCF03C08EEF8093E800892F807609F002
:10213000ACC08B85811105C01092F1001092F100A6
:10214000B1C0282F2D7F213009F4ACC0853049F46F
:102150008091E80080FFFCCF8C8580688093E3004D
:10216000A1C0863009F06AC0DD84E888F98822E0E1
:10217000D2122CC080E090E00E94F90F0E944F1014
:1021800099E08E010F5F1F4FF801292F11922A95B8
:10219000E9F79983DA8291E09E8390E898879AEF35
:1021A00099872091A8053091A905275F3F4F3C836F
:1021B0002B838D83C7010E94F90F49E050E0B801DD
:1021C00080E00E9404100E944F106CC0C7010E9462
:1021D000F90F81E0D8120DC088899989089711F408
:1021E000D092A5058091A505811118C06AE771E01C
:1021F0001AC0E3E0DE125AC08C85882391F0823049
:1022000021F46AE088E991E006C0813009F04EC00F
:102210006BE08CE891E00E94950E42C068E671E0A8
:1022200002C063EA71E06115710509F43FC0FB016A
:10223000449150E080E80E94041034C08730B1F12E
:10224000883021F481E08093F1002CC0893051F571
:10225000937061F5E5E6F1E081E021E096E380939B
:10226000E9002093EB0034913093EC009093ED0063
:102270008F5F3196843099F78EE78093EA00109251
:10228000EA008C858093AA050DC0888999890E94EF
:10229000F90F8E8581110AC0CE010A960E94DB0DCE
:1022A000882321F08EEF8093E80003C081E28093C1
:1022B000EB0061960FB6F894DEBF0FBECDBFDF9185
:1022C000CF91FF91EF91BF91AF919F918F917F91AE
:1022D0006F915F914F913F912F911F910F91FF90BF
:1022E000EF90DF900F900FBE0F901F901895809386
:1022F000E9008091F200882319F08AE38093E800D6
:1023000008951F920F920FB60F9211242F933F93AF
:102310004F935F936F937F938F939F93AF93BF93ED
:10232000EF93FF938091E1001092E10083FF0FC0D3
:102330001092E90091E09093EB001092EC0092E390
:102340009093ED001092AA0598E09093F00082FF20
:102350001DC083E00E9477118091AC05882339F07D
:102360008091AC0581508093AC05882369F0809101
:10237000AB05882359F08091AB0581508093AB0564
:10238000811104C0289A02C05D9AF1CFFF91EF91AC
:10239000BF91AF919F918F917F916F915F914F917D
:1023A0003F912F910F900FBE0F901F901895109294
:1023B000AA0581E08093D70080EA8093D80082E16B
:1023C00089BD09B400FEFDCF61E070E080E090E0DF
:1023D0000E94BC0C80E98093D8008CE08093E200DE
:1023E0001092E000559A209A0895CF93DF9300D081
:1023F00000D0CDB7DEB79B01AC0161157105810539
:10240000910569F069833A834B835C830E94A71529
:1024100029813A814B815C810E94121503C060E0E2
:1024200070E0CB010F900F900F900F90DF91CF9144
:10243000089508955058BB27AA270ED075C166D1BC
:1024400030F06BD120F031F49F3F11F41EF45BC1EA
:102450000EF4E095E7FB51C1E92F77D180F3BA176D
:10246000620773078407950718F071F49EF58FC112
:102470000EF4E0950B2EBA2FA02D0B01B90190019F
:102480000C01CA01A0011124FF27591B99F0593FE3
:1024900050F4503E68F11A16F040A22F232F342F2B
:1024A0004427585FF3CF469537952795A795F04079
:1024B0005395C9F77EF41F16BA0B620B730B840B8E
:1024C000BAF09150A1F0FF0FBB1F661F771F881F46
:1024D000C2F70EC0BA0F621F731F841F48F487959E
:1024E00077956795B795F7959E3F08F0B3CF93958D
:1024F000880F08F09927EE0F979587950895D9D002
:1025000008F481E008950CD00FC107D140F0FED04F
:1025100030F021F45F3F19F0F0C0511139C1F3C020
:1025200014D198F39923C9F35523B1F3951B550B97
:10253000BB27AA2762177307840738F09F5F5F4F96
:10254000220F331F441FAA1FA9F333D00E2E3AF0D7
:10255000E0E830D091505040E695001CCAF729D0F1
:10256000FE2F27D0660F771F881FBB1F2617370740
:102570004807AB07B0E809F0BB0B802DBF01FF2770
:1025800093585F4F2AF09E3F510568F0B6C000C1D6
:102590005F3FECF3983EDCF3869577956795B795AA
:1025A000F7959F5FC9F7880F911D9695879597F9C5
:1025B0000895E1E0660F771F881FBB1F621773073E
:1025C0008407BA0720F0621B730B840BBA0BEE1F53
:1025D00088F7E095089504D06894B111D9C00895A2
:1025E000BCD088F09F5790F0B92F9927B751A0F031
:1025F000D1F0660F771F881F991F1AF0BA95C9F797
:1026000012C0B13081F0C3D0B1E00895C0C0672FCF
:10261000782F8827B85F39F0B93FCCF38695779546
:102620006795B395D9F73EF490958095709561952F
:102630007F4F8F4F9F4F0895E89409C097FB3EF45A
:1026400090958095709561957F4F8F4F9F4F9923FF
:10265000A9F0F92F96E9BB279395F695879577957D
:102660006795B795F111F8CFFAF4BB0F11F460FF3D
:102670001BC06F5F7F4F8F4F9F4F16C0882311F095
:1026800096E911C0772321F09EE8872F762F05C0A9
:10269000662371F096E8862F70E060E02AF09A9544
:1026A000660F771F881FDAF7880F9695879597F939
:1026B0000895990F0008550FAA0BE0E8FEEF1616D3
:1026C0001706E807F907C0F012161306E407F50726
:1026D00098F0621B730B840B950B39F40A2661F09A
:1026E000232B242B252B21F408950A2609F4A1403D
:1026F000A6958FEF811D811D089597F99F6780E84A
:1027000070E060E008959FEF80EC089500240A9443
:102710001616170618060906089500240A941216BC
:102720001306140605060895092E0394000C11F4EF
:10273000882352F0BB0F40F4BF2B11F460FF04C09C
:102740006F5F7F4F8F4F9F4F089557FD9058440FF5
:10275000551F59F05F3F71F04795880F97FB991F00
:1027600061F09F3F79F087950895121613061406BD
:10277000551FF2CF4695F1DF08C01616170618064A
:10278000991FF1CF86957105610508940895E89425
:10279000BB2766277727CB0197F908958ADF08F4CE
:1027A0008FEF08950BD0C0CFB1DF28F0B6DF18F05F
:1027B000952309F0A2CFA7CF1124EACFC6DFA0F35B
:1027C000959FD1F3950F50E0551F629FF001729FC6
:1027D000BB27F00DB11D639FAA27F00DB11DAA1FE5
:1027E000649F6627B00DA11D661F829F2227B00D32
:1027F000A11D621F739FB00DA11D621F839FA00DBD
:10280000611D221F749F3327A00D611D231F849F0C
:10281000600D211D822F762F6A2F11249F57504063
:102820008AF0E1F088234AF0EE0FFF1FBB1F661FFE
:10283000771F881F91505040A9F79E3F510570F0B7
:102840005CCFA6CF5F3FECF3983EDCF3869577959F
:102850006795B795F795E7959F5FC1F7FE2B880FB2
:10286000911D9695879597F908959F9305D00F90A0
:1028700007FCEE5F28C047CF70DFE8F3E894E0E0A4
:10288000BB279F57F0F02AED3FE049EC06C0EE0F62
:10289000BB0F661F771F881F28F0B23A62077307C5
:1028A000840728F0B25A620B730B840BE3959A9558
:1028B00072F7803830F49A95BB0F661F771F881F18
:1028C000D2F7904813C0EF93E0FF06C0A2EA2AEDCA
:1028D0003FE049EC5FEBC0DD27DF0F90039401FC84
:1028E0009058ECEAF0E00EC09F3F31F0915020F498
:1028F000879577956795B795880F911D96958795DC
:1029000097F908959F938F937F936F93FF93EF931E
:102910009B01AC0147DFEF91FF9105D02F913F91D3
:102920004F915F913FCFDF93CF931F930F93FF9210
:10293000EF92DF927B018C01689405C0DA2EEF01E3
:102940003DDFFE01E894A591259135914591559182
:10295000AEF3EF0181DDFE019701A801DA9479F76A
:10296000DF90EF90FF900F911F91CF91DF9108952D
:10297000DB018F939F930E943E15BF91AF91A29F61
:10298000800D911DA39F900DB29F900D112408956D
:10299000AA1BBB1B51E107C0AA1FBB1FA617B70785
:1029A00010F0A61BB70B881F991F5A95A9F78095A1
:1029B0009095BC01CD01089597FB072E16F4009465
:1029C00007D077FD09D00E94C81407FC05D03EF45B
:1029D000909581959F4F0895709561957F4F0895CB
:1029E000A1E21A2EAA1BBB1BFD010DC0AA1FBB1F13
:1029F000EE1FFF1FA217B307E407F50720F0A21B85
:102A0000B30BE40BF50B661F771F881F991F1A94F1
:102A100069F760957095809590959B01AC01BD011B
:102A2000CF010895052E97FB1EF400940E942915EE
:102A300057FD07D00E94F01407FC03D04EF40C940D
:102A4000291550954095309521953F4F4F4F5F4F39
:102A5000089590958095709561957F4F8F4F9F4F0A
:102A60000895EE0FFF1F0590F491E02D09940E9448
:102A70004915B7FF0895821B930B08950E944915CD
:102A8000A59F900DB49F900DA49F800D911D1124C2
:102A90000895A29FB001B39FC001A39F700D811D37
:102AA0001124911DB29F700D811D1124911D089557
:102AB0008F929F92AF92BF92CF92DF92EF92FF924E
:102AC000CF93DF93EC01688179818A819B816115C5
:102AD00071058105910521F464E279ED8BE597E0BC
:102AE0002DE133EF41E050E00E94121549015A01F7
:102AF0009B01AC01A7EAB1E40E943E156B017C0189
:102B0000ACEEB4EFA50194010E94CE15C60ED71EFF
:102B1000E81EF91EF7FE06C081E0C81AD108E108D8
:102B200080E8F80AC882D982EA82FB82C701B6012E
:102B30009F77DF91CF91FF90EF90DF90CF90BF9084
:102B4000AF909F908F9008950E945815089586E049
:102B500091E00E9458150895609306017093070153
:102B600080930801909309010895F999FECF92BDD1
:102B700081BDF89A992780B50895262FF999FECF3F
:102B80001FBA92BD81BD20BD0FB6F894FA9AF99A8A
:102B90000FBE01960895B7FF0C943E150E943E1596
:0A2BA000821B930B0895F894FFCFF9
:102BAA000000AD058000010000000404050F28465E
:102BBA005D46280F46B6333F7CF2703F0000803FE7
:102BCA000681553F44696F3F0000803F00E10000E5
:102BDA0000000000000000000901010100000000DF
:102BEA000B020A0200000000A606B2063002BE0668
:102BFA0000000000B907B107000000005308880A66
:102C0A0000000000730DBA0D9D0DAD0D890D9A0DD2
:00000001FF
