:100000000C9443010C946B010C946B010C946B01E8
:100010000C946B010C946B010C946B010C946B01B0
:100020000C946B010C946B010C94EC0B0C94770CFE
:100030000C946B010C946B010C946B010C946B0190
:100040000C946B010C946B010C946B010C946B0180
:100050000C946B010C946B010C946B010C94F107E4
:100060000C946B010C946B010C946B010C946B0160
:100070000C946B010C946B010C946B010C946B0150
:100080000C946B010C946B010C946B010C946B0140
:100090000C946B010C946B010C946B010C946B0130
:1000A0000C946B010C946B010C946B0105A84CCD66
:1000B000B2D44EB93836A9020C50B9918688083CA2
:1000C000A6AAAA2ABE000000803F080B0002020276
:1000D00001000904000001020200000524001001D3
:1000E0000524010101042402060524060001070578
:1000F000810310004009040100020A000000070506
:1001000002024000000705830240000004030904C6
:10011000220342006C0069006E006B0079005400FD
:1001200061007000650020002000200020002000F9
:100130002000220342006C0069006E006B00690021
:10014000760065007200730065002C0020004C00F2
:100150004C0043001201000200000040501D6C6082
:100160000001010200011201000202000040501DC6
:100170006C6000010102000100C18081C10501091C
:1001800002A1010901A10085010509190129031531
:10019000002501950375018102950175058103050F
:1001A000010930093109381581257F7508950381CA
:1001B00006C0C005010906A1018502050719E0294D
:1001C000E7150025017501950881029501750881E3
:1001D0000395067508150025650507190029658131
:1001E00000C0090402000103000000092101010010
:1001F00001226500070584034000010000000000A3
:100200000000002A2B280000000000000000000071
:1002100000000000000000000000002C9EB4A0A11F
:10022000A2A434A6A7A5AE362D3738271E1F20213D
:100230002223242526B333B62EB7B89F848586871C
:1002400088898A8B8C8D8E8F9091929394959697B6
:1002500098999A9B9C9D2F3130A3AD3504050607D4
:1002600008090A0B0C0D0E0F101112131415161796
:1002700018191A1B1C1DAFB1B0B500009E02D5079E
:100280007109280BFA0D11241FBECFEFDAE0DEBF93
:10029000CDBF11E0A0E0B1E0E0E8F3E202C00590DC
:1002A0000D92A234B107D9F712E0A2E4B1E001C087
:1002B0001D92A23CB107E1F712E0C6E8D2E004C00B
:1002C0002297FE010E94BA11CC37D107C9F70E94CC
:1002D000350A0C94BE110C940000CF93DF93BC013F
:1002E0008230910510F462E070E0A091C002B091FC
:1002F000C102ED01E0E0F0E040E050E021C0888183
:1003000099818617970769F48A819B81309719F044
:100310009383828304C09093C1028093C002FE0144
:1003200034C06817790738F44115510519F084175E
:10033000950708F4AC01FE018A819B819C01E901CB
:100340002097E9F641155105A9F1CA01861B970BC3
:10035000049708F4BA01E0E0F0E02AC08D919C9186
:10036000119784179507F9F46417750781F41296AD
:100370008D919C911397309719F09383828304C0D9
:100380009093C1028093C002FD0132964CC0CA0115
:10039000861B970BFD01E80FF91F6193719302977C
:1003A0008D939C9340C0FD01828193819C01D90172
:1003B0001097A1F68091BE029091BF02892B41F463
:1003C00080910201909103019093BF028093BE023D
:1003D00040910401509105014115510541F44DB77B
:1003E0005EB78091000190910101481B590B20914B
:1003F000BE023091BF02CA01821B930B861797077A
:1004000080F0AB014E5F5F4F8417950750F0420FAD
:10041000531F5093BF024093BE02F9016193719341
:1004200002C0E0E0F0E0CF01DF91CF910895CF93DB
:10043000DF93009709F450C0EC0122971B821A82C7
:10044000A091C002B091C102109709F140E050E0C4
:10045000AC17BD0708F1BB83AA83FE01219131913E
:10046000E20FF31FAE17BF0779F48D919C9111979E
:10047000280F391F2E5F3F4F3983288312968D91A5
:100480009C9113979B838A834115510571F4D093F6
:10049000C102C093C00220C012968D919C91139707
:1004A000AD01009711F0DC01D3CFFA01D383C283F1
:1004B00021913191E20FF31FCE17DF0769F4888194
:1004C0009981280F391F2E5F3F4FFA013183208316
:1004D0008A819B8193838283DF91CF910895FC0170
:1004E000A081B1812D913C91F9010995089581E098
:1004F00008950895FC013F9A80E8828388E290E0A5
:10050000948383830895DF93CF9300D00F92CDB768
:10051000DEB7DC01AB01ED91FC910680F781E02DA7
:1005200019821A821B82BE016F5F7F4F20E00995FE
:100530000F900F900F90CF91DF9108950895CF9273
:10054000DF92EF92FF920F931F93DF93CF9300D030
:1005500000D000D0CDB7DEB77E010894E11CF11CBD
:1005600064E0C62ED12CCC0EDD1E8AE992E00E94FA
:1005700027090397D4F387018AE992E00E944E0984
:100580008F3F39F0F8018083802F8E19823029F552
:100590000BC086E092E0609148020E9450071092E2
:1005A000FB011092FA01E1CF8091FA019091FB01D9
:1005B0003A814B8129812C833D834E83FC01EE0FD0
:1005C000FF1FE80FF91FEE5BFE4F2083318342834C
:1005D00001969093FB018093FA010F5F1F4F0C155A
:1005E0001D0551F6C2CF4F925F926F927F928F920C
:1005F0009F92AF92BF92CF92DF92EF92FF920F93B2
:100600001F93DF93CF9300D00F92CDB7DEB7F2E404
:100610008F2EF1E09F2E66247724ECE34E2E512C92
:10062000B301882777FD8095982F0E94FE0F5B010C
:100630006C0120E030E040E05FE30E948A107B0123
:100640008C016091040270910502882777FD8095E6
:10065000982F0E94FE0F20E030E040E85EE30E9409
:100660008A109B01AC01C801B7010E94040F0E94CF
:10067000ED1020E030E040E85FE30E94040F20E04E
:1006800030E040E852E40E948A100E94D00FF4014A
:1006900060836091020270910302882777FD809544
:1006A000982F0E94FE0F20E030E040E151E40E94CC
:1006B000680F9B01AC01C601B5010E94040F26E63C
:1006C00036E646E050E40E94040F0E94ED1020E060
:1006D00030E040E85FE30E94040F20E030E040E8B3
:1006E00052E40E948A100E94D00FF4016183C60177
:1006F000B50120E030E040E450E40E94680F7B0147
:100700008C016091000270910102882777FD80952D
:10071000982F0E94FE0F20E030E040E651E40E9456
:10072000680F9B01AC01C801B7010E94040F26E6C7
:1007300036E646E850E40E94040F0E94ED1020E0E7
:1007400030E040E85FE30E94040F20E030E040E842
:1007500052E40E948A100E94D00FF40162830E942A
:1007600039082091F6013091F7014091F80150913C
:10077000F901621B730B840B950B603171058105C8
:10078000910500F18091FC019091FD01CE97D4F488
:100790000E9439086093F6017093F7018093F80185
:1007A0009093F9018091FC019091FD019201281B29
:1007B000390B3093FF012093FE0101969093FD01C8
:1007C0008093FC018091FE019091FF01FC01EE0FEE
:1007D000FF1FE80FF91FEE5BFE4F08C019821A8257
:1007E0001B821082118212820197339797FFF6CFF6
:1007F0000894611C711C83E090E0880E991E9CE3B4
:100800006916710409F00CCF86E092E0609148020D
:100810000E945007809104029091050201969093E6
:1008200005028093040280910202909103020196D6
:100830009093030280930202809100029091010242
:10084000029690930102809300020F900F900F90F8
:10085000CF91DF911F910F91FF90EF90DF90CF909C
:10086000BF90AF909F908F907F906F905F904F90D0
:1008700008958AE992E00E9427091816190614F4CF
:100880000E949F020E94F30208950F931F938C0110
:100890000E9447089B01AC01F80180819181A281EF
:1008A000B381281B390B4A0B5B0B22333105410501
:1008B000510534F482E390E0821B930B0E94C6083A
:1008C0001F910F910895CF92DF92EF92FF920F93B5
:1008D0001F93CF93DF936C01162F072FEA01E22EAF
:1008E00005960E944504F894212F302FC901FC0180
:1008F000BE01660F771F6C0F7D1F680F791F58B1FF
:10090000506888B18F7788B921813E2D239F212D92
:10091000C3C095E058B900140014001427FF88B92B
:10092000001400140014001488B9001400140014FA
:10093000220F915079F7001458B9001400140014D4
:1009400027FF88B9001400140014001488B900149B
:1009500002E00A95F1F758B900140014001426FFBC
:1009600088B9001400140014001488B9001400148D
:1009700030814E2D349F312D58B9001400140014CD
:1009800025FF88B9001400140014001488B902E08F
:100990000A95F1F795E058B900140014001437FFD8
:1009A00088B9001400140014001488B9001400144D
:1009B0000014330F915079F7001458B90014001443
:1009C000001437FF88B9001400140014001488B90B
:1009D000001402E00A95F1F758B90014001400144D
:1009E00036FF88B9001400140014001488B90014EC
:1009F000001442812E2D429F412D58B9001400143D
:100A0000001435FF88B9001400140014001488B9CC
:100A100002E00A95F1F795E058B9001400140014AB
:100A200047FF88B9001400140014001488B900149A
:100A300000140014440F915079F7001458B90014B1
:100A40000014001447FF88B90014001400140014A7
:100A500088B900140014001400140014339658B917
:100A600000140014001446FF88B900140014001488
:100A7000001488B90014001421813E2D239F212DDC
:100A800058B900140014001445FF88B9001400146C
:100A90000014001488B90014E617F70708F439CFDA
:100AA0001124E0905102F0905202009153021091F3
:100AB0005402BE01A3E0660F771FAA95E1F76C0F01
:100AC0007D1F882777FD8095982F28EE33E040E042
:100AD00050E00E949D11E20EF31E041F151FE092CC
:100AE0005102F092520200935302109354027894F0
:100AF0000E944708F6016583768387839087DF919C
:100B0000CF911F910F91FF90EF90DF90CF900895BC
:100B1000AF92BF92CF92DF92EF92FF920F931F930B
:100B2000CF93DF935C01EB016A01122F05960E94BF
:100B30004504F894B601660F771F6C0D7D1D6C0F90
:100B40007D1F58B1506888B18F7788B9A9812A2F45
:100B5000219F212DFE01C0C095E058B9001400145A
:100B6000001427FF88B9001400140014001488B979
:100B7000001400140014220F915079F7001458B992
:100B800000140014001427FF88B900140014001486
:100B9000001488B9001402E00A95F1F758B900145E
:100BA0000014001426FF88B9001400140014001467
:100BB00088B9001400143881319F312D58B90014C0
:100BC0000014001425FF88B9001400140014001448
:100BD00088B902E00A95F1F795E058B900140014BD
:100BE000001437FF88B9001400140014001488B9E9
:100BF000001400140014330F915079F7001458B901
:100C000000140014001437FF88B9001400140014F5
:100C1000001488B9001402E00A95F1F758B90014DD
:100C20000014001436FF88B90014001400140014D6
:100C300088B9001400144A81419F412D58B900140D
:100C40000014001435FF88B90014001400140014B7
:100C500088B902E00A95F1F795E058B9001400143C
:100C6000001447FF88B9001400140014001488B958
:100C7000001400140014440F915079F7001458B96F
:100C800000140014001447FF88B900140014001465
:100C9000001488B9001400140014001400143396D2
:100CA00058B900140014001446FF88B90014001449
:100CB0000014001488B9001400142A2F219F212D3C
:100CC00058B900140014001445FF88B9001400142A
:100CD0000014001488B90014E617F70708F43CCF95
:100CE0001124E0905102F0905202009153021091B1
:100CF0005402B60183E0660F771F8A95E1F76C0D09
:100D00007D1D882777FD8095982F28EE33E040E001
:100D100050E00E949D11E20EF31E041F151FE09289
:100D20005102F092520200935302109354027894AD
:100D30000E944708F5016583768387839087DF915A
:100D4000CF911F910F91FF90EF90DF90CF90BF90C8
:100D5000AF900895EF92FF920F931F93DF93CF937D
:100D600000D00F92CDB7DEB78AE992E060E071EE75
:100D70000E94260989E090E00E94480AFC01158241
:100D800016821782108684E191E09183808326E0A9
:100D9000E22E22E0F22EC701BF0142E451E02CE333
:100DA00030E000E010E00E94FB0619821A821B82EC
:100DB000C701BE016F5F7F4F409148020E948C07C0
:100DC00086EE80934802C70166EE0E9450070E949B
:100DD00039086093F6017093F7018093F8019093BE
:100DE000F9010F900F900F90CF91DF911F910F910C
:100DF000FF90EF900895DF92EF92FF920F931F9371
:100E0000CF93DF93EC017B01101611062CF0D22E4C
:100E1000032F20E030E002C0D02E012FC05CDF4F56
:100E2000A881B981C054D040FE0160E070E007C0E5
:100E3000808191813896892B41F06F5F7F4F6A17CF
:100E40007B07B4F3EE24FF2422C0E3E0660F771F94
:100E5000EA95E1F7DE01A60FB71F1196FC92EE921C
:100E6000FE01E60FF71F5383428317963C932E93A0
:100E70001697FB013496EC0FFD1FD0820183D7013A
:100E8000ED91FC910190F081E02DC7010995C7011A
:100E9000DF91CF911F910F91FF90EF90DF90089518
:100EA000DF92EF92FF920F931F93CF93DF93D62E93
:100EB000EC0100E010E050E4E52EF12CE80EF91E04
:100EC0001DC0A881B9811097F9F0ED91FC9111979F
:100ED0002E813F81C901880F991F820F931F6A815C
:100EE0007B81680F791F4C815D810084F185E02D45
:100EF000CD012D2D09950F5F1F4F2896F701808199
:100F0000918108171907ECF2DF91CF911F910F9192
:100F1000FF90EF90DF900895BF92CF92DF92EF9213
:100F2000FF920F931F93CF93DF936B01B42EEC01CD
:100F300000E010E060E4E62EF12CE80EF91E13C08C
:100F4000A881B9811097A9F0ED91FC9111974C817E
:100F50005D810680F781E02DCD01B6012B2D09952D
:100F60000F5F1F4F2896F70180819181081719079D
:100F70003CF3DF91CF911F910F91FF90EF90DF90A5
:100F8000CF90BF900895FC01E05CFF4F88E090E0B7
:100F9000819391938FEF8083E254F040CF0160E022
:100FA00040E450E00E94E607089586E092E00E9447
:100FB000C30784EC98ECAFEFBFEF809349029093A6
:100FC0004A02A0934B02B0934C020895DC0140FF0B
:100FD00003C001C06D936D934250E0F75040D0F7CD
:100FE00008951F920F920FB60F9211242F933F93E3
:100FF0008F939F93AF93BF93809151029091520230
:10100000A0915302B0915402309155020196A11D56
:10101000B11D232F2D5F2D3720F02D570196A11DD7
:10102000B11D209355028093510290935202A093D8
:101030005302B093540280914D0290914E02A091C0
:101040004F02B09150020196A11DB11D80934D0237
:1010500090934E02A0934F02B0935002BF91AF9174
:101060009F918F913F912F910F900FBE0F901F90E6
:1010700018958FB7F8942091510230915202409107
:101080005302509154028FBFB901CA0108959FB70E
:10109000F89420914D0230914E0240914F025091B0
:1010A000500286B5A89B06C08F3F21F02F5F3F4FAF
:1010B0004F4F5F4F9FBF542F432F322F2227280FB0
:1010C000311D411D511D82E0220F331F441F551F4A
:1010D0008A95D1F7B901CA0108959B01AC017FB788
:1010E000F89480914D0290914E02A0914F02B091E0
:1010F000500266B5A89B05C06F3F19F00196A11D6F
:10110000B11D7FBFBA2FA92F982F8827860F911D59
:10111000A11DB11D62E0880F991FAA1FBB1F6A9510
:10112000D1F7BC012DC0FFB7F89480914D0290918A
:101130004E02A0914F02B0915002E6B5A89B05C0A7
:10114000EF3F19F00196A11DB11DFFBFBA2FA92FC6
:10115000982F88278E0F911DA11DB11DE2E0880FE9
:10116000991FAA1FBB1FEA95D1F7861B970B885EB4
:101170009340C8F2215030404040504068517C4F6D
:10118000211531054105510571F60895019739F092
:10119000880F991F880F991F02970197F1F70895FB
:1011A000789484B5826084BD84B5816084BD85B542
:1011B000826085BD85B5816085BDEEE6F0E0808109
:1011C00081608083E1E8F0E010828081826080832A
:1011D000808181608083E0E8F0E0808181608083AD
:1011E000E1E9F0E08081826080838081816080839A
:1011F000E0E9F0E0808181608083E1ECF0E08081D3
:10120000846080838081826080838081816080832C
:10121000E3ECF0E0808181608083E0ECF0E08081AD
:1012200082608083E2ECF0E0808181608083EAE785
:10123000F0E080818460808380818260808380810F
:1012400081608083808180688083089508952091E3
:101250009602309197028091980290919902281BF2
:10126000390B2F733070C901089520919602309187
:10127000970280919802909199022817390719F4E2
:101280002FEF3FEF09C0E0919802F0919902EA5ADE
:10129000FD4F8081282F30E0C901089520919602EA
:1012A00030919702809198029091990228173907FE
:1012B00019F42FEF3FEF13C0E0919802F0919902DB
:1012C000EA5AFD4F208180919802909199020196EF
:1012D0008F739070909399028093980230E0C901C7
:1012E000089510929D0210929C0288EE93E0A0E077
:1012F000B0E080939E0290939F02A093A002B093CF
:10130000A10286E291E090939B0280939A02089555
:101310000F931F93DF93CF930F92CDB7DEB78C015E
:10132000698380910D01882369F083E0BE016F5FBE
:101330007F4F41E050E00E94470B1816190614F445
:101340009C0107C081E090E0F8019383828320E054
:1013500030E0C9010F90CF91DF911F910F91089557
:1013600083E00E941E0B089582E00E94A90A482F84
:1013700020919602309197022F5F3F4F2F7330706C
:1013800080919802909199022817390759F0E091BD
:101390009602F0919702EA5AFD4F408330939702EC
:1013A000209396020895FC0180818E5F808380E8FF
:1013B0006AEC70E042E450E00E94C20A0895FC0129
:1013C00081819081913A59F4813209F04CC080E0DA
:1013D00066E071E047E050E00E94C20A42C09132EC
:1013E00009F041C0803239F486E091E067E070E0B6
:1013F0000E94060B36C0823209F035C0828180938C
:101400000D018091060190910701A0910801B09112
:101410000901805B9440A040B04019F580910D0116
:1014200080FD12C087E797E790930108809300083A
:101430002BE088E190E00FB6F894A89580936000C7
:101440000FBE209360000DC088E10FB6F894809322
:101450006000109260000FBEA895109201081092D3
:10146000000881E0089580E00895CF93DF930E9403
:10147000D00880EB92E00E94290B0E94AA06C0E0EF
:10148000D0E00E9439042097E1F30E940000F9CFD8
:101490000E946D010895CF92DF92EF92FF920F9319
:1014A0001F93CF93DF937C016B018A01C0E0D0E0F2
:1014B0000FC0D6016D916D01D701ED91FC910190A6
:1014C000F081E02DC7010995C80FD91F01501040C8
:1014D0000115110571F7CE01DF91CF911F910F9189
:1014E000FF90EF90DF90CF900895282F8091AA026F
:1014F0008823C1F057FF1AC015C028989093A902FD
:101500008091F1008193E217F307B9F74115510576
:1015100039F08091F200882319F48BE68093E8007B
:10152000AFBF02C04FEF5FEFCA010895AFB7F894A5
:1015300027702093E9008091F200282F30E02417D3
:1015400035070CF4A901FB019B01240F311D94E622
:10155000DACFDF93CF930F92CDB7DEB7BE016F5FC7
:101560007F4F41E050E00E94750A019719F02FEF7C
:101570003FEF03C08981282F30E0C9010F90CF9140
:10158000DF910895FF920F931F93F82E142F052FCC
:101590004091AD025091AE02212F302FC901DC01E4
:1015A000FB016EEF29C0F7FE02C0949101C090814B
:1015B0002091AB023091AC0224173507ACF4809136
:1015C000E8008570E1F38091E80082FF03C02FEF0F
:1015D0003FEF17C09093F100C90101968F7390708F
:1015E000892B11F46093E8002F5F3F4F3093AC02DA
:1015F0002093AB02119731961097A9F6812F902F67
:101600009C01C9011F910F91FF9008959C01809149
:10161000E80082FFFCCFF901260F311D03C0809145
:10162000F1008193E217F307D1F7289884E68093BD
:10163000A9028BEF8093E800CB0108958093E90025
:101640008091F200882319F08AE38093E8000895DE
:1016500008951092AA0281E08093D70080EA8093D7
:10166000D80082E189BD09B400FEFDCF61E070E0E1
:1016700080E090E00E946D0880E98093D8008CE0C3
:101680008093E2001092E000559A209A08955F92AC
:101690006F927F928F929F92AF92BF92CF92DF9282
:1016A000EF92FF920F931F93CF93DF93E82E842E38
:1016B000752E8091AA02882371F18B01242F352F7A
:1016C000C901EC017AEFF72E67E0962E9E2050E4D8
:1016D000552E8E2D90E040E2A42EB12CA822B922E6
:1016E0003AE3632E20E4C22ED12CC822D92258C05E
:1016F0009FB7F8949092E9008091E80085FD02C0C0
:1017000020E004C08091F200252D281B9FBF2223DA
:1017100061F4FA9419F42FEF3FEF4DC061E070E0EF
:1017200080E090E00E946D083BC0822F90E0C817D7
:10173000D9070CF42C2FC21BD1094FB7F894909203
:10174000E900A114B10421F406C01092F100215067
:101750002223D9F719C0E7FC03C0F801922F10C06B
:10176000C801322F06C0FC010196E491E093F1001C
:1017700031503323C1F706C081918093F10091501D
:101780009923D1F7020F111D8091E80085FF05C054
:10179000209729F4C114D10411F06092E8004FBFE2
:1017A000209709F0A5CF5D9884E68093A802282DA4
:1017B000372DC9019C01C901DF91CF911F910F9174
:1017C000FF90EF90DF90CF90BF90AF909F908F9061
:1017D0007F906F905F9008951F920F920FB60F92B7
:1017E00011241F932F933F934F935F936F937F9396
:1017F0008F939F93AF93BF93EF93FF938091E100FB
:101800001092E100982F83FF0FC01092E90081E051
:101810008093EB001092EC0082E38093ED00109235
:10182000AA0288E08093F00092FF36C083E08093A4
:10183000E9008091F200882349F08AE38093E80070
:1018400005C08AE992E00E94B40901C012E09FB786
:10185000F8941093E9008091F2009FBF882389F7E4
:101860008091A802882351F08091A8028150809332
:10187000A8028091A802882309F45D9A8091A902A8
:10188000882351F08091A90281508093A902809110
:10189000A902882309F4289AFF91EF91BF91AF9193
:1018A0009F918F917F916F915F914F913F912F9178
:1018B0001F910F900FBE0F901F9018950F931F93BD
:1018C000DF93CF930F92CDB7DEB719828E010F5FF2
:1018D0001F4FC8010E94D309C8010E94F70E8981D9
:1018E00090E00F90CF91DF911F910F9108951F927B
:1018F0000F920FB60F921124EF92FF921F932F9326
:101900003F934F935F936F937F938F939F93AF9387
:10191000BF93EF93FF93DF93CF93CDB7DEB761977C
:10192000DEBFCDBF1092E9008091E80083FF0FC1B8
:10193000FE0131969E01275F3F4F03C08091F10069
:101940008193E217F307D1F7289884E68093A902E0
:1019500082EF8093E800998197FF05C08091E800AD
:1019600080FFFCCF03C08EEF8093E800292F30E08A
:10197000C90180769070892B09F0C2C08A818823C2
:1019800029F41092F1001092F100D6C0813009F4D0
:10199000D3C0833009F4D0C0853049F48091E80089
:1019A00080FFFCCF8B8180688093E300C5C08630C8
:1019B00009F07CC01C81EF80F8841230C1F51092D0
:1019C000E9001092AC021092AB021092AE0210929B
:1019D000AD020E945E0C99E0FE013996DF01292FCD
:1019E0001D922A95E9F799871A8791E09E8790E8DA
:1019F000988B9AEF998B2091AB023091AC02275FC4
:101A00003F4F3C872B878D871092E9001092AC02E4
:101A10001092AB02F092AE02E092AD0280E0BF0104
:101A200049E050E00E94C20A0E945E0C85C01092FC
:101A3000E9001092AC021092AB02F092AE02E0927A
:101A4000AD02123241F482E290E00E94EF0E892B47
:101A500009F476C071C0113079F488E0E816F10419
:101A600019F481E08093AF028091AF02882309F0DE
:101A70006BC0E4E5F1E013C0133009F061C08B8165
:101A8000882319F4ECE0F1E00AC0823019F4E0E1B7
:101A9000F1E005C0813009F053C0E2E3F1E0449188
:101AA00080E8BF0150E00E94C20A46C0873009F4B6
:101AB00047C0883021F481E08093F1003DC0893037
:101AC000D9F523703070232BD9F5E9E7F1E091E0E7
:101AD00031E026E39093E9003093EB00849180930A
:101AE000EC002093ED009F5F3196953099F78EE7DB
:101AF0008093EA001092EA008B818093AA021CC0B6
:101B00008F8198851092E9001092AC021092AB027E
:101B10009093AE028093AD028D81882329F4CE018B
:101B200001960E94DF0906C0823051F4CE01019671
:101B30000E94C00D882321F08EEF8093E80007C03B
:101B400081E28093EB0003C0E6E6F1E0A8CF619666
:101B5000DEBFCDBFCF91DF91FF91EF91BF91AF91EC
:101B60009F918F917F916F915F914F913F912F91B5
:101B70001F91FF90EF900F900FBE0F901F90189540
:101B8000FC0191818081813A31F4913089F080E0CB
:101B9000933089F40DC0813269F49B3021F4828145
:101BA00080930E0105C09A3029F4828180930F0141
:101BB00081E0089580E00895EF92FF920F931F93C4
:101BC0008C01E62EDC01ED91FC910480F581E02D85
:101BD0000995F82ED801ED91FC910680F781E02D52
:101BE000C8016E2D09958F2D90E01F910F91FF90E8
:101BF000EF9008951092B1021092B5021092B402C3
:101C000088E391E09093B3028093B2020895EF923B
:101C1000FF920F931F93DF93CF930F92CDB7DEB751
:101C200089838B017A0184E0BE016F5F7F4F41E0C1
:101C300050E00E94470B84E4B801A7010E94470BC3
:101C40000F90CF91DF911F910F91FF90EF9008952A
:101C500082E048E050E00E94070E0895FC011682E1
:101C60001782108611861286138614823496BF015D
:101C70000E94280E0895DC01683810F0685829C0C9
:101C8000E62FF0E067FF13C0E058F04081E090E0FD
:101C900002C0880F991FEA95E2F7809514962C915F
:101CA0001497282314962C93149760E012C0E550E3
:101CB000FE4F6491662319F420E030E01DC067FFF9
:101CC00008C014968C9114978D7F14968C9314975A
:101CD0006F77FD0190E0662321F08681861709F475
:101CE00016829F5F31969630B1F7CD011496BD01F3
:101CF0000E94280E21E030E0C9010895CF93DF93C0
:101D0000DC01683810F0685825C0E62FF0E067FF66
:101D100012C0E058F04081E090E002C0880F991FA7
:101D2000EA95E2F714962C911497282B14962C938D
:101D3000149760E00FC0E550FE4F64916623D9F11F
:101D400067FF08C014968C911497826014968C9348
:101D500014976F7716968C9116978617A9F1179698
:101D60008C911797861781F118968C911897861782
:101D700059F119968C911997861731F11A968C9111
:101D80001A97861709F11B968C911B978617E1F01D
:101D9000ED01E0E0F0E09E2F8E81882321F4EA0F30
:101DA000FB1F668306C09F5F31962196E630F105E2
:101DB00091F7963049F481E090E013969C938E93CE
:101DC000129720E030E007C0CD011496BD010E94BB
:101DD000280E21E030E0C901DF91CF91089580E81D
:101DE0006DE771E045E650E00E94C20A0895FC01EB
:101DF00080818F5F808380E862EE71E049E150E08E
:101E00000E94C20A08955058BB27AA270ED048C185
:101E100039D130F03ED120F031F49F3F11F41EF45F
:101E20002EC10EF4E095E7FB24C1E92F4AD180F3DF
:101E3000BA17620773078407950718F071F49EF5C7
:101E400062C10EF4E0950B2EBA2FA02D0B01B90143
:101E500090010C01CA01A0011124FF27591B99F020
:101E6000593F50F4503E68F11A16F040A22F232F2C
:101E7000342F4427585FF3CF469537952795A7957C
:101E8000F0405395C9F77EF41F16BA0B620B730B23
:101E9000840BBAF09150A1F0FF0FBB1F661F771F94
:101EA000881FC2F70EC0BA0F621F731F841F48F449
:101EB000879577956795B795F7959E3F08F0B3CFCF
:101EC0009395880F08F09927EE0F979587950895B9
:101ED0000CD0E6C0DED040F0D5D030F021F45F3F2A
:101EE00019F0C7C0511110C1CAC0EBD098F39923A3
:101EF000C9F35523B1F3951B550BBB27AA276217CE
:101F00007307840738F09F5F5F4F220F331F441F12
:101F1000AA1FA9F333D00E2E3AF0E0E830D091504A
:101F20005040E695001CCAF729D0FE2F27D0660F37
:101F3000771F881FBB1F261737074807AB07B0E876
:101F400009F0BB0B802DBF01FF2793585F4F2AF08C
:101F50009E3F510568F08DC0D7C05F3FECF3983EBF
:101F6000DCF3869577956795B795F7959F5FC9F7E9
:101F7000880F911D9695879597F90895E1E0660F72
:101F8000771F881FBB1F621773078407BA0720F0EB
:101F9000621B730B840BBA0BEE1F88F7E095089554
:101FA00098D088F09F5790F0B92F9927B751A0F09B
:101FB000D1F0660F771F881F991F1AF0BA95C9F7DD
:101FC00012C0B13081F09FD0B1E008959CC0672F5E
:101FD000782F8827B85F39F0B93FCCF3869577958D
:101FE0006795B395D9F73EF4909580957095619576
:101FF0007F4F8F4F9F4F0895E89409C097FB3EF4A1
:1020000090958095709561957F4F8F4F9F4F992345
:10201000A9F0F92F96E9BB279395F69587957795C3
:102020006795B795F111F8CFFAF4BB0F11F460FF83
:102030001BC06F5F7F4F8F4F9F4F16C0882311F0DB
:1020400096E911C0772321F09EE8872F762F05C0EF
:10205000662371F096E8862F70E060E02AF09A958A
:10206000660F771F881FDAF7880F9695879597F97F
:10207000089597F99F6780E870E060E008959FEF0A
:1020800080EC089500240A9416161706180609060F
:10209000089500240A9412161306140605060895DE
:1020A000092E0394000C11F4882352F0BB0F40F466
:1020B000BF2B11F460FF04C06F5F7F4F8F4F9F4FA6
:1020C000089557FD9058440F551F59F05F3F71F028
:1020D0004795880F97FB991F61F09F3F79F087958F
:1020E0000895121613061406551FF2CF4695F1DF18
:1020F00008C0161617061806991FF1CF86957105A8
:10210000610508940895E894BB2766277727CB01DB
:1021100097F908950BD0C4CFB5DF28F0BADF18F0D7
:10212000952309F0A6CFABCF1124EECFCADFA0F3E1
:10213000959FD1F3950F50E0551F629FF001729F5C
:10214000BB27F00DB11D639FAA27F00DB11DAA1F7B
:10215000649F6627B00DA11D661F829F2227B00DC8
:10216000A11D621F739FB00DA11D621F839FA00D53
:10217000611D221F749F3327A00D611D231F849FA3
:10218000600D211D822F762F6A2F11249F575040FA
:102190008AF0E1F088234AF0EE0FFF1FBB1F661F95
:1021A000771F881F91505040A9F79E3F510570F04E
:1021B00060CFAACF5F3FECF3983EDCF3869577952E
:1021C0006795B795F795E7959F5FC1F7FE2B880F49
:1021D000911D9695879597F908959F9305D00F9037
:1021E00007FCEE5F31C04BCF74DFE8F3E894EFEF0C
:1021F000BB273FE048EC5FE76B3D7307840795071B
:1022000008F1FF279F57B25A6A4D7F40894CF04032
:1022100032F4BE556542704F8643FF4F0894EE1F5F
:10222000915030F0BB0F661F771F881FFF1FEBCF49
:102230009EE7882332F0BB0F661F771F881F9A9591
:10224000C1F79395E09511C0EF93E0FF06C0A2EAB5
:102250002AED3FE049EC5FEBE8DD22DF0F900394CD
:1022600001FC9058ECEAF0E010C09F3F49F091501B
:1022700028F4869577956795B7959F5F80389F4F2F
:10228000880F9695879597F908959F938F937F93DD
:102290006F93FF93EF939B01AC013CDFEF91FF91B4
:1022A00005D02F913F914F915F9134CFDF93CF9322
:1022B0001F930F93FF92EF92DF927B018C01689442
:1022C00005C0DA2EEF0132DFFE01E894A5912591D9
:1022D000359145915591AEF3EF01A7DDFE019701D0
:1022E000A801DA9479F7DF90EF90FF900F911F919A
:1022F000CF91DF910895A1E21A2EAA1BBB1BFD010D
:102300000DC0AA1FBB1FEE1FFF1FA217B307E407D4
:10231000F50720F0A21BB30BE40BF50B661F771F2C
:10232000881F991F1A9469F760957095809590950C
:102330009B01AC01BD01CF01089597FB092E052635
:102340000ED057FD04D0D7DF0AD0001C38F45095CA
:102350004095309521953F4F4F4F5F4F0895F6F7C9
:1023600090958095709561957F4F8F4F9F4F089501
:10237000EE0FFF1F0590F491E02D0994F894FFCF24
:102380002000C202000000E1000000000000010186
:10239000000000007A026F0283028805630477025E
:1023A00079020000000088094B0A27094E09350907
:1023B000B009B40900000000DC0D4B0A7E0E3B0E94
:0223C0002E0EDF
:00000001FF
