:1070000055C000006EC000006CC000006AC00000E7
:1070100068C0000066C0000064C0000062C00000DC
:1070200060C000005EC00000E0C400005AC0000064
:1070300058C0000056C0000054C0000052C00000FC
:1070400050C0000095C000004CC000004AC00000C5
:1070500048C0000046C0000044C0000042C000001C
:1070600040C000003EC000003CC000003AC000002C
:1070700038C0000036C0000034C0000032C000003C
:1070800030C000002EC000002CC000002AC000004C
:1070900028C0000026C0000024C0000022C000005C
:1070A00020C000001EC000001CC0000011241FBE34
:1070B000CFEFDAE0DEBFCDBF11E0A0E0B1E0EEE05F
:1070C000FFE702C005900D92A03BB107D9F711E090
:1070D000A0EBB1E001C01D92A93CB107E1F732D3AA
:1070E00014C78ECF84E08093E9000DC08091E80042
:1070F0008B778093E80003C08EB3882359F080918A
:10710000E80082FFF9CF8091E80085FFEFCF809102
:10711000F100089580E0089593E09093E900909144
:10712000E80095FD0DC09091E8009E779093E800EF
:1071300003C09EB3992369F09091E80090FFF9CFC6
:107140008093F1005D9884E690E09093B70180937E
:10715000B6010895F89410926F001092810081E0BA
:1071600085BF15BE47985D9A289A0C940000089533
:107170001F920F920FB60F9211242F938F939F930C
:10718000EF93FF9310928500109284008091B601D6
:107190009091B701009741F001979093B7018093C8
:1071A000B601009709F45D9A8091B4019091B50100
:1071B000009741F001979093B5018093B401009737
:1071C00009F4289A8091B0019091B10101969093B1
:1071D000B1018093B001E0E0F0E0859194912FEF50
:1071E0008F3F920749F08091B2019091B3010196CF
:1071F0009093B3018093B201FF91EF919F918F9192
:107200002F910F900FBE0F901F90189582E061ECA8
:1072100042E066D383E061E842E162D384E060E863
:1072200042E15EC38091C101982F9F77913249F569
:107230009091C2019032A1F0913219F5813A09F58D
:107240008091E800877F8093E8008DE091E067E01F
:1072500070E07CD48091E8008B778093E8000895FB
:10726000813279F48091E800877F8093E8008DE097
:1072700091E067E070E0C9D48091E8008E77809358
:10728000E80008954F925F926F927F928F929F9243
:10729000AF92BF92CF92DF92EF92FF920F931F9324
:1072A000CF93DF9384E08093E9008091E80082FF30
:1072B00038C2289884E690E09093B5018093B40199
:1072C00011DFC82F853481F48CE49DE19093B301E4
:1072D0008093B20107B600FCFDCFF999FECF81E1A2
:1072E00080935700E89503C0843519F4FBDE8DE0E8
:1072F000EEC18C34E1F38035D1F3843721F484E49A
:107300000BDF80E0E4C1813611F489E5E0C181340E
:1073100001F5E8DEC82FE6DE482F50E0440F551F88
:10732000662757FD6095762F3C2F330F20E0C9016B
:10733000AA2797FDA095BA2F482B592B6A2B7B2B98
:107340004093B9015093BA016093BB017093BC01A3
:10735000CECF803711F483E5BAC1833541F4C0E064
:10736000D1E007E08991D8DE0150E1F7B1C186355F
:1073700021F481E3D1DE80E3AAC1833731F487E8C9
:10738000CBDE85E9C9DE8EE1A2C18536B9F4E0E045
:10739000F0E093E085E090935700E89507B600FC95
:1073A000FDCF80935700E89507B600FCFDCFE0586D
:1073B000FF4F20E7E030F20771F799CF823719F4D9
:1073C000E1E0F0E00EC0863419F4E0E0F0E009C03E
:1073D0008E3419F4E3E0F0E004C0813539F4E2E0E2
:1073E000F0E089E080935700849171C1823631F4D6
:1073F00089E592DE80E090DE80E869C1823419F090
:10740000873609F0DAC01092B3011092B2016ADE39
:10741000C82E68DE082F66DED82F8554823008F02B
:1074200055C13C2D20E010E0022B132B10926F0071
:10743000C73609F045C081E180935700E895C0E068
:10744000BB24B39438C0C090B901D090BA01E09089
:10745000BB01F090BC01D634B9F4EC2FF0E0EC297C
:10746000FD29849159DECC2369F0D701C60102962B
:10747000A11DB11D8093B9019093BA01A093BB01E6
:10748000B093BC01CB2515C0D701C601B695A79511
:107490009795879524D540DED701C6010296A11D98
:1074A000B11D8093B9019093BA01A093BB01B09331
:1074B000BC01015010400115110509F0C4CF79C07D
:1074C0004090B9015090BA016090BB017090BC012E
:1074D000D63409F05AC083E0F20180935700E89552
:1074E00007B600FCFDCF51C0D63449F5CC2319F1C5
:1074F000C090B901D090BA01E090BB01F090BC01FE
:10750000F1DD982E88248B2D90E088299929F601A9
:107510000C01A0925700E8951124D701C6010296EC
:10752000A11DB11D8093B9019093BA01A093BB0135
:10753000B093BC0102C0D6DDB82ECA2523C0C090CE
:10754000B901D090BA01E090BB01F090BC01F69473
:10755000E794D794C794C6DD682FC601C8D480913C
:10756000B9019091BA01A091BB01B091BC01029602
:10757000A11DB11D8093B9019093BA01A093BB01E5
:10758000B093BC010150104004C0BB24C0E0AA2449
:10759000A3940115110509F0A7CFD63441F485E075
:1075A000F20180935700E89507B600FCFDCF8DE00F
:1075B000B3DD82E080936F008BC0833471F4C0919F
:1075C000B901D091BA018EDD90E021E0FE010C01FD
:1075D00020935700E89511248ACE8336A9F4C090F1
:1075E000B901D090BA01E090BB01F090BC017ADD06
:1075F000F601E16090E021E00C0120935700E8954E
:107600001124D701C60134C08D3661F4E091B9016F
:10761000F091BA0185E080935700E89507B600FC29
:10762000FDCF65CE823551F4E091B901F091BA01F8
:10763000C591D4918D2F70DD8C2F49C0843421F5F4
:10764000C090B901D090BA01E090BB01F090BC01AC
:10765000F694E794D794C79445DD682FC60147D4C4
:107660008091B9019091BA01A091BB01B091BC0188
:107670000296A11DB11D8093B9019093BA01A09308
:10768000BB01B093BC0133CE8436F1F4C090B90194
:10769000D090BA01E090BB01F090BC01D701C601C7
:1076A000B695A795979587951AD436DDD701C6016B
:1076B0000296A11DB11D8093B9019093BA01A093C8
:1076C000BB01B093BC0104C08B3111F08FE324DD0A
:1076D00083E08093E9009091E8008091E8008E7744
:1076E0008093E80095FF04C010C08EB38823C9F0D2
:1076F0008091E80080FFF9CF8091E8008E77809339
:10770000E80003C08EB3882361F08091E80080FF19
:10771000F9CF84E08093E9008091E8008B77809333
:10772000E800DF91CF911F910F91FF90EF90DF90D4
:10773000CF90BF90AF909F908F907F906F905F9011
:107740004F900895CF93209100081092000844B7FD
:1077500014BE88E10FB6F894809360001092600028
:107760000FBE90E880E00FB6F8949093610080938C
:1077700061000FBE31E035BF82E085BF3F9A209A9D
:10778000559A909361001092610047985D9A289AEB
:10779000109289009AEF9093880080936F0083E0A5
:1077A00080938100E0E0F0E0859194915FEF8F3F5E
:1077B000950711F03093B80141FF1CC080910B0177
:1077C0002817C1F080930008789480910C018823D9
:1077D00041F08091B0019091B10122E08F3E92077B
:1077E000C0F310920C01F8941092000881E080938D
:1077F0000C010CC040FF04C08091B801882351F4F3
:1078000043FF09C080910B01281729F08091B8012E
:10781000882309F09FDCD1D078941092B3011092A4
:10782000B201CEEF21C02EDD48D38091B2019091FC
:10783000B3013FE18134930710F010920C01809165
:10784000BD019091BE0101969093BE018093BD0150
:10785000292F97FF03C05C2F591B252F220F2817B4
:1078600010F4479801C0479A80910C018823D9F6FB
:107870008091E00081608093E0006CDC80E090E02B
:10788000CF910895923029F0933041F0913061F416
:1078900010C08EE390E020E631E01EC0882371F036
:1078A000813089F08230A1F080E090E020E030E08B
:1078B00013C082E190E02EE931E00EC084E090E058
:1078C0002CE531E009C082E290E028E331E004C019
:1078D00082E290E024E131E0FA01318320830895CF
:1078E0008093E900EBEEF0E0808181608083EDEE33
:1078F000F0E010826093EC0040838091EE00881FDE
:107900008827881F08958091C10187FF11C003C097
:107910008EB38823B1F08091E80082FFF9CF809187
:10792000E8008B778093E80008958EB3882349F0B0
:107930008091E80080FFF9CF8091E8008E778093F6
:10794000E80008950F931F93CF93DF9341D048D061
:10795000C8EDD0E088818F778883888180688883AC
:1079600088818F7D888319BC1EBA1092BF0100EEFA
:1079700010E0F80180818B7F80838881816088831B
:1079800080E060E042E0ACDFE1EEF0E080818E7FFD
:107990008083E2EEF0E08081816080838081886076
:1079A0008083F80180818E7F8083888180618883D5
:1079B000DF91CF911F910F910895E7EDF0E0808165
:1079C000816080838AE482BF81E08093C001BACF66
:1079D000E8EDF0E080818E7F80831092E2000895D0
:1079E0001092DA001092E10008951F920F920FB6E4
:1079F0000F9211242F933F934F935F936F937F9335
:107A00008F939F93AF93BF93EF93FF938091DA008F
:107A100080FF1BC08091D80080FF17C08091DA00E2
:107A20008E7F8093DA008091D90080FF0BC080E1C7
:107A300089BD82E189BD09B400FEFDCF81E08EBB26
:107A40003BD203C019BC1EBA37D28091E10080FF3F
:107A500017C08091E20080FF13C08091E2008E7F0A
:107A60008093E2008091E20080618093E200809147
:107A7000D80080628093D80019BC85E08EBB1CD2F0
:107A80008091E10084FF2CC08091E20084FF28C037
:107A900080E189BD82E189BD09B400FEFDCF8091FE
:107AA000D8008F7D8093D8008091E1008F7E8093F5
:107AB000E1008091E2008F7E8093E2008091E200FD
:107AC00081608093E2008091BF01882321F480913E
:107AD000E30087FF02C084E001C081E08EBBECD1EF
:107AE0008091E10083FF21C08091E20083FF1DC0EF
:107AF0008091E100877F8093E10082E08EBB10924D
:107B0000BF018091E1008E7F8093E1008091E200CF
:107B10008E7F8093E2008091E20080618093E2009A
:107B200080E060E042E0DCDEC7D1FF91EF91BF91E1
:107B3000AF919F918F917F916F915F914F913F9105
:107B40002F910F900FBE0F901F9018954091C70175
:107B50005091C8014617570720F4BA01FC0140E0D4
:107B60003BC061157105D1F74091E8004E77409315
:107B7000E800F4CF8EB3882309F443C08530E9F1DF
:107B80008091E80083FD3BC08091E80082FD2FC01A
:107B90008091E80080FF20C09091F3008091F20076
:107BA000392F20E090E0822B932B06C04191409327
:107BB000F1006150704001966115710519F088302F
:107BC0009105A0F341E08830910509F040E08091F3
:107BD000E8008E778093E8006115710559F644231B
:107BE00049F605C08EB3882361F0853061F080913D
:107BF000E80082FFF7CF80E0089583E0089581E0F8
:107C0000089582E0089583E008956115710529F4CF
:107C10004091E8004B774093E800582F492F2AC045
:107C20008EB38823D1F18530A1F18091E80083FDE6
:107C300032C08091E80082FFF3CFE52FF42F08C017
:107C40008091F10081935E2F4F2F6150704069F059
:107C50005E2F4F2F9091F3008091F200392F20E09A
:107C600090E0822B932B009759F78091E8008B7757
:107C70008093E8006115710599F605C08EB38823DD
:107C800061F0853061F08091E80080FFF7CF80E0FF
:107C9000089583E0089581E0089582E0089583E0E7
:107CA00008950F931F93CF93DF9300D0CDB7DEB726
:107CB00088E0E1ECF1E09091F10091938150D9F7E7
:107CC000B1DA8091E80083FFE2C08091C101909118
:107CD000C201953009F46BC0963040F4913061F1E7
:107CE000913070F0933009F0D2C026C0983009F47A
:107CF000A1C0993009F4B0C0963009F0C8C07AC06C
:107D0000803809F4C4C0823809F0C1C08091C5012F
:107D100087708093E9009091EB001092E9008091C8
:107D2000E800877F8093E80081E095FF80E0809302
:107D3000F1001092F10089C0882319F0823009F017
:107D4000A6C08F71823009F0A2C08091C301882340
:107D500041F52091C501277009F499C02093E900ED
:107D60008091EB0080FF1DC08091C201833021F41F
:107D70008091EB00806213C08091EB008061809362
:107D8000EB0081E090E002C0880F991F2A95E2F78E
:107D90008093EA001092EA008091EB008860809363
:107DA000EB001092E9008091E800877F51C08823A2
:107DB00009F06DC01091C3011F770FB7F89480913F
:107DC000E800877F8093E8009EDD8091E80080FFD7
:107DD000FCCF8091E3008078812B8093E300806862
:107DE0008093E300112311F083E001C082E08EBB99
:107DF0000FBF4DC08058823008F049C08091C30148
:107E00009091C4016091C501AE014F5F5F4F3ADDB3
:107E1000BC01009709F43BC08091E800877F809304
:107E2000E80089819A8192DE8091E8008B778093C7
:107E3000E8002DC0803859F58091E800877F809355
:107E4000E8008091BF018093F1008091E8008E7777
:107E50008093E80058DD1BC08823C9F49091C301CA
:107E60009230A8F48091E800877F8093E800909397
:107E7000BF0149DD8091BF01882321F48091E30097
:107E800087FF02C084E001C081E08EBBBFD9809132
:107E9000E80083FF0AC08091EB0080628093EB00D2
:107EA0008091E800877F8093E8000F900F90DF912A
:107EB000CF911F910F9108950895CF938EB388238A
:107EC00061F0C091E900C7701092E9008091E8006C
:107ED00083FF01C0E6DEC093E900CF910895F999D0
:107EE000FECF92BD81BDF89A992780B50895262FBF
:107EF000F999FECF1FBA92BD81BD20BD0FB6F8948F
:0E7F0000FA9AF99A0FBE01960895F894FFCFF1
:107F0E004341544552494E4100000877010000009C
:107F1E0000000008220342006C0069006E006B0036
:107F2E006900760065007200730065002C00200069
:107F3E004C004C0043000000220342006C0069001C
:107F4E006E006B0079005400610070006500200027
:107F5E00200020002000200020000000040309045F
:107F6E0009023E00020100803209040000010202F3
:107F7E00010005240010010424020405240600015A
:107F8E00070582030800FF09040100020A00000031
:107F9E0007050402100001070583021000011201FB
:107FAE00100102000008501D6C600100020100016A
:100000000C9486010C94AE010C94AE010C94AE01DC
:100010000C94AE010C94AE010C94AE010C94AE01A4
:100020000C94AE010C94AE010C94330C0C94BA0CED
:100030000C94AE010C94AE010C94AE010C94AE0184
:100040000C94AE010C94AE010C94AE010C94AE0174
:100050000C94AE010C94AE010C94AE010C94740798
:100060000C94AE010C94AE010C94AE010C94AE0154
:100070000C94AE010C94AE010C94AE010C94AE0144
:100080000C94AE010C94AE010C94AE010C94AE0134
:100090000C94AE010C94AE010C94AE010C94AE0124
:1000A0000C94AE010C94AE010C94AE0105A84CCD9D
:1000B000B2D44EB93836A9020C50B9918688083CA2
:1000C000A6AAAA2ABE000000803F0000000024006B
:1000D00027002A002D003000000000002500280025
:1000E0002B002E0031000000000023002600290014
:1000F0002C002F000404040404030405020202027D
:1001000004030202020206060606060604040202B0
:10011000020404080201104080401020408040800A
:10012000080204018040201002011080102040408D
:100130000000000200080E0000030401000B000094
:1001400000000000000000000000000000000706A2
:1001500005040100080A0B0C0D09080B000202023D
:100160000100090400000102020000052400100142
:1001700005240101010424020605240600010705E7
:10018000810310004009040100020A000000070575
:100190000202400000070583024000000403090436
:1001A0002203410072006400750069006E006F0058
:1001B00020004C0065006F006E006100720064005A
:1001C0006F001803410072006400750069006E0042
:1001D0006F0020004C004C004300120100020000A0
:1001E000004041233680000101020001120100029B
:1001F000020000404123368000010102000100C1DD
:100200008081C105010902A1010901A10085010543
:10021000091901290315002501950375018102952E
:10022000017505810305010930093109381581255A
:100230007F750895038106C0C005010906A10185E7
:1002400002050719E029E7150025017501950881C8
:100250000295017508810395067508150025650549
:1002600007190029658100C009040200010300008C
:1002700000092101010001226500070584034000F7
:100280000100000000000000002A2B2800000000F0
:10029000000000000000000000000000000000005E
:1002A000002C9EB4A0A1A2A434A6A7A5AE362D37DB
:1002B00038271E1F20212223242526B333B62EB72C
:1002C000B89F8485868788898A8B8C8D8E8F909144
:1002D00092939495969798999A9B9C9D2F3130A3D1
:1002E000AD350405060708090A0B0C0D0E0F101199
:1002F00012131415161718191A1B1C1DAFB1B0B51F
:100300000000DF015807B1096F0B720F11241FBEE7
:10031000CFEFDAE0DEBFCDBF11E0A0E0B1E0E0E773
:10032000F6E202C005900D92A234B107D9F712E0AF
:10033000A2E4B1E001C01D92A23CB107E1F713E0D5
:10034000CCE0D3E004C02297FE010E943213C230F9
:10035000D107C9F70E947C0A0C9436130C94000054
:10036000FC01A081B1812D913C91F901099508957D
:1003700081E008950895FC013F9A80E8828388E235
:1003800090E0948383830895DF93CF9300D00F92FE
:10039000CDB7DEB7DC01AB01ED91FC910680F781B2
:1003A000E02D19821A821B82BE016F5F7F4F20E011
:1003B00009950F900F900F90CF91DF9108950895B8
:1003C0004F925F926F927F928F929F92AF92BF9265
:1003D000CF92DF92EF92FF920F931F93DF93CF9311
:1003E00000D00F92CDB7DEB742E4842E41E0942EC8
:1003F000662477243CE3432E512CB301882777FDF4
:100400008095982F0E9476115B016C0120E030E00E
:1004100040E05FE30E9402127B018C0160910402C4
:1004200070910502882777FD8095982F0E9476119C
:1004300020E030E040E85EE30E9402129B01AC0144
:10044000C801B7010E947C100E94651220E030E0D4
:1004500040E85FE30E947C1020E030E040E852E496
:100460000E9402120E944811F4016083609102020E
:1004700070910302882777FD8095982F0E9476114E
:1004800020E030E040E151E40E94E0109B01AC012B
:10049000C601B5010E947C1026E636E646E050E42F
:1004A0000E947C100E94651220E030E040E85FE38B
:1004B0000E947C1020E030E040E852E40E940212EA
:1004C0000E944811F4016183C601B50120E030E0CB
:1004D00040E450E40E94E0107B018C016091000236
:1004E00070910102882777FD8095982F0E947611E0
:1004F00020E030E040E651E40E94E0109B01AC01B6
:10050000C801B7010E947C1026E636E646E850E4B2
:100510000E947C100E94651220E030E040E85FE31A
:100520000E947C1020E030E040E852E40E94021279
:100530000E944811F40162830E94BC072091F601D9
:100540003091F7014091F8015091F901621B730B52
:10055000840B950B603171058105910500F1809147
:10056000FC019091FD01CE97D4F40E94BC076093EA
:10057000F6017093F7018093F8019093F90180914F
:10058000FC019091FD019201281B390B3093FF0172
:100590002093FE0101969093FD018093FC018091D0
:1005A000FE019091FF01FC01EE0FFF1FE80FF91F04
:1005B000EE5BFE4F08C019821A821B8210821182E4
:1005C00012820197339797FFF6CF0894611C711C34
:1005D00083E090E0880E991E9CE36916710409F08F
:1005E0000CCF86E092E0609148020E94D306809191
:1005F00004029091050201969093050280930402F3
:1006000080910202909103020196909303028093DD
:1006100002028091000290910102029690930102E1
:10062000809300020F900F900F90CF91DF911F9158
:100630000F91FF90EF90DF90CF90BF90AF909F9081
:100640008F907F906F905F904F900895CF92DF9240
:10065000EF92FF920F931F938AE00E9436098C015C
:1006600087E00E9436097C018BE00E9436096C010C
:1006700089E00E94360973E0000F111F7A95E1F7B7
:10068000EE0CFF1CEE0CFF1C0E29082BCC0CDD1C05
:10069000802F8C291F910F91FF90EF90DF90CF90CA
:1006A0000895CF92DF92EF92FF920F931F93DF9303
:1006B000CF9300D000D000D0CDB7DEB77E01089434
:1006C000E11CF11CB4E0CB2ED12CCC0EDD1E8AE94E
:1006D00092E00E9467090397D4F387018AE992E0C8
:1006E0000E948E098F3F39F0F8018083802F8E1988
:1006F000823061F512C086E092E0609148020E946B
:10070000D3060E942603682F8AE992E00E94C80956
:100710001092FB011092FA01DACF8091FA019091C8
:10072000FB013A814B8129812C833D834E83FC015F
:10073000EE0FFF1FE80FF91FEE5BFE4F20833183A2
:10074000428301969093FB018093FA010F5F1F4F44
:100750000C151D0519F6BBCF8AE992E00E946709C6
:100760001816190614F40E9451030E94E00108951E
:100770000F931F938C010E94CA079B01AC01F801E3
:1007800080819181A281B381281B390B4A0B5B0BBD
:10079000223331054105510534F482E390E0821B98
:1007A000930B0E9449081F910F910895CF92DF92F9
:1007B000EF92FF920F931F93CF93DF936C01162F4D
:1007C000072FEA01E22E05960E94B803F894212F24
:1007D000302FC901FC01BE01660F771F6C0F7D1F12
:1007E0006E0F7F1F58B1506888B18F7788B921810B
:1007F0003E2D239F212DC3C095E058B9001400144D
:10080000001427FF88B9001400140014001488B9DC
:10081000001400140014220F915079F7001458B9F5
:1008200000140014001427FF88B9001400140014E9
:10083000001488B9001402E00A95F1F758B90014C1
:100840000014001426FF88B90014001400140014CA
:1008500088B90014001430814E2D349F312D58B9C1
:1008600000140014001425FF88B9001400140014AB
:10087000001488B902E00A95F1F795E058B9001420
:100880000014001437FF88B9001400140014001479
:1008900088B9001400140014330F915079F7001434
:1008A00058B900140014001437FF88B9001400145C
:1008B0000014001488B9001402E00A95F1F758B941
:1008C00000140014001436FF88B90014001400143A
:1008D000001488B90014001442812E2D429F412D2E
:1008E00058B900140014001435FF88B9001400141E
:1008F0000014001488B902E00A95F1F795E058B9A0
:1009000000140014001447FF88B9001400140014E8
:10091000001488B9001400140014440F915079F7A2
:10092000001458B900140014001447FF88B90014CB
:1009300000140014001488B90014001400140014EA
:100940000014339658B900140014001446FF88B9F7
:10095000001400140014001488B90014001421813C
:100960003E2D239F212D58B900140014001445FF7B
:1009700088B9001400140014001488B90014E61794
:10098000F70708F439CF1124E0905102F090520299
:100990000091530210915402BE0183E0660F771F4D
:1009A0008A95E1F76C0F7D1F882777FD8095982F3A
:1009B00028EE33E040E050E00E941513E20EF31EF3
:1009C000041F151FE0925102F0925202009353024D
:1009D0001093540278940E94CA07F60165837683C7
:1009E00087839087DF91CF911F910F91FF90EF90B8
:1009F000DF90CF900895AF92BF92CF92DF92EF92A7
:100A0000FF920F931F93CF93DF935C01EB016A0179
:100A1000122F05960E94B803F894B601660F771F4F
:100A20006C0D7D1D6C0F7D1F58B1506888B18F779C
:100A300088B9A9812A2F219F212DFE01C0C095E0F0
:100A400058B900140014001427FF88B900140014CA
:100A50000014001488B9001400140014220F9150DF
:100A600079F7001458B900140014001427FF88B94E
:100A7000001400140014001488B9001402E00A9550
:100A8000F1F758B900140014001426FF88B90014B7
:100A900000140014001488B9001400143881319F28
:100AA000312D58B900140014001425FF88B9001422
:100AB00000140014001488B902E00A95F1F795E0DB
:100AC00058B900140014001437FF88B9001400143A
:100AD0000014001488B9001400140014330F91504E
:100AE00079F7001458B900140014001437FF88B9BE
:100AF000001400140014001488B9001402E00A95D0
:100B0000F1F758B900140014001436FF88B9001426
:100B100000140014001488B9001400144A81419F85
:100B2000412D58B900140014001435FF88B9001481
:100B300000140014001488B902E00A95F1F795E05A
:100B400058B900140014001447FF88B900140014A9
:100B50000014001488B9001400140014440F9150BC
:100B600079F7001458B900140014001447FF88B92D
:100B7000001400140014001488B9001400140014A8
:100B800000140014339658B900140014001446FFE2
:100B900088B9001400140014001488B9001400145B
:100BA0002A2F219F212D58B900140014001445FF4D
:100BB00088B9001400140014001488B90014E61752
:100BC000F70708F43CCF1124E0905102F090520254
:100BD0000091530210915402B60123E0660F771F73
:100BE0002A95E1F76C0D7D1D882777FD8095982F5C
:100BF00028EE33E040E050E00E941513E20EF31EB1
:100C0000041F151FE0925102F0925202009353020A
:100C10001093540278940E94CA07F5016583768385
:100C200087839087DF91CF911F910F91FF90EF9075
:100C3000DF90CF90BF90AF900895EF92FF920F9307
:100C40001F93DF93CF9300D00F92CDB7DEB78AE921
:100C500092E060E071EE0E94660989E090E00E94F7
:100C60008F0AFC01158216821782108684E191E0BA
:100C70009183808346E0E42E42E0F42EC701BF0159
:100C800042E451E02CE330E000E010E00E947E06F8
:100C900019821A821B82C701BE016F5F7F4F40918C
:100CA00048020E940F0786EE80934802C70166EE55
:100CB0000E94D3068AE062E00E94A90887E062E011
:100CC0000E94A9088BE062E00E94A90889E062E026
:100CD0000E94A9080E94BC076093F6017093F70177
:100CE0008093F8019093F9010F900F900F90CF919E
:100CF000DF911F910F91FF90EF900895DF92EF9297
:100D0000FF920F931F93CF93DF93EC017B0110169B
:100D100011062CF0D22E032F20E030E002C0D02E9E
:100D2000012FC05CDF4FA881B981C054D040FE01C3
:100D300060E070E007C0808191813896892B41F096
:100D40006F5F7F4F6A177B07B4F3EE24FF2422C046
:100D5000E3E0660F771FEA95E1F7DE01A60FB71F04
:100D60001196FC92EE92FE01E60FF71F5383428329
:100D700017963C932E931697FB013496EC0FFD1FAC
:100D8000D0820183D701ED91FC910190F081E02D9B
:100D9000C7010995C701DF91CF911F910F91FF9076
:100DA000EF90DF900895DF92EF92FF920F931F93E1
:100DB000CF93DF93D62EEC0100E010E050E4E52E57
:100DC000F12CE80EF91E1DC0A881B9811097F9F029
:100DD000ED91FC9111972E813F81C901880F991FD8
:100DE000820F931F6A817B81680F791F4C815D811F
:100DF0000084F185E02DCD012D2D09950F5F1F4F4A
:100E00002896F7018081918108171907ECF2DF918C
:100E1000CF911F910F91FF90EF90DF900895BF92B7
:100E2000CF92DF92EF92FF920F931F93CF93DF93B6
:100E30006B01B42EEC0100E010E060E4E62EF12C32
:100E4000E80EF91E13C0A881B9811097A9F0ED91A1
:100E5000FC9111974C815D810680F781E02DCD01D9
:100E6000B6012B2D09950F5F1F4F2896F701808142
:100E70009181081719073CF3DF91CF911F910F91D2
:100E8000FF90EF90DF90CF90BF900895FC01E05C61
:100E9000FF4F88E090E0819391938FEF8083E2543D
:100EA000F040CF0160E040E450E00E9469070895FF
:100EB00086E092E00E94460788EA94E6ACEFB0E054
:100EC0008093490290934A02A0934B02B0934C0244
:100ED0000895DC0140FF03C001C06D936D93425043
:100EE000E0F75040D0F708951F920F920FB60F927F
:100EF00011242F933F938F939F93AF93BF93809130
:100F0000510290915202A0915302B091540230913B
:100F100055020196A11DB11D232F2D5F2D3720F005
:100F20002D570196A11DB11D2093550280935102AA
:100F300090935202A0935302B093540280914D02B9
:100F400090914E02A0914F02B09150020196A11DC6
:100F5000B11D80934D0290934E02A0934F02B09327
:100F60005002BF91AF919F918F913F912F910F9020
:100F70000FBE0F901F9018958FB7F89420915102D3
:100F80003091520240915302509154028FBFB901E7
:100F9000CA0108959FB7F89420914D0230914E02F6
:100FA00040914F025091500286B5A89B06C08F3FDA
:100FB00021F02F5F3F4F4F4F5F4F9FBF542F432F65
:100FC000322F2227280F311D411D511D82E0220F93
:100FD000331F441F551F8A95D1F7B901CA010895DF
:100FE0009B01AC017FB7F89480914D0290914E0225
:100FF000A0914F02B091500266B5A89B05C06F3F0B
:1010000019F00196A11DB11D7FBFBA2FA92F982FEE
:101010008827860F911DA11DB11D62E0880F991FC1
:10102000AA1FBB1F6A95D1F7BC012DC0FFB7F8946A
:1010300080914D0290914E02A0914F02B0915002CA
:10104000E6B5A89B05C0EF3F19F00196A11DB11DA3
:10105000FFBFBA2FA92F982F88278E0F911DA11D92
:10106000B11DE2E0880F991FAA1FBB1FEA95D1F7B7
:10107000861B970B885E9340C8F221503040404059
:10108000504068517C4F211531054105510571F6DD
:101090000895019739F0880F991F880F991F0297BB
:1010A0000197F1F70895789484B5826084BD84B582
:1010B000816084BD85B5826085BD85B5816085BD53
:1010C000EEE6F0E0808181608083E1E8F0E010826C
:1010D000808182608083808181608083E0E8F0E0AD
:1010E000808181608083E1E9F0E08081826080839B
:1010F000808181608083E0E9F0E08081816080838D
:10110000E1ECF0E080818460808380818260808374
:10111000808181608083E3ECF0E080818160808366
:10112000E0ECF0E0808182608083E2ECF0E080819E
:1011300081608083EAE7F0E0808184608083808141
:1011400082608083808181608083808180688083E9
:101150000895CF93DF93482F50E0CA018E5E9E4FD3
:10116000FC0134914C505F4FFA018491882369F15E
:1011700090E0880F991FFC01E653FF4FA591B491B1
:10118000FC01E852FF4FC591D491662351F42FB76B
:10119000F8948C91932F909589238C93888189233F
:1011A0000BC0623061F42FB7F8948C91932F909517
:1011B00089238C938881832B88832FBF06C09FB798
:1011C000F8948C91832B8C939FBFDF91CF910895DE
:1011D000883071F1893068F4823031F1833020F445
:1011E000813009F042C01DC0833089F08430E9F5B8
:1011F00012C08B3059F18C3028F48930E9F08A30F4
:10120000A1F51EC08C3031F18E3079F529C0809166
:1012100080008F7703C0809180008F7D8093800055
:10122000089584B58F7702C084B58F7D84BD0895FD
:10123000809190008F7707C0809190008F7D03C0D0
:1012400080919000877F8093900008958091C000E6
:101250008F7703C08091C0008F7D8093C000089578
:101260008091C200877F8093C20008950F931F93DF
:10127000482F50E0CA01805D9E4FFC012491CA01B5
:101280008E5E9E4FFC0104914C505F4FFA01149109
:10129000112319F420E030E015C0222319F0822F29
:1012A0000E94E808812F90E0880F991F8A519F4F74
:1012B000FC01A591B4918C9120E030E0802311F0E5
:1012C00021E030E0C9011F910F9108950895209108
:1012D0009602309197028091980290919902281B72
:1012E000390B2F733070C901089520919602309107
:1012F000970280919802909199022817390719F462
:101300002FEF3FEF09C0E0919802F0919902EA5A5D
:10131000FD4F8081282F30E0C90108952091960269
:10132000309197028091980290919902281739077D
:1013300019F42FEF3FEF13C0E0919802F09199025A
:10134000EA5AFD4F2081809198029091990201966E
:101350008F739070909399028093980230E0C90146
:10136000089510929D0210929C0288EE93E0A0E0F6
:10137000B0E080939E0290939F02A093A002B0934E
:10138000A10286E291E090939B0280939A020895D5
:101390000F931F93DF93CF930F92CDB7DEB78C01DE
:1013A000698380910701882369F083E0BE016F5F44
:1013B0007F4F41E050E00E948E0B1816190614F47E
:1013C0009C0107C081E090E0F8019383828320E0D4
:1013D00030E0C9010F90CF91DF911F910F910895D7
:1013E00083E00E94650B0895CF93DF9312C082E0E3
:1013F0000E94F00A2FEF8F3F9207C9F0E09196020A
:10140000F0919702EA5AFD4F8083D0939702C093E0
:101410009602C0919602D09197022196CF73D07018
:101420008091980290919902C817D90701F7DF912E
:10143000CF910895FC0180818E5F808380E86AE50A
:1014400071E042E450E00E94090B0895FC018181A3
:101450009081913A59F4813209F04CC080E060E00B
:1014600071E047E050E00E94090B42C0913209F060
:1014700041C0803239F480E091E067E070E00E9482
:101480004D0B36C0823209F035C08281809307014E
:101490008091000190910101A0910201B09103019E
:1014A000805B9440A040B04019F58091070180FD19
:1014B00012C087E797E790930108809300082BE01C
:1014C00088E190E00FB6F894A895809360000FBE75
:1014D000209360000DC088E10FB6F89480936000FF
:1014E000109260000FBEA89510920108109200089B
:1014F00081E0089580E00895CF93DF930E94530820
:1015000080EB92E00E94700B0E941D06C0E0D0E0CC
:101510000E94AC032097E1F30E940000F9CF0E94E3
:10152000030E0895CF92DF92EF92FF920F931F93D5
:10153000CF93DF937C016B018A01C0E0D0E00FC044
:10154000D6016D916D01D701ED91FC910190F08173
:10155000E02DC7010995C80FD91F01501040011592
:10156000110571F7CE01DF91CF911F910F91FF907F
:10157000EF90DF90CF900895282F8091AA028823C2
:10158000C1F057FF1AC015C028989093A902809106
:10159000F1008193E217F307B9F74115510539F0CE
:1015A0008091F200882319F48BE68093E800AFBFA6
:1015B00002C04FEF5FEFCA010895AFB7F8942770EC
:1015C0002093E9008091F200282F30E0241735079E
:1015D0000CF4A901FB019B01240F311D94E6DACF25
:1015E000DF93CF930F92CDB7DEB7BE016F5F7F4F12
:1015F00041E050E00E94BC0A019719F02FEF3FEF45
:1016000003C08981282F30E0C9010F90CF91DF916D
:101610000895FF920F931F93F82E142F052F4091DA
:10162000AD025091AE02212F302FC901DC01FB0128
:101630006EEF29C0F7FE02C0949101C09081209105
:10164000AB023091AC0224173507ACF48091E8006E
:101650008570E1F38091E80082FF03C02FEF3FEF38
:1016600017C09093F100C90101968F739070892B78
:1016700011F46093E8002F5F3F4F3093AC0220934A
:10168000AB02119731961097A9F6812F902F9C01EC
:10169000C9011F910F91FF9008959C018091E8006E
:1016A00082FFFCCFF901260F311D03C08091F100AC
:1016B0008193E217F307D1F7289884E68093A90273
:1016C0008BEF8093E800CB0108958093E90080912F
:1016D000F200882319F08AE38093E80008950895C2
:1016E0001092AA0281E08093D70080EA8093D8000C
:1016F00082E189BD09B400FEFDCF61E070E080E0C9
:1017000090E00E94F00780E98093D8008CE08093FD
:10171000E2001092E000559A209A08955F926F922D
:101720007F928F929F92AF92BF92CF92DF92EF9271
:10173000FF920F931F93CF93DF93E82E842E752E85
:101740008091AA02882371F18B01242F352FC901C2
:10175000EC017AEFF72E67E0962E9E2050E4552E8E
:101760008E2D90E040E2A42EB12CA822B9223AE3BB
:10177000632E20E4C22ED12CC822D92258C09FB794
:10178000F8949092E9008091E80085FD02C020E085
:1017900004C08091F200252D281B9FBF222361F4F5
:1017A000FA9419F42FEF3FEF4DC061E070E080E054
:1017B00090E00E94F0073BC0822F90E0C817D90745
:1017C0000CF42C2FC21BD1094FB7F8949092E9006A
:1017D000A114B10421F406C01092F100215022237B
:1017E000D9F719C0E7FC03C0F801922F10C0C80157
:1017F000322F06C0FC010196E491E093F1003150D4
:101800003323C1F706C081918093F1009150992351
:10181000D1F7020F111D8091E80085FF05C02097C8
:1018200029F4C114D10411F06092E8004FBF209751
:1018300009F0A5CF5D9884E68093A802282D372D66
:10184000C9019C01C901DF91CF911F910F91FF90B8
:10185000EF90DF90CF90BF90AF909F908F907F9050
:101860006F905F9008951F920F920FB60F92112400
:101870002F933F934F935F936F937F938F939F9398
:10188000AF93BF93EF93FF938091E1001092E1003B
:10189000982F83FF0FC01092E90081E08093EB0046
:1018A0001092EC0082E38093ED001092AA0288E08F
:1018B0008093F00092FF34C083E08093E900809130
:1018C000F200882319F08AE38093E8008FB7F89438
:1018D00092E09093E9009091F2008FBF992321F05C
:1018E0008AE992E00E94F4098091A802882351F0CD
:1018F0008091A80281508093A8028091A802882339
:1019000009F45D9A8091A902882351F08091A9027F
:1019100081508093A9028091A902882309F4289A12
:10192000FF91EF91BF91AF919F918F917F916F91B7
:101930005F914F913F912F910F900FBE0F901F908D
:1019400018950F931F93DF93CF930F92CDB7DEB708
:1019500019828E010F5F1F4FC8010E941A0AC80129
:101960000E946F10898190E00F90CF91DF911F91BD
:101970000F9108951F920F920FB60F921124EF92BC
:10198000FF921F932F933F934F935F936F937F9398
:101990008F939F93AF93BF93EF93FF93DF93CF9377
:1019A000CDB7DEB76197DEBFCDBF1092E900809161
:1019B000E80083FF0FC1FE0131969E01275F3F4F74
:1019C00003C08091F1008193E217F307D1F72898C3
:1019D00084E68093A90282EF8093E800998197FFC3
:1019E00005C08091E80080FFFCCF03C08EEF80939C
:1019F000E800292F30E0C90180769070892B09F02A
:101A0000C2C08A81882329F41092F1001092F1005B
:101A1000D6C0813009F4D3C0833009F4D0C08530FA
:101A200049F48091E80080FFFCCF8B81806880932F
:101A3000E300C5C0863009F07CC01C81EF80F884CB
:101A40001230C1F51092E9001092AC021092AB0274
:101A50001092AE021092AD020E94A10C99E0FE011C
:101A60003996DF01292F1D922A95E9F799871A8760
:101A700091E09E8790E8988B9AEF998B2091AB022A
:101A80003091AC02275F3F4F3C872B878D871092A8
:101A9000E9001092AC021092AB02F092AE02E0921A
:101AA000AD0280E0BF0149E050E00E94090B0E94B6
:101AB000A10C85C01092E9001092AC021092AB020A
:101AC000F092AE02E092AD02123241F482E290E076
:101AD0000E946710892B09F476C071C0113079F427
:101AE00088E0E816F10419F481E08093AF02809158
:101AF000AF02882309F06BC0EAEDF1E013C01330A8
:101B000009F061C08B81882319F4ECE9F1E00AC087
:101B1000823019F4E0EAF1E005C0813009F053C0E9
:101B2000E2ECF1E0449180E8BF0150E00E94090B33
:101B300046C0873009F447C0883021F481E08093A3
:101B4000F1003DC08930D9F523703070232BD9F5D1
:101B5000EFEFF1E091E031E026E39093E90030937C
:101B6000EB0084918093EC002093ED009F5F319611
:101B7000953099F78EE78093EA001092EA008B8106
:101B80008093AA021CC08F8198851092E900109260
:101B9000AC021092AB029093AE028093AD028D81A5
:101BA000882329F4CE0101960E94260A06C08230BD
:101BB00051F4CE0101960E94380F882321F08EEF58
:101BC0008093E80007C081E28093EB0003C0ECEE55
:101BD000F1E0A8CF6196DEBFCDBFCF91DF91FF913D
:101BE000EF91BF91AF919F918F917F916F915F9195
:101BF0004F913F912F911F91FF90EF900F900FBE4B
:101C00000F901F9018950F931F93CF93DF93BC01F4
:101C10008230910510F462E070E0E091C002F09132
:101C2000C102A0E0B0E040E050E024C0808191819A
:101C300086179707D0F08617970771F482819381F2
:101C4000109729F013969C938E9312972CC0909323
:101C5000C1028093C00227C04115510519F08417B5
:101C6000950718F4EF018D01AC01DF0182819381AA
:101C70009C01F9013097D1F641155105F9F0CA01DF
:101C8000861B970B8430910580F48A819B81011516
:101C9000110521F0F8019383828304C09093C1025F
:101CA0008093C002FE01329645C0FE01E80FF91F85
:101CB000619371930297998388833CC08091BE029F
:101CC0009091BF02892B41F480910A0190910B0100
:101CD0009093BF028093BE0240910C0150910D0180
:101CE0004115510541F44DB75EB7809108019091BF
:101CF0000901481B590B2091BE023091BF022417E5
:101D00003507B0F4CA01821B930B8617970780F042
:101D1000AB014E5F5F4F8417950750F0420F531F82
:101D20005093BF024093BE02F9016193719302C0C8
:101D3000E0E0F0E0CF01DF91CF911F910F91089586
:101D4000CF93DF939C01009709F48FC0EC01229799
:101D50001B821A826091C0027091C10261157105E7
:101D600081F488819981820F931F2091BE02309166
:101D7000BF022817390739F5D093BF02C093BE02BE
:101D800074C0DB0140E050E0AC17BD0708F1BB8335
:101D9000AA83FE0121913191E20FF31FAE17BF0715
:101DA00079F48D919C911197280F391F2E5F3F4F29
:101DB0003983288312968D919C9113979B838A83F4
:101DC0004115510571F4D093C102C093C0024DC0BA
:101DD00012968D919C911397AD01009711F0DC0143
:101DE000D3CFDA011396DC93CE931297FA012191A7
:101DF0003191E20FF31FCE17DF0769F488819981D3
:101E0000280F391F2E5F3F4FFA01318320838A81CB
:101E10009B8193838283E0E0F0E0DB0112968D9159
:101E20009C911397009719F0BC01FD01F6CFAB010F
:101E30004E5F5F4FDB018D919C91840F951F209128
:101E4000BE023091BF022817390779F4309729F480
:101E50001092C1021092C00202C01382128242503C
:101E600050405093BF024093BE02DF91CF9108953E
:101E7000FC0191818081813A31F4913089F080E0D8
:101E8000933089F40DC0813269F49B3021F4828152
:101E900080930E0105C09A3029F4828180930F014E
:101EA00081E0089580E00895EF92FF920F931F93D1
:101EB0008C01E62EDC01ED91FC910480F581E02D92
:101EC0000995F82ED801ED91FC910680F781E02D5F
:101ED000C8016E2D09958F2D90E01F910F91FF90F5
:101EE000EF9008951092B1021092B5021092B402D0
:101EF00088E391E09093B3028093B2020895EF9249
:101F0000FF920F931F93DF93CF930F92CDB7DEB75E
:101F100089838B017A0184E0BE016F5F7F4F41E0CE
:101F200050E00E948E0B84E4B801A7010E948E0B42
:101F30000F90CF91DF911F910F91FF90EF90089537
:101F400082E048E050E00E947F0F0895FC01168275
:101F50001782108611861286138614823496BF016A
:101F60000E94A00F0895DC01683810F0685829C05D
:101F7000E62FF0E067FF13C0E058F04081E090E00A
:101F800002C0880F991FEA95E2F7809514962C916C
:101F90001497282314962C93149760E012C0EF57DF
:101FA000FD4F6491662319F420E030E01DC067FF07
:101FB00008C014968C9114978D7F14968C93149767
:101FC0006F77FD0190E0662321F08681861709F482
:101FD00016829F5F31969630B1F7CD011496BD0100
:101FE0000E94A00F21E030E0C9010895CF93DF9354
:101FF000DC01683810F0685825C0E62FF0E067FF74
:1020000012C0E058F04081E090E002C0880F991FB4
:10201000EA95E2F714962C911497282B14962C939A
:10202000149760E00FC0EF57FD4F64916623D9F11C
:1020300067FF08C014968C911497826014968C9355
:1020400014976F7716968C9116978617A9F11796A5
:102050008C911797861781F118968C91189786178F
:1020600059F119968C911997861731F11A968C911E
:102070001A97861709F11B968C911B978617E1F02A
:10208000ED01E0E0F0E09E2F8E81882321F4EA0F3D
:10209000FB1F668306C09F5F31962196E630F105EF
:1020A00091F7963049F481E090E013969C938E93DB
:1020B000129720E030E007C0CD011496BD010E94C8
:1020C000A00F21E030E0C901DF91CF91089580E8B1
:1020D00063E072E045E650E00E94090B0895FC01C0
:1020E00080818F5F808380E868E672E049E150E09C
:1020F0000E94090B08955058BB27AA270ED048C14B
:1021000039D130F03ED120F031F49F3F11F41EF46C
:102110002EC10EF4E095E7FB24C1E92F4AD180F3EC
:10212000BA17620773078407950718F071F49EF5D4
:1021300062C10EF4E0950B2EBA2FA02D0B01B90150
:1021400090010C01CA01A0011124FF27591B99F02D
:10215000593F50F4503E68F11A16F040A22F232F39
:10216000342F4427585FF3CF469537952795A79589
:10217000F0405395C9F77EF41F16BA0B620B730B30
:10218000840BBAF09150A1F0FF0FBB1F661F771FA1
:10219000881FC2F70EC0BA0F621F731F841F48F456
:1021A000879577956795B795F7959E3F08F0B3CFDC
:1021B0009395880F08F09927EE0F979587950895C6
:1021C0000CD0E6C0DED040F0D5D030F021F45F3F37
:1021D00019F0C7C0511110C1CAC0EBD098F39923B0
:1021E000C9F35523B1F3951B550BBB27AA276217DB
:1021F0007307840738F09F5F5F4F220F331F441F20
:10220000AA1FA9F333D00E2E3AF0E0E830D0915057
:102210005040E695001CCAF729D0FE2F27D0660F44
:10222000771F881FBB1F261737074807AB07B0E883
:1022300009F0BB0B802DBF01FF2793585F4F2AF099
:102240009E3F510568F08DC0D7C05F3FECF3983ECC
:10225000DCF3869577956795B795F7959F5FC9F7F6
:10226000880F911D9695879597F90895E1E0660F7F
:10227000771F881FBB1F621773078407BA0720F0F8
:10228000621B730B840BBA0BEE1F88F7E095089561
:1022900098D088F09F5790F0B92F9927B751A0F0A8
:1022A000D1F0660F771F881F991F1AF0BA95C9F7EA
:1022B00012C0B13081F09FD0B1E008959CC0672F6B
:1022C000782F8827B85F39F0B93FCCF3869577959A
:1022D0006795B395D9F73EF4909580957095619583
:1022E0007F4F8F4F9F4F0895E89409C097FB3EF4AE
:1022F00090958095709561957F4F8F4F9F4F992353
:10230000A9F0F92F96E9BB279395F69587957795D0
:102310006795B795F111F8CFFAF4BB0F11F460FF90
:102320001BC06F5F7F4F8F4F9F4F16C0882311F0E8
:1023300096E911C0772321F09EE8872F762F05C0FC
:10234000662371F096E8862F70E060E02AF09A9597
:10235000660F771F881FDAF7880F9695879597F98C
:10236000089597F99F6780E870E060E008959FEF17
:1023700080EC089500240A9416161706180609061C
:10238000089500240A9412161306140605060895EB
:10239000092E0394000C11F4882352F0BB0F40F473
:1023A000BF2B11F460FF04C06F5F7F4F8F4F9F4FB3
:1023B000089557FD9058440F551F59F05F3F71F035
:1023C0004795880F97FB991F61F09F3F79F087959C
:1023D0000895121613061406551FF2CF4695F1DF25
:1023E00008C0161617061806991FF1CF86957105B5
:1023F000610508940895E894BB2766277727CB01E9
:1024000097F908950BD0C4CFB5DF28F0BADF18F0E4
:10241000952309F0A6CFABCF1124EECFCADFA0F3EE
:10242000959FD1F3950F50E0551F629FF001729F69
:10243000BB27F00DB11D639FAA27F00DB11DAA1F88
:10244000649F6627B00DA11D661F829F2227B00DD5
:10245000A11D621F739FB00DA11D621F839FA00D60
:10246000611D221F749F3327A00D611D231F849FB0
:10247000600D211D822F762F6A2F11249F57504007
:102480008AF0E1F088234AF0EE0FFF1FBB1F661FA2
:10249000771F881F91505040A9F79E3F510570F05B
:1024A00060CFAACF5F3FECF3983EDCF3869577953B
:1024B0006795B795F795E7959F5FC1F7FE2B880F56
:1024C000911D9695879597F908959F9305D00F9044
:1024D00007FCEE5F31C04BCF74DFE8F3E894EFEF19
:1024E000BB273FE048EC5FE76B3D73078407950728
:1024F00008F1FF279F57B25A6A4D7F40894CF04040
:1025000032F4BE556542704F8643FF4F0894EE1F6C
:10251000915030F0BB0F661F771F881FFF1FEBCF56
:102520009EE7882332F0BB0F661F771F881F9A959E
:10253000C1F79395E09511C0EF93E0FF06C0A2EAC2
:102540002AED3FE049EC5FEBE8DD22DF0F900394DA
:1025500001FC9058ECEAF0E010C09F3F49F0915028
:1025600028F4869577956795B7959F5F80389F4F3C
:10257000880F9695879597F908959F938F937F93EA
:102580006F93FF93EF939B01AC013CDFEF91FF91C1
:1025900005D02F913F914F915F9134CFDF93CF932F
:1025A0001F930F93FF92EF92DF927B018C0168944F
:1025B00005C0DA2EEF0132DFFE01E894A5912591E6
:1025C000359145915591AEF3EF01A7DDFE019701DD
:1025D000A801DA9479F7DF90EF90FF900F911F91A7
:1025E000CF91DF910895A1E21A2EAA1BBB1BFD011A
:1025F0000DC0AA1FBB1FEE1FFF1FA217B307E407E2
:10260000F50720F0A21BB30BE40BF50B661F771F39
:10261000881F991F1A9469F7609570958095909519
:102620009B01AC01BD01CF01089597FB092E052642
:102630000ED057FD04D0D7DF0AD0001C38F45095D7
:102640004095309521953F4F4F4F5F4F0895F6F7D6
:1026500090958095709561957F4F8F4F9F4F08950E
:10266000EE0FFF1F0590F491E02D0994F894FFCF31
:1026700000E10000000000008000C2020000010133
:1026800000000000BB01B001C401FB04D603B80187
:10269000BA0100000000C809920A67098E0975098D
:1026A000F009F40900000000540F920AF60FB30F6E
:0226B000A60F73
:00000001FF
