:1070000055C000006EC000006CC000006AC00000E7
:1070100068C0000066C0000064C0000062C00000DC
:1070200060C000005EC00000E0C400005AC0000064
:1070300058C0000056C0000054C0000052C00000FC
:1070400050C0000095C000004CC000004AC00000C5
:1070500048C0000046C0000044C0000042C000001C
:1070600040C000003EC000003CC000003AC000002C
:1070700038C0000036C0000034C0000032C000003C
:1070800030C000002EC000002CC000002AC000004C
:1070900028C0000026C0000024C0000022C000005C
:1070A00020C000001EC000001CC0000011241FBE34
:1070B000CFEFDAE0DEBFCDBF11E0A0E0B1E0EEE05F
:1070C000FFE702C005900D92A03BB107D9F711E090
:1070D000A0EBB1E001C01D92A93CB107E1F732D3AA
:1070E00014C78ECF84E08093E9000DC08091E80042
:1070F0008B778093E80003C08EB3882359F080918A
:10710000E80082FFF9CF8091E80085FFEFCF809102
:10711000F100089580E0089593E09093E900909144
:10712000E80095FD0DC09091E8009E779093E800EF
:1071300003C09EB3992369F09091E80090FFF9CFC6
:107140008093F1005D9884E690E09093B70180937E
:10715000B6010895F89410926F001092810081E0BA
:1071600085BF15BE47985D9A289A0C940000089533
:107170001F920F920FB60F9211242F938F939F930C
:10718000EF93FF9310928500109284008091B601D6
:107190009091B701009741F001979093B7018093C8
:1071A000B601009709F45D9A8091B4019091B50100
:1071B000009741F001979093B5018093B401009737
:1071C00009F4289A8091B0019091B10101969093B1
:1071D000B1018093B001E0E0F0E0859194912FEF50
:1071E0008F3F920749F08091B2019091B3010196CF
:1071F0009093B3018093B201FF91EF919F918F9192
:107200002F910F900FBE0F901F90189582E061ECA8
:1072100042E066D383E061E842E162D384E060E863
:1072200042E15EC38091C101982F9F77913249F569
:107230009091C2019032A1F0913219F5813A09F58D
:107240008091E800877F8093E8008DE091E067E01F
:1072500070E07CD48091E8008B778093E8000895FB
:10726000813279F48091E800877F8093E8008DE097
:1072700091E067E070E0C9D48091E8008E77809358
:10728000E80008954F925F926F927F928F929F9243
:10729000AF92BF92CF92DF92EF92FF920F931F9324
:1072A000CF93DF9384E08093E9008091E80082FF30
:1072B00038C2289884E690E09093B5018093B40199
:1072C00011DFC82F853481F48CE49DE19093B301E4
:1072D0008093B20107B600FCFDCFF999FECF81E1A2
:1072E00080935700E89503C0843519F4FBDE8DE0E8
:1072F000EEC18C34E1F38035D1F3843721F484E49A
:107300000BDF80E0E4C1813611F489E5E0C181340E
:1073100001F5E8DEC82FE6DE482F50E0440F551F88
:10732000662757FD6095762F3C2F330F20E0C9016B
:10733000AA2797FDA095BA2F482B592B6A2B7B2B98
:107340004093B9015093BA016093BB017093BC01A3
:10735000CECF803711F483E5BAC1833541F4C0E064
:10736000D1E007E08991D8DE0150E1F7B1C186355F
:1073700021F481E3D1DE80E3AAC1833731F487E8C9
:10738000CBDE85E9C9DE8EE1A2C18536B9F4E0E045
:10739000F0E093E085E090935700E89507B600FC95
:1073A000FDCF80935700E89507B600FCFDCFE0586D
:1073B000FF4F20E7E030F20771F799CF823719F4D9
:1073C000E1E0F0E00EC0863419F4E0E0F0E009C03E
:1073D0008E3419F4E3E0F0E004C0813539F4E2E0E2
:1073E000F0E089E080935700849171C1823631F4D6
:1073F00089E592DE80E090DE80E869C1823419F090
:10740000873609F0DAC01092B3011092B2016ADE39
:10741000C82E68DE082F66DED82F8554823008F02B
:1074200055C13C2D20E010E0022B132B10926F0071
:10743000C73609F045C081E180935700E895C0E068
:10744000BB24B39438C0C090B901D090BA01E09089
:10745000BB01F090BC01D634B9F4EC2FF0E0EC297C
:10746000FD29849159DECC2369F0D701C60102962B
:10747000A11DB11D8093B9019093BA01A093BB01E6
:10748000B093BC01CB2515C0D701C601B695A79511
:107490009795879524D540DED701C6010296A11D98
:1074A000B11D8093B9019093BA01A093BB01B09331
:1074B000BC01015010400115110509F0C4CF79C07D
:1074C0004090B9015090BA016090BB017090BC012E
:1074D000D63409F05AC083E0F20180935700E89552
:1074E00007B600FCFDCF51C0D63449F5CC2319F1C5
:1074F000C090B901D090BA01E090BB01F090BC01FE
:10750000F1DD982E88248B2D90E088299929F601A9
:107510000C01A0925700E8951124D701C6010296EC
:10752000A11DB11D8093B9019093BA01A093BB0135
:10753000B093BC0102C0D6DDB82ECA2523C0C090CE
:10754000B901D090BA01E090BB01F090BC01F69473
:10755000E794D794C794C6DD682FC601C8D480913C
:10756000B9019091BA01A091BB01B091BC01029602
:10757000A11DB11D8093B9019093BA01A093BB01E5
:10758000B093BC010150104004C0BB24C0E0AA2449
:10759000A3940115110509F0A7CFD63441F485E075
:1075A000F20180935700E89507B600FCFDCF8DE00F
:1075B000B3DD82E080936F008BC0833471F4C0919F
:1075C000B901D091BA018EDD90E021E0FE010C01FD
:1075D00020935700E89511248ACE8336A9F4C090F1
:1075E000B901D090BA01E090BB01F090BC017ADD06
:1075F000F601E16090E021E00C0120935700E8954E
:107600001124D701C60134C08D3661F4E091B9016F
:10761000F091BA0185E080935700E89507B600FC29
:10762000FDCF65CE823551F4E091B901F091BA01F8
:10763000C591D4918D2F70DD8C2F49C0843421F5F4
:10764000C090B901D090BA01E090BB01F090BC01AC
:10765000F694E794D794C79445DD682FC60147D4C4
:107660008091B9019091BA01A091BB01B091BC0188
:107670000296A11DB11D8093B9019093BA01A09308
:10768000BB01B093BC0133CE8436F1F4C090B90194
:10769000D090BA01E090BB01F090BC01D701C601C7
:1076A000B695A795979587951AD436DDD701C6016B
:1076B0000296A11DB11D8093B9019093BA01A093C8
:1076C000BB01B093BC0104C08B3111F08FE324DD0A
:1076D00083E08093E9009091E8008091E8008E7744
:1076E0008093E80095FF04C010C08EB38823C9F0D2
:1076F0008091E80080FFF9CF8091E8008E77809339
:10770000E80003C08EB3882361F08091E80080FF19
:10771000F9CF84E08093E9008091E8008B77809333
:10772000E800DF91CF911F910F91FF90EF90DF90D4
:10773000CF90BF90AF909F908F907F906F905F9011
:107740004F900895CF93209100081092000844B7FD
:1077500014BE88E10FB6F894809360001092600028
:107760000FBE90E880E00FB6F8949093610080938C
:1077700061000FBE31E035BF82E085BF3F9A209A9D
:10778000559A909361001092610047985D9A289AEB
:10779000109289009AEF9093880080936F0083E0A5
:1077A00080938100E0E0F0E0859194915FEF8F3F5E
:1077B000950711F03093B80141FF1CC080910B0177
:1077C0002817C1F080930008789480910C018823D9
:1077D00041F08091B0019091B10122E08F3E92077B
:1077E000C0F310920C01F8941092000881E080938D
:1077F0000C010CC040FF04C08091B801882351F4F3
:1078000043FF09C080910B01281729F08091B8012E
:10781000882309F09FDCD1D078941092B3011092A4
:10782000B201CEEF21C02EDD48D38091B2019091FC
:10783000B3013FE18134930710F010920C01809165
:10784000BD019091BE0101969093BE018093BD0150
:10785000292F97FF03C05C2F591B252F220F2817B4
:1078600010F4479801C0479A80910C018823D9F6FB
:107870008091E00081608093E0006CDC80E090E02B
:10788000CF910895923029F0933041F0913061F416
:1078900010C08EE390E020E631E01EC0882371F036
:1078A000813089F08230A1F080E090E020E030E08B
:1078B00013C082E190E02EE931E00EC084E090E058
:1078C0002CE531E009C082E290E028E331E004C019
:1078D00082E290E024E131E0FA01318320830895CF
:1078E0008093E900EBEEF0E0808181608083EDEE33
:1078F000F0E010826093EC0040838091EE00881FDE
:107900008827881F08958091C10187FF11C003C097
:107910008EB38823B1F08091E80082FFF9CF809187
:10792000E8008B778093E80008958EB3882349F0B0
:107930008091E80080FFF9CF8091E8008E778093F6
:10794000E80008950F931F93CF93DF9341D048D061
:10795000C8EDD0E088818F778883888180688883AC
:1079600088818F7D888319BC1EBA1092BF0100EEFA
:1079700010E0F80180818B7F80838881816088831B
:1079800080E060E042E0ACDFE1EEF0E080818E7FFD
:107990008083E2EEF0E08081816080838081886076
:1079A0008083F80180818E7F8083888180618883D5
:1079B000DF91CF911F910F910895E7EDF0E0808165
:1079C000816080838AE482BF81E08093C001BACF66
:1079D000E8EDF0E080818E7F80831092E2000895D0
:1079E0001092DA001092E10008951F920F920FB6E4
:1079F0000F9211242F933F934F935F936F937F9335
:107A00008F939F93AF93BF93EF93FF938091DA008F
:107A100080FF1BC08091D80080FF17C08091DA00E2
:107A20008E7F8093DA008091D90080FF0BC080E1C7
:107A300089BD82E189BD09B400FEFDCF81E08EBB26
:107A40003BD203C019BC1EBA37D28091E10080FF3F
:107A500017C08091E20080FF13C08091E2008E7F0A
:107A60008093E2008091E20080618093E200809147
:107A7000D80080628093D80019BC85E08EBB1CD2F0
:107A80008091E10084FF2CC08091E20084FF28C037
:107A900080E189BD82E189BD09B400FEFDCF8091FE
:107AA000D8008F7D8093D8008091E1008F7E8093F5
:107AB000E1008091E2008F7E8093E2008091E200FD
:107AC00081608093E2008091BF01882321F480913E
:107AD000E30087FF02C084E001C081E08EBBECD1EF
:107AE0008091E10083FF21C08091E20083FF1DC0EF
:107AF0008091E100877F8093E10082E08EBB10924D
:107B0000BF018091E1008E7F8093E1008091E200CF
:107B10008E7F8093E2008091E20080618093E2009A
:107B200080E060E042E0DCDEC7D1FF91EF91BF91E1
:107B3000AF919F918F917F916F915F914F913F9105
:107B40002F910F900FBE0F901F9018954091C70175
:107B50005091C8014617570720F4BA01FC0140E0D4
:107B60003BC061157105D1F74091E8004E77409315
:107B7000E800F4CF8EB3882309F443C08530E9F1DF
:107B80008091E80083FD3BC08091E80082FD2FC01A
:107B90008091E80080FF20C09091F3008091F20076
:107BA000392F20E090E0822B932B06C04191409327
:107BB000F1006150704001966115710519F088302F
:107BC0009105A0F341E08830910509F040E08091F3
:107BD000E8008E778093E8006115710559F644231B
:107BE00049F605C08EB3882361F0853061F080913D
:107BF000E80082FFF7CF80E0089583E0089581E0F8
:107C0000089582E0089583E008956115710529F4CF
:107C10004091E8004B774093E800582F492F2AC045
:107C20008EB38823D1F18530A1F18091E80083FDE6
:107C300032C08091E80082FFF3CFE52FF42F08C017
:107C40008091F10081935E2F4F2F6150704069F059
:107C50005E2F4F2F9091F3008091F200392F20E09A
:107C600090E0822B932B009759F78091E8008B7757
:107C70008093E8006115710599F605C08EB38823DD
:107C800061F0853061F08091E80080FFF7CF80E0FF
:107C9000089583E0089581E0089582E0089583E0E7
:107CA00008950F931F93CF93DF9300D0CDB7DEB726
:107CB00088E0E1ECF1E09091F10091938150D9F7E7
:107CC000B1DA8091E80083FFE2C08091C101909118
:107CD000C201953009F46BC0963040F4913061F1E7
:107CE000913070F0933009F0D2C026C0983009F47A
:107CF000A1C0993009F4B0C0963009F0C8C07AC06C
:107D0000803809F4C4C0823809F0C1C08091C5012F
:107D100087708093E9009091EB001092E9008091C8
:107D2000E800877F8093E80081E095FF80E0809302
:107D3000F1001092F10089C0882319F0823009F017
:107D4000A6C08F71823009F0A2C08091C301882340
:107D500041F52091C501277009F499C02093E900ED
:107D60008091EB0080FF1DC08091C201833021F41F
:107D70008091EB00806213C08091EB008061809362
:107D8000EB0081E090E002C0880F991F2A95E2F78E
:107D90008093EA001092EA008091EB008860809363
:107DA000EB001092E9008091E800877F51C08823A2
:107DB00009F06DC01091C3011F770FB7F89480913F
:107DC000E800877F8093E8009EDD8091E80080FFD7
:107DD000FCCF8091E3008078812B8093E300806862
:107DE0008093E300112311F083E001C082E08EBB99
:107DF0000FBF4DC08058823008F049C08091C30148
:107E00009091C4016091C501AE014F5F5F4F3ADDB3
:107E1000BC01009709F43BC08091E800877F809304
:107E2000E80089819A8192DE8091E8008B778093C7
:107E3000E8002DC0803859F58091E800877F809355
:107E4000E8008091BF018093F1008091E8008E7777
:107E50008093E80058DD1BC08823C9F49091C301CA
:107E60009230A8F48091E800877F8093E800909397
:107E7000BF0149DD8091BF01882321F48091E30097
:107E800087FF02C084E001C081E08EBBBFD9809132
:107E9000E80083FF0AC08091EB0080628093EB00D2
:107EA0008091E800877F8093E8000F900F90DF912A
:107EB000CF911F910F9108950895CF938EB388238A
:107EC00061F0C091E900C7701092E9008091E8006C
:107ED00083FF01C0E6DEC093E900CF910895F999D0
:107EE000FECF92BD81BDF89A992780B50895262FBF
:107EF000F999FECF1FBA92BD81BD20BD0FB6F8948F
:0E7F0000FA9AF99A0FBE01960895F894FFCFF1
:107F0E004341544552494E4100000877010000009C
:107F1E0000000008220342006C0069006E006B0036
:107F2E006900760065007200730065002C00200069
:107F3E004C004C0043000000220342006C0069001C
:107F4E006E006B0079005400610070006500200027
:107F5E00200020002000200020000000040309045F
:107F6E0009023E00020100803209040000010202F3
:107F7E00010005240010010424020405240600015A
:107F8E00070582030800FF09040100020A00000031
:107F9E0007050402100001070583021000011201FB
:107FAE00100102000008501D6C600100020100016A
