:100000000C94CB000C94F3000C94F3000C94F300CC
:100010000C94F3000C94F3000C94F3000C94F30094
:100020000C94F3000C9412050C94B2060C94240763
:100030000C94F3000C94F3000C94F3000C94F30074
:100040000C94F3000C94F3000C94F3000C94F30064
:100050000C94F3000C94F3000C94F3000C94530DE7
:100060000C94F3000C94F3000C94F3000C94F30044
:100070000C94F3000C94F3000C94F3000C94F30034
:100080000C94F3000C94F3000C94F3000C94F30024
:100090000C94F3000C94F3000C94F3000C94F30014
:1000A0000C94F3000C94BC050C94F30005A84CCD03
:1000B000B2D44EB93836A9020C50B9918688083CA2
:1000C000A6AAAA2ABE000000803F080B0002020276
:1000D00001000904000001020200000524001001D3
:1000E0000524010101042402060524060001070578
:1000F000810310004009040100020A000000070506
:1001000002024000000705830240000004030904C6
:1001100012010002EF020140501D5E600001010269
:100120000301426C696E6B696E6C61627300426CB4
:10013000696E6B795461706500000000002500282D
:10014000002B002E00310000000000240027002AB0
:10015000002D00300004040404040304050202021C
:100160000204030202020206060606060604040250
:100170000202040404080201104080401020408064
:1001800040800802040180402010020110801020ED
:10019000404020001B1211241FBECFEFDAE0DEBF6B
:1001A000CDBF11E0A0E0B1E0E4E5FDE202C00590C2
:1001B0000D92A437B107D9F729E0A4E7B1E001C057
:1001C0001D92AE3CB207E1F710E0CBECD0E004C0EA
:1001D0002197FE010E949D16CA3CD107C9F70E94D3
:1001E000910F0C94A8160C94000080E991E00895FA
:1001F0003F9A089580E090E00895FC0185859685FA
:100200000895CF93DF9300D000D000D0CDB7DEB7F4
:10021000AB011C821D821E82DC01ED91FC910190DC
:10022000F081E02D19821A821B829E012F5F3F4FC1
:10023000BE016C5F7F4F099526960FB6F894DEBF1E
:100240000FBECDBFDF91CF910895CF93DF93DC0137
:10025000FB0132966E537F4F12968C911297EF01ED
:100260002297888313968C911397219688831496EE
:100270008C91149780833396E617F70769F7DF911F
:10028000CF9108950895FC0117861686118A108A69
:10029000138A128A08954F925F926F927F928F9283
:1002A000AF92BF92CF92EF92FF920F931F93CF9393
:1002B000DF933C01EB010E94B70AF30127853089E7
:1002C000621B730B6A307105B0F3F894E881F98111
:1002D00058B1506888B18F7788B96A859F81262F79
:1002E000291B922F2F83BF844A805B807D85FC84ED
:1002F000EE847F5FF394E3943E814885A984CB84A8
:100300001181D20120E0C32F022F322F318111271A
:1003100088943111390F08F43FEF9195889470FD5E
:10032000130F1795889471FD130F1795889472FD1C
:10033000130F1795889473FD130F1795889474FD08
:10034000130F1795889475FD130F1795889476FDF4
:10035000130F1795889477FD130F17958894232F03
:100360007111212F960F122F002C58B900C000C018
:1003700017FF88B930812227889400C0002C88B9E3
:1003800031113C0F00C0002C58B900C000C016FF4E
:1003900088B908F43FEFC195889400C0002C88B953
:1003A000F0FC230F00C0002C58B900C000C015FF9E
:1003B00088B927958894F1FC230F00C0002C88B9D8
:1003C0002795889400C0002C58B900C000C014FFC5
:1003D00088B9F2FC230F2795889400C0002C88B9B7
:1003E000F3FC230F00C0002C58B900C000C013FF5D
:1003F00088B927958894F4FC230F00C0002C88B995
:100400002795889400C0002C58B900C000C012FF86
:1004100088B9F5FC230F2795889400C0002C88B973
:10042000F6FC230F00C0002C58B900C000C011FF1B
:1004300088B927958894F7FC230F00C0002C88B951
:100440002795889400C0002C58B900C000C010FF48
:1004500088B9132FF110122FCA0D00C0002C88B9D3
:1004600000C000C0002C58B900C000C017FF88B9F8
:1004700032812227889400C0002C88B93111340FB2
:1004800000C0002C58B900C000C016FF88B908F49D
:100490003FEFEB0DF11D00C0002C88B9E0FC230FED
:1004A00000C0002C58B900C000C015FF88B92795BE
:1004B0008894E1FC230F00C0002C88B9279588940C
:1004C00000C0002C58B900C000C014FF88B9E2FC7D
:1004D000230F2795889400C0002C88B9E3FC230FD4
:1004E00000C0002C58B900C000C013FF88B9279580
:1004F0008894E4FC230F00C0002C88B927958894C9
:1005000000C0002C58B900C000C012FF88B9E5FC3B
:10051000230F2795889400C0002C88B9E6FC230F90
:1005200000C0002C58B900C000C011FF88B9279541
:100530008894E7FC230F00C0002C88B92795889485
:1005400000C0002C58B900C000C010FF88B9132F9C
:10055000E110122F419500C0002C88B94C0D00C04D
:1005600000C058B900C000C017FF88B931812227E8
:10057000889400C0002C88B93111390F00C0002CBC
:1005800058B900C000C016FF88B908F43FEF919534
:10059000889400C0002C88B970FD230F00C0002C87
:1005A00058B900C000C015FF88B92795889471FD1F
:1005B000230F00C0002C88B92795889400C0002C18
:1005C00058B900C000C014FF88B972FD230F2795E9
:1005D000889400C0002C88B973FD230F00C0002C44
:1005E00058B900C000C013FF88B92795889474FDDE
:1005F000230F00C0002C88B92795889400C0002CD8
:1006000058B900C000C012FF88B975FD230F2795A7
:10061000889400C0002C88B976FD230F00C0002C00
:1006200058B900C000C011FF88B92795889477FD9C
:10063000230F00C0002C88B92795889400C0002C97
:1006400058B900C000C010FF88B9132F7111122FC4
:10065000960F00C0002C88B9119709F086CE20EEC5
:1006600031E0D2010E948216DC01CB01F4E0B695A4
:10067000A79597958795FA95D1F720E030E0A901E5
:100680006AE9469E040C411D569E400D511D1124E1
:10069000450D511D840F951FA11DB11D893E43E0DD
:1006A0009407A105B10508F434C0885E9340A10900
:1006B000B10942E0B695A795979587954A95D1F7E8
:1006C00047E0849F080E211D949F200D311D1124A9
:1006D000290F311D6091800170E0860F971F820FF6
:1006E000931F4091C4075091C5076091C607709150
:1006F000C707292F3327420F531F611D711D4093D8
:10070000C4075093C5076093C6077093C7078093CB
:10071000800178940E94B70AF301708B6787DF919C
:10072000CF911F910F91FF90EF90CF90BF90AF901E
:100730008F907F906F905F904F9008950F931F93CD
:10074000CF93DF93CDB7DEB762970FB6F894DEBFD5
:100750000FBECDBF8C01F901DC011C968C917A8310
:1007600069835C834B835E834D8390819D879181F8
:100770009E8792819F87813029F4CE0101960E9445
:10078000B10D06C01C861B861A86198618861F8224
:10079000188A1A8A198AD801ED91FC910484F5858A
:1007A000E02DBE016F5F7F4FC801099562960FB6BD
:1007B000F894DEBF0FBECDBFDF91CF911F910F9197
:1007C00008950F931F93CF93DF93CDB7DEB7629752
:1007D0000FB6F894DEBF0FBECDBF8C01F901DC016E
:1007E0001C968C917A8369835C834B835E834D83F3
:1007F00090819D8791819E8792819F87813029F486
:10080000CE0101960E94B10D06C01C861B861A8679
:10081000198618861F8283E0888B1A8A198AD80164
:10082000ED91FC910484F585E02DBE016F5F7F4F53
:10083000C801099562960FB6F894DEBF0FBECDBF12
:10084000DF91CF911F910F9108954F925F926F9218
:100850007F928F929F92AF92BF92EF92FF920F93EF
:100860001F93CF93DF93EC018B010E5F1F4FE12CA1
:10087000F12CB70180E090E00E94A3142B013C0111
:1008800020E030E040E05FE30E9455154B015C0141
:100890006E857F85072E000C880B990B0E94A5148E
:1008A00020E030E040E85EE30E9455159B01AC017A
:1008B000C501B4010E948A130E94C215580122E0AA
:1008C000A21AB10820E030E040E85FE30E948A13FA
:1008D00020E030E040E852E40E9455152A813B8137
:1008E0004C815D810E9455150E947414F50160834E
:1008F00068897989072E000C880B990B0E94A51432
:1009000020E030E040E151E40E94FB139B01AC0188
:10091000C301B2010E948A1326E636E646E050E49F
:100920000E948A130E94C2155801F1E0AF1AB10863
:1009300020E030E040E85FE30E948A1320E030E0EE
:1009400040E852E40E9455152E813F814885598523
:100950000E9455150E947414F501608320E030E078
:1009600040E450E4C301B2010E94FB134B015C015F
:100970008A899B89BC01990F880B990B0E94A51449
:1009800020E030E040E651E40E94FB139B01AC0103
:10099000C501B4010E948A1326E636E646E850E413
:1009A0000E948A130E94C21520E030E040E85FE315
:1009B0000E948A1320E030E040E852E40E9455157E
:1009C0002A853B854C855D850E9455150E947414CF
:1009D000F8016083FFEFEF1AFF0A0D5F1F4F20E45D
:1009E000E216F10409F045CF8E859F8501969F8719
:1009F0008E87888999890196998B888B8A899B89AA
:100A000002969B8B8A8BDF91CF911F910F91FF9064
:100A1000EF90BF90AF909F908F907F906F905F907E
:100A20004F9008951F920F920FB60F9211242F939B
:100A30003F934F935F936F937F938F939F93AF9366
:100A4000BF93EF93FF9383B186FB992790F981E0E1
:100A50008927809375018823E9F00E94470D6093F0
:100A60007A0170937B0180937C0190937D011092B9
:100A70007F018FE08093C10083E08093C30080E119
:100A80008093D1001092BF001092BE0084E080934A
:100A9000720002C010927200FF91EF91BF91AF916E
:100AA0009F918F917F916F915F914F913F912F9186
:100AB0000F900FBE0F901F901895CF93DF931F924A
:100AC000CDB7DEB7682F67706093A40183E090E034
:100AD00069830E9410136981861721F083E090E0FA
:100AE0000E94AF0DE091A401F0E0EF5BFE4F80812A
:100AF000809322080F90DF91CF910895CF93DF93D9
:100B00001F92CDB7DEB7609174010E946216692F03
:100B10009093A30182E090E069830E9410136981A1
:100B2000861721F082E090E00E94AF0DE091A301D2
:100B3000F0E0EE0FFF1FE157FE4F80819181DC0155
:100B4000ED91FC910280F381E02D09950E94470D03
:100B500060938701709388018093890190938A0143
:100B600010928B0110928C0110928D0110928E01C7
:100B70000F90DF91CF9108951F920F920FB60F92B1
:100B800011240F931F932F933F934F935F936F9372
:100B90007F938F939F93AF93BF93EF93FF93809136
:100BA0007F0181110AC081E080937F018091A401BF
:100BB00080937E018F5F0E945D050E94470D00912A
:100BC0007A0110917B0120917C0130917D01DC0143
:100BD000CB01801B910BA20BB30B809376019093FA
:100BE0007701A0937801B0937901893E9340A105E4
:100BF000B1059CF080917E010E945D058091A3016A
:100C00008F5F0E947E050E94470D60937A0170936A
:100C10007B0180937C0190937D01FF91EF91BF91C7
:100C2000AF919F918F917F916F915F914F913F9184
:100C30002F911F910F910F900FBE0F901F9018953D
:100C40009C01909174019A3058F4E92FF0E0EE0F76
:100C5000FF1FE157FE4F318320839F5F9093740104
:100C60000895FC01DB0184E191E0918380838C9104
:100C7000828311968C911197838312968C91848331
:100C800008950E94A3160F931F93CF93DF931F9293
:100C9000CDB7DEB782E0898342E450E06AEC70E0D1
:100CA00080E80E94830A0E947D0FDC0112960D915C
:100CB0001C9113970115110569F0D801ED91FC9174
:100CC0000280F381E02DBE016F5F7F4FC80109955F
:100CD00097FF07C089810F90DF91CF911F910F91EE
:100CE0000895F80100851185E5CFCF92DF92EF924C
:100CF000FF920F931F93CF93DF931F92CDB7DEB771
:100D0000182F062FE42E862F880F8E5F99830E945E
:100D1000550A83E00E94550AF12EC12E9981D92EE1
:100D20008C2D8F19801798F4F601E7FE02C084918C
:100D300001C080810E94550A182F80E00E94550A48
:100D40008123FFEFCF1ADF0A8111EACF01C081E0D2
:100D50000F90DF91CF911F910F91FF90EF90DF9057
:100D6000CF9008951F920F920FB60F9211248F9378
:100D70009F938091E1009091E100937F9093E10037
:100D800083FF0FC01092E90091E09093EB00109266
:100D9000EC0092E39093ED001092CF0798E09093CF
:100DA000F00082FF20C093E09093E9009091F20060
:100DB000992319F09AE39093E80090918501992383
:100DC00039F090918501915090938501992389F193
:100DD0009091CE07992339F09091CE07915090933E
:100DE000CE07992341F184FF10C08091E2008E7EEE
:100DF00081608093E2008091E1008F7E8093E1002A
:100E0000809186018E7E806111C080FF16C0809126
:100E1000E2008E7E80618093E2008091E1008E7E10
:100E20008093E100809186018E7E816080938601AF
:100E300004C05D9ACDCF289AD6CF9F918F910F9005
:100E40000FBE0F901F9018951F920F920FB60F9222
:100E50001124CF92DF92EF92FF920F931F932F9363
:100E60003F934F935F936F937F938F939F93AF9332
:100E7000BF93EF93FF93CF93DF93CDB7DEB76C971C
:100E8000DEBFCDBF1092E9008091E80083FFEDC185
:100E900068E0CE0145960E94AA0A82EF8093E8009E
:100EA0008D8987FF05C09091E80090FFFCCF03C0BB
:100EB0009EEF9093E800982F907609F0C6C09E8927
:100EC0002F89188D91110CC0803829F48091A601CA
:100ED0008093F10002C01092F1001092F10048C11D
:100EE000422F50E0512B913051F4811141C14130DA
:100EF000510509F03DC18091A6018D7F0BC0933053
:100F000061F4811135C14130510509F031C1809141
:100F1000A60182608093A6012BC1953041F4809197
:100F2000E80080FFFCCF20682093E30021C19630C9
:100F300009F05FC0EB8CFC8C1092E90010928401E8
:100F400010928301123091F510928201109281016A
:100F50000E94430699E0BE016F5F7F4FDB01E92FDE
:100F60001D92EA95E9F799831A8391E09E8390EAAE
:100F700098879AEF99872091830130918401275FA8
:100F80003F4F3C832B838D831092E90010928401A4
:100F900010928301F0928201E092810149E050E0D9
:100FA00080E00E94830A0E944306E2C0F092820120
:100FB000E09281010E947D0FDC011296ED90FC9081
:100FC0001397E114F10409F4C0C0D701ED91FC912D
:100FD0000480F581E02DBE016B5E7F4FC70109954E
:100FE000009719F00CF0C4C0C7C0F701E084F18489
:100FF000E8CF973009F4C0C0983021F481E08093A5
:10100000F100B6C0993009F0B3C0837009F0B4C0E4
:10101000E9E1F1E081E021E036E39081992361F09C
:101020008093E9002093EB0091919093EC00309332
:10103000ED008F5F873089F78EE78093EA0010928A
:10104000EA008F898093CF0793C08B8D9C8D10927F
:10105000E9001092840110928301909382018093A1
:101060008101898D811156C08E899D89913A59F4EB
:10107000813209F081C047E050E064E071E080E037
:101080000E94830A75C0913209F076C0833289F4D8
:10109000888D90E0982F88272F89822BA0E0B0E0E0
:1010A0008093000190930101A0930201B09303018A
:1010B0005FC0803269F48091E80082FFFCCF67E076
:1010C00084E091E00E94AA0A8BEF8093E80006C0BA
:1010D000823209F04DC08F8980930B018091A50168
:1010E000882319F0EEEFFAE002C0E0E0F8E080912A
:1010F000040190910501A0910601B0910701803B88
:101100009440A105B10509F07BC080910B0180FFDF
:1011100093C076C00E947D0FDC0112960D911C9148
:1011200013970115110541F1D801ED91FC91019042
:10113000F081E02DBE016B5E7F4FC80109958111E2
:1011400017C0F80100851185ECCF113009F44EC0AD
:10115000133091F48F89882309F445C0823081F4DB
:1011600040E86AE08EE291E00E947506882321F053
:101170008EEF8093E80079C081E28093EB0075C028
:10118000813029F440E86BE082E291E0EDCF8330DA
:1011900099F70E947D0FDC011296ED90FC90139759
:1011A0008E010F5F1F4F6801E114F10479F0D70140
:1011B000ED91FC910680F781E02DB801C7010995FA
:1011C000080F111DF701E084F184EECFD8011C92C5
:1011D000F60101900020E9F73197BF016C197D09F4
:1011E00040E0C601C1CF6CE071E002C060E171E097
:1011F0006115710509F2FB01449150E080E840CF90
:101200000FB6F894A8958091600088618093600083
:10121000109260000FBEA895EE3F2AE0F20739F069
:101220008091FE0A9091FF0A91838083A1CF109252
:10123000FF0A1092FE0A9CCFEE3F8AE0F80731F0D9
:10124000808191819093FF0A8093FE0A87E797E758
:10125000918380839BE088E10FB6F894A8958093F2
:1012600060000FBE9093600083CF6C960FB6F89429
:10127000DEBF0FBECDBFDF91CF91FF91EF91BF9148
:10128000AF919F918F917F916F915F914F913F911E
:101290002F911F910F91FF90EF90DF90CF900F90C3
:1012A0000FBE0F901F901895CF92DF92EF92FF9292
:1012B0000F931F93CF93DF936C017A018B01C0E0F2
:1012C000D0E0CE15DF0589F0D8016D918D01D601F2
:1012D000ED91FC910190F081E02DC6010995892BDB
:1012E00011F47E0102C02196ECCFC701DF91CF91AE
:1012F0001F910F91FF90EF90DF90CF900895CF93C3
:10130000DF931F92CDB7DEB76983DC01ED91FC91CD
:101310000280F381E02D41E050E0BE016F5F7F4F1E
:1013200009950F90DF91CF91089583E08093E900B4
:101330008091F200882319F08AE38093E8000895F1
:10134000FC018485958597FD0BC09FB7F89482E0DA
:101350008093E9008091F2009FBF90E0019608958C
:101360009FB7F89482E08093E9008091F2009FBFDC
:1013700090E00895089580E090E0089522E030E044
:10138000FC013087278321E0218708950E946C0F9C
:1013900090E00895CF93DF931F92CDB7DEB7FC01A5
:1013A0008485958597FD05C02FEF3FEF358724870E
:1013B0000BC0CE0101960E94420F019719F489815A
:1013C00090E002C08FEF9FEF0F90DF91CF910895D3
:1013D0000F931F93CF93DF931F92CDB7DEB78C018E
:1013E000FC018485958597FF0EC0CE0101960E9471
:1013F000420F019719F4298130E002C02FEF3FEF2F
:10140000F80135872487F801848595850F90DF9151
:10141000CF911F910F9108954F925F926F927F929B
:101420008F929F92AF92BF92CF92DF92FF920F93D3
:101430001F93CF93DF93EC0123968C010D5B1E4F1E
:10144000412C512C32014A949FE3892E912CA12CDE
:10145000B12CFF24F3941A8219820E9402136E01A8
:1014600021E0C21AD108A30192010E942613F601BD
:1014700060830E940213A50194010E9426136B83CE
:10148000F8822596C017D10731F7DF91CF911F91D0
:101490000F91FF90DF90CF90BF90AF909F908F9073
:1014A0007F906F905F904F9008954091830150918D
:1014B0008401209181013091820142175307B4F4D5
:1014C0009091E8009570E1F39091E80092FD19C0C9
:1014D0008093F100809183019091840101968F7334
:1014E0009927892B19F48EEF8093E800809183016E
:1014F000909184010196909384018093830181E00F
:10150000089580E00895DF92EF92FF920F931F936A
:10151000CF93DF93D82E8A017B01E40EF51EEB01F9
:10152000CE15DF0571F0D7FE03C0FE01849101C026
:1015300088810E94550A21968111F2CF8FEF9FEF8B
:1015400001C0C801DF91CF911F910F91FF90EF90E3
:10155000DF900895615030F02091F100FC0120836C
:101560000196F8CF289884E68093CE0708953FB778
:10157000F8948091CA079091CB07A091CC07B091C5
:10158000CD0726B5A89B05C02F3F19F00196A11DD8
:10159000B11D3FBFBA2FA92F982F8827820F911D09
:1015A000A11DB11DBC01CD0142E0660F771F881F50
:1015B000991F4A95D1F708958F929F92AF92BF924B
:1015C000CF92DF92EF92FF926B017C010E94B70AEB
:1015D0004B015C01C114D104E104F104F1F00E945B
:1015E000B70ADC01CB0188199909AA09BB09883E11
:1015F0009340A105B10570F321E0C21AD108E108BA
:10160000F10888EE880E83E0981EA11CB11CC1145D
:10161000D104E104F10419F7DDCFFF90EF90DF90E2
:10162000CF90BF90AF909F908F9008958F929F9290
:10163000AF92BF92CF92DF92EF92FF920F931F93E0
:10164000CF93DF935C016B017A0180910B018823BA
:1016500009F45BC08091CF07882309F456C08091BC
:10166000860180FF05C08091E00082608093E000E9
:10167000E70110E00AEF83E0882E9AE3992E209785
:10168000D9F10E946C0F81110AC0015009F43DC0CC
:1016900061E070E080E090E00E94DC0AF0CF282F4B
:1016A00030E0C217D3070CF48C2F4FB7F894809218
:1016B000E9009091E80095FF1DC0282F30E0C21B83
:1016C000D30BF601982F915020F081918093F10077
:1016D000FACFC20ED31E112319F09092E80009C070
:1016E0008091E80085FD06C09092E80011E0209707
:1016F00009F010E04FBFC3CF1111C3CF5D9884E64E
:10170000809385011E141F0444F081E090E0F501F0
:101710009383828380E090E001C0C701DF91CF9185
:101720001F910F91FF90EF90DF90CF90BF90AF90FF
:101730009F908F9008952F923F924F925F926F9259
:101740007F928F929F92AF92BF92CF92DF92EF9251
:10175000FF920F931F93CF93DF93CDB7DEB72897F8
:101760000FB6F894DEBF0FBECDBF9C012D5F3F4F7B
:1017700038872F837B0132E0E30EF11C6C01E6E039
:10178000CE0ED11C1C01FDEB2F1AFEEF3F0A5FE3CA
:10179000452E512C612C712C9C012E5B3E4F3A83BF
:1017A0002983FC01EA5BFE4FFC83EB83285F3F4FFC
:1017B0003E832D83EF81F885808101811281813004
:1017C00009F051C03197608170E0C80117FD0396A0
:1017D0009595879595958795861797070CF03FC047
:1017E000072E000C880B990B0E94A51420E030E016
:1017F0004FE753E40E94FB134B015C0129E939E9EF
:1018000049E95DE30E945515A50194010E94551513
:10181000A50194010E945515A50194010E9455153A
:1018200020E030E04FE753E40E94551520E030E01F
:1018300040EA50E40E948A130E946D14660F771FDD
:10184000660F771F600F711F6115F4E07F0714F0BA
:101850006C5F7340EF81F8857283618339C0EF81DB
:10186000F885108235C00430110564F00451110967
:10187000EF81F88517FD03C01283018329C012820E
:10188000118226C0F601808181111EC0EF81F8858A
:10189000128211820E9402130F81188501501109D2
:1018A0002FEF30E040E050E00E942613F801608303
:1018B0000E940213A30192010E942613F601608385
:1018C00021E0EF81F8852083F601808181508083BB
:1018D000870102501109EF81F8856181728177FFDC
:1018E00002C06D5F7F4F759567957595679570E040
:1018F00080E090E00E94A514E981FA812081318185
:10190000428153810E9455150E947414F80160832E
:10191000870101501109EF81F8856181728177FF9C
:1019200002C06D5F7F4F759567957595679570E0FF
:1019300080E090E00E94A514EB81FC812081318140
:10194000428153810E9455150E947414F8016083EE
:10195000EF81F8856181728177FF02C06D5F7F4FF3
:10196000759567957595679570E080E090E00E94A9
:10197000A514ED81FE8120813181428153810E9435
:1019800055150E947414F70160832F8138852B5FF1
:101990003F4F38872F8333E0E30EF11C85E0C80EFC
:1019A000D11CEF81F885E215F30509F003CF6EE154
:1019B00070E080E090E028960FB6F894DEBF0FBE8E
:1019C000CDBFDF91CF911F910F91FF90EF90DF90EE
:1019D000CF90BF90AF909F908F907F906F905F90CF
:1019E0004F903F902F900C94DC0A0F931F93CF934E
:1019F000DF93FC01DB01129680E090E04781508587
:101A00008D01015011098417950780F022813381DF
:101A1000240F351F8217930748F42481EB01288394
:101A20002581E801288326812C9305C0EB011882CB
:101A3000E80118821C9201966D5F7F4F13968034E7
:101A40009105E1F6218587819085211102C00196DB
:101A500001C0019790878783278130854281538118
:101A600080E490E0841B950B8217930718F481E0C3
:101A7000818703C0232B09F411866EE170E080E0BA
:101A800090E0DF91CF911F910F910C94DC0A2FB75A
:101A9000F8946091C4077091C5078091C607909132
:101AA000C7072FBF08951F920F920FB60F921124F0
:101AB0002F933F938F939F93AF93BF938091C407CE
:101AC0009091C507A091C607B091C7073091C9078B
:101AD00023E0230F2D3720F40196A11DB11D05C071
:101AE00026E8230F0296A11DB11D2093C9078093FC
:101AF000C4079093C507A093C607B093C70780910A
:101B0000CA079091CB07A091CC07B091CD07019661
:101B1000A11DB11D8093CA079093CB07A093CC075A
:101B2000B093CD07BF91AF919F918F913F912F912E
:101B30000F900FBE0F901F901895FC01DA018DE4F5
:101B400091E091838083738362838C918483119667
:101B50008C911197858312968C91868308950C94AD
:101B60001813EF92FF920F931F93CF93DF93EC0123
:101B70009091C8079F5F292F27702093C80790FF77
:101B800002C090E801C090E021FD9064247009F04B
:101B9000906220E1290FFE013C967E018FE0E80E65
:101BA000F11C00E011E06191662331F070E0C801A2
:101BB0000E946E166F5F01C060E0DF0114976C93A6
:101BC000322F369F030E30E0311D1124CF010797CD
:101BD000311103C0EC01188203C03150EC0138838D
:101BE000662311F061506C93EE15FF05E1F6DF916D
:101BF000CF911F910F91FF90EF9008953F924F92D8
:101C00005F926F927F928F929F92AF92BF92CF928C
:101C1000DF92EF92FF920F931F93CF93DF9300D049
:101C20001F92CDB7DEB7F82E809125089091260837
:101C3000A0912708B0912808892B8A2B8B2BE9F0DB
:101C40000E94B70A0091CA091091CB092091CC09D2
:101C50003091CD09DC01CB01801B910BA20BB30BA2
:101C60000091250810912608209127083091280816
:101C700080179107A207B307B8F20E94B70A6093D2
:101C8000CA097093CB098093CC099093CD09E09158
:101C90002D08F0912E08309759F040912908509165
:101CA0002A0860912B0870912C088F2D0995F82E29
:101CB0000091D0071091D1074F2C512C612C712C21
:101CC0000115110509F461C0D8011C96EC901C9710
:101CD00080912308909124088436910510F41C9675
:101CE0001C92D801ED91FC91A280B38019821A82D6
:101CF0001B82F11014C0F8014585568562817381FD
:101D00009E012F5F3F4FC801F5010995D8011C9630
:101D1000EC921C9714960D911C911597D1CFF80158
:101D20003996CE0101966C0148019CE0890E911C08
:101D3000DF0113973C902191332001F12223F1F030
:101D4000822F90E0A0E0B0E09C01AD012F5F3F4FFB
:101D50004F4F5F4FC301B2010E9452169B01AC016D
:101D6000832D90E0A0E0B0E0BC01CD016F5F7F4F1C
:101D70008F4F9F4F0E945216D6018C93BFEFCB1A04
:101D8000DB0AE815F905A1F6B6CF8091C809909154
:101D9000C9098C010F5F1F4F1093C9090093C8092F
:101DA00049979CF10E94470D4B015C0188EE93E03E
:101DB000089FB001099F700D189F700D1124072E08
:101DC000000C880B990BC090C409D090C509E09015
:101DD000C609F090C709A50194012C193D094E09C7
:101DE0005F090E945813309324082093230810920F
:101DF000C9091092C8090E94470D6093C4097093E5
:101E0000C5098093C6099093C7090F900F900F9052
:101E1000DF91CF911F910F91FF90EF90DF90CF90C6
:101E2000BF90AF909F908F907F906F905F904F90FA
:101E30003F900895CF93DF9390E0FC01EC58FE4F64
:101E40002491FC01EB5AFE4F84918823C1F090E06D
:101E5000880F991FFC01E95BFE4FC591D491FC01ED
:101E6000E75CFE4FA591B4919FB7F8943881822F1B
:101E7000809583238883EC91E22BEC939FBFDF91C5
:101E8000CF910895FC018091CF07811103C08FEF9E
:101E90009FEF08959FB7F89482E08093E900209126
:101EA000F20030E01216130614F421E030E02115A0
:101EB000310559F0289884E68093CE078091F1008F
:101EC00080838091F200882319F09FBFC901089593
:101ED0008BE68093E800F9CF2FB7F89483E08093E6
:101EE000E9009091E800892F807295FF04C09091DD
:101EF000F20080E4891B2FBF08958091BC098111F5
:101F00000DC082E08093B80984E08093B9091092F3
:101F1000BB091092BA0981E08093BC0988EB99E073
:101F20000895CF93DF9300D01F92CDB7DEB778949A
:101F300084B5826084BD84B5816084BD85B58260CE
:101F400085BD85B5816085BD80916E00816080937F
:101F50006E001092810080918100826080938100E8
:101F600080918100816080938100809180008160F8
:101F70008093800080919100826080939100809195
:101F800091008160809391008091900081608093A6
:101F900090008091C10084608093C1008091C10055
:101FA00082608093C1008091C10081608093C100F4
:101FB0008091C30081608093C3008091C0008260E3
:101FC0008093C0008091C20081608093C2008091A4
:101FD0007A00846080937A0080917A008260809396
:101FE0007A0080917A00816080937A0080917A00F3
:101FF000806880937A001092CF071092A601109209
:1020000086018091D70081608093D70080EA809319
:10201000D80089B5806189BD89B5826089BD09B460
:1020200000FEFDCF61E070E080E090E00E94DC0AFD
:102030008091D8008F7C80618093D8008091E000EF
:10204000807F8093E0008091E1008E7E8093E100AC
:102050008DE08093E200559A209AEEEFFFE785919C
:1020600094918B3F9C4D19F481E08093A5018FEFF3
:102070009FEF9093DF078093DE078AE00E941A0F9C
:102080008BE10E941A0F87E00E941A0F8BE00E94DA
:102090001A0FD89A80916B00806480936B008091B6
:1020A000680081608093680082EA99E00E942006BF
:1020B0008CE899E00E94200682E899E00E942006C0
:1020C0008FE298E00E9420068DE799E00E942006AA
:1020D00080E090E00E941013823109F05BC181E042
:1020E00090E00E941013843309F054C182E090E024
:1020F0000E941013F82E8093A30183E090E00E94C9
:1021000010138093A4018F2D0E947E058091A4015D
:102110000E945D058091BA01811145C01092AC0109
:102120001092AB018FEF8093AF018093B001809349
:10213000B1018093B2018093B3018093B40181E037
:102140008093B5011092B7011092B6011092AE01C2
:102150001092AD018091D0079091D107892B31F475
:1021600089EA91E09093D1078093D007E091A7018D
:10217000F091A801309721F089EA91E0958384835A
:1021800089EA91E09093A8018093A7011092B90188
:102190001092B80183E391E09093AA018093A90182
:1021A00081E08093BA01E091A901F091AA01048035
:1021B000F581E02D89EA91E0099584EC91E0909316
:1021C000AC018093AB0180E490E09093B7018093E1
:1021D000B601E091A901F091AA010284F385E02DF6
:1021E00089EA91E00995009711F19C0140E050E0E7
:1021F00060E472E48FE090E00E942613809025084E
:1022000090902608A0902708B0902808C901DA010C
:1022100088159905AA05BB0510F4D501C401809362
:10222000250890932608A0932708B093280889EAE8
:1022300091E09093C3018093C201809122080E9493
:10224000FE0D40E0E42E40E0F42E82ED97E00E9487
:10225000A009181619060CF05AC0E091A401F0E08C
:10226000EF5BFE4F808180932208B12C34ECE32E8B
:1022700031E0F32E82ED97E00E94A00918161906AE
:10228000CCF782ED97E00E94CA098F3FF9F4809164
:10229000C2019091C301DC01ED91FC910084F185B4
:1022A000E02D09958017910740F4E091C201F0916B
:1022B000C301F382E28216870587809122080E947B
:1022C000FE0D90E000E010E0B92ED4CF91E09B0D20
:1022D000E1E0F0E0EC0FFD1FEB0DF11D808393308A
:1022E00099F70115B2E01B0710F090E0EDCF8B815C
:1022F0009A81F801EE0FFF1FE00FF11FEC53FE4F24
:1023000029812083918382830F5F1F4FEECFE0915D
:10231000A301F0E0EE0FFF1FE157FE4F8081918196
:10232000DC01ED91FC910190F081E02D64EC71E015
:10233000099580908B0190908C01A0908D01B090B8
:102340008E0120E030E048E452E4C501B4010E946F
:10235000F61387FF14C00E94470D409087015090EC
:1023600088016090890170908A01DC01CB01841999
:102370009509A609B7094097A105B10500F5809117
:1023800022080E94FE0DE114F10409F45ECF0E94C0
:1023900000005BCF62E180E090E00E94AF0D64E35B
:1023A00081E090E00E94AF0D60E082E090E00E944A
:1023B000AF0D60E083E090E00E94AF0D97CE0E94E9
:1023C000470D6093870170938801809389019093F2
:1023D0008A0120E030E040E85FE3C501B4010E94DB
:1023E0008A134B015C0160938B0170938C01809385
:1023F0008D0190938E01E091A401F0E0EF5BFE4F20
:10240000608170E080E090E00E94A5142B013C0107
:1024100020E030E048E452E4C501B4010E94FB131F
:102420009B01AC01C301B2010E9455150E947414B6
:1024300060932208A4CFCF92DF92EF92FF921F9376
:10244000CF93DF9300D01F92CDB7DEB7E2EDF7E078
:102450001382128288EE93E0A0E0B0E0848395833B
:10246000A683B78385E591E0918380838FEF9FEF0B
:1024700095878487E2E2F8E01FEF108312821182D1
:10248000148613868FEF9FEFDC0187839087A187E7
:10249000B287E2EAF9E08FE691E091838083C12C74
:1024A000D12C20E8E22E2FE3F22EC282D382E482E6
:1024B000F582C682D782E086F186C286D386E4861C
:1024C000F586ECE8F9E0918380838DEC9CECACE43C
:1024D000BEE382839383A483B583C682D782E086DA
:1024E000F186C286D386E486F58619831A821B821A
:1024F000AE014F5F5F4F64E070E082E899E00E94B8
:102500009D0D19831A831B83BE016F5F7F4F8DE77B
:1025100099E00E94310687E691E09093300880931D
:102520002F08C0927109D0927209E0927309F0925B
:102530007409C0927509D0927609E0927709F092F9
:102540007809C0927909D0927A09E0927B09F092D9
:102550007C090F900F900F90DF91CF911F91FF900A
:10256000EF90DF90CF9008958F929F92AF92BF929D
:10257000CF92DF92EF92FF92CF93DF93EC016881CD
:1025800079818A819B81611571058105910521F40D
:1025900064E279ED8BE597E02DE133EF41E050E027
:1025A0000E94261349015A019B01AC01A7EAB1E43C
:1025B0000E9445136B017C01ACEEB4EFA5019401C0
:1025C0000E945313DC01CB018C0D9D1DAE1DBF1D60
:1025D000B7FF03C00197A109B04888839983AA83F4
:1025E000BB83BC01CD019F77DF91CF91FF90EF902E
:1025F000DF90CF90BF90AF909F908F9008950E94F2
:10260000B41208958CE091E00E94B4120895609392
:102610000C0170930D0180930E0190930F010895AA
:10262000F999FECF92BD81BDF89A992780B508959A
:10263000262FF999FECF1FBA92BD81BD20BD0FB6DE
:10264000F894FA9AF99A0FBE01960895052E97FB11
:102650001EF400940E943D1357FD07D00E945813AA
:1026600007FC03D04EF40C943D13509540953095E3
:1026700021953F4F4F4F5F4F0895909580957095EE
:1026800061957F4F8F4F9F4F08950E947A13A59FAA
:10269000900DB49F900DA49F800D911D112408955D
:1026A000B7FF0C9445130E944513821B930B0895AA
:1026B000A1E21A2EAA1BBB1BFD010DC0AA1FBB1F46
:1026C000EE1FFF1FA217B307E407F50720F0A21BB8
:1026D000B30BE40BF50B661F771F881F991F1A9425
:1026E00069F760957095809590959B01AC01BD014F
:1026F000CF010895A29FB001B39FC001A39F700DA9
:10270000811D1124911DB29F700D811D1124911DF9
:1027100008955058BB27AA270E94A1130C941B159B
:102720000E940D1538F00E94141520F039F49F3FD7
:1027300019F426F40C940A150EF4E095E7FB0C94BA
:102740000415E92F0E942C1558F3BA176207730776
:102750008407950720F079F4A6F50C944E150EF435
:10276000E0950B2EBA2FA02D0B01B90190010C01A1
:10277000CA01A0011124FF27591B99F0593F50F4B9
:10278000503E68F11A16F040A22F232F342F442711
:10279000585FF3CF469537952795A795F040539509
:1027A000C9F77EF41F16BA0B620B730B840BBAF0D9
:1027B0009150A1F0FF0FBB1F661F771F881FC2F744
:1027C0000EC0BA0F621F731F841F48F48795779558
:1027D0006795B795F7959E3F08F0B0CF9395880F12
:1027E00008F09927EE0F9795879508950E94E014B9
:1027F00008F481E008950E940F140C941B150E94A8
:10280000141558F00E940D1540F029F45F3F29F08F
:102810000C94041551110C944F150C940A150E9438
:102820002C1568F39923B1F3552391F3951B550BA0
:10283000BB27AA2762177307840738F09F5F5F4F93
:10284000220F331F441FAA1FA9F335D00E2E3AF0D2
:10285000E0E832D091505040E695001CCAF72BD0EA
:10286000FE2F29D0660F771F881FBB1F261737073B
:102870004807AB07B0E809F0BB0B802DBF01FF276D
:1028800093585F4F3AF09E3F510578F00C94041531
:102890000C944F155F3FE4F3983ED4F386957795FB
:1028A0006795B795F7959F5FC9F7880F911D969526
:1028B000879597F90895E1E0660F771F881FBB1F82
:1028C000621773078407BA0720F0621B730B840B2F
:1028D000BA0BEE1F88F7E09508950E94741468946F
:1028E000B1110C944F1508950E94341588F09F572C
:1028F00098F0B92F9927B751B0F0E1F0660F771F24
:10290000881F991F1AF0BA95C9F714C0B13091F019
:102910000E944E15B1E008950C944E15672F782F44
:102920008827B85F39F0B93FCCF3869577956795DE
:10293000B395D9F73EF490958095709561957F4F4A
:102940008F4F9F4F0895E89409C097FB3EF49095F0
:102950008095709561957F4F8F4F9F4F9923A9F078
:10296000F92F96E9BB279395F69587957795679507
:10297000B795F111F8CFFAF4BB0F11F460FF1BC04B
:102980006F5F7F4F8F4F9F4F16C0882311F096E9DE
:1029900011C0772321F09EE8872F762F05C066238C
:1029A00071F096E8862F70E060E02AF09A95660F45
:1029B000771F881FDAF7880F9695879597F90895FE
:1029C000990F0008550FAA0BE0E8FEEF1616170640
:1029D000E807F907C0F012161306E407F50798F0A8
:1029E000621B730B840B950B39F40A2661F0232BC1
:1029F000242B252B21F408950A2609F4A140A6953D
:102A00008FEF811D811D089597F99F6780E870E021
:102A100060E008959FEF80EC089500240A94161654
:102A2000170618060906089500240A9412161306BC
:102A3000140605060895092E0394000C11F488234A
:102A400052F0BB0F40F4BF2B11F460FF04C06F5F66
:102A50007F4F8F4F9F4F089557FD9058440F551F3C
:102A600059F05F3F71F04795880F97FB991F61F010
:102A70009F3F79F087950895121613061406551F87
:102A8000F2CF4695F1DF08C0161617061806991FF3
:102A9000F1CF86957105610508940895E894BB27E8
:102AA00066277727CB0197F908950E9468150C9443
:102AB0001B150E940D1538F00E94141520F0952367
:102AC00011F00C9404150C940A1511240C944F1554
:102AD0000E942C1570F3959FC1F3950F50E0551F80
:102AE000629FF001729FBB27F00DB11D639FAA2763
:102AF000F00DB11DAA1F649F6627B00DA11D661FB2
:102B0000829F2227B00DA11D621F739FB00DA11DD2
:102B1000621F839FA00D611D221F749F3327A00D8C
:102B2000611D231F849F600D211D822F762F6A2F28
:102B300011249F5750409AF0F1F088234AF0EE0F8D
:102B4000FF1FBB1F661F771F881F91505040A9F7BA
:102B50009E3F510580F00C9404150C944F155F3F77
:102B6000E4F3983ED4F3869577956795B795F795F6
:102B7000E7959F5FC1F7FE2B880F911D969587956E
:102B800097F908959F930E94CC150F9007FCEE5F74
:102B90000C94F5150C940A150E943415D8F3E8949A
:102BA000E0E0BB279F57F0F02AED3FE049EC06C07C
:102BB000EE0FBB0F661F771F881F28F0B23A62071F
:102BC0007307840728F0B25A620B730B840BE395EA
:102BD0009A9572F7803830F49A95BB0F661F771F6D
:102BE000881FD2F790480C940B16EF93E0FF07C0B4
:102BF000A2EA2AED3FE049EC5FEB0E94A1130E949C
:102C00001B150F90039401FC9058ECEAF0E00C9433
:102C100017169F3F31F0915020F48795779567956F
:102C2000B795880F911D9695879597F908959F936D
:102C30008F937F936F93FF93EF939B01AC010E945F
:102C40005515EF91FF910E942B162F913F914F91B7
:102C50005F910C945515DF93CF931F930F93FF92C1
:102C6000EF92DF927B018C01689406C0DA2EEF01AF
:102C70000E946815FE01E894A59125913591459132
:102C80005591A6F3EF010E94A113FE019701A8013F
:102C9000DA9469F7DF90EF90FF900F911F91CF9139
:102CA000DF910895DB018F939F930E944513BF919D
:102CB000AF91A29F800D911DA39F900DB29F900D8B
:102CC00011240895991B79E004C0991F961708F004
:102CD000961B881F7A95C9F78095089597FB072E54
:102CE00016F4009407D077FD09D00E94891607FCDE
:102CF00005D03EF4909581959F4F0895709561950C
:102D00007F4F08950E947A13B7FF0895821B930B9B
:102D10000895AA1BBB1B51E107C0AA1FBB1FA61722
:102D2000B70710F0A61BB70B881F991F5A95A9F774
:102D300080959095BC01CD010895EE0FFF1F059081
:102D4000F491E02D099481E090E0F8940C94A81699
:042D5000F894FFCF25
:102D5400FFFFFFFF00E10000000000000100000091
:102D6400000000002501420100C180810000000034
:102D74000000004106410641060101FD00FA000081
:102D84000000009E03E103F8000101FD00F5004B83
:102D9400015D46280F070F284600000000F50CBE11
:102DA40009000000007F09160BC6099509A009CA8D
:102DB40009E809000000009B0B0C0A000000002534
:042DC40004430100C3
:00000001FF
