:1070000055C000006EC000006CC000006AC00000E7
:1070100068C0000066C0000064C0000062C00000DC
:1070200060C000005EC00000B8C400005AC000008C
:1070300058C0000056C0000054C0000052C00000FC
:1070400050C00000C6C000004CC000004AC0000094
:1070500048C0000046C0000044C0000042C000001C
:1070600040C000003EC000003CC000003AC000002C
:1070700038C0000036C0000034C0000032C000003C
:1070800030C000002EC000002CC000002AC000004C
:1070900028C0000026C0000024C0000022C000005C
:1070A00020C000001EC000001CC0000011241FBE34
:1070B000CFEFDAE0DEBFCDBF11E0A0E0B1E0EEEB54
:1070C000FEE702C005900D92A83AB107D9F711E08A
:1070D000A8EAB1E001C01D92AE3BB107E1F753D37E
:1070E000ECC68ECF84E08093E9000DC08091E8006B
:1070F0008B778093E80003C08EB3882359F080918A
:10710000E80082FFF9CF8091E80085FFEFCF809102
:10711000F100089580E0089593E09093E900909144
:10712000E80095FD0DC09091E8009E779093E800EF
:1071300003C09EB3992361F09091E80090FFF9CFCE
:107140008093F10084E690E09093AD018093AC01D0
:107150000895F89410926F001092810010928500AB
:107160001092840081E085BF15BE0C940000089544
:107170008091B2019091B30101969093B3018093F5
:10718000B201089584B7877F84BF88E10FB6F89471
:1071900080936000109260000FBE90E880E00FB610
:1071A000F89490936100809361000FBE81E085BFE9
:1071B00082E085BFE1E6F0E09083108210928900C2
:1071C0009AEF9093880080936F0083E08093810012
:1071D000CCC31F920F920FB60F9211242F938F934F
:1071E0009F93EF93FF9310928500109284008091FB
:1071F000AC019091AD01009729F001979093AD01FA
:107200008093AC018091AA019091AB01009729F085
:1072100001979093AB018093AA01E0E0F0E08591A3
:1072200094912FEF8F3F920749F08091A8019091A0
:10723000A90101969093A9018093A801FF91EF9174
:107240009F918F912F910F900FBE0F901F901895C7
:1072500082E061EC42E01CD383E061E842E118D3B4
:1072600084E060E842E114C38091B601982F9F77D3
:10727000913249F59091B7019032A1F0913219F510
:10728000813A09F58091E800877F8093E8008EE0DD
:1072900091E067E070E032D48091E8008B778093D2
:1072A000E8000895813279F48091E800877F809327
:1072B000E8008EE091E067E070E07FD48091E80024
:1072C0008E778093E80008954F925F926F927F923D
:1072D0008F929F92AF92BF92CF92DF92EF92FF92E6
:1072E0000F931F93CF93DF9384E08093E900809105
:1072F000E80082FF37C284E690E09093AB01809370
:10730000AA01F0DEC82F853481F48CE49DE19093CE
:10731000A9018093A80107B600FCFDCFF999FECF23
:1073200081E180935700E89503C0843519F4DADED3
:107330008DE0EEC18C34E1F38035D1F3843721F454
:1073400084E4EADE80E0E4C1813611F489E5E0C13D
:10735000813401F5C7DEC82FC5DE482F50E0440F49
:10736000551F662757FD6095762F3C2F330F20E081
:10737000C901AA2797FDA095BA2F482B592B6A2B34
:107380007B2B4093AE015093AF016093B00170939B
:10739000B101CECF803711F483E5BAC1833541F412
:1073A000C0E0D1E007E08991B7DE0150E1F7B1C15B
:1073B000863521F481E3B0DE80E3AAC1833731F45E
:1073C00087E8AADE85E9A8DE8EE1A2C18536B9F498
:1073D000E0E0F0E093E085E090935700E89507B691
:1073E00000FCFDCF80935700E89507B600FCFDCF69
:1073F000E058FF4F20E7E030F20771F799CF82376E
:1074000019F4E1E0F0E00EC0863419F4E0E0F0E0B9
:1074100009C08E3419F4E3E0F0E004C0813539F49A
:10742000E2E0F0E089E080935700849171C18236F8
:1074300031F489E571DE80E06FDE80E869C1823475
:1074400019F0873609F0DAC01092A9011092A8014C
:1074500049DEC82E47DE082F45DED82F85548230FE
:1074600008F055C13C2D20E010E0022B132B1092A8
:107470006F00C73609F045C081E180935700E89559
:10748000C0E0BB24B39438C0C090AE01D090AF012F
:10749000E090B001F090B101D634B9F4EC2FF0E0F7
:1074A000EC29FD29849138DECC2369F0D701C6018F
:1074B0000296A11DB11D8093AE019093AF01A093E0
:1074C000B001B093B101CB2515C0D701C601B69567
:1074D000A79597958795DBD41FDED701C601029645
:1074E000A11DB11D8093AE019093AF01A093B00197
:1074F000B093B101015010400115110509F0C4CF3E
:1075000079C04090AE015090AF016090B001709092
:10751000B101D63409F05AC083E0F20180935700DC
:10752000E89507B600FCFDCF51C0D63449F5CC2311
:1075300019F1C090AE01D090AF01E090B001F09091
:10754000B101D0DD982E88248B2D90E088299929CF
:10755000F6010C01A0925700E8951124D701C6014D
:107560000296A11DB11D8093AE019093AF01A0932F
:10757000B001B093B10102C0B5DDB82ECA2523C059
:10758000C090AE01D090AF01E090B001F090B10199
:10759000F694E794D794C794A5DD682FC6017FD4ED
:1075A0008091AE019091AF01A091B001B091B10175
:1075B0000296A11DB11D8093AE019093AF01A093DF
:1075C000B001B093B1010150104004C0BB24C0E031
:1075D000AA24A3940115110509F0A7CFD63441F4CC
:1075E00085E0F20180935700E89507B600FCFDCFD7
:1075F0008DE092DD82E080936F008BC0833471F464
:10760000C091AE01D091AF016DDD90E021E0FE01AF
:107610000C0120935700E89511248ACE8336A9F4F3
:10762000C090AE01D090AF01E090B001F090B101F8
:1076300059DDF601E16090E021E00C012093570054
:10764000E8951124D701C60134C08D3661F4E0916C
:10765000AE01F091AF0185E080935700E89507B641
:1076600000FCFDCF65CE823551F4E091AE01F09182
:10767000AF01C591D4918D2F4FDD8C2F49C084343B
:1076800021F5C090AE01D090AF01E090B001F09034
:10769000B101F694E794D794C79424DD682FC6010E
:1076A000FED38091AE019091AF01A091B001B09155
:1076B000B1010296A11DB11D8093AE019093AF015F
:1076C000A093B001B093B10133CE8436F1F4C090F1
:1076D000AE01D090AF01E090B001F090B101D701C0
:1076E000C601B695A79597958795D1D315DDD70196
:1076F000C6010296A11DB11D8093AE019093AF010A
:10770000A093B001B093B10104C08B3111F08FE3AD
:1077100003DD83E08093E9009091E8008091E80028
:107720008E778093E80095FF04C010C08EB3882345
:10773000C9F08091E80080FFF9CF8091E8008E7752
:107740008093E80003C08EB3882361F08091E80045
:1077500080FFF9CF84E08093E9008091E8008B7787
:107760008093E800DF91CF911F910F91FF90EF90F0
:10777000DF90CF90BF90AF909F908F907F906F9051
:107780005F904F9008954091000850910108109229
:1077900001081092000824B714BE88E10FB6F894CF
:1077A00080936000109260000FBE26982E9A30E001
:1077B000F901E270F07021FD1CC01E9B1AC020FF71
:1077C00006C0859194916FEF8F3F960789F423FF50
:1077D00010C080910B0190910C014817590749F096
:1077E000E0E0F0E0859194912FEF8F3F920709F050
:1077F000B0DCC8DC78941092A9011092A8010DC0E9
:1078000063DD33D38091A8019091A9016FE18134A8
:10781000960710F010920D01ABDC80910D018823CA
:1078200079F78091E00081608093E00092DC80E055
:1078300090E00895923029F0933041F0913061F456
:1078400010C08EE390E027E531E01EC0882371F080
:10785000813089F08230A1F080E090E020E030E0DB
:1078600013C082E190E025E931E00EC084E090E0B1
:1078700023E531E009C082E290E02FE231E004C06C
:1078800088E190E025E131E0FA0131832083089519
:107890008093E900EBEEF0E0808181608083EDEE83
:1078A000F0E010826093EC0040838091EE00881F2E
:1078B0008827881F08958091B60187FF11C003C0F3
:1078C0008EB38823B1F08091E80082FFF9CF8091D8
:1078D000E8008B778093E80008958EB3882349F001
:1078E0008091E80080FFF9CF8091E8008E77809347
:1078F000E80008950F931F93CF93DF9341D048D0B2
:10790000C8EDD0E088818F778883888180688883FC
:1079100088818F7D888319BC1EBA1092B40100EE55
:1079200010E0F80180818B7F80838881816088836B
:1079300080E060E042E0ACDFE1EEF0E080818E7F4D
:107940008083E2EEF0E080818160808380818860C6
:107950008083F80180818E7F808388818061888325
:10796000DF91CF911F910F910895E7EDF0E08081B5
:10797000816080838AE482BF81E08093B501BACFC1
:10798000E8EDF0E080818E7F80831092E200089520
:107990001092DA001092E10008951F920F920FB634
:1079A0000F9211242F933F934F935F936F937F9385
:1079B0008F939F93AF93BF93EF93FF938091DA00E0
:1079C00080FF1BC08091D80080FF17C08091DA0033
:1079D0008E7F8093DA008091D90080FF0BC080E118
:1079E00089BD82E189BD09B400FEFDCF81E08EBB77
:1079F0003BD203C019BC1EBA37D28091E10080FF90
:107A000017C08091E20080FF13C08091E2008E7F5A
:107A10008093E2008091E20080618093E200809197
:107A2000D80080628093D80019BC85E08EBB1CD240
:107A30008091E10084FF2CC08091E20084FF28C087
:107A400080E189BD82E189BD09B400FEFDCF80914E
:107A5000D8008F7D8093D8008091E1008F7E809345
:107A6000E1008091E2008F7E8093E2008091E2004D
:107A700081608093E2008091B401882321F4809199
:107A8000E30087FF02C084E001C081E08EBBECD13F
:107A90008091E10083FF21C08091E20083FF1DC03F
:107AA0008091E100877F8093E10082E08EBB10929D
:107AB000B4018091E1008E7F8093E1008091E2002B
:107AC0008E7F8093E2008091E20080618093E200EB
:107AD00080E060E042E0DCDEC7D1FF91EF91BF9132
:107AE000AF919F918F917F916F915F914F913F9156
:107AF0002F910F900FBE0F901F9018954091BC01D1
:107B00005091BD014617570720F4BA01FC0140E02F
:107B10003BC061157105D1F74091E8004E77409365
:107B2000E800F4CF8EB3882309F443C08530E9F12F
:107B30008091E80083FD3BC08091E80082FD2FC06A
:107B40008091E80080FF20C09091F3008091F200C6
:107B5000392F20E090E0822B932B06C04191409377
:107B6000F1006150704001966115710519F088307F
:107B70009105A0F341E08830910509F040E0809143
:107B8000E8008E778093E8006115710559F644236B
:107B900049F605C08EB3882361F0853061F080918D
:107BA000E80082FFF7CF80E0089583E0089581E048
:107BB000089582E0089583E008956115710529F420
:107BC0004091E8004B774093E800582F492F2AC096
:107BD0008EB38823D1F18530A1F18091E80083FD37
:107BE00032C08091E80082FFF3CFE52FF42F08C068
:107BF0008091F10081935E2F4F2F6150704069F0AA
:107C00005E2F4F2F9091F3008091F200392F20E0EA
:107C100090E0822B932B009759F78091E8008B77A7
:107C20008093E8006115710599F605C08EB388232D
:107C300061F0853061F08091E80080FFF7CF80E04F
:107C4000089583E0089581E0089582E0089583E037
:107C500008950F931F93CF93DF9300D0CDB7DEB776
:107C600088E0E6EBF1E09091F10091938150D9F733
:107C7000FBDA8091E80083FFE2C08091B601909129
:107C8000B701953009F46BC0963040F4913061F142
:107C9000913070F0933009F0D2C026C0983009F4CA
:107CA000A1C0993009F4B0C0963009F0C8C07AC0BC
:107CB000803809F4C4C0823809F0C1C08091BA018B
:107CC00087708093E9009091EB001092E900809119
:107CD000E800877F8093E80081E095FF80E0809353
:107CE000F1001092F10089C0882319F0823009F068
:107CF000A6C08F71823009F0A2C08091B80188239C
:107D000041F52091BA01277009F499C02093E90048
:107D10008091EB0080FF1DC08091B701833021F47A
:107D20008091EB00806213C08091EB0080618093B2
:107D3000EB0081E090E002C0880F991F2A95E2F7DE
:107D40008093EA001092EA008091EB0088608093B3
:107D5000EB001092E9008091E800877F51C08823F2
:107D600009F06DC01091B8011F770FB7F89480919A
:107D7000E800877F8093E8009EDD8091E80080FF27
:107D8000FCCF8091E3008078812B8093E3008068B2
:107D90008093E300112311F083E001C082E08EBBE9
:107DA0000FBF4DC08058823008F049C08091B801A3
:107DB0009091B9016091BA01AE014F5F5F4F3ADD1A
:107DC000BC01009709F43BC08091E800877F809355
:107DD000E80089819A8192DE8091E8008B77809318
:107DE000E8002DC0803859F58091E800877F8093A6
:107DF000E8008091B4018093F1008091E8008E77D3
:107E00008093E80058DD1BC08823C9F49091B80125
:107E10009230A8F48091E800877F8093E8009093E7
:107E2000B40149DD8091B401882321F48091E300FD
:107E300087FF02C084E001C081E08EBB09DA809137
:107E4000E80083FF0AC08091EB0080628093EB0022
:107E50008091E800877F8093E8000F900F90DF917A
:107E6000CF911F910F9108950895CF938EB38823DA
:107E700061F0C091E900C7701092E9008091E800BC
:107E800083FF01C0E6DEC093E900CF910895F99920
:107E9000FECF92BD81BDF89A992780B50895262F0F
:107EA000F999FECF1FBA92BD81BD20BD0FB6F894DF
:0E7EB000FA9AF99A0FBE01960895F894FFCF42
:107EBE004341544552494E41000008777701000076
:107ECE000000000008180342006C0069006E006B91
:107EDE000069006E006C00610062007300000022F9
:107EEE000342006C0069006E006B00790054006163
:107EFE0000700065002000200020002000200020DF
:107F0E000000000403090409023E00020100803251
:107F1E0009040000010202010005240010010424DE
:107F2E0002040524060001070582030800FF090468
:107F3E000100020A000000070504021000010705F7
:107F4E0083021000011201100102000008501D6C86
:087F5E006001000201000100B6
:100000000C9486010C94AE010C94AE010C94AE01DC
:100010000C94AE010C94AE010C94AE010C94AE01A4
:100020000C94AE010C94AE010C94720D0C94F90D6D
:100030000C94AE010C94AE010C94AE010C94AE0184
:100040000C94AE010C94AE010C94AE010C94AE0174
:100050000C94AE010C94AE010C94AE010C94B30858
:100060000C94AE010C94AE010C94AE010C94AE0154
:100070000C94AE010C94AE010C94AE010C94AE0144
:100080000C94AE010C94AE010C94AE010C94AE0134
:100090000C94AE010C94AE010C94AE010C94AE0124
:1000A0000C94AE010C94AE010C94AE0105A84CCD9D
:1000B000B2D44EB93836A9020C50B9918688083CA2
:1000C000A6AAAA2ABE000000803F0000000024006B
:1000D00027002A002D003000000000002500280025
:1000E0002B002E0031000000000023002600290014
:1000F0002C002F000404040404030405020202027D
:1001000004030202020206060606060604040202B0
:10011000020404080201104080401020408040800A
:10012000080204018040201002011080102040408D
:100130000000000200080E0000030401000B000094
:1001400000000000000000000000000000000706A2
:1001500005040100080A0B0C0D09080B000202023D
:100160000100090400000102020000052400100142
:1001700005240101010424020605240600010705E7
:10018000810310004009040100020A000000070575
:100190000202400000070583024000000403090436
:1001A000220342006C0069006E006B00790054006D
:1001B0006100700065002000200020002000200069
:1001C0002000180342006C0069006E006B0079008B
:1001D0005400610070006500200012010002000060
:1001E0000040501D6C60000101020001120100027C
:1001F00002000040501D6C6000010102000100C1BE
:100200008081C105010902A1010901A10085010543
:10021000091901290315002501950375018102952E
:10022000017505810305010930093109381581255A
:100230007F750895038106C0C005010906A10185E7
:1002400002050719E029E7150025017501950881C8
:100250000295017508810395067508150025650549
:1002600007190029658100C009040200010300008C
:1002700000092101010001226500070584034000F7
:100280000100000000000000002A2B2800000000F0
:10029000000000000000000000000000000000005E
:1002A000002C9EB4A0A1A2A434A6A7A5AE362D37DB
:1002B00038271E1F20212223242526B333B62EB72C
:1002C000B89F8485868788898A8B8C8D8E8F909144
:1002D00092939495969798999A9B9C9D2F3130A3D1
:1002E000AD350405060708090A0B0C0D0E0F101199
:1002F00012131415161718191A1B1C1DAFB1B0B51F
:100300000000E1029708F00AAE0C7C0F11241FBE1A
:10031000CFEFDAE0DEBFCDBF11E0A0E0B1E0E2ED6B
:10032000F6E202C005900D92AA34B107D9F712E0A7
:10033000AAE4B1E001C01D92AA3CB107E1F713E0C5
:10034000CCE0D3E004C02297FE010E946313C230C8
:10035000D107C9F70E94BB0B0C9467130C940000E3
:10036000CF93DF93BC018230910510F462E070E01E
:10037000A091C802B091C902ED01E0E0F0E040E0D8
:1003800050E021C0888199818617970769F48A8196
:100390009B81309719F09383828304C09093C902A4
:1003A0008093C802FE0134C06817790738F44115FC
:1003B000510519F08417950708F4AC01FE018A81F4
:1003C0009B819C01E9012097E9F641155105A9F1AE
:1003D000CA01861B970B049708F4BA01E0E0F0E02D
:1003E0002AC08D919C91119784179507F9F4641791
:1003F000750781F412968D919C911397309719F09F
:100400009383828304C09093C9028093C802FD0144
:1004100032964CC0CA01861B970BFD01E80FF91FED
:100420006193719302978D939C9340C0FD018281EB
:1004300093819C01D9011097A1F68091C6029091F9
:10044000C702892B41F4809102019091030190939E
:10045000C7028093C60240910401509105014115E5
:10046000510541F44DB75EB78091000190910101B3
:10047000481B590B2091C6023091C702CA01821B4A
:10048000930B8617970780F0AB014E5F5F4F841781
:10049000950750F0420F531F5093C7024093C60276
:1004A000F9016193719302C0E0E0F0E0CF01DF91C8
:1004B000CF910895CF93DF93009709F450C0EC01DA
:1004C00022971B821A82A091C802B091C90210978C
:1004D00009F140E050E0AC17BD0708F1BB83AA83E7
:1004E000FE0121913191E20FF31FAE17BF0779F49E
:1004F0008D919C911197280F391F2E5F3F4F3983A3
:10050000288312968D919C9113979B838A83411522
:10051000510571F4D093C902C093C80220C012964D
:100520008D919C911397AD01009711F0DC01D3CF11
:10053000FA01D383C28321913191E20FF31FCE17C9
:10054000DF0769F488819981280F391F2E5F3F4F9B
:10055000FA01318320838A819B8193838283DF9197
:10056000CF910895FC01A081B1812D913C91F901B9
:100570000995089581E008950895FC013F9A80E867
:10058000828388E290E0948383830895DF93CF93FE
:1005900000D00F92CDB7DEB7DC01AB01ED91FC913D
:1005A0000680F781E02D19821A821B82BE016F5FDF
:1005B0007F4F20E009950F900F900F90CF91DF9122
:1005C000089508958F929F92AF92BF92CF92DF923B
:1005D000EF92FF920F931F93DF93CF9300D000D041
:1005E00000D0CDB7DEB75E010894A11CB11CF4E0C9
:1005F0008F2E912C8C0E9D1E82EA92E00E94A60AFC
:100600000397D4F3850182EA92E00E94CD0A8F3FDE
:1006100041F0F8018083802F8A19823009F047C0A9
:100620002DC08EE092E0609150020E94120810925C
:100630000302109202028AE00E94750A8C0187E090
:100640000E94750A7C018BE00E94750A6C018BE1A7
:100650000E94750AE3E0000F111FEA95E1F7EE0C26
:10066000FF1CEE0CFF1C0E29082BCC0CDD1C0C29EA
:1006700082EA92E0602F0E94070BBECF80910202B7
:10068000909103023A814B8129812C833D834E83D3
:10069000FC01EE0FFF1FE80FF91FE65BFE4F208302
:1006A00031834283019690930302809302020F5F8D
:1006B0001F4F0815190509F0A6CF9ECF4F925F92E4
:1006C0006F927F928F929F92AF92BF92CF92DF9262
:1006D000EF92FF920F931F93DF93CF9300D00F926F
:1006E000CDB7DEB71AE4812E11E0912E662477246F
:1006F000BCE34B2E512CB301882777FD8095982FB2
:100700000E9480115B016C0120E030E040E05FE37B
:100710000E940C127B018C0160910C0270910D0201
:10072000882777FD8095982F0E94801120E030E087
:1007300040E85EE30E940C129B01AC01C801B701C6
:100740000E9486100E946F1220E030E040E85FE3D4
:100750000E94861020E030E040E852E40E940C1233
:100760000E945211F401608360910A0270910B02A1
:10077000882777FD8095982F0E94801120E030E037
:1007800040E151E40E94EA109B01AC01C601B501B1
:100790000E94861026E636E646E050E40E94861067
:1007A0000E946F1220E030E040E85FE30E94861074
:1007B00020E030E040E852E40E940C120E94521106
:1007C000F4016183C601B50120E030E040E450E46B
:1007D0000E94EA107B018C0160910802709109026D
:1007E000882777FD8095982F0E94801120E030E0C7
:1007F00040E651E40E94EA109B01AC01C801B70138
:100800000E94861026E636E646E850E40E948610EE
:100810000E946F1220E030E040E85FE30E94861003
:1008200020E030E040E852E40E940C120E94521195
:10083000F40162830E94FB082091FE013091FF01C8
:100840004091000250910102621B730B840B950BC7
:10085000603171058105910500F18091040290914C
:100860000502CE97D4F40E94FB086093FE017093BA
:10087000FF01809300029093010280910402909105
:1008800005029201281B390B3093070220930602C0
:100890000196909305028093040280910602909144
:1008A0000702FC01EE0FFF1FE80FF91FE65BFE4F8A
:1008B00008C019821A821B8210821182128201974B
:1008C000339797FFF6CF0894611C711C83E090E08A
:1008D000880E991E9CE36916710409F00CCF8EE016
:1008E00092E0609150020E94120880910C02909157
:1008F0000D02019690930D0280930C0280910A02E2
:1009000090910B02019690930B0280930A028091C2
:1009100008029091090202969093090280930802BE
:100920000F900F900F90CF91DF911F910F91FF903B
:10093000EF90DF90CF90BF90AF909F908F907F907F
:100940006F905F904F90089582EA92E00E94A60A0D
:100950001816190614F40E94E2028AE00E94750A31
:10096000282F80910C01281799F0222389F4809177
:100970000B0190E0019665E070E00E9411138093F6
:100980000B01E82FF0E0EA5FFE4F80818093500278
:1009900020930C010E945E0308950F931F938C0116
:1009A0000E9409099B01AC01F80180819181A2811B
:1009B000B381281B390B4A0B5B0B223331054105F0
:1009C000510534F482E390E0821B930B0E94880966
:1009D0001F910F910895CF92DF92EF92FF920F93A4
:1009E0001F93CF93DF936C01162F072FEA01E22E9E
:1009F00005960E94CD04F894212F302FC901FC01E7
:100A0000BE01660F771F6C0F7D1F6E0F7F1F58B1E1
:100A1000506888B18F7788B921813E2D239F212D81
:100A2000D8C095E058B9001400140014001427FF32
:100A300088B9001400140014001488B900140014BC
:100A400000140014220F915069F7001458B90014D3
:100A500000140014001427FF88B9001400140014B7
:100A6000001488B90014001402E00A95F1F758B98F
:100A7000001400140014001426FF88B90014001498
:100A80000014001488B900140014001440813E2D95
:100A9000439F412D58B9001400140014001425FF81
:100AA00088B9001400140014001488B9001402E07E
:100AB0000A95F1F795E058B90014001400140014D9
:100AC00047FF88B9001400140014001488B90014FA
:100AD000001400140014440F915069F7001458B921
:100AE000001400140014001447FF88B90014001407
:100AF0000014001488B90014001402E00A95F1F7FC
:100B000058B9001400140014001446FF88B90014EA
:100B100000140014001488B9001400140014328169
:100B20002E2D329F312D58B90014001400140014DA
:100B300045FF88B9001400140014001488B900148B
:100B400002E00A95F1F795E058B90014001400147A
:100B5000001437FF88B9001400140014001488B979
:100B60000014001400140014330F915069F700149E
:100B700058B9001400140014001437FF88B9001489
:100B800000140014001488B902E00A95F1F73396B6
:100B900058B9001400140014001436FF88B900146A
:100BA00000140014001488B90014001400142181EA
:100BB0004E2D249F212D58B9001400140014001448
:100BC00035FF88B9001400140014001488B900140B
:100BD0000014E617F70708F424CF1124E090590217
:100BE000F0905A0200915B0210915C02BE0183E01A
:100BF000660F771F8A95E1F76C0F7D1F882777FDB9
:100C00008095982F28EE33E040E050E00E94461394
:100C1000E20EF31E041F151FE0925902F0925A02D1
:100C200000935B0210935C0278940E940909F6011C
:100C30006583768387839087DF91CF911F910F9192
:100C4000FF90EF90DF90CF900895AF92BF92CF9238
:100C5000DF92EF92FF920F931F93CF93DF935C018C
:100C6000EB016A01122F05960E94CD04F894B6019B
:100C7000660F771F6C0D7D1D6C0F7D1F58B150687E
:100C800088B18F7788B9A9812A2F219F212DFE0154
:100C9000D5C095E058B9001400140014001427FFC3
:100CA00088B9001400140014001488B9001400144A
:100CB00000140014220F915069F7001458B9001461
:100CC00000140014001427FF88B900140014001445
:100CD000001488B90014001402E00A95F1F758B91D
:100CE000001400140014001426FF88B90014001426
:100CF0000014001488B90014001400144881419FA6
:100D0000412D58B9001400140014001425FF88B9AF
:100D1000001400140014001488B9001402E00A95AD
:100D2000F1F795E058B9001400140014001447FFBF
:100D300088B9001400140014001488B900140014B9
:100D400000140014440F915069F7001458B90014AE
:100D500000140014001447FF88B900140014001494
:100D6000001488B90014001402E00A95F1F758B98C
:100D7000001400140014001446FF88B90014001475
:100D80000014001488B90014001400143A81319F33
:100D9000312D58B9001400140014001445FF88B90F
:100DA000001400140014001488B9001402E00A951D
:100DB000F1F795E058B9001400140014001437FF3F
:100DC00088B9001400140014001488B90014001429
:100DD00000140014330F915069F7001458B900142F
:100DE00000140014001437FF88B900140014001414
:100DF000001488B902E00A95F1F7339658B9001447
:100E000000140014001436FF88B9001400140014F4
:100E1000001488B90014001400142A2F219F212DDA
:100E200058B9001400140014001435FF88B90014D8
:100E300000140014001488B900140014E617F70712
:100E400008F427CF1124E0905902F0905A02009143
:100E50005B0210915C02B60123E0660F771F2A95B2
:100E6000E1F76C0D7D1D882777FD8095982F28EE82
:100E700033E040E050E00E944613E20EF31E041FF0
:100E8000151FE0925902F0925A0200935B021093F0
:100E90005C0278940E940909F50165837683878353
:100EA0009087DF91CF911F910F91FF90EF90DF908E
:100EB000CF90BF90AF900895EF92FF920F931F9342
:100EC000DF93CF9300D00F92CDB7DEB782EA92E0E6
:100ED00060E071EE0E94A50A89E090E00E94CE0BCE
:100EE000FC0115821682178210868BE191E09183B6
:100EF00080834EE0E42E42E0F42EC701BF014AE4B5
:100F000051E02CE330E000E010E00E94BD071982C0
:100F10001A821B82C701BE016F5F7F4F4091500252
:100F20000E944E088DE580935002C7016DE50E9436
:100F300012088AE062E00E94E8098BE162E00E9408
:100F4000E80987E062E00E94E8098BE062E00E9425
:100F5000E8090E94FB086093FE017093FF018093F3
:100F60000002909301020F900F900F90CF91DF91AC
:100F70001F910F91FF90EF900895DF92EF92FF92F3
:100F80000F931F93CF93DF93EC017B011016110693
:100F90002CF0D22E032F20E030E002C0D02E012F03
:100FA000C05CDF4FA881B981C054D040FE0160E031
:100FB00070E007C0808191813896892B41F06F5F86
:100FC0007F4F6A177B07B4F3EE24FF2422C0E3E0CF
:100FD000660F771FEA95E1F7DE01A60FB71F11969E
:100FE000FC92EE92FE01E60FF71F538342831796A1
:100FF0003C932E931697FB013496EC0FFD1FD08285
:101000000183D701ED91FC910190F081E02DC701A2
:101010000995C701DF91CF911F910F91FF90EF903C
:10102000DF900895DF92EF92FF920F931F93CF937B
:10103000DF93D62EEC0100E010E050E4E52EF12C19
:10104000E80EF91E1DC0A881B9811097F9F0ED9145
:10105000FC9111972E813F81C901880F991F820F42
:10106000931F6A817B81680F791F4C815D810084A9
:10107000F185E02DCD012D2D09950F5F1F4F28968D
:10108000F7018081918108171907ECF2DF91CF9168
:101090001F910F91FF90EF90DF900895BF92CF9234
:1010A000DF92EF92FF920F931F93CF93DF936B0129
:1010B000B42EEC0100E010E060E4E62EF12CE80E26
:1010C000F91E13C0A881B9811097A9F0ED91FC9188
:1010D00011974C815D810680F781E02DCD01B6012D
:1010E0002B2D09950F5F1F4F2896F7018081918165
:1010F000081719073CF3DF91CF911F910F91FF90D3
:10110000EF90DF90CF90BF900895FC01E05CFF4F1F
:1011100088E090E0819391938FEF8083E254F040D8
:10112000CF0160E040E450E00E94A80808958EE0FE
:1011300092E00E9485088CE894E6A4E5B0E08093F4
:10114000510290935202A0935302B0935402089517
:10115000DC0140FF03C001C06D936D934250E0F786
:101160005040D0F708951F920F920FB60F9211249E
:101170002F933F938F939F93AF93BF938091590287
:1011800090915A02A0915B02B0915C0230915D0295
:101190000196A11DB11D232F2D5F2D3720F02D5756
:1011A0000196A11DB11D20935D0280935902909379
:1011B0005A02A0935B02B0935C0280915502909119
:1011C0005602A0915702B09158020196A11DB11D7F
:1011D0008093550290935602A0935702B093580201
:1011E000BF91AF919F918F913F912F910F900FBE23
:1011F0000F901F9018958FB7F89420915902309155
:101200005A0240915B0250915C028FBFB901CA0142
:1012100008959FB7F894209155023091560240915D
:1012200057025091580286B5A89B06C08F3F21F007
:101230002F5F3F4F4F4F5F4F9FBF542F432F322F92
:101240002227280F311D411D511D82E0220F331F1F
:10125000441F551F8A95D1F7B901CA0108959B0112
:10126000AC017FB7F8948091550290915602A091FD
:101270005702B091580266B5A89B05C06F3F19F0A0
:101280000196A11DB11D7FBFBA2FA92F982F8827C6
:10129000860F911DA11DB11D62E0880F991FAA1F25
:1012A000BB1F6A95D1F7BC012DC0FFB7F8948091A0
:1012B000550290915602A0915702B0915802E6B59E
:1012C000A89B05C0EF3F19F00196A11DB11DFFBFFE
:1012D000BA2FA92F982F88278E0F911DA11DB11D00
:1012E000E2E0880F991FAA1FBB1FEA95D1F7861B62
:1012F000970B885E9340C8F22150304040405040E8
:1013000068517C4F211531054105510571F608954D
:10131000019739F0880F991F880F991F029701973D
:10132000F1F70895789484B5826084BD84B58160B6
:1013300084BD85B5826085BD85B5816085BDEEE6DD
:10134000F0E0808181608083E1E8F0E010828081BC
:1013500082608083808181608083E0E8F0E080812A
:1013600081608083E1E9F0E0808182608083808118
:1013700081608083E0E9F0E0808181608083E1EC3E
:10138000F0E08081846080838081826080838081BE
:1013900081608083E3ECF0E0808181608083E0EC19
:1013A000F0E0808182608083E2ECF0E08081816007
:1013B0008083EAE7F0E080818460808380818260BE
:1013C00080838081816080838081806880830895AC
:1013D000CF93DF93482F50E0CA018E5E9E4FFC01F1
:1013E00034914C505F4FFA018491882369F190E069
:1013F000880F991FFC01E653FF4FA591B491FC01A2
:10140000E852FF4FC591D491662351F42FB7F89459
:101410008C91932F909589238C93888189230BC07D
:10142000623061F42FB7F8948C91932F90958923B3
:101430008C938881832B88832FBF06C09FB7F89435
:101440008C91832B8C939FBFDF91CF91089588302F
:1014500071F1893068F4823031F1833020F48130C9
:1014600009F042C01DC0833089F08430E9F512C014
:101470008B3059F18C3028F48930E9F08A30A1F5AD
:101480001EC08C3031F18E3079F529C080918000FA
:101490008F7703C0809180008F7D809380000895B6
:1014A00084B58F7702C084B58F7D84BD0895809107
:1014B00090008F7707C0809190008F7D03C080914E
:1014C0009000877F8093900008958091C0008F776F
:1014D00003C08091C0008F7D8093C00008958091EB
:1014E000C200877F8093C20008950F931F93482FF7
:1014F00050E0CA01805D9E4FFC012491CA018E5EBE
:101500009E4FFC0104914C505F4FFA01149111233E
:1015100019F420E030E015C0222319F0822F0E9438
:10152000270A812F90E0880F991F8A519F4FFC0155
:10153000A591B4918C9120E030E0802311F021E05E
:1015400030E0C9011F910F910895089520919E02E6
:1015500030919F028091A0029091A102281B390B2B
:101560002F733070C901089520919E0230919F021F
:101570008091A0029091A1022817390719F42FEF4A
:101580003FEF09C0E091A002F091A102E25AFD4FA5
:101590008081282F30E0C901089520919E0230916A
:1015A0009F028091A0029091A1022817390719F497
:1015B0002FEF3FEF13C0E091A002F091A102E25A99
:1015C000FD4F20818091A0029091A10201968F731E
:1015D00090709093A1028093A00230E0C901089519
:1015E0001092A5021092A40288EE93E0A0E0B0E071
:1015F0008093A6029093A702A093A802B093A90299
:101600008DE291E09093A3028093A20208950F933C
:101610001F93DF93CF930F92CDB7DEB78C01698311
:1016200080911401882369F083E0BE016F5F7F4FD2
:1016300041E050E00E94CD0C1816190614F49C01EC
:1016400007C081E090E0F8019383828320E030E0DE
:10165000C9010F90CF91DF911F910F91089583E001
:101660000E94A40C0895CF93DF9312C082E00E94E1
:101670002F0C2FEF8F3F9207C9F0E0919E02F0915F
:101680009F02E25AFD4F8083D0939F02C0939E0237
:10169000C0919E02D0919F022196CF73D07080910D
:1016A000A0029091A102C817D90701F7DF91CF914D
:1016B0000895FC0180818E5F808380E86AE571E097
:1016C00042E450E00E94480C0895FC018181908121
:1016D000913A59F4813209F04CC080E06DE071E03C
:1016E00047E050E00E94480C42C0913209F041C0EE
:1016F000803239F48DE091E067E070E00E948C0C5C
:1017000036C0823209F035C0828180931401809105
:101710000D0190910E01A0910F01B0911001805B1D
:101720009440A040B04019F58091140180FD12C092
:1017300087E797E790930108809300082BE088E102
:1017400090E00FB6F894A895809360000FBE2093A8
:1017500060000DC088E10FB6F8948093600010928D
:1017600060000FBEA895109201081092000881E059
:10177000089580E00895CF93DF930E94920988EB4B
:1017800092E00E94AF0C0E945C07C0E0D0E00E9493
:10179000A4042097E1F30E940000F9CF0E94B00159
:1017A0000895CF92DF92EF92FF920F931F93CF9302
:1017B000DF937C016B018A01C0E0D0E00FC0D6014D
:1017C0006D916D01D701ED91FC910190F081E02DBB
:1017D000C7010995C80FD91F015010400115110507
:1017E00071F7CE01DF91CF911F910F91FF90EF9094
:1017F000DF90CF900895282F8091B2028823C1F006
:1018000057FF1AC015C028989093B1028091F1003B
:101810008193E217F307B9F74115510539F080912B
:10182000F200882319F48BE68093E800AFBF02C072
:101830004FEF5FEFCA010895AFB7F8942770209378
:10184000E9008091F200282F30E0241735070CF4CE
:10185000A901FB019B01240F311D94E6DACFDF9330
:10186000CF930F92CDB7DEB7BE016F5F7F4F41E0E0
:1018700050E00E94FB0B019719F02FEF3FEF03C0E0
:101880008981282F30E0C9010F90CF91DF91089511
:10189000FF920F931F93F82E142F052F4091B5023E
:1018A0005091B602212F302FC901DC01FB016EEFF0
:1018B00029C0F7FE02C0949101C090812091B3022B
:1018C0003091B40224173507ACF48091E80085709C
:1018D000E1F38091E80082FF03C02FEF3FEF17C0D4
:1018E0009093F100C90101968F739070892B11F4C8
:1018F0006093E8002F5F3F4F3093B4022093B30210
:10190000119731961097A9F6812F902F9C01C9014C
:101910001F910F91FF9008959C018091E80082FF34
:10192000FCCFF901260F311D03C08091F100819396
:10193000E217F307D1F7289884E68093B1028BEF82
:101940008093E800CB0108958093E9008091F20034
:10195000882319F08AE38093E8000895089510928F
:10196000B20281E08093D70080EA8093D80082E1C0
:1019700089BD09B400FEFDCF61E070E080E090E039
:101980000E942F0980E98093D8008CE08093E200C8
:101990001092E000559A209A08955F926F927F927C
:1019A0008F929F92AF92BF92CF92DF92EF92FF926F
:1019B0000F931F93CF93DF93E82E842E752E809183
:1019C000B202882371F18B01242F352FC901EC015C
:1019D0007AEFF72E67E0962E9E2050E4552E8E2D3E
:1019E00090E040E2A42EB12CA822B9223AE3632E63
:1019F00020E4C22ED12CC822D92258C09FB7F89417
:101A00009092E9008091E80085FD02C020E004C0CA
:101A10008091F200252D281B9FBF222361F4FA94A8
:101A200019F42FEF3FEF4DC061E070E080E090E0EF
:101A30000E942F093BC0822F90E0C817D9070CF4F1
:101A40002C2FC21BD1094FB7F8949092E900A11432
:101A5000B10421F406C01092F10021502223D9F7DD
:101A600019C0E7FC03C0F801922F10C0C801322F43
:101A700006C0FC010196E491E093F100315033235C
:101A8000C1F706C081918093F10091509923D1F75D
:101A9000020F111D8091E80085FF05C0209729F4F1
:101AA000C114D10411F06092E8004FBF209709F0F3
:101AB000A5CF5D9884E68093B002282D372DC9010B
:101AC0009C01C901DF91CF911F910F91FF90EF9081
:101AD000DF90CF90BF90AF909F908F907F906F904E
:101AE0005F9008951F920F920FB60F9211242F93BB
:101AF0003F934F935F936F937F938F939F93AF9396
:101B0000BF93EF93FF938091E1001092E100982F33
:101B100083FF0FC01092E90081E08093EB001092E8
:101B2000EC0082E38093ED001092B20288E0809393
:101B3000F00092FF34C083E08093E9008091F200CE
:101B4000882319F08AE38093E8008FB7F89492E035
:101B50009093E9009091F2008FBF992321F082EADF
:101B600092E00E94330B8091B002882351F0809163
:101B7000B00281508093B0028091B002882309F4B2
:101B80005D9A8091B102882351F08091B102815019
:101B90008093B1028091B102882309F4289AFF91C1
:101BA000EF91BF91AF919F918F917F916F915F91D5
:101BB0004F913F912F910F900FBE0F901F9018954E
:101BC0000F931F93DF93CF930F92CDB7DEB7198298
:101BD0008E010F5F1F4FC8010E94590BC8010E9460
:101BE0007910898190E00F90CF91DF911F910F9133
:101BF00008951F920F920FB60F921124EF92FF9249
:101C00001F932F933F934F935F936F937F938F9384
:101C10009F93AF93BF93EF93FF93DF93CF93CDB792
:101C2000DEB76197DEBFCDBF1092E9008091E8007A
:101C300083FF0FC1FE0131969E01275F3F4F03C016
:101C40008091F1008193E217F307D1F7289884E699
:101C50008093B10282EF8093E800998197FF05C0DD
:101C60008091E80080FFFCCF03C08EEF8093E800F6
:101C7000292F30E0C90180769070892B09F0C2C00D
:101C80008A81882329F41092F1001092F100D6C0C5
:101C9000813009F4D3C0833009F4D0C0853049F4D1
:101CA0008091E80080FFFCCF8B8180688093E30007
:101CB000C5C0863009F07CC01C81EF80F8841230EA
:101CC000C1F51092E9001092B4021092B302109282
:101CD000B6021092B5020E94E00D99E0FE0139961D
:101CE000DF01292F1D922A95E9F799871A8791E03C
:101CF0009E8790E8988B9AEF998B2091B302309150
:101D0000B402275F3F4F3C872B878D871092E900F5
:101D10001092B4021092B302F092B602E092B502B1
:101D200080E0BF0149E050E00E94480C0E94E00DB5
:101D300085C01092E9001092B4021092B302F092A2
:101D4000B602E092B502123241F482E290E00E94C3
:101D50007110892B09F476C071C0113079F488E0D4
:101D6000E816F10419F481E08093B7028091B7027C
:101D7000882309F06BC0EAEDF1E013C0133009F0DD
:101D800061C08B81882319F4ECE9F1E00AC082304C
:101D900019F4E0EAF1E005C0813009F053C0E2EC4B
:101DA000F1E0449180E8BF0150E00E94480C46C039
:101DB000873009F447C0883021F481E08093F10036
:101DC0003DC08930D9F523703070232BD9F5EFEF62
:101DD000F1E091E031E026E39093E9003093EB00ED
:101DE00084918093EC002093ED009F5F31969530B5
:101DF00099F78EE78093EA001092EA008B81809336
:101E0000B2021CC08F8198851092E9001092B40232
:101E10001092B3029093B6028093B5028D8188230D
:101E200029F4CE0101960E94650B06C0823051F460
:101E3000CE0101960E94420F882321F08EEF8093FD
:101E4000E80007C081E28093EB0003C0ECEEF1E014
:101E5000A8CF6196DEBFCDBFCF91DF91FF91EF910B
:101E6000BF91AF919F918F917F916F915F914F91B2
:101E70003F912F911F91FF90EF900F900FBE0F9009
:101E80001F901895FC0191818081813A31F4913045
:101E900089F080E0933089F40DC0813269F49B3081
:101EA00021F482818093150105C09A3029F4828142
:101EB0008093160181E0089580E00895EF92FF92EB
:101EC0000F931F938C01E62EDC01ED91FC910480B1
:101ED000F581E02D0995F82ED801ED91FC91068051
:101EE000F781E02DC8016E2D09958F2D90E01F918F
:101EF0000F91FF90EF9008951092B9021092BD02D9
:101F00001092BC028FE391E09093BB028093BA02DF
:101F10000895EF92FF920F931F93DF93CF930F9249
:101F2000CDB7DEB789838B017A0184E0BE016F5F94
:101F30007F4F41E050E00E94CD0C84E4B801A7013E
:101F40000E94CD0C0F90CF91DF911F910F91FF90C8
:101F5000EF90089582E048E050E00E94890F0895D4
:101F6000FC0116821782108611861286138614824F
:101F70003496BF010E94AA0F0895DC01683810F062
:101F8000685829C0E62FF0E067FF13C0E058F04022
:101F900081E090E002C0880F991FEA95E2F78095F2
:101FA00014962C911497282314962C93149760E080
:101FB00012C0EF57FD4F6491662319F420E030E022
:101FC0001DC067FF08C014968C9114978D7F1496DE
:101FD0008C9314976F77FD0190E0662321F0868142
:101FE000861709F416829F5F31969630B1F7CD01BE
:101FF0001496BD010E94AA0F21E030E0C9010895A6
:10200000CF93DF93DC01683810F0685825C0E62FC5
:10201000F0E067FF12C0E058F04081E090E002C0BD
:10202000880F991FEA95E2F714962C911497282BA4
:1020300014962C93149760E00FC0EF57FD4F6491F6
:102040006623D9F167FF08C014968C9114978260BB
:1020500014968C9314976F7716968C911697861713
:10206000A9F117968C911797861781F118968C9184
:102070001897861759F119968C911997861731F18F
:102080001A968C911A97861709F11B968C911B97BB
:102090008617E1F0ED01E0E0F0E09E2F8E818823CD
:1020A00021F4EA0FFB1F668306C09F5F31962196DD
:1020B000E630F10591F7963049F481E090E013960F
:1020C0009C938E93129720E030E007C0CD011496C8
:1020D000BD010E94AA0F21E030E0C901DF91CF913C
:1020E000089580E863E072E045E650E00E94480C05
:1020F0000895FC0180818F5F808380E868E672E04C
:1021000049E150E00E94480C08955058BB27AA2787
:102110000ED048C139D130F03ED120F031F49F3F8C
:1021200011F41EF42EC10EF4E095E7FB24C1E92F53
:102130004AD180F3BA17620773078407950718F02E
:1021400071F49EF562C10EF4E0950B2EBA2FA02D0E
:102150000B01B90190010C01CA01A0011124FF2754
:10216000591B99F0593F50F4503E68F11A16F0404F
:10217000A22F232F342F4427585FF3CF469537954E
:102180002795A795F0405395C9F77EF41F16BA0B13
:10219000620B730B840BBAF09150A1F0FF0FBB1FC1
:1021A000661F771F881FC2F70EC0BA0F621F731F0A
:1021B000841F48F4879577956795B795F7959E3F67
:1021C00008F0B3CF9395880F08F09927EE0F9795F5
:1021D000879508950CD0E6C0DED040F0D5D030F021
:1021E00021F45F3F19F0C7C0511110C1CAC0EBD034
:1021F00098F39923C9F35523B1F3951B550BBB27CE
:10220000AA2762177307840738F09F5F5F4F220F7A
:10221000331F441FAA1FA9F333D00E2E3AF0E0E873
:1022200030D091505040E695001CCAF729D0FE2FBF
:1022300027D0660F771F881FBB1F26173707480751
:10224000AB07B0E809F0BB0B802DBF01FF27935807
:102250005F4F2AF09E3F510568F08DC0D7C05F3FA9
:10226000ECF3983EDCF3869577956795B795F795EF
:102270009F5FC9F7880F911D9695879597F90895E7
:10228000E1E0660F771F881FBB1F62177307840783
:10229000BA0720F0621B730B840BBA0BEE1F88F792
:1022A000E095089598D088F09F5790F0B92F99271E
:1022B000B751A0F0D1F0660F771F881F991F1AF051
:1022C000BA95C9F712C0B13081F09FD0B1E008953E
:1022D0009CC0672F782F8827B85F39F0B93FCCF3BF
:1022E000869577956795B395D9F73EF49095809547
:1022F000709561957F4F8F4F9F4F0895E89409C067
:1023000097FB3EF490958095709561957F4F8F4F28
:102310009F4F9923A9F0F92F96E9BB279395F6953E
:10232000879577956795B795F111F8CFFAF4BB0FBC
:1023300011F460FF1BC06F5F7F4F8F4F9F4F16C020
:10234000882311F096E911C0772321F09EE8872FAA
:10235000762F05C0662371F096E8862F70E060E066
:102360002AF09A95660F771F881FDAF7880F9695DF
:10237000879597F9089597F99F6780E870E060E086
:1023800008959FEF80EC089500240A94161617060E
:1023900018060906089500240A9412161306140656
:1023A00005060895092E0394000C11F4882352F0B9
:1023B000BB0F40F4BF2B11F460FF04C06F5F7F4F71
:1023C0008F4F9F4F089557FD9058440F551F59F058
:1023D0005F3F71F04795880F97FB991F61F09F3F12
:1023E00079F087950895121613061406551FF2CF3B
:1023F0004695F1DF08C0161617061806991FF1CF8B
:1024000086957105610508940895E894BB276627B1
:102410007727CB0197F908950BD0C4CFB5DF28F00B
:10242000BADF18F0952309F0A6CFABCF1124EECF79
:10243000CADFA0F3959FD1F3950F50E0551F629F1F
:10244000F001729FBB27F00DB11D639FAA27F00D0D
:10245000B11DAA1F649F6627B00DA11D661F829F34
:102460002227B00DA11D621F739FB00DA11D621F19
:10247000839FA00D611D221F749F3327A00D611D36
:10248000231F849F600D211D822F762F6A2F112418
:102490009F5750408AF0E1F088234AF0EE0FFF1F6B
:1024A000BB1F661F771F881F91505040A9F79E3FA2
:1024B000510570F060CFAACF5F3FECF3983EDCF39C
:1024C000869577956795B795F795E7959F5FC1F7DF
:1024D000FE2B880F911D9695879597F908959F93E8
:1024E00005D00F9007FCEE5F31C04BCF74DFE8F3EF
:1024F000E894EFEFBB273FE048EC5FE76B3D7307E5
:102500008407950708F1FF279F57B25A6A4D7F400D
:10251000894CF04032F4BE556542704F8643FF4F00
:102520000894EE1F915030F0BB0F661F771F881F75
:10253000FF1FEBCF9EE7882332F0BB0F661F771F8C
:10254000881F9A95C1F79395E09511C0EF93E0FF2E
:1025500006C0A2EA2AED3FE049EC5FEBE8DD22DFAE
:102560000F90039401FC9058ECEAF0E010C09F3FFC
:1025700049F0915028F4869577956795B7959F5FB8
:1025800080389F4F880F9695879597F908959F9368
:102590008F937F936F93FF93EF939B01AC013CDF8D
:1025A000EF91FF9105D02F913F914F915F9134CFE3
:1025B000DF93CF931F930F93FF92EF92DF927B01F4
:1025C0008C01689405C0DA2EEF0132DFFE01E89439
:1025D000A5912591359145915591AEF3EF01A7DD78
:1025E000FE019701A801DA9479F7DF90EF90FF9050
:1025F0000F911F91CF91DF910895AA1BBB1B51E151
:1026000007C0AA1FBB1FA617B70710F0A61BB70B62
:10261000881F991F5A95A9F780959095BC01CD0107
:10262000089597FB092E07260AD077FD04D0E5DF31
:1026300006D000201AF4709561957F4F0895F6F743
:10264000909581959F4F0895A1E21A2EAA1BBB1B5E
:10265000FD010DC0AA1FBB1FEE1FFF1FA217B3076E
:10266000E407F50720F0A21BB30BE40BF50B661F84
:10267000771F881F991F1A9469F760957095809548
:1026800090959B01AC01BD01CF01089597FB092EE8
:1026900005260ED057FD04D0D7DF0AD0001C38F431
:1026A00050954095309521953F4F4F4F5F4F08957E
:1026B000F6F790958095709561957F4F8F4F9F4F5E
:1026C0000895EE0FFF1F0590F491E02D0994F89402
:0226D000FFCF3A
:1026D2002000CA020000050F28465D040100E10047
:1026E2000000000000010100000000BD02B202C6AD
:1026F200022506EB04BA02BC0200000000070BD15F
:102702000BA60ACD0AB40A2F0B330B000000005EA1
:0A2712000FD10B0010BD0FB00F0037
:00000001FF
