:1070000055C000006EC000006CC000006AC00000E7
:1070100068C0000066C0000064C0000062C00000DC
:1070200060C000005EC00000B8C400005AC000008C
:1070300058C0000056C0000054C0000052C00000FC
:1070400050C00000C6C000004CC000004AC0000094
:1070500048C0000046C0000044C0000042C000001C
:1070600040C000003EC000003CC000003AC000002C
:1070700038C0000036C0000034C0000032C000003C
:1070800030C000002EC000002CC000002AC000004C
:1070900028C0000026C0000024C0000022C000005C
:1070A00020C000001EC000001CC0000011241FBE34
:1070B000CFEFDAE0DEBFCDBF11E0A0E0B1E0EEEB54
:1070C000FEE702C005900D92A83AB107D9F711E08A
:1070D000A8EAB1E001C01D92AE3BB107E1F753D37E
:1070E000ECC68ECF84E08093E9000DC08091E8006B
:1070F0008B778093E80003C08EB3882359F080918A
:10710000E80082FFF9CF8091E80085FFEFCF809102
:10711000F100089580E0089593E09093E900909144
:10712000E80095FD0DC09091E8009E779093E800EF
:1071300003C09EB3992361F09091E80090FFF9CFCE
:107140008093F10084E690E09093AD018093AC01D0
:107150000895F89410926F001092810010928500AB
:107160001092840081E085BF15BE0C940000089544
:107170008091B2019091B30101969093B3018093F5
:10718000B201089584B7877F84BF88E10FB6F89471
:1071900080936000109260000FBE90E880E00FB610
:1071A000F89490936100809361000FBE81E085BFE9
:1071B00082E085BFE1E6F0E09083108210928900C2
:1071C0009AEF9093880080936F0083E08093810012
:1071D000CCC31F920F920FB60F9211242F938F934F
:1071E0009F93EF93FF9310928500109284008091FB
:1071F000AC019091AD01009729F001979093AD01FA
:107200008093AC018091AA019091AB01009729F085
:1072100001979093AB018093AA01E0E0F0E08591A3
:1072200094912FEF8F3F920749F08091A8019091A0
:10723000A90101969093A9018093A801FF91EF9174
:107240009F918F912F910F900FBE0F901F901895C7
:1072500082E061EC42E01CD383E061E842E118D3B4
:1072600084E060E842E114C38091B601982F9F77D3
:10727000913249F59091B7019032A1F0913219F510
:10728000813A09F58091E800877F8093E8008EE0DD
:1072900091E067E070E032D48091E8008B778093D2
:1072A000E8000895813279F48091E800877F809327
:1072B000E8008EE091E067E070E07FD48091E80024
:1072C0008E778093E80008954F925F926F927F923D
:1072D0008F929F92AF92BF92CF92DF92EF92FF92E6
:1072E0000F931F93CF93DF9384E08093E900809105
:1072F000E80082FF37C284E690E09093AB01809370
:10730000AA01F0DEC82F853481F48CE49DE19093CE
:10731000A9018093A80107B600FCFDCFF999FECF23
:1073200081E180935700E89503C0843519F4DADED3
:107330008DE0EEC18C34E1F38035D1F3843721F454
:1073400084E4EADE80E0E4C1813611F489E5E0C13D
:10735000813401F5C7DEC82FC5DE482F50E0440F49
:10736000551F662757FD6095762F3C2F330F20E081
:10737000C901AA2797FDA095BA2F482B592B6A2B34
:107380007B2B4093AE015093AF016093B00170939B
:10739000B101CECF803711F483E5BAC1833541F412
:1073A000C0E0D1E007E08991B7DE0150E1F7B1C15B
:1073B000863521F481E3B0DE80E3AAC1833731F45E
:1073C00087E8AADE85E9A8DE8EE1A2C18536B9F498
:1073D000E0E0F0E093E085E090935700E89507B691
:1073E00000FCFDCF80935700E89507B600FCFDCF69
:1073F000E058FF4F20E7E030F20771F799CF82376E
:1074000019F4E1E0F0E00EC0863419F4E0E0F0E0B9
:1074100009C08E3419F4E3E0F0E004C0813539F49A
:10742000E2E0F0E089E080935700849171C18236F8
:1074300031F489E571DE80E06FDE80E869C1823475
:1074400019F0873609F0DAC01092A9011092A8014C
:1074500049DEC82E47DE082F45DED82F85548230FE
:1074600008F055C13C2D20E010E0022B132B1092A8
:107470006F00C73609F045C081E180935700E89559
:10748000C0E0BB24B39438C0C090AE01D090AF012F
:10749000E090B001F090B101D634B9F4EC2FF0E0F7
:1074A000EC29FD29849138DECC2369F0D701C6018F
:1074B0000296A11DB11D8093AE019093AF01A093E0
:1074C000B001B093B101CB2515C0D701C601B69567
:1074D000A79597958795DBD41FDED701C601029645
:1074E000A11DB11D8093AE019093AF01A093B00197
:1074F000B093B101015010400115110509F0C4CF3E
:1075000079C04090AE015090AF016090B001709092
:10751000B101D63409F05AC083E0F20180935700DC
:10752000E89507B600FCFDCF51C0D63449F5CC2311
:1075300019F1C090AE01D090AF01E090B001F09091
:10754000B101D0DD982E88248B2D90E088299929CF
:10755000F6010C01A0925700E8951124D701C6014D
:107560000296A11DB11D8093AE019093AF01A0932F
:10757000B001B093B10102C0B5DDB82ECA2523C059
:10758000C090AE01D090AF01E090B001F090B10199
:10759000F694E794D794C794A5DD682FC6017FD4ED
:1075A0008091AE019091AF01A091B001B091B10175
:1075B0000296A11DB11D8093AE019093AF01A093DF
:1075C000B001B093B1010150104004C0BB24C0E031
:1075D000AA24A3940115110509F0A7CFD63441F4CC
:1075E00085E0F20180935700E89507B600FCFDCFD7
:1075F0008DE092DD82E080936F008BC0833471F464
:10760000C091AE01D091AF016DDD90E021E0FE01AF
:107610000C0120935700E89511248ACE8336A9F4F3
:10762000C090AE01D090AF01E090B001F090B101F8
:1076300059DDF601E16090E021E00C012093570054
:10764000E8951124D701C60134C08D3661F4E0916C
:10765000AE01F091AF0185E080935700E89507B641
:1076600000FCFDCF65CE823551F4E091AE01F09182
:10767000AF01C591D4918D2F4FDD8C2F49C084343B
:1076800021F5C090AE01D090AF01E090B001F09034
:10769000B101F694E794D794C79424DD682FC6010E
:1076A000FED38091AE019091AF01A091B001B09155
:1076B000B1010296A11DB11D8093AE019093AF015F
:1076C000A093B001B093B10133CE8436F1F4C090F1
:1076D000AE01D090AF01E090B001F090B101D701C0
:1076E000C601B695A79597958795D1D315DDD70196
:1076F000C6010296A11DB11D8093AE019093AF010A
:10770000A093B001B093B10104C08B3111F08FE3AD
:1077100003DD83E08093E9009091E8008091E80028
:107720008E778093E80095FF04C010C08EB3882345
:10773000C9F08091E80080FFF9CF8091E8008E7752
:107740008093E80003C08EB3882361F08091E80045
:1077500080FFF9CF84E08093E9008091E8008B7787
:107760008093E800DF91CF911F910F91FF90EF90F0
:10777000DF90CF90BF90AF909F908F907F906F9051
:107780005F904F9008954091000850910108109229
:1077900001081092000824B714BE88E10FB6F894CF
:1077A00080936000109260000FBE26982E9A30E001
:1077B000F901E270F07021FD1CC01E9B1AC020FF71
:1077C00006C0859194916FEF8F3F960789F423FF50
:1077D00010C080910B0190910C014817590749F096
:1077E000E0E0F0E0859194912FEF8F3F920709F050
:1077F000B0DCC8DC78941092A9011092A8010DC0E9
:1078000063DD33D38091A8019091A9016FE18134A8
:10781000960710F010920D01ABDC80910D018823CA
:1078200079F78091E00081608093E00092DC80E055
:1078300090E00895923029F0933041F0913061F456
:1078400010C08EE390E027E531E01EC0882371F080
:10785000813089F08230A1F080E090E020E030E0DB
:1078600013C082E190E025E931E00EC084E090E0B1
:1078700023E531E009C082E290E02FE231E004C06C
:1078800088E190E025E131E0FA0131832083089519
:107890008093E900EBEEF0E0808181608083EDEE83
:1078A000F0E010826093EC0040838091EE00881F2E
:1078B0008827881F08958091B60187FF11C003C0F3
:1078C0008EB38823B1F08091E80082FFF9CF8091D8
:1078D000E8008B778093E80008958EB3882349F001
:1078E0008091E80080FFF9CF8091E8008E77809347
:1078F000E80008950F931F93CF93DF9341D048D0B2
:10790000C8EDD0E088818F778883888180688883FC
:1079100088818F7D888319BC1EBA1092B40100EE55
:1079200010E0F80180818B7F80838881816088836B
:1079300080E060E042E0ACDFE1EEF0E080818E7F4D
:107940008083E2EEF0E080818160808380818860C6
:107950008083F80180818E7F808388818061888325
:10796000DF91CF911F910F910895E7EDF0E08081B5
:10797000816080838AE482BF81E08093B501BACFC1
:10798000E8EDF0E080818E7F80831092E200089520
:107990001092DA001092E10008951F920F920FB634
:1079A0000F9211242F933F934F935F936F937F9385
:1079B0008F939F93AF93BF93EF93FF938091DA00E0
:1079C00080FF1BC08091D80080FF17C08091DA0033
:1079D0008E7F8093DA008091D90080FF0BC080E118
:1079E00089BD82E189BD09B400FEFDCF81E08EBB77
:1079F0003BD203C019BC1EBA37D28091E10080FF90
:107A000017C08091E20080FF13C08091E2008E7F5A
:107A10008093E2008091E20080618093E200809197
:107A2000D80080628093D80019BC85E08EBB1CD240
:107A30008091E10084FF2CC08091E20084FF28C087
:107A400080E189BD82E189BD09B400FEFDCF80914E
:107A5000D8008F7D8093D8008091E1008F7E809345
:107A6000E1008091E2008F7E8093E2008091E2004D
:107A700081608093E2008091B401882321F4809199
:107A8000E30087FF02C084E001C081E08EBBECD13F
:107A90008091E10083FF21C08091E20083FF1DC03F
:107AA0008091E100877F8093E10082E08EBB10929D
:107AB000B4018091E1008E7F8093E1008091E2002B
:107AC0008E7F8093E2008091E20080618093E200EB
:107AD00080E060E042E0DCDEC7D1FF91EF91BF9132
:107AE000AF919F918F917F916F915F914F913F9156
:107AF0002F910F900FBE0F901F9018954091BC01D1
:107B00005091BD014617570720F4BA01FC0140E02F
:107B10003BC061157105D1F74091E8004E77409365
:107B2000E800F4CF8EB3882309F443C08530E9F12F
:107B30008091E80083FD3BC08091E80082FD2FC06A
:107B40008091E80080FF20C09091F3008091F200C6
:107B5000392F20E090E0822B932B06C04191409377
:107B6000F1006150704001966115710519F088307F
:107B70009105A0F341E08830910509F040E0809143
:107B8000E8008E778093E8006115710559F644236B
:107B900049F605C08EB3882361F0853061F080918D
:107BA000E80082FFF7CF80E0089583E0089581E048
:107BB000089582E0089583E008956115710529F420
:107BC0004091E8004B774093E800582F492F2AC096
:107BD0008EB38823D1F18530A1F18091E80083FD37
:107BE00032C08091E80082FFF3CFE52FF42F08C068
:107BF0008091F10081935E2F4F2F6150704069F0AA
:107C00005E2F4F2F9091F3008091F200392F20E0EA
:107C100090E0822B932B009759F78091E8008B77A7
:107C20008093E8006115710599F605C08EB388232D
:107C300061F0853061F08091E80080FFF7CF80E04F
:107C4000089583E0089581E0089582E0089583E037
:107C500008950F931F93CF93DF9300D0CDB7DEB776
:107C600088E0E6EBF1E09091F10091938150D9F733
:107C7000FBDA8091E80083FFE2C08091B601909129
:107C8000B701953009F46BC0963040F4913061F142
:107C9000913070F0933009F0D2C026C0983009F4CA
:107CA000A1C0993009F4B0C0963009F0C8C07AC0BC
:107CB000803809F4C4C0823809F0C1C08091BA018B
:107CC00087708093E9009091EB001092E900809119
:107CD000E800877F8093E80081E095FF80E0809353
:107CE000F1001092F10089C0882319F0823009F068
:107CF000A6C08F71823009F0A2C08091B80188239C
:107D000041F52091BA01277009F499C02093E90048
:107D10008091EB0080FF1DC08091B701833021F47A
:107D20008091EB00806213C08091EB0080618093B2
:107D3000EB0081E090E002C0880F991F2A95E2F7DE
:107D40008093EA001092EA008091EB0088608093B3
:107D5000EB001092E9008091E800877F51C08823F2
:107D600009F06DC01091B8011F770FB7F89480919A
:107D7000E800877F8093E8009EDD8091E80080FF27
:107D8000FCCF8091E3008078812B8093E3008068B2
:107D90008093E300112311F083E001C082E08EBBE9
:107DA0000FBF4DC08058823008F049C08091B801A3
:107DB0009091B9016091BA01AE014F5F5F4F3ADD1A
:107DC000BC01009709F43BC08091E800877F809355
:107DD000E80089819A8192DE8091E8008B77809318
:107DE000E8002DC0803859F58091E800877F8093A6
:107DF000E8008091B4018093F1008091E8008E77D3
:107E00008093E80058DD1BC08823C9F49091B80125
:107E10009230A8F48091E800877F8093E8009093E7
:107E2000B40149DD8091B401882321F48091E300FD
:107E300087FF02C084E001C081E08EBB09DA809137
:107E4000E80083FF0AC08091EB0080628093EB0022
:107E50008091E800877F8093E8000F900F90DF917A
:107E6000CF911F910F9108950895CF938EB38823DA
:107E700061F0C091E900C7701092E9008091E800BC
:107E800083FF01C0E6DEC093E900CF910895F99920
:107E9000FECF92BD81BDF89A992780B50895262F0F
:107EA000F999FECF1FBA92BD81BD20BD0FB6F894DF
:0E7EB000FA9AF99A0FBE01960895F894FFCF42
:107EBE004341544552494E41000008777701000076
:107ECE000000000008180342006C0069006E006B91
:107EDE000069006E006C00610062007300000022F9
:107EEE000342006C0069006E006B00790054006163
:107EFE0000700065002000200020002000200020DF
:107F0E000000000403090409023E00020100803251
:107F1E0009040000010202010005240010010424DE
:107F2E0002040524060001070582030800FF090468
:107F3E000100020A000000070504021000010705F7
:107F4E0083021000011201100102000008501D6C86
:087F5E006001000201000100B6
:100000000C9486010C94AE010C94AE010C94AE01DC
:100010000C94AE010C94AE010C94AE010C94AE01A4
:100020000C94AE010C94C2060C9449100C94D010A0
:100030000C94AE010C94AE010C94AE010C94AE0184
:100040000C94AE010C94AE010C94AE010C94AE0174
:100050000C94AE010C94AE010C94AE010C94890B7F
:100060000C94AE010C94AE010C94AE010C94AE0154
:100070000C94AE010C94AE010C94AE010C94AE0144
:100080000C94AE010C94AE010C94AE010C94AE0134
:100090000C94AE010C94AE010C94AE010C94AE0124
:1000A0000C94AE010C94AE010C94AE0105A84CCD9D
:1000B000B2D44EB93836A9020C50B9918688083CA2
:1000C000A6AAAA2ABE000000803F0000000024006B
:1000D00027002A002D003000000000002500280025
:1000E0002B002E0031000000000023002600290014
:1000F0002C002F000404040404030405020202027D
:1001000004030202020206060606060604040202B0
:10011000020404080201104080401020408040800A
:10012000080204018040201002011080102040408D
:100130000000000200080E0000030401000B000094
:1001400000000000000000000000000000000706A2
:1001500005040100080A0B0C0D09080B000202023D
:100160000100090400000102020000052400100142
:1001700005240101010424020605240600010705E7
:10018000810310004009040100020A000000070575
:100190000202400000070583024000000403090436
:1001A0002203410072006400750069006E006F0058
:1001B00020004C0065006F006E006100720064005A
:1001C0006F001803410072006400750069006E0042
:1001D0006F0020004C004C004300120100020000A0
:1001E000004041233680000101020001120100029B
:1001F000020000404123368000010102000100C1DD
:100200008081C105010902A1010901A10085010543
:10021000091901290315002501950375018102952E
:10022000017505810305010930093109381581255A
:100230007F750895038106C0C005010906A10185E7
:1002400002050719E029E7150025017501950881C8
:100250000295017508810395067508150025650549
:1002600007190029658100C009040200010300008C
:1002700000092101010001226500070584034000F7
:100280000100000000000000002A2B2800000000F0
:10029000000000000000000000000000000000005E
:1002A000002C9EB4A0A1A2A434A6A7A5AE362D37DB
:1002B00038271E1F20212223242526B333B62EB72C
:1002C000B89F8485868788898A8B8C8D8E8F909144
:1002D00092939495969798999A9B9C9D2F3130A3D1
:1002E000AD350405060708090A0B0C0D0E0F101199
:1002F00012131415161718191A1B1C1DAFB1B0B51F
:100300000000B8036D0BBC0D850F751211241FBEC4
:10031000CFEFDAE0DEBFCDBF11E0A0E0B1E0E2ED6B
:10032000FDE202C005900D92AC37B107D9F715E098
:10033000ACE7B1E001C01D92AE3CB107E1F713E0BC
:10034000CCE0D3E004C02297FE010E94AC16C2307C
:10035000D107C9F70E94870E0C94E7160C94000091
:10036000A0E0B0E0E6EBF1E00C94B816EC01A88058
:10037000B980CA80DB80A114B104C104D10441F466
:1003800084E2A82E89EDB82E8BE5C82E87E0D82E02
:10039000C601B5012DE133EF41E050E00E948F1618
:1003A00027EA31E440E050E00E9427167B018C01EF
:1003B000C601B5012DE133EF41E050E00E948F16F8
:1003C000CA01B9012CEE34EF4FEF5FEF0E94271600
:1003D0006E0D7F1D801F911F97FF04C061507040FC
:1003E00080409048688379838A839B839B01AC011A
:1003F0005F77B901CA01CDB7DEB7EAE00C94D41635
:100400000E94B001089580E091E00E94B00108953B
:1004100060930001709301018093020190930301A6
:100420000895EF92FF920F931F93609304017093CE
:1004300005018093060190930701209308013093F2
:10044000090140930A0150930B01E0920C01F092D4
:100450000D0100930E0110930F011F910F91FF905A
:10046000EF9008952F923F924F925F926F927F92FA
:100470008F929F92AF92BF92CF92DF92EF92FF92B4
:100480000F931F93DF93CF93CDB7DEB76D970FB662
:10049000F894DEBF0FBECDBF182F092F2091820127
:1004A000309183013D8F2C8FB901882777FD80958E
:1004B000982F0E94821420E030E040E85EE30E9422
:1004C0003615688F798F8A8F9B8F80910401909168
:1004D0000501A0910601B09107018C8B9D8BAE8B1D
:1004E000BF8B4090800150908101B201882777FD39
:1004F0008095982F0E94821420E030E040E151E482
:100500000E94E713688B798B8A8B9B8B8091080103
:1005100090910901A0910A01B0910B018C879D87F0
:10052000AE87BF8760907E0170907F01B3018827FE
:1005300077FD8095982F0E94821420E030E040E6FD
:1005400051E40E94E713688779878A879B878091A7
:100550000C0190910D01A0910E01B0910F018C83BF
:100560009D83AE83BF8320907C0130907D01812FDD
:10057000902F6C01882499245101AA0CBB1CA20C59
:10058000B31CAC0CBD1CB401882777FD8095982F57
:100590000E9482147B018C0120E030E040E05FE3A8
:1005A0000E943615288D398D4A8D5B8D0E947F13F0
:1005B0000E94991520E030E040E85FE30E947F133D
:1005C00020E030E040E852E40E9436152C893D8955
:1005D0004E895F890E9436150E945414D6016C938F
:1005E000C801B701288939894A895B890E947F132C
:1005F00026E636E646E050E40E947F130E949915F5
:1006000020E030E040E85FE30E947F1320E030E02C
:1006100040E852E40E9436152C853D854E855F8565
:100620000E9436150E945414F6016183C801B70177
:1006300020E030E040E450E40E94E713288539854B
:100640004A855B850E947F1326E636E646E850E43D
:100650000E947F130E94991520E030E040E85FE39C
:100660000E947F1320E030E040E852E40E943615FB
:100670002C813D814E815F810E9436150E94541469
:10068000D60112966C93F501C10105C0108211824A
:1006900012820197339797FFF9CF0894811C911C20
:1006A000E3E0F0E0CE0EDF1EFCE38F16910409F0CC
:1006B0006ACF2C8D3D8D2F5F3F4F30938301209368
:1006C00082010894411C511C50928101409280018A
:1006D00082E090E0680E791E70927F0160927E0148
:1006E0006D960FB6F894DEBF0FBECDBFCF91DF91F0
:1006F0001F910F91FF90EF90DF90CF90BF90AF9040
:100700009F908F907F906F905F904F903F902F9031
:100710000895FC01A081B1812D913C91F9010995C9
:10072000089581E008950895FC013F9A80E882834E
:1007300088E290E0948383830895DF93CF9300D081
:100740000F92CDB7DEB7DC01AB01ED91FC910680D5
:10075000F781E02D19821A821B82BE016F5F7F4FE5
:1007600020E009950F900F900F90CF91DF910895A1
:100770000895CF92DF92EF92FF920F931F93CF9342
:10078000DF93EC018B017A0169018091A405882334
:10079000C1F484EA95E00E949A0E892B91F01092A0
:1007A000B9051092BA051092BB051092BC058EE4F3
:1007B00091E09093B5058093B40584EA95E00E949A
:1007C000A40ECE0164EB75E0A801970186010E949A
:1007D000CA0ADF91CF911F910F91FF90EF90DF90A8
:1007E000CF9008950F931F9380E795E060E071EE3E
:1007F0000E94710D0CED14E0C80164E871E04CE357
:1008000050E020E030E00E94B9038DE580931E05A2
:10081000C8016DE50E941F0B8AE062E00E94B40CE3
:100820008BE162E00E94B40C87E062E00E94B40CAD
:100830008BE062E00E94B40CD89AEBE6F0E0808195
:1008400080648083E8E6F0E08081816080830E949C
:10085000D10B609338027093390280933A029093DF
:100860003B021F910F910895CF93DF93EC010E94FB
:10087000DF0B9B01AC0188819981AA81BB81281B78
:10088000390B4A0B5B0B22333105410551057CF3D3
:10089000DF91CF910895CF92DF92EF92FF920F9365
:1008A0001F93CF93DF936C01162F072FEA01E22EDF
:1008B00005960E943404F894212F302FC901FC01C1
:1008C000BE01660F771F6C0F7D1F6E0F7F1F58B123
:1008D000506888B18F7788B921813E2D239F212DC3
:1008E000A7C095E058B900C000C0001427FF88B920
:1008F00000C000C0001488B900C0220F915091F7C9
:10090000001458B900C000C0001427FF88B900C007
:1009100000C0001488B900C000C00014001458B909
:1009200000C000C0001426FF88B900C000C0001439
:1009300088B940813E2D439F412D58B900C000C069
:10094000001425FF88B900C000C0001488B900C099
:1009500000C0001495E058B900C000C0001447FF63
:1009600088B900C000C0001488B900C0440F91507D
:1009700091F7001458B900C000C0001447FF88B9AF
:1009800000C000C0001488B900C000C000140014EA
:1009900058B900C000C0001446FF88B900C000C0AC
:1009A000001488B932812E2D329F312D58B900C0E4
:1009B00000C0001445FF88B900C000C0001488B909
:1009C00000C000C0001495E058B900C000C0001479
:1009D00037FF88B900C000C0001488B900C0330FC9
:1009E000915091F7001458B900C000C0001437FFAF
:1009F00088B900C000C0001488B900C000C0339698
:100A000058B900C000C0001436FF88B900C000C04B
:100A1000001488B921814E2D249F212D58B900C082
:100A200000C0001435FF88B900C000C0001488B9A8
:100A3000E617F70708F455CF1124E0902705F0904A
:100A400028050091290510912A05BE01882777FD08
:100A50008095982F28EC31E040E050E00E94271666
:100A600020E130E040E050E00E948F16CA01B90159
:100A700028EE33E040E050E00E948F16E20EF31EB5
:100A8000041F151FE0922705F09228050093290501
:100A900010932A0578940E94DF0BF6016583768314
:100AA00087839087DF91CF911F910F91FF90EF90F7
:100AB000DF90CF900895AF92BF92CF92DF92EF92E6
:100AC000FF920F931F93CF93DF935C01EB016A01B9
:100AD000122F05960E943404F894B601660F771F12
:100AE0006C0D7D1D6C0F7D1F58B1506888B18F77DC
:100AF00088B9A9812A2F219F212DFE01A7C095E049
:100B000058B900C000C0001427FF88B900C000C059
:100B1000001488B900C0220F915091F7001458B901
:100B200000C000C0001427FF88B900C000C0001436
:100B300088B900C000C00014001458B900C000C03B
:100B4000001426FF88B900C000C0001488B948818D
:100B50000014419F412D58B900C000C0001425FF6A
:100B600088B900C000C0001488B900C000C00014DB
:100B700095E058B900C000C0001447FF88B900C014
:100B800000C0001488B900C0440F915091F70014C0
:100B900058B900C000C0001447FF88B900C000C0A9
:100BA000001488B900C000C00014001458B900C077
:100BB00000C0001446FF88B900C000C0001488B906
:100BC0003A810014319F312D58B900C000C0001483
:100BD00045FF88B900C000C0001488B900C000C03B
:100BE000001495E058B900C000C0001437FF88B960
:100BF00000C000C0001488B900C0330F915091F7B5
:100C0000001458B900C000C0001437FF88B900C0F4
:100C100000C0001488B900C000C0339658B900C0A5
:100C200000C0001436FF88B900C000C0001488B9A5
:100C300000142A2F219F212D58B900C000C0001494
:100C400035FF88B900C000C0001488B9E617F7075F
:100C500008F455CF1124E0902705F0902805009165
:100C6000290510912A05B601882777FD8095982FD0
:100C700028EC31E040E050E00E94271620E130E00F
:100C800040E050E00E948F16CA01B90128EE33E01F
:100C900040E050E00E948F16E20EF31E041F151F65
:100CA000E0922705F09228050093290510932A0564
:100CB00078940E94DF0BF5016583768387839087A4
:100CC000DF91CF911F910F91FF90EF90DF90CF9028
:100CD000BF90AF90089580911601823051F082301C
:100CE00018F0833079F40AC084E891E00E9432025F
:100CF000089584E891E00E94FE08089584E891E058
:100D00000E944307089580E795E00E94720D18162F
:100D1000190624F484E891E00E947A070E946B0689
:100D20008CED94E060911E050E941F0B0895EF92D8
:100D3000FF920F931F9380931601813061F08130F1
:100D400018F08230D1F414C060E070E080E89FE3D6
:100D50009B01AC0108C06DEC7CEC8CE49EE320E0D0
:100D600030E040E85FE379018A010E94110205C08A
:100D70000E94710880E00E94FE071F910F91FF9072
:100D8000EF9008951F920F920FB60F9211242F9398
:100D90003F934F935F936F937F938F939F93AF9303
:100DA000BF93EF93FF9383B1829586958695837069
:100DB0008095817080933C02882369F00E94D10B5A
:100DC0009B01AC0120933D0230933E0240933F02D1
:100DD0005093400247C00E94D10B20913D023091B8
:100DE0003E0240913F0250914002621B730B840B04
:100DF000950B60934102709342028093430290935B
:100E000044028091410290914202A0914302B0912C
:100E10004402855F9140A040B0403CF080911601B3
:100E20008F5F83700E9497061DC080914102909150
:100E30004202A0914302B09144020297A105B1057C
:100E40008CF08091150190E0019665E070E00E94C1
:100E50005A16E82F80931501F0E0E05FFE4F808185
:100E600080931E05FF91EF91BF91AF919F918F915C
:100E70007F916F915F914F913F912F910F900FBE96
:100E80000F901F90189540911701642F70E06D5FCF
:100E90007F4FFC0180E090E02FEF841738F0681757
:100EA000790724F010821182228303C010821182FC
:100EB0001282019633968C33910579F78091450221
:100EC000882311F44F5F01C0415040931701809176
:100ED0001701893320F081E08093450204C0882304
:100EE00011F4109245026EE170E080E090E00E9403
:100EF000050C08956F927F928F929F92AF92BF924E
:100F0000CF92DF92EF92FF920F931F93DF93CF93D5
:100F100000D000D000D0CDB7DEB75C014E01089400
:100F2000811C911C44E0642E712C6C0E7D1E80E7A8
:100F300095E00E94720D0397D4F3840180E795E059
:100F40000E94990D8F3F41F0F8018083802F88190E
:100F5000823009F04CC02DC08CED94E060911E05EC
:100F60000E941F0B10924702109246028AE00E94D4
:100F7000410D8C0187E00E94410D7C018BE00E94B5
:100F8000410D6C018BE10E94410D33E0000F111FF8
:100F90003A95E1F7EE0CFF1CEE0CFF1C0E29082B16
:100FA000CC0CDD1C0C2980E795E0602F0E94D30D4E
:100FB000BECF40914602509147024C33510509F48F
:100FC000B6CFFA01EE0FFF1FE40FF51FEA0DFB1D70
:100FD0009A812B8189818C839D832E838083918349
:100FE00022834F5F5F4F50934702409346020F5F4B
:100FF0001F4F0615170509F0A1CF99CF8823A9F433
:1010000080E090E0A0E8BFE380931C0190931D0175
:10101000A0931E01B0931F018093200190932101A2
:10102000A0932201B093230153C0813049F58091F0
:10103000280190912901A0912A01B0912B01809360
:101040001C0190931D01A0931E01B0931F0180917C
:101050002C0190912D01A0912E01B0912F01809330
:10106000200190932101A0932201B093230180914C
:10107000300190913101A0913201B091330128C02B
:101080008091340190913501A0913601B0913701E2
:1010900080931C0190931D01A0931E01B0931F012A
:1010A0008091380190913901A0913A01B0913B01B2
:1010B0008093200190932101A0932201B0932301FA
:1010C00080913C0190913D01A0913E01B0913F0182
:1010D0008093240190932501A0932601B0932701CA
:1010E00008953F924F925F926F927F928F929F925C
:1010F000AF92BF92CF92DF92EF92FF920F931F9326
:10110000CF93DF9348E4842E42E0942E30ECA32E5C
:1011100032E0B32EC0E0D0E00F2EF0E04F2EF0E032
:101120005F2EF0E06F2EF0E07F2EF02D332433940D
:10113000FE01E450FD4F40825182628273826091D1
:101140001A0170911B01882777FD8095982F0E94C6
:1011500019128B019C01F401619371934F018091ED
:1011600018019091190162E070E00E945A16600F18
:10117000711F882777FD8095982F0E9482147B012C
:101180008C0160911A0170911B01882777FD809571
:10119000982F0E9419122CEEC22E23E0D22ECC0ED4
:1011A000DD1E0E94821420E030E040E05FE30E94F8
:1011B00036159B01AC01C801B7010E947F13F601EF
:1011C0006083718382839383F50131925F0124965A
:1011D000C03FD10509F0ACCFDF91CF911F910F91A6
:1011E000FF90EF90DF90CF90BF90AF909F908F9047
:1011F0007F906F905F904F903F9008952F923F9215
:101200004F925F926F927F928F929F92AF92BF9216
:10121000CF92DF92EF92FF920F931F93DF93CF93C2
:10122000CDB7DEB72A970FB6F894DEBF0FBECDBF9D
:1012300028E432E038872F83E0ECF2E0FE83ED8390
:101240002CEF32E03A8729879C838B838CEE93E0E6
:101250009A838983EF81F8850081118180901A013A
:1012600090901B016091180170911901882777FDFA
:101270008095982F0E9482145B016C01ED81FE81A4
:101280008081E985FA8520803180428053808130D9
:1012900009F06DC0B801882777FD8095982F0E94CE
:1012A00082147B018C01C201B101A80197010E9447
:1012B000E31388230CF057C0B401882777FD80958D
:1012C000982F0E9482143B014C01C801B701A40170
:1012D00093010E94E7137B018C01C601B5012FE841
:1012E00032EC45E75CE30E943615A80197010E94A5
:1012F0003615A80197010E943615A80197010E9492
:101300003615A80197010E9436159B01AC01C40156
:10131000B3010E9436159B01AC01C601B5010E94C4
:101320007F130E944F14882777FD8095982F0E9485
:1013300082149B01AC01C201B1010E947F13E985B7
:10134000FA856083718382839383A40193010E9451
:10135000321518160CF044C0E985FA856082718256
:10136000828293823DC0ED81FE811082D3C0C20192
:10137000B10120E030E040E050E00E943215181644
:101380000CF06EC0E981FA81608171818281938164
:10139000A60195010E947E13E981FA816083718321
:1013A00082839383C201B101A60195010E947E133D
:1013B000E985FA85608371838283938320E030E03E
:1013C00040E050E00E94E313882354F480E090E072
:1013D000A0E0B0E0E985FA8580839183A283B3839E
:1013E000E985FA85608171818281938120911C0158
:1013F00030911D0140911E0150911F010E94361530
:101400000E944F14EB81FC816083E985FA8560813D
:10141000718182819381209120013091210140913D
:101420002201509123010E9436150E944F14EB8136
:10143000FC816183E985FA85608171818281938174
:1014400020912401309125014091260150912701DE
:101450000E9436150E944F14EB81FC8162835AC0B2
:10146000E981FA816081718182819381A601950170
:101470000E947E13E981FA81608371838283938362
:1014800020E030E040E050E00E94E31388230CF0BD
:1014900041C021E0ED81FE812083B401882777FDE2
:1014A0008095982F0E9419128B019C01EF81F8857D
:1014B00071836083809118019091190162E070E05E
:1014C0000E945A16600F711F882777FD8095982F0C
:1014D0000E9482147B018C0160911A0170911B01A2
:1014E000882777FD8095982F0E9419120E948214F8
:1014F00020E030E040E05FE30E9436159B01AC0144
:10150000C801B7010E947F13E981FA81608371836A
:10151000828393832F8138852E5F3F4F38872F83B7
:101520008D819E8101969E838D83E985FA8534960F
:10153000FA87E9872B813C812D5F3F4F3C832B83CA
:1015400089819A8104969A838983EF81F885E05C8A
:10155000F24009F07FCE6EE170E080E090E00E9402
:10156000050C2A960FB6F894DEBF0FBECDBFCF9103
:10157000DF911F910F91FF90EF90DF90CF90BF9080
:10158000AF909F908F907F906F905F904F903F9023
:101590002F900895DF92EF92FF920F931F93CF93B6
:1015A000DF93EC017B01101611062CF0D22E032FD5
:1015B00020E030E002C0D02E012FC05CDF4FA881B8
:1015C000B981C054D040FE0160E070E007C0808166
:1015D00091813896892B41F06F5F7F4F6A177B07A7
:1015E000B4F3EE24FF2422C0E3E0660F771FEA95F0
:1015F000E1F7DE01A60FB71F1196FC92EE92FE01F5
:10160000E60FF71F5383428317963C932E9316974A
:10161000FB013496EC0FFD1FD0820183D701ED91C1
:10162000FC910190F081E02DC7010995C701DF9180
:10163000CF911F910F91FF90EF90DF900895DF926F
:10164000EF92FF920F931F93CF93DF93D62EEC016F
:1016500000E010E050E4E52EF12CE80EF91E1DC06C
:10166000A881B9811097F9F0ED91FC9111972E8125
:101670003F81C901880F991F820F931F6A817B8167
:10168000680F791F4C815D810084F185E02DCD01CB
:101690002D2D09950F5F1F4F2896F70180819181AD
:1016A00008171907ECF2DF91CF911F910F91FF906E
:1016B000EF90DF900895FC01E05CFF4F88E090E040
:1016C000819391938FEF8083E254F040CF0160E0EB
:1016D00040E450E00E947E0B08958CED94E00E945F
:1016E0005B0B8CEF98ECAFEFBFEF80931F059093EF
:1016F0002005A0932105B09322050895DC0140FF49
:1017000003C001C06D936D934250E0F75040D0F795
:1017100008951F920F920FB60F9211242F933F93AB
:101720008F939F93AF93BF93809127059091280546
:10173000A0912905B0912A0530912B050196A11D94
:10174000B11D232F2D5F2D3720F02D570196A11DA0
:10175000B11D20932B058093270590932805A09316
:101760002905B0932A058091230590912405A09125
:101770002505B09126050196A11DB11D8093230575
:1017800090932405A0932505B0932605BF91AF91B2
:101790009F918F913F912F910F900FBE0F901F90AF
:1017A00018958FB7F894209127053091280540911E
:1017B000290550912A058FBFB901CA0108959FB725
:1017C000F8942091230530912405409125055091EE
:1017D000260586B5A89B06C08F3F21F02F5F3F4F9F
:1017E0004F4F5F4F9FBF542F432F322F2227280F79
:1017F000311D411D511D82E0220F331F441F551F13
:101800008A95D1F7B901CA0108959B01AC017FB750
:10181000F8948091230590912405A0912505B0911D
:10182000260566B5A89B05C06F3F19F00196A11D5E
:10183000B11D7FBFBA2FA92F982F8827860F911D22
:10184000A11DB11D62E0880F991FAA1FBB1F6A95D9
:10185000D1F7BC012DC0FFB7F8948091230590917A
:101860002405A0912505B0912605E6B5A89B05C0E5
:10187000EF3F19F00196A11DB11DFFBFBA2FA92F8F
:10188000982F88278E0F911DA11DB11DE2E0880FB2
:10189000991FAA1FBB1FEA95D1F7861B970B885E7D
:1018A0009340C8F2215030404040504068517C4F36
:1018B000211531054105510571F60895789484B5D7
:1018C000826084BD84B5816084BD85B5826085BD3C
:1018D00085B5816085BDEEE6F0E080818160808322
:1018E000E1E8F0E010828081826080838081816005
:1018F0008083E0E8F0E0808181608083E1E9F0E0CE
:10190000808182608083808181608083E0E9F0E073
:10191000808181608083E1ECF0E08081846080835D
:10192000808182608083808181608083E3ECF0E04D
:10193000808181608083E0ECF0E080818260808340
:10194000E2ECF0E0808181608083EAE7F0E0808172
:1019500084608083808182608083808181608083D5
:101960008081806880830895CF93DF93482F50E073
:10197000CA018E5E9E4FFC0134914C505F4FFA01BC
:101980008491882369F190E0880F991FFC01E65348
:10199000FF4FA591B491FC01E852FF4FC591D4913E
:1019A000662351F42FB7F8948C91932F9095892347
:1019B0008C93888189230BC0623061F42FB7F8942F
:1019C0008C91932F909589238C938881832B888386
:1019D0002FBF06C09FB7F8948C91832B8C939FBF29
:1019E000DF91CF910895883071F1893068F48230A9
:1019F00031F1833020F4813009F042C01DC08330C2
:101A000089F08430E9F512C08B3059F18C3028F41C
:101A10008930E9F08A30A1F51EC08C3031F18E306A
:101A200079F529C0809180008F7703C08091800074
:101A30008F7D80938000089584B58F7702C084B530
:101A40008F7D84BD0895809190008F7707C080912D
:101A500090008F7D03C080919000877F80939000DD
:101A600008958091C0008F7703C08091C0008F7D62
:101A70008093C00008958091C200877F8093C20048
:101A800008950F931F93482F50E0CA01805D9E4F29
:101A9000FC012491CA018E5E9E4FFC0104914C50C2
:101AA0005F4FFA011491112319F420E030E015C0C2
:101AB000222319F0822F0E94F30C812F90E0880FCF
:101AC000991F8A519F4FFC01A591B4918C9120E000
:101AD00030E0802311F021E030E0C9011F910F9127
:101AE0000895089520916C0530916D0580916E05E3
:101AF00090916F05281B390B2F733070C901089521
:101B000020916C0530916D0580916E0590916F0567
:101B10002817390719F42FEF3FEF09C0E0916E0540
:101B2000F0916F05E45DFA4F8081282F30E0C90104
:101B3000089520916C0530916D0580916E0590910E
:101B40006F052817390719F42FEF3FEF13C0E09105
:101B50006E05F0916F05E45DFA4F208180916E056E
:101B600090916F0501968F73907090936F0580939D
:101B70006E0530E0C9010895109273051092720548
:101B800088EE93E0A0E0B0E0809374059093750533
:101B9000A0937605B093770580E691E09093710568
:101BA0008093700508950F931F93DF93CF930F9247
:101BB000CDB7DEB78C01698380914701882369F036
:101BC00083E0BE016F5F7F4F41E050E00E94A40FB1
:101BD0001816190614F49C0107C081E090E0F80182
:101BE0009383828320E030E0C9010F90CF91DF9191
:101BF0001F910F91089583E00E947B0F0895CF936A
:101C0000DF9312C082E00E94060F2FEF8F3F9207F2
:101C1000C9F0E0916C05F0916D05E45DFA4F8083A9
:101C2000D0936D05C0936C05C0916C05D0916D0586
:101C30002196CF73D07080916E0590916F05C81773
:101C4000D90701F7DF91CF910895FC0180818E5F64
:101C5000808380E86AE571E042E450E00E941F0F53
:101C60000895FC0181819081913A59F4813209F003
:101C70004CC080E060E471E047E050E00E941F0F3C
:101C800042C0913209F041C0803239F480E491E0E1
:101C900067E070E00E94630F36C0823209F035C001
:101CA0008281809347018091400190914101A091F0
:101CB0004201B0914301805B9440A040B04019F5CF
:101CC0008091470180FD12C087E797E79093010854
:101CD000809300082BE088E190E00FB6F894A89577
:101CE000809360000FBE209360000DC088E10FB6A6
:101CF000F89480936000109260000FBEA895109237
:101D000001081092000881E0089580E00895CF93C3
:101D1000DF930E945E0C86E895E00E94860F0E9489
:101D2000F203C0E0D0E00E9483062097E1F30E9416
:101D30000000F9CFFC0120E030E08081882311F41D
:101D400021E030E0C9010895FC0181E0808308951D
:101D5000CF92DF92EF92FF920F931F93CF93DF9377
:101D60007C016B018A01C0E0D0E00FC0D6016D910B
:101D70006D01D701ED91FC910190F081E02DC7013B
:101D80000995C80FD91F015010400115110571F7B1
:101D9000CE01DF91CF911F910F91FF90EF90DF90D7
:101DA000CF900895282F809180058823C1F057FF98
:101DB0001AC015C0289890937F058091F1008193F7
:101DC000E217F307B9F74115510539F08091F20098
:101DD000882319F48BE68093E800AFBF02C04FEF71
:101DE0005FEFCA010895AFB7F89427702093E90018
:101DF0008091F200282F30E0241735070CF4A90158
:101E0000FB019B01240F311D94E6DACFDF93CF93C2
:101E10000F92CDB7DEB7BE016F5F7F4F41E050E05C
:101E20000E94D20E019719F02FEF3FEF03C0898176
:101E3000282F30E0C9010F90CF91DF910895FF92D4
:101E40000F931F93F82E142F052F40918305509167
:101E50008405212F302FC901DC01FB016EEF29C061
:101E6000F7FE02C0949101C09081209181053091CC
:101E7000820524173507ACF48091E8008570E1F302
:101E80008091E80082FF03C02FEF3FEF17C09093CF
:101E9000F100C90101968F739070892B11F4609342
:101EA000E8002F5F3F4F3093820520938105119703
:101EB00031961097A9F6812F902F9C01C9011F918F
:101EC0000F91FF9008959C018091E80082FFFCCF64
:101ED000F901260F311D03C08091F1008193E217B3
:101EE000F307D1F7289884E680937F058BEF8093E2
:101EF000E800CB0108958093E9008091F2008823E7
:101F000019F08AE38093E8000895089510928005FF
:101F100081E08093D70080EA8093D80082E189BD78
:101F200009B400FEFDCF61E070E080E090E00E9427
:101F3000050C80E98093D8008CE08093E200109239
:101F4000E000559A209A08955F926F927F928F9247
:101F50009F92AF92BF92CF92DF92EF92FF920F9338
:101F60001F93CF93DF93E82E842E752E80918005EA
:101F7000882371F18B01242F352FC901EC017AEFF1
:101F8000F72E67E0962E9E2050E4552E8E2D90E081
:101F900040E2A42EB12CA822B9223AE3632E20E419
:101FA000C22ED12CC822D92258C09FB7F894909243
:101FB000E9008091E80085FD02C020E004C0809126
:101FC000F200252D281B9FBF222361F4FA9419F4F7
:101FD0002FEF3FEF4DC061E070E080E090E00E94A5
:101FE000050C3BC0822F90E0C817D9070CF42C2FAA
:101FF000C21BD1094FB7F8949092E900A114B10423
:1020000021F406C01092F10021502223D9F719C003
:10201000E7FC03C0F801922F10C0C801322F06C0A0
:10202000FC010196E491E093F10031503323C1F7B4
:1020300006C081918093F10091509923D1F7020F4E
:10204000111D8091E80085FF05C0209729F4C11477
:10205000D10411F06092E8004FBF209709F0A5CF9E
:102060005D9884E680937E05282D372DC9019C015B
:10207000C901DF91CF911F910F91FF90EF90DF90F9
:10208000CF90BF90AF909F908F907F906F905F9018
:1020900008951F920F920FB60F9211242F933F9322
:1020A0004F935F936F937F938F939F93AF93BF9360
:1020B000EF93FF938091E1001092E100982F83FF4E
:1020C0000FC01092E90081E08093EB001092EC00C9
:1020D00082E38093ED001092800588E08093F00009
:1020E00092FF34C083E08093E9008091F20088235E
:1020F00019F08AE38093E8008FB7F89492E0909308
:10210000E9009091F2008FBF992321F080E795E0DC
:102110000E94FF0D80917E05882351F080917E05FD
:10212000815080937E0580917E05882309F45D9A15
:1021300080917F05882351F080917F0581508093A5
:102140007F0580917F05882309F4289AFF91EF91FC
:10215000BF91AF919F918F917F916F915F914F91BF
:102160003F912F910F900FBE0F901F9018950F93D6
:102170001F93DF93CF930F92CDB7DEB719828E01F5
:102180000F5F1F4FC8010E94250EC8010E947213E5
:10219000898190E00F90CF91DF911F910F91089569
:1021A0001F920F920FB60F921124EF92FF921F937E
:1021B0002F933F934F935F936F937F938F939F934F
:1021C000AF93BF93EF93FF93DF93CF93CDB7DEB77A
:1021D0006197DEBFCDBF1092E9008091E80083FFD8
:1021E0000FC1FE0131969E01275F3F4F03C08091D2
:1021F000F1008193E217F307D1F7289884E68093E2
:102200007F0582EF8093E800998197FF05C0809158
:10221000E80080FFFCCF03C08EEF8093E800292FF9
:1022200030E0C90180769070892B09F0C2C08A81A4
:10223000882329F41092F1001092F100D6C0813069
:1022400009F4D3C0833009F4D0C0853049F48091BB
:10225000E80080FFFCCF8B8180688093E300C5C0DD
:10226000863009F07CC01C81EF80F8841230C1F503
:102270001092E90010928205109281051092840557
:10228000109283050E94B71099E0FE013996DF0194
:10229000292F1D922A95E9F799871A8791E09E8741
:1022A00090E8988B9AEF998B209181053091820567
:1022B000275F3F4F3C872B878D871092E900109254
:1022C000820510928105F0928405E092830580E0FA
:1022D000BF0149E050E00E941F0F0E94B71085C067
:1022E0001092E9001092820510928105F092840507
:1022F000E0928305123241F482E290E00E946A1378
:10230000892B09F476C071C0113079F488E0E816A1
:10231000F10419F481E08093850580918505882377
:1023200009F06BC0EAEDF1E013C0133009F061C0B1
:102330008B81882319F4ECE9F1E00AC0823019F4AA
:10234000E0EAF1E005C0813009F053C0E2ECF1E0D1
:10235000449180E8BF0150E00E941F0F46C08730C3
:1023600009F447C0883021F481E08093F1003DC03A
:102370008930D9F523703070232BD9F5EFEFF1E0D8
:1023800091E031E026E39093E9003093EB008491F3
:102390008093EC002093ED009F5F3196953099F784
:1023A0008EE78093EA001092EA008B81809380058B
:1023B0001CC08F8198851092E900109282051092BE
:1023C000810590938405809383058D81882329F46A
:1023D000CE0101960E94310E06C0823051F4CE012A
:1023E00001960E943B12882321F08EEF8093E80033
:1023F00007C081E28093EB0003C0ECEEF1E0A8CFD0
:102400006196DEBFCDBFCF91DF91FF91EF91BF917C
:10241000AF919F918F917F916F915F914F913F917C
:102420002F911F91FF90EF900F900FBE0F901F9074
:102430001895EF92FF920F931F937B018C0161150A
:1024400071058105910529F420E030E040E050E07D
:102450000BC00E940302A80197010E948F16AC01D5
:10246000CB01DA019C01AD01B901CA011F910F91A5
:10247000FF90EF900895FC0191818081813A31F4C1
:10248000913089F080E0933089F40DC0813269F495
:102490009B3021F482818093480105C09A3029F451
:1024A00082818093490181E0089580E00895EF9250
:1024B000FF920F931F938C01E62EDC01ED91FC91AE
:1024C0000480F581E02D0995F82ED801ED91FC915D
:1024D0000680F781E02DC8016E2D09958F2D90E0C3
:1024E0001F910F91FF90EF90089510928705109221
:1024F0008B0510928A0582E791E09093890580937D
:1025000088050895EF92FF920F931F93DF93CF9367
:102510000F92CDB7DEB789838B017A0184E0BE01CB
:102520006F5F7F4F41E050E00E94A40F84E4B80148
:10253000A7010E94A40F0F90CF91DF911F910F91DF
:10254000FF90EF90089582E048E050E00E948212F0
:102550000895FC0116821782108611861286138652
:1025600014823496BF010E94A3120895DC016838DA
:1025700010F0685829C0E62FF0E067FF13C0E0585C
:10258000F04081E090E002C0880F991FEA95E2F7E1
:10259000809514962C911497282314962C931497B5
:1025A00060E012C0EF57FD4F6491662319F420E0FC
:1025B00030E01DC067FF08C014968C9114978D7F82
:1025C00014968C9314976F77FD0190E0662321F0A9
:1025D0008681861709F416829F5F31969630B1F78F
:1025E000CD011496BD010E94A31221E030E0C90183
:1025F0000895CF93DF93DC01683810F0685825C048
:10260000E62FF0E067FF12C0E058F04081E090E074
:1026100002C0880F991FEA95E2F714962C9114973F
:10262000282B14962C93149760E00FC0EF57FD4FA2
:1026300064916623D9F167FF08C014968C911497B2
:10264000826014968C9314976F7716968C911697D8
:102650008617A9F117968C911797861781F118960E
:102660008C911897861759F119968C91199786179E
:1026700031F11A968C911A97861709F11B968C9155
:102680001B978617E1F0ED01E0E0F0E09E2F8E81D0
:10269000882321F4EA0FFB1F668306C09F5F3196F3
:1026A0002196E630F10591F7963049F481E090E00B
:1026B00013969C938E93129720E030E007C0CD01D3
:1026C0001496BD010E94A31221E030E0C901DF9100
:1026D000CF91089580E863E072E045E650E00E9403
:1026E0001F0F0895FC0180818F5F808380E868E67A
:1026F00072E049E150E00E941F0F08955058BB2737
:10270000AA270ED075C166D130F06BD120F031F41C
:102710009F3F11F41EF45BC10EF4E095E7FB51C13D
:10272000E92F77D180F3BA176207730784079507FB
:1027300018F071F49EF58FC10EF4E0950B2EBA2FB0
:10274000A02D0B01B90190010C01CA01A0011124B7
:10275000FF27591B99F0593F50F4503E68F11A1663
:10276000F040A22F232F342F4427585FF3CF4695F4
:1027700037952795A795F0405395C9F77EF41F1616
:10278000BA0B620B730B840BBAF09150A1F0FF0FE0
:10279000BB1F661F771F881FC2F70EC0BA0F621FCC
:1027A000731F841F48F4879577956795B795F795BC
:1027B0009E3F08F0B3CF9395880F08F09927EE0F4E
:1027C000979587950895D9D008F481E008950CD0A5
:1027D0000FC107D140F0FED030F021F45F3F19F077
:1027E000F0C0511139C1F3C014D198F39923C9F342
:1027F0005523B1F3951B550BBB27AA276217730707
:10280000840738F09F5F5F4F220F331F441FAA1FBA
:10281000A9F333D00E2E3AF0E0E830D0915050407A
:10282000E695001CCAF729D0FE2F27D0660F771F28
:10283000881FBB1F261737074807AB07B0E809F00A
:10284000BB0B802DBF01FF2793585F4F2AF09E3F9F
:10285000510568F0B6C000C15F3FECF3983EDCF371
:10286000869577956795B795F7959F5FC9F7880F18
:10287000911D9695879597F90895E1E0660F771F6A
:10288000881FBB1F621773078407BA0720F0621BFB
:10289000730B840BBA0BEE1F88F7E095089504D0F4
:1028A0006894B111D9C00895BCD088F09F5790F0BA
:1028B000B92F9927B751A0F0D1F0660F771F881F65
:1028C000991F1AF0BA95C9F712C0B13081F0C3D080
:1028D000B1E00895C0C0672F782F8827B85F39F01E
:1028E000B93FCCF3869577956795B395D9F73EF4C4
:1028F00090958095709561957F4F8F4F9F4F08956C
:10290000E89409C097FB3EF4909580957095619589
:102910007F4F8F4F9F4F9923A9F0F92F96E9BB273F
:102920009395F695879577956795B795F111F8CFBB
:10293000FAF4BB0F11F460FF1BC06F5F7F4F8F4F26
:102940009F4F16C0882311F096E911C0772321F01C
:102950009EE8872F762F05C0662371F096E8862FB4
:1029600070E060E02AF09A95660F771F881FDAF70B
:10297000880F9695879597F90895990F0008550F38
:10298000AA0BE0E8FEEF16161706E807F907C0F0F5
:1029900012161306E407F50798F0621B730B840BFD
:1029A000950B39F40A2661F0232B242B252B21F4D7
:1029B00008950A2609F4A140A6958FEF811D811D77
:1029C000089597F99F6780E870E060E008959FEFB1
:1029D00080EC089500240A941616170618060906B6
:1029E000089500240A941216130614060506089585
:1029F000092E0394000C11F4882352F0BB0F40F40D
:102A0000BF2B11F460FF04C06F5F7F4F8F4F9F4F4C
:102A1000089557FD9058440F551F59F05F3F71F0CE
:102A20004795880F97FB991F61F09F3F79F0879535
:102A30000895121613061406551FF2CF4695F1DFBE
:102A400008C0161617061806991FF1CF869571054E
:102A5000610508940895E894BB2766277727CB0182
:102A600097F908958ADF08F48FEF08950BD0C0CF4F
:102A7000B1DF28F0B6DF18F0952309F0A2CFA7CF79
:102A80001124EACFC6DFA0F3959FD1F3950F50E054
:102A9000551F629FF001729FBB27F00DB11D639F10
:102AA000AA27F00DB11DAA1F649F6627B00DA11DB6
:102AB000661F829F2227B00DA11D621F739FB00D5C
:102AC000A11D621F839FA00D611D221F749F3327CC
:102AD000A00D611D231F849F600D211D822F762F65
:102AE0006A2F11249F5750408AF0E1F088234AF062
:102AF000EE0FFF1FBB1F661F771F881F91505040AE
:102B0000A9F79E3F510570F05CCFA6CF5F3FECF375
:102B1000983EDCF3869577956795B795F795E79599
:102B20009F5FC1F7FE2B880F911D9695879597F9AA
:102B300008959F9305D00F9007FCEE5F31C047CFFB
:102B400070DFE8F3E894EFEFBB273FE048EC5FE786
:102B50006B3D73078407950708F1FF279F57B25A0B
:102B60006A4D7F40894CF04032F4BE556542704F4B
:102B70008643FF4F0894EE1F915030F0BB0F661F45
:102B8000771F881FFF1FEBCF9EE7882332F0BB0F14
:102B9000661F771F881F9A95C1F79395E09511C01E
:102BA000EF93E0FF06C0A2EA2AED3FE049EC5FEBBD
:102BB000B7DD1EDF0F90039401FC9058ECEAF0E0C3
:102BC00010C09F3F49F0915028F4869577956795FE
:102BD000B7959F5F80389F4F880F9695879597F997
:102BE00008959F938F937F936F93FF93EF939B0130
:102BF000AC013CDFEF91FF9105D02F913F914F91B8
:102C00005F9134CFDF93CF931F930F93FF92EF9297
:102C1000DF927B018C01689405C0DA2EEF0132DF70
:102C2000FE01E894A5912591359145915591AEF31A
:102C3000EF0176DDFE019701A801DA9479F7DF90C4
:102C4000EF90FF900F911F91CF91DF910895629FB8
:102C5000D001739FF001829FE00DF11D649FE00D94
:102C6000F11D929FF00D839FF00D749FF00D659FF5
:102C7000F00D9927729FB00DE11DF91F639FB00DF4
:102C8000E11DF91FBD01CF0111240895AA1BBB1B33
:102C900051E107C0AA1FBB1FA617B70710F0A61B5C
:102CA000B70B881F991F5A95A9F780959095BC017D
:102CB000CD01089597FB092E07260AD077FD04D091
:102CC000E5DF06D000201AF4709561957F4F0895D6
:102CD000F6F7909581959F4F0895A1E21A2EAA1BB1
:102CE000BB1BFD010DC0AA1FBB1FEE1FFF1FA217BC
:102CF000B307E407F50720F0A21BB30BE40BF50BB9
:102D0000661F771F881F991F1A9469F76095709541
:102D1000809590959B01AC01BD01CF01089597FB73
:102D2000092E05260ED057FD04D0D7DF0AD0001C8F
:102D300038F450954095309521953F4F4F4F5F4F58
:102D40000895F6F790958095709561957F4F8F4F18
:102D50009F4F0895EE0FFF1F0590F491E02D099409
:102D60002F923F924F925F926F927F928F929F929B
:102D7000AF92BF92CF92DF92EF92FF920F931F9389
:102D8000CF93DF93CDB7DEB7CA1BDB0B0FB6F8943A
:102D9000DEBF0FBECDBF09942A88398848885F847A
:102DA0006E847D848C849B84AA84B984C884DF80EB
:102DB000EE80FD800C811B81AA81B981CE0FD11DCF
:102DC0000FB6F894DEBF0FBECDBFED010895F894A5
:022DD000FFCF33
:102DD200010000000000803F0000803F0000803FB3
:102DE200050F28465D0403020500FF000000803F36
:102DF2000000803F0000803F0000803F44696F3F39
:102E02000681553F0000803F7CF2703F46B6333F5B
:102E120000E1000000000000010100000000940336
:102E220089039D035B054B0491039303000000009B
:102E3200D30DA80E720D990D800DFB0DFF0D000034
:0C2E420000005712A80EF912B612A912D7
:00000001FF
