:100000000C9486010C94AE010C94AE010C94AE01DC
:100010000C94AE010C94AE010C94AE010C94AE01A4
:100020000C94AE010C948C040C945E130C94E513A8
:100030000C94AE010C94AE010C94AE010C94AE0184
:100040000C94AE010C94AE010C94AE010C94AE0174
:100050000C94AE010C94AE010C94AE010C949B0E6A
:100060000C94AE010C94AE010C94AE010C94AE0154
:100070000C94AE010C94AE010C94AE010C94AE0144
:100080000C94AE010C94AE010C94AE010C94AE0134
:100090000C94AE010C94AE010C94AE010C94AE0124
:1000A0000C94AE010C9499050C94AE0105A84CCDAE
:1000B000B2D44EB93836A9020C50B9918688083CA2
:1000C000A6AAAA2ABE000000803F0000000024006B
:1000D00027002A002D003000000000002500280025
:1000E0002B002E0031000000000023002600290014
:1000F0002C002F000404040404030405020202027D
:1001000004030202020206060606060604040202B0
:10011000020404080201104080401020408040800A
:10012000080204018040201002011080102040408D
:100130000000000200080E0000030401000B000094
:1001400000000000000000000000000000000706A2
:1001500005040100080A0B0C0D09080B000202023D
:100160000100090400000102020000052400100142
:1001700005240101010424020605240600010705E7
:10018000810310004009040100020A000000070575
:100190000202400000070583024000000403090436
:1001A000220342006C0069006E006B00790054006D
:1001B0006100700065002000200020002000200069
:1001C0002000180342006C0069006E006B0069009B
:1001D0006E006C00610062007300120100020000FA
:1001E0000040501D5E60000101020001120100028A
:1001F00002000040501D5E6000010102000100C1CC
:100200008081C105010902A1010901A10085010543
:10021000091901290315002501950375018102952E
:10022000017505810305010930093109381581255A
:100230007F750895038106C0C005010906A10185E7
:1002400002050719E029E7150025017501950881C8
:100250000295017508810395067508150025650549
:1002600007190029658100C009040200010300008C
:1002700000092101010001226500070584034000F7
:100280000100000000000000002A2B2800000000F0
:10029000000000000000000000000000000000005E
:1002A000002C9EB4A0A1A2A434A6A7A5AE362D37DB
:1002B00038271E1F20212223242526B333B62EB72C
:1002C000B89F8485868788898A8B8C8D8E8F909144
:1002D00092939495969798999A9B9C9D2F3130A3D1
:1002E000AD350405060708090A0B0C0D0E0F101199
:1002F00012131415161718191A1B1C1DAFB1B0B51F
:1003000000008B047F0ECE109A128A1511241FBE96
:10031000CFEFDAE0DEBFCDBF11E0A0E0B1E0ECEF5F
:10032000F3E302C005900D92A838B107D9F713E0A6
:10033000A8E8B1E001C01D92AD35B107E1F713E0C7
:10034000CCE0D3E004C02297FE010E94C119C23064
:10035000D107C9F70E9499110C94FC190C94000064
:10036000CF93DF93BC018230910510F462E070E01E
:10037000A0915B03B0915C03ED01E0E0F0E040E0B0
:1003800050E021C0888199818617970769F48A8196
:100390009B81309719F09383828304C090935C0310
:1003A00080935B03FE0134C06817790738F4411568
:1003B000510519F08417950708F4AC01FE018A81F4
:1003C0009B819C01E9012097E9F641155105A9F1AE
:1003D000CA01861B970B049708F4BA01E0E0F0E02D
:1003E0002AC08D919C91119784179507F9F4641791
:1003F000750781F412968D919C911397309719F09F
:100400009383828304C090935C0380935B03FD011C
:1004100032964CC0CA01861B970BFD01E80FF91FED
:100420006193719302978D939C9340C0FD018281EB
:1004300093819C01D9011097A1F680915903909165
:100440005A03892B41F4809102019091030190930A
:100450005A038093590340910401509105014115BD
:10046000510541F44DB75EB78091000190910101B3
:10047000481B590B2091590330915A03CA01821B22
:10048000930B8617970780F0AB014E5F5F4F841781
:10049000950750F0420F531F50935A03409359034E
:1004A000F9016193719302C0E0E0F0E0CF01DF91C8
:1004B000CF910895CF93DF93009709F450C0EC01DA
:1004C00022971B821A82A0915B03B0915C03109764
:1004D00009F140E050E0AC17BD0708F1BB83AA83E7
:1004E000FE0121913191E20FF31FAE17BF0779F49E
:1004F0008D919C911197280F391F2E5F3F4F3983A3
:10050000288312968D919C9113979B838A83411522
:10051000510571F4D0935C03C0935B0320C0129625
:100520008D919C911397AD01009711F0DC01D3CF11
:10053000FA01D383C28321913191E20FF31FCE17C9
:10054000DF0769F488819981280F391F2E5F3F4F9B
:10055000FA01318320838A819B8193838283DF9197
:10056000CF910895A0E0B0E0E8EBF2E00C94CD1953
:10057000EC01A880B980CA80DB80A114B104C10459
:10058000D10441F484E2A82E89EDB82E8BE5C82E63
:1005900087E0D82EC601B5012DE133EF41E050E0F0
:1005A0000E94901927EA31E440E050E00E943C1993
:1005B0007B018C01C601B5012DE133EF41E050E034
:1005C0000E949019CA01B9012CEE34EF4FEF5FEF92
:1005D0000E943C196E0D7F1D801F911F97FF04C064
:1005E0006150704080409048688379838A839B8300
:1005F0009B01AC015F77B901CA01CDB7DEB7EAE074
:100600000C94E9190E94B202089586E091E00E94DC
:10061000B202089560930601709307018093080168
:10062000909309010895CF92DF92EF92FF920F937A
:100630001F93FC018AE391E091838083428353837B
:10064000648375830683178320873187C286D386A8
:10065000E486F5861F910F91FF90EF90DF90CF9089
:100660000895FC0117861686118A108A138A128A49
:1006700008956F927F928F929F92AF92BF92CF9286
:10068000DF92EF92FF920F931F93CF93DF93EC01D2
:100690004B0166247724B301882777FD8095982F36
:1006A0000E9497175B016C0120E030E040E05FE3BF
:1006B0000E944B187B018C016E857F85882777FD12
:1006C0008095982F0E94971720E030E040E85EE385
:1006D0000E944B189B01AC01C801B7010E949416FF
:1006E0000E94AE1820E030E040E85FE30E949416DC
:1006F00020E030E040E852E40E944B182A813B8120
:100700004C815D810E944B180E946917F40160833F
:1007100068897989882777FD8095982F0E94971797
:1007200020E030E040E151E40E94FC169B01AC0166
:10073000C601B5010E94941626E636E646E050E46E
:100740000E9494160E94AE1820E030E040E85FE37B
:100750000E94941620E030E040E852E40E944B18DA
:100760002E813F81488559850E944B180E94691748
:10077000F4016183C601B50120E030E040E450E4BB
:100780000E94FC167B018C016A897B89882777FD92
:100790008095982F0E94971720E030E040E651E4C2
:1007A0000E94FC169B01AC01C801B7010E9494167F
:1007B00026E636E646E850E40E9494160E94AE18FB
:1007C00020E030E040E85FE30E94941620E030E053
:1007D00040E852E40E944B182A853B854C855D8594
:1007E0000E944B180E946917F40162830894611CEF
:1007F000711C83E090E0880E991E9CE369167104D9
:1008000009F049CF8E859F8501969F878E878889BD
:1008100099890196998B888B8A899B8902969B8BF3
:100820008A8BDF91CF911F910F91FF90EF90DF9016
:10083000CF90BF90AF909F908F907F906F900895D2
:100840000895DC01FB0182E491E011969C938E9364
:10085000808112968C931297818113968C931397B3
:10086000828114968C930895DC01FB0190E012962E
:100870008C911297808313968C9113978183149691
:100880008C91149782839F5F33969C3381F70895F0
:10089000FC01A081B1812D913C91F9010995089548
:1008A00081E008950895E0914E02F0E0EE0FFF1F01
:1008B000E05BFD4FA081B181ED91FC91119701901A
:1008C000F081E02DCD0168E871E009950895FC0103
:1008D0003F9A80E8828388E290E09483838308953E
:1008E000DF93CF9300D00F92CDB7DEB7DC01AB0121
:1008F000ED91FC910680F781E02D19821A821B820E
:10090000BE016F5F7F4F20E009950F900F900F9011
:10091000CF91DF91089508951F920F920FB60F9215
:1009200011242F933F934F935F936F937F938F93F4
:100930009F93AF93BF93EF93FF9383B18295869577
:100940008695837080958170809344028823E9F0B6
:100950000E94E30E60934602709347028093480220
:1009600090934902109245028FE08093C10083E08A
:100970008093C30080E18093D1001092BF00109259
:10098000BE0084E08093720002C010927200FF915A
:10099000EF91BF91AF919F918F917F916F915F91F7
:1009A0004F913F912F910F900FBE0F901F90189570
:1009B000AF92BF92CF92DF92EF92FF920F931F936D
:1009C0008BEF92E00E9484101816190624F488E830
:1009D00091E00E94100A0E9453040E94E30E2091AD
:1009E0003C0230913D0240913E0250913F02621B19
:1009F000730B840B950B603171058105910508F42B
:100A000054C06091400270914102809142029091E5
:100A1000430220E030E048E452E40E94F8168823C4
:100A20000CF043C00E94E30E60933C0270933D02C1
:100A300080933E0290933F02609140027091410288
:100A4000809142029091430220E030E040E85FE371
:100A50000E9494165B016C01609340027093410206
:100A60008093420290934302E0911201F0E0E65F2E
:100A7000FE4F608170E0882777FD8095982F0E9457
:100A800097177B018C01C601B50120E030E048E4F6
:100A900052E40E94FC169B01AC01C801B7010E9400
:100AA0004B180E9469176093A90287E692E0609153
:100AB000A9020E94310E1F910F91FF90EF90DF90DD
:100AC000CF90BF90AF9008951F93182F8A3078F57C
:100AD00086E692E062E070E0412F0E94D00D109314
:100AE0004E02E12FF0E0EE0FFF1FE05BFD4FA08113
:100AF000B181ED91FC9111970280F381E02DCD0140
:100B000009950E94E30E60933C0270933D0280932E
:100B10003E0290933F0280E090E0A0E0B0E080933E
:100B2000400290934102A0934202B09343021F916E
:100B300008951F920F920FB60F9211242F933F9397
:100B40004F935F936F937F938F939F93AF93BF93D5
:100B5000EF93FF9380914502882391F481E0809385
:100B60004502E0911201E0931301F0E03196E77045
:100B7000F070E0931201E65FFE4F80818093A9023E
:100B80000E94E30E209146023091470240914802B4
:100B900050914902621B730B840B950B60934A02C0
:100BA00070934B0280934C0290934D02695E7340A8
:100BB00080409040FCF0E0911301E0931201F0E0DE
:100BC000E65FFE4F80818093A90280914E0290E003
:100BD00060914F02019670E00E945B190E946405CB
:100BE0000E94E30E6093460270934702809348028E
:100BF00090934902FF91EF91BF91AF919F918F9197
:100C00007F916F915F914F913F912F910F900FBE08
:100C10000F901F901895CF92DF92EF92FF920F9353
:100C20001F93CF93DF93EC018B017A0169018091CF
:100C30002F038823C1F48FE293E00E94AC11892B2B
:100C400091F01092440310924503109246031092C3
:100C500047038AE491E09093400380933F038FE23F
:100C600093E00E94B611CE016FE373E0A8019701F3
:100C700086010E94DC0DDF91CF911F910F91FF90B3
:100C8000EF90DF90CF900895AF92BF92CF92DF9216
:100C9000EF92FF920F931F93DF93CF9300D000D07A
:100CA00000D0CDB7DEB78BEF92E060E071EE0E942E
:100CB000831087E692E068E871E04CE350E020E0C2
:100CC00030E00E940B0684E08093120160910E01D7
:100CD0006093A90287E692E00E94310E8AE062E00A
:100CE0000E94C60F8BE162E00E94C60F87E062E0BF
:100CF0000E94C60F8BE062E00E94C60FD89A8091D6
:100D00006B00806480936B008091680081608093A9
:100D1000680086E190E00E94BA11B82EA92E40E04A
:100D200050E060E87FE38A019B016A017B010E9439
:100D3000130380914F028A3058F4E82FF0E0EE0F51
:100D4000FF1FE05BFD4FB082A1828F5F80934F0257
:100D500086E190E00E94BA11B82EA92E4DEC5CEC11
:100D60006CE47EE300E010E020E83FE368017901F5
:100D70000E94130380914F028A3058F4E82FF0E06C
:100D8000EE0FFF1FE05BFD4FB082A1828F5F80936B
:100D90004F028FEF89831A821B8288E090E00E94C5
:100DA000BA11182F092F64E0AE014F5F5F4F0E9408
:100DB000970980914F028A3058F4E82FF0E0EE0F47
:100DC000FF1FE05BFD4F108301838F5F80934F0215
:100DD00089E692E00E94BA11182F092F60E00E9464
:100DE000940A80914F028A3058F4E82FF0E0EE0F19
:100DF000FF1FE05BFD4F108301838F5F80934F02E5
:100E00008FEF8C838D838E8385E090E00E94BA11F2
:100E1000182F092FBE016C5F7F4F0E942104809123
:100E20004F028A3058F4E82FF0E0EE0FFF1FE05B2E
:100E3000FD4F108301838F5F80934F0286E692E01F
:100E400060E070E00E94C90D823159F586E692E0BB
:100E500061E070E00E94C90D843319F586E692E0E6
:100E600062E070E00E94C90D80934E0290914F02A3
:100E7000891710F010924E0280914E020E94640574
:100E800026960FB6F894DEBF0FBECDBFCF91DF918F
:100E90001F910F91FF90EF90DF90CF90BF90AF9098
:100EA000089586E692E060E070E042E10E94D00D95
:100EB00086E692E060E070E044E30E94D00DDACF75
:100EC000CF93DF93EC010E94F10E9B01AC0188816E
:100ED0009981AA81BB81281B390B4A0B5B0B2233FA
:100EE0003105410551057CF3DF91CF910895CF92F3
:100EF000DF92EF92FF920F931F93CF93DF936C01DA
:100F0000162F072FEA01E22E05960E946007F8943B
:100F1000212F302FC901FC01BE01660F771F6C0F16
:100F20007D1F680F791F58B1506888B18F7788B9D5
:100F300021813E2D239F212DA7C095E058B900C0E7
:100F400000C0001427FF88B900C000C0001488B991
:100F500000C0220F915091F7001458B900C000C092
:100F6000001427FF88B900C000C0001488B900C071
:100F700000C00014001458B900C000C0001426FFBF
:100F800088B900C000C0001488B940813E2D439F3D
:100F9000412D58B900C000C0001425FF88B900C019
:100FA00000C0001488B900C000C0001495E058B912
:100FB00000C000C0001447FF88B900C000C0001482
:100FC00088B900C0440F915091F7001458B900C07F
:100FD00000C0001447FF88B900C000C0001488B9E1
:100FE00000C000C00014001458B900C000C00014B4
:100FF00046FF88B900C000C0001488B932812E2D88
:10100000329F312D58B900C000C0001445FF88B987
:1010100000C000C0001488B900C000C0001495E0F2
:1010200058B900C000C0001437FF88B900C000C024
:10103000001488B900C0330F915091F7001458B9CB
:1010400000C000C0001437FF88B900C000C0001401
:1010500088B900C000C0339658B900C000C0001461
:1010600036FF88B900C000C0001488B921814E2D18
:10107000249F212D58B900C000C0001435FF88B945
:1010800000C000C0001488B9E617F70708F455CF70
:101090001124E090B202F090B3020091B4021091DA
:1010A000B502BE01882777FD8095982F28EC31E0A6
:1010B00040E050E00E943C1920E130E040E050E088
:1010C0000E949019CA01B90128EE33E040E050E0D7
:1010D0000E949019E20EF31E041F151FE092B20247
:1010E000F092B3020093B4021093B50278940E9478
:1010F000F10EF6016583768387839087DF91CF9128
:101100001F910F91FF90EF90DF90CF900895AF92D5
:10111000BF92CF92DF92EF92FF920F931F93CF93E4
:10112000DF935C01EB016A01122F05960E946007B4
:10113000F894B601660F771F6C0D7D1D6C0F7D1F37
:1011400058B1506888B18F7788B9A9812A2F219F1B
:10115000212DFE01A7C095E058B900C000C00014C1
:1011600027FF88B900C000C0001488B900C0220F52
:10117000915091F7001458B900C000C0001427FF27
:1011800088B900C000C0001488B900C000C00014B5
:10119000001458B900C000C0001426FF88B900C070
:1011A00000C0001488B948810014419F412D58B9EE
:1011B00000C000C0001425FF88B900C000C00014A2
:1011C00088B900C000C0001495E058B900C000C044
:1011D000001447FF88B900C000C0001488B900C0DF
:1011E000440F915091F7001458B900C000C000148A
:1011F00047FF88B900C000C0001488B900C000C013
:101200000014001458B900C000C0001446FF88B98B
:1012100000C000C0001488B93A810014319F312DFC
:1012200058B900C000C0001445FF88B900C000C014
:10123000001488B900C000C0001495E058B900C07F
:1012400000C0001437FF88B900C000C0001488B97E
:1012500000C0330F915091F7001458B900C000C07E
:10126000001437FF88B900C000C0001488B900C05E
:1012700000C0339658B900C000C0001436FF88B9CA
:1012800000C000C0001488B900142A2F219F212D0E
:1012900058B900C000C0001435FF88B900C000C0B4
:1012A000001488B9E617F70708F455CF1124E09029
:1012B000B202F090B3020091B4021091B502B601EF
:1012C000882777FD8095982F28EC31E040E050E0AA
:1012D0000E943C1920E130E040E050E00E9490196B
:1012E000CA01B90128EE33E040E050E00E949019B5
:1012F000E20EF31E041F151FE092B202F092B30239
:101300000093B4021093B50278940E94F10EF50197
:101310006583768387839087DF91CF911F910F91AB
:10132000FF90EF90DF90CF90BF90AF900895FC01B9
:10133000DA018CE591E09183808362838C918383D1
:1013400011968C911197848312968C9185830895C0
:10135000FC0182E0868381E087830895DF93CF9349
:1013600000D00F92CDB7DEB7DC01FB0140E050E0CA
:1013700016968C9116974817B0F012962C911297EA
:1013800090E0820F911D481759076CF413968C91C9
:101390001397808314968C911497818315968C9162
:1013A0001597828306C019821A821B8210821182CD
:1013B00012824F5F5F4F33964C335105C9F6179633
:1013C0008C91179716969C911697882311F49F5F1E
:1013D00001C0915016969C93169716965C9116979D
:1013E000852F90E012964C9112972CE330E0241B4D
:1013F00031092817390724F481E017968C9304C02B
:10140000552311F417961C926EE170E080E090E095
:101410000E94170F0F900F900F90CF91DF910895BA
:101420006F927F928F929F92AF92BF92CF92DF92F4
:10143000EF92FF920F931F93DF93CF9300D000D0D2
:1014400000D0CDB7DEB75C014E010894811C911C21
:1014500044E0642E712C6C0E7D1E8BEF92E00E9496
:1014600084100397D4F384018BEF92E00E94AB10B9
:101470008F3F41F0F8018083802F8819823009F076
:101480004CC02DC087E692E06091A9020E94310E07
:1014900010926502109264028AE00E9453108C013F
:1014A00087E00E9453107C018BE00E9453106C0176
:1014B0008BE10E94531033E0000F111F3A95E1F7C2
:1014C000EE0CFF1CEE0CFF1C0E29082BCC0CDD1CB7
:1014D0000C298BEF92E0602F0E94E510BECF409167
:1014E0006402509165024C33510509F4B6CFFA01FC
:1014F000EE0FFF1FE40FF51FEA0DFB1D9A812B81F4
:1015000089818C839D832E838083918322834F5F87
:101510005F4F50936502409364020F5F1F4F0615A3
:10152000170509F0A1CF99CFFC0184E691E09183E2
:101530008083E65AFD4F85E081938FEF819360832E
:1015400008953F924F925F926F927F928F929F92F7
:10155000AF92BF92CF92DF92EF92FF920F931F93C1
:10156000CF93DF93EC013AE7C32ED12CC80ED91EDE
:101570005C012BE5822E22E0922E880E991E9AE5C0
:10158000492E92E0592E4C0E5D1E332433948CE389
:10159000682E712C6C0E7D1E80E090E0A0E0B0E023
:1015A000F60180839183A283B383D4016C9170E0B0
:1015B00080E090E00E942E15262FF5016283D20173
:1015C0006C91669570E0620F711D882777FD80959C
:1015D000982F0E9497177B018C01F401608170E0C5
:1015E00080E090E00E942E1520EF30E0C20ED31E66
:1015F0000E94971720E030E040E05FE30E944B1824
:101600009B01AC01C801B7010E949416D6016D93ED
:101610007D938D939C931397F50136AE24E13FEFB4
:10162000C20ED31E0894A11CB11CA614B70409F065
:10163000B3CFC45ADD4F8881CC55D240882399F46A
:10164000C35ADD4F80E090E0A0E8BFE3899399930F
:10165000A993B99389939993A993B993888399830B
:10166000AA83BB8351C0FE01E35AFD4F9E012F594F
:101670003D4FCB59DD4F813011F580911401909190
:101680001501A0911601B091170180839183A28367
:10169000B3838091180190911901A0911A01B09122
:1016A0001B01F90180839183A283B38380911C0184
:1016B00090911D01A0911E01B0911F0121C0809148
:1016C000200190912101A0912201B09123018083FA
:1016D0009183A283B3838091240190912501A091ED
:1016E0002601B0912701F90180839183A283B383FE
:1016F0008091280190912901A0912A01B0912B019C
:1017000088839983AA83BB83DF91CF911F910F9127
:10171000FF90EF90DF90CF90BF90AF909F908F9011
:101720007F906F905F904F903F9008952F923F92DF
:101730004F925F926F927F928F929F92AF92BF92E1
:10174000CF92DF92EF92FF920F931F93DF93CF938D
:10175000CDB7DEB767970FB6F894DEBF0FBECDBF2B
:101760002C01CE969C838B83D201A658BF4FBF8B92
:10177000AE8B1B01F201E659FE4FFA83E983C201E9
:10178000855A9D4F9B878A87D201A65ABD4FBD8738
:10179000AC87F201E35AFD4FFF87EE87C2018F59F4
:1017A0009D4F998B888BD201AB59BD4FBB8BAA8BB8
:1017B000F201FC96FD8BEC8BD20112966C91EA85BE
:1017C000FB85F081F987AC85BD85AC90EB81FC8110
:1017D0008081813009F0C4C070E0882777FD809552
:1017E000982F0E9497177B018C01AE89BF898D913C
:1017F0009D910D90BC91A02D8D839E83AF83B88762
:10180000BC01CD01A80197010E94F81688230CF0B5
:10181000A3C0B9856B2F70E080E090E00E9495171F
:101820003B014C01C801B701A40193010E94FC16C1
:101830007B018C016A2D70E080E090E00E9495179A
:101840005B016C012FE832EC45E75CE30E944B182A
:10185000A80197010E944B18A80197010E944B18FC
:10186000A80197010E944B18A80197010E944B18EC
:101870009B01AC01C401B3010E944B189B01AC0158
:10188000C601B5010E9494160E946417882777FD4F
:101890008095982F0E9497179B01AC016D817E81E6
:1018A0008F8198850E9494167B018C01EE89FF89B7
:1018B0006083718382839383F9856F2F70E088271B
:1018C00077FD8095982F0E9497179B01AC01C80166
:1018D000B7010E94471818163CF4AE89BF896D9273
:1018E0007D928D929C921397EE89FF896081718120
:1018F00082819381AE85BF852D913D914D915C9103
:101900000E944B180E946417F1016083AE89BF8961
:101910006D917D918D919C91E889F989208131812A
:10192000428153810E944B180E946417D101119685
:101930006C93EE89FF896081718182819381AA898C
:10194000BB892D913D914D915C910E944B180E9455
:101950006417F1016283E2C0AB81BC811C92DEC0DE
:10196000EE89FF89608171818281938120E030E07E
:1019700040E050E00E9447182A2D30E018160CF085
:1019800073C0B901882777FD8095982F0E9497171B
:101990007B018C01A981BA816D917D918D919C9182
:1019A000A80197010E949316E981FA8160837183EF
:1019B00082839383AE89BF896D917D918D919C9136
:1019C000A80197010E949316EE89FF8960837183B5
:1019D0008283938320E030E040E050E00E94F816DC
:1019E000882354F480E090E0A0E0B0E0EE89FF8925
:1019F00080839183A283B383AE89BF896D917D91EA
:101A00008D919C91EE85FF852081318142815381AA
:101A10000E944B180E946417D1016C93EE89FF89D4
:101A20006081718182819381A889B9892D913D91CD
:101A30004D915C910E944B180E946417F1016183E3
:101A4000AE89BF896D917D918D919C91EA89FB89C9
:101A500020813181428153810E944B180E9464177A
:101A6000D10112966C935AC0B901882777FD8095F1
:101A7000982F0E9497179B01AC01E981FA81608140
:101A80007181828193810E949316A981BA816D939D
:101A90007D938D939C93139720E030E040E050E0DD
:101AA0000E94F8168823D4F521E0EB81FC81208385
:101AB000A9856A2F70E080E090E00E942E15262F05
:101AC000F2016283AC85BD856C91669570E0620F12
:101AD000711D882777FD8095982F0E9497177B01AD
:101AE0008C01EA85FB85608170E080E090E00E94D7
:101AF0002E150E94971720E030E040E05FE30E943F
:101B00004B189B01AC01C801B7010E949416A98132
:101B1000BA816D937D938D939C9313970894411C88
:101B2000511CEB81FC813196FC83EB838E899F896C
:101B300004969F8B8E8BA3E0B0E02A0E3B1EE981BA
:101B4000FA813496FA83E9838C899D89481659066F
:101B500009F032CE6EE170E080E090E00E94170F55
:101B600067960FB6F894DEBF0FBECDBFCF91DF9161
:101B70001F910F91FF90EF90DF90CF90BF90AF90AB
:101B80009F908F907F906F905F904F903F902F909D
:101B90000895F999FECF72BD61BDF89A80B5089598
:101BA000F999FECF1FBA72BD61BD40BD0FB6F89462
:101BB000FA9AF99A0FBE0895DF92EF92FF920F936F
:101BC0001F93CF93DF93EC017B01101611062CF0CD
:101BD000D22E032F20E030E002C0D02E012FC05CB7
:101BE000DF4FA881B981C054D040FE0160E070E0B1
:101BF00007C0808191813896892B41F06F5F7F4FBC
:101C00006A177B07B4F3EE24FF2422C0E3E0660FDB
:101C1000771FEA95E1F7DE01A60FB71F1196FC9238
:101C2000EE92FE01E60FF71F5383428317963C9313
:101C30002E931697FB013496EC0FFD1FD082018383
:101C4000D701ED91FC910190F081E02DC70109953C
:101C5000C701DF91CF911F910F91FF90EF90DF901F
:101C60000895DF92EF92FF920F931F93CF93DF932C
:101C7000D62EEC0100E010E050E4E52EF12CE80E49
:101C8000F91E1DC0A881B9811097F9F0ED91FC9162
:101C900011972E813F81C901880F991F820F931FD1
:101CA0006A817B81680F791F4C815D810084F18599
:101CB000E02DCD012D2D09950F5F1F4F2896F701BF
:101CC0008081918108171907ECF2DF91CF911F9164
:101CD0000F91FF90EF90DF900895FC01E05CFF4FC3
:101CE00088E090E0819391938FEF8083E254F040FD
:101CF000CF0160E040E450E00E94900E089587E636
:101D000092E00E946D0E8CE190E0A0E0B0E0809344
:101D1000AA029093AB02A093AC02B093AD020895D7
:101D2000DC0140FF03C001C06D936D934250E0F7AA
:101D30005040D0F708951F920F920FB60F921124C2
:101D40002F933F938F939F93AF93BF938091B20252
:101D50009091B302A091B402B091B5023091B60255
:101D60000196A11DB11D232F2D5F2D3720F02D577A
:101D70000196A11DB11D2093B6028093B2029093EB
:101D8000B302A093B402B093B5028091AE029091D9
:101D9000AF02A091B002B091B1020196A11DB11D98
:101DA0008093AE029093AF02A093B002B093B102C1
:101DB000BF91AF919F918F913F912F910F900FBE47
:101DC0000F901F9018958FB7F8942091B202309120
:101DD000B3024091B4025091B5028FBFB901CA015C
:101DE00008959FB7F8942091AE023091AF024091D0
:101DF000B0025091B10286B5A89B06C08F3F21F07A
:101E00002F5F3F4F4F4F5F4F9FBF542F432F322FB6
:101E10002227280F311D411D511D82E0220F331F43
:101E2000441F551F8A95D1F7B901CA0108959B0136
:101E3000AC017FB7F8948091AE029091AF02A0916F
:101E4000B002B091B10266B5A89B05C06F3F19F012
:101E50000196A11DB11D7FBFBA2FA92F982F8827EA
:101E6000860F911DA11DB11D62E0880F991FAA1F49
:101E7000BB1F6A95D1F7BC012DC0FFB7F8948091C4
:101E8000AE029091AF02A091B002B091B102E6B55E
:101E9000A89B05C0EF3F19F00196A11DB11DFFBF22
:101EA000BA2FA92F982F88278E0F911DA11DB11D24
:101EB000E2E0880F991FAA1FBB1FEA95D1F7861B86
:101EC000970B885E9340C8F221503040404050400C
:101ED00068517C4F211531054105510571F6089572
:101EE000789484B5826084BD84B5816084BD85B5F5
:101EF000826085BD85B5816085BDEEE6F0E08081BC
:101F000081608083E1E8F0E01082808182608083DC
:101F1000808181608083E0E8F0E08081816080835F
:101F2000E1E9F0E08081826080838081816080834C
:101F3000E0E9F0E0808181608083E1ECF0E0808185
:101F400084608083808182608083808181608083DF
:101F5000E3ECF0E0808181608083E0ECF0E0808160
:101F600082608083E2ECF0E0808181608083EAE738
:101F7000F0E08081846080838081826080838081C2
:101F8000816080838081806880830895CF93DF9310
:101F9000482F50E0CA018E5E9E4FFC0134914C5098
:101FA0005F4FFA018491882369F190E0880F991FAF
:101FB000FC01E653FF4FA591B491FC01E852FF4F9D
:101FC000C591D491662351F42FB7F8948C91932F37
:101FD000909589238C93888189230BC0623061F4AA
:101FE0002FB7F8948C91932F909589238C938881A7
:101FF000832B88832FBF06C09FB7F8948C91832BC7
:102000008C939FBFDF91CF910895883071F1893013
:1020100068F4823031F1833020F4813009F042C01D
:102020001DC0833089F08430E9F512C08B3059F13E
:102030008C3028F48930E9F08A30A1F51EC08C304C
:1020400031F18E3079F529C0809180008F7703C0FF
:10205000809180008F7D80938000089584B58F7774
:1020600002C084B58F7D84BD0895809190008F77E4
:1020700007C0809190008F7D03C080919000877F82
:102080008093900008958091C0008F7703C0809165
:10209000C0008F7D8093C00008958091C200877F2B
:1020A0008093C20008950F931F93482F50E0CA01F8
:1020B000805D9E4FFC012491CA018E5E9E4FFC0103
:1020C00004914C505F4FFA011491112319F420E050
:1020D00030E015C0222319F0822F0E940510812FB5
:1020E00090E0880F991F8A519F4FFC01A591B491F0
:1020F0008C9120E030E0802311F021E030E0C90134
:102100001F910F91089508952091F7023091F802E0
:102110008091F9029091FA02281B390B2F733070CD
:10212000C90108952091F7023091F8028091F902D7
:102130009091FA022817390719F42FEF3FEF09C0E1
:10214000E091F902F091FA02E954FD4F8081282FC5
:1021500030E0C90108952091F7023091F802809192
:10216000F9029091FA022817390719F42FEF3FEF7F
:1021700013C0E091F902F091FA02E954FD4F208179
:102180008091F9029091FA0201968F73907090936A
:10219000FA028093F90230E0C90108951092FE021C
:1021A0001092FD0288EE93E0A0E0B0E08093FF0281
:1021B00090930003A0930103B09302038CE691E097
:1021C0009093FC028093FB0208950F931F93DF937B
:1021D000CF930F92CDB7DEB78C0169838091330125
:1021E000882369F083E0BE016F5F7F4F41E050E0DC
:1021F0000E94B9121816190614F49C0107C081E058
:1022000090E0F8019383828320E030E0C9010F90D1
:10221000CF91DF911F910F91089583E00E9490125A
:102220000895CF93DF9312C082E00E941B122FEF1C
:102230008F3F9207C9F0E091F702F091F802E9545C
:10224000FD4F8083D093F802C093F702C091F7024C
:10225000D091F8022196CF73D0708091F9029091BD
:10226000FA02C817D90701F7DF91CF910895FC0151
:1022700080818E5F808380E86AE571E042E450E00F
:102280000E9434120895FC0181819081913A59F4A1
:10229000813209F04CC080E06CE271E047E050E030
:1022A0000E94341242C0913209F041C0803239F4A8
:1022B0008CE291E067E070E00E94781236C08232D2
:1022C00009F035C082818093330180912C01909177
:1022D0002D01A0912E01B0912F01805B9440A04070
:1022E000B04019F58091330180FD12C087E797E770
:1022F00090930108809300082BE088E190E00FB6EE
:10230000F894A895809360000FBE209360000DC0E4
:1023100088E10FB6F89480936000109260000FBEC1
:10232000A895109201081092000881E0089580E0BD
:102330000895CF93DF930E94700F81E193E00E9494
:102340009B120E944406C0E0D0E00E94D80420976F
:10235000E1F30E940000F9CFFC0120E030E0808131
:10236000882311F421E030E0C9010895FC0181E0E7
:10237000808308950E94B0010895CF92DF92EF927A
:10238000FF920F931F93CF93DF937C016B018A0120
:10239000C0E0D0E00FC0D6016D916D01D701ED9185
:1023A000FC910190F081E02DC7010995C80FD91F5C
:1023B000015010400115110571F7CE01DF91CF9149
:1023C0001F910F91FF90EF90DF90CF900895282FED
:1023D00080910B038823C1F057FF1AC015C02898BD
:1023E00090930A038091F1008193E217F307B9F704
:1023F0004115510539F08091F200882319F48BE6DC
:102400008093E800AFBF02C04FEF5FEFCA010895AD
:10241000AFB7F89427702093E9008091F200282F3D
:1024200030E0241735070CF4A901FB019B01240FB0
:10243000311D94E6DACFDF93CF930F92CDB7DEB79D
:10244000BE016F5F7F4F41E050E00E94E7110197AE
:1024500019F02FEF3FEF03C08981282F30E0C90129
:102460000F90CF91DF910895FF920F931F93F82E55
:10247000142F052F40910E0350910F03212F302F61
:10248000C901DC01FB016EEF29C0F7FE02C0949187
:1024900001C0908120910C0330910D032417350762
:1024A000ACF48091E8008570E1F38091E80082FF50
:1024B00003C02FEF3FEF17C09093F100C9010196C1
:1024C0008F739070892B11F46093E8002F5F3F4F5A
:1024D00030930D0320930C03119731961097A9F6B2
:1024E000812F902F9C01C9011F910F91FF9008959A
:1024F0009C018091E80082FFFCCFF901260F311D7D
:1025000003C08091F1008193E217F307D1F7289877
:1025100084E680930A038BEF8093E800CB01089553
:102520008093E9008091F200882319F08AE3809378
:10253000E8000895089510920B0381E08093D7007E
:1025400080EA8093D80082E189BD09B400FEFDCF06
:1025500061E070E080E090E00E94170F80E98093D6
:10256000D8008CE08093E2001092E000559A209A07
:1025700008955F926F927F928F929F92AF92BF92D7
:10258000CF92DF92EF92FF920F931F93CF93DF933F
:10259000E82E842E752E80910B03882371F18B0118
:1025A000242F352FC901EC017AEFF72E67E0962E24
:1025B0009E2050E4552E8E2D90E040E2A42EB12CAA
:1025C000A822B9223AE3632E20E4C22ED12CC822DD
:1025D000D92258C09FB7F8949092E9008091E80002
:1025E00085FD02C020E004C08091F200252D281B4B
:1025F0009FBF222361F4FA9419F42FEF3FEF4DC0EF
:1026000061E070E080E090E00E94170F3BC0822FF5
:1026100090E0C817D9070CF42C2FC21BD1094FB773
:10262000F8949092E900A114B10421F406C010922C
:10263000F10021502223D9F719C0E7FC03C0F801AB
:10264000922F10C0C801322F06C0FC010196E49100
:10265000E093F10031503323C1F706C0819180939C
:10266000F10091509923D1F7020F111D8091E800DC
:1026700085FF05C0209729F4C114D10411F06092A0
:10268000E8004FBF209709F0A5CF5D9884E68093BE
:102690000903282D372DC9019C01C901DF91CF9174
:1026A0001F910F91FF90EF90DF90CF90BF90AF9070
:1026B0009F908F907F906F905F9008951F920F92E0
:1026C0000FB60F9211242F933F934F935F936F9305
:1026D0007F938F939F93AF93BF93EF93FF938091DB
:1026E000E1001092E100982F83FF0FC01092E900E3
:1026F00081E08093EB001092EC0082E38093ED0088
:1027000010920B0388E08093F00092FF34C083E0C6
:102710008093E9008091F200882319F08AE3809386
:10272000E8008FB7F89492E09093E9009091F2005E
:102730008FBF992321F08BEF92E00E9411118091BD
:102740000903882351F08091090381508093090384
:1027500080910903882309F45D9A80910A038823F4
:1027600051F080910A03815080930A0380910A03FB
:10277000882309F4289AFF91EF91BF91AF919F911F
:102780008F917F916F915F914F913F912F910F901A
:102790000FBE0F901F9018950F931F93DF93CF9349
:1027A0000F92CDB7DEB719828E010F5F1F4FC801A0
:1027B0000E943711C8010E948716898190E00F900E
:1027C000CF91DF911F910F9108951F920F920FB635
:1027D0000F921124EF92FF921F932F933F934F93E9
:1027E0005F936F937F938F939F93AF93BF93EF9379
:1027F000FF93DF93CF93CDB7DEB76197DEBFCDBF39
:102800001092E9008091E80083FF0FC1FE0131962C
:102810009E01275F3F4F03C08091F1008193E21733
:10282000F307D1F7289884E680930A0382EF809318
:10283000E800998197FF05C08091E80080FFFCCFF8
:1028400003C08EEF8093E800292F30E0C901807625
:102850009070892B09F0C2C08A81882329F41092D4
:10286000F1001092F100D6C0813009F4D3C083305A
:1028700009F4D0C0853049F48091E80080FFFCCF96
:102880008B8180688093E300C5C0863009F07CC0EE
:102890001C81EF80F8841230C1F51092E90010928B
:1028A0000D0310920C0310920F0310920E030E945E
:1028B000CC1399E0FE013996DF01292F1D922A954C
:1028C000E9F799871A8791E09E8790E8988B9AEFAD
:1028D000998B20910C0330910D03275F3F4F3C876C
:1028E0002B878D871092E90010920D0310920C0334
:1028F000F0920F03E0920E0380E0BF0149E050E048
:102900000E9434120E94CC1385C01092E9001092EC
:102910000D0310920C03F0920F03E0920E0312329B
:1029200041F482E290E00E947F16892B09F476C080
:1029300071C0113079F488E0E816F10419F481E0EF
:102940008093100380911003882309F06BC0EAED97
:10295000F1E013C0133009F061C08B81882319F4B2
:10296000ECE9F1E00AC0823019F4E0EAF1E005C0D8
:10297000813009F053C0E2ECF1E0449180E8BF01FE
:1029800050E00E94341246C0873009F447C08830B6
:1029900021F481E08093F1003DC08930D9F52370A6
:1029A0003070232BD9F5EFEFF1E091E031E026E331
:1029B0009093E9003093EB0084918093EC00209396
:1029C000ED009F5F3196953099F78EE78093EA008E
:1029D0001092EA008B8180930B031CC08F81988535
:1029E0001092E90010920D0310920C0390930F03C4
:1029F00080930E038D81882329F4CE0101960E94D5
:102A0000431106C0823051F4CE0101960E94501548
:102A1000882321F08EEF8093E80007C081E2809345
:102A2000EB0003C0ECEEF1E0A8CF6196DEBFCDBFB6
:102A3000CF91DF91FF91EF91BF91AF919F918F91D6
:102A40007F916F915F914F913F912F911F91FF90D7
:102A5000EF900F900FBE0F901F901895EF92FF927E
:102A60000F931F937B018C01611571058105910501
:102A700029F420E030E040E050E00BC00E94050364
:102A8000A80197010E949019AC01CB01DA019C01C9
:102A9000AD01B901CA011F910F91FF90EF90089508
:102AA000FC0191818081813A31F4913089F080E09C
:102AB000933089F40DC0813269F49B3021F4828116
:102AC0008093340105C09A3029F4828180933501C6
:102AD00081E0089580E00895EF92FF920F931F9395
:102AE0008C01E62EDC01ED91FC910480F581E02D56
:102AF0000995F82ED801ED91FC910680F781E02D23
:102B0000C8016E2D09958F2D90E01F910F91FF90B8
:102B1000EF9008951092120310921603109215036D
:102B20008EE791E090931403809313030895EF923E
:102B3000FF920F931F93DF93CF930F92CDB7DEB722
:102B400089838B017A0184E0BE016F5F7F4F41E092
:102B500050E00E94B91284E4B801A7010E94B912A2
:102B60000F90CF91DF911F910F91FF90EF900895FB
:102B700082E048E050E00E9497150895FC0116821B
:102B80001782108611861286138614823496BF012E
:102B90000E94B8150895DC01683810F0685829C003
:102BA000E62FF0E067FF13C0E058F04081E090E0CE
:102BB00002C0880F991FEA95E2F7809514962C9130
:102BC0001497282314962C93149760E012C0EF57A3
:102BD000FD4F6491662319F420E030E01DC067FFCB
:102BE00008C014968C9114978D7F14968C9314972B
:102BF0006F77FD0190E0662321F08681861709F446
:102C000016829F5F31969630B1F7CD011496BD01C3
:102C10000E94B81521E030E0C9010895CF93DF93F9
:102C2000DC01683810F0685825C0E62FF0E067FF37
:102C300012C0E058F04081E090E002C0880F991F78
:102C4000EA95E2F714962C911497282B14962C935E
:102C5000149760E00FC0EF57FD4F64916623D9F1E0
:102C600067FF08C014968C911497826014968C9319
:102C700014976F7716968C9116978617A9F1179669
:102C80008C911797861781F118968C911897861753
:102C900059F119968C911997861731F11A968C91E2
:102CA0001A97861709F11B968C911B978617E1F0EE
:102CB000ED01E0E0F0E09E2F8E81882321F4EA0F01
:102CC000FB1F668306C09F5F31962196E630F105B3
:102CD00091F7963049F481E090E013969C938E939F
:102CE000129720E030E007C0CD011496BD010E948C
:102CF000B81521E030E0C901DF91CF91089580E857
:102D000063E072E045E650E00E9434120895FC0151
:102D100080818F5F808380E868E672E049E150E05F
:102D20000E94341208955058BB27AA270ED075C1AF
:102D300066D130F06BD120F031F49F3F11F41EF4D6
:102D40005BC10EF4E095E7FB51C1E92F77D180F329
:102D5000BA17620773078407950718F071F49EF598
:102D60008FC10EF4E0950B2EBA2FA02D0B01B901E7
:102D700090010C01CA01A0011124FF27591B99F0F1
:102D8000593F50F4503E68F11A16F040A22F232FFD
:102D9000342F4427585FF3CF469537952795A7954D
:102DA000F0405395C9F77EF41F16BA0B620B730BF4
:102DB000840BBAF09150A1F0FF0FBB1F661F771F65
:102DC000881FC2F70EC0BA0F621F731F841F48F41A
:102DD000879577956795B795F7959E3F08F0B3CFA0
:102DE0009395880F08F09927EE0F9795879508958A
:102DF000D9D008F481E008950CD00FC107D140F07C
:102E0000FED030F021F45F3F19F0F0C0511139C10C
:102E1000F3C014D198F39923C9F35523B1F3951B4B
:102E2000550BBB27AA2762177307840738F09F5FEB
:102E30005F4F220F331F441FAA1FA9F333D00E2E5A
:102E40003AF0E0E830D091505040E695001CCAF7C7
:102E500029D0FE2F27D0660F771F881FBB1F26178C
:102E600037074807AB07B0E809F0BB0B802DBF015F
:102E7000FF2793585F4F2AF09E3F510568F0B6C078
:102E800000C15F3FECF3983EDCF38695779567953C
:102E9000B795F7959F5FC9F7880F911D9695879510
:102EA00097F90895E1E0660F771F881FBB1F62172F
:102EB00073078407BA0720F0621B730B840BBA0BED
:102EC000EE1F88F7E095089504D06894B111D9C039
:102ED0000895BCD088F09F5790F0B92F9927B7512B
:102EE000A0F0D1F0660F771F881F991F1AF0BA95CE
:102EF000C9F712C0B13081F0C3D0B1E00895C0C0AD
:102F0000672F782F8827B85F39F0B93FCCF38695C3
:102F100077956795B395D9F73EF490958095709520
:102F200061957F4F8F4F9F4F0895E89409C097FB9D
:102F30003EF490958095709561957F4F8F4F9F4F90
:102F40009923A9F0F92F96E9BB279395F6958795D4
:102F500077956795B795F111F8CFFAF4BB0F11F497
:102F600060FF1BC06F5F7F4F8F4F9F4F16C088233E
:102F700011F096E911C0772321F09EE8872F762F74
:102F800005C0662371F096E8862F70E060E02AF0B5
:102F90009A95660F771F881FDAF7880F96958795A1
:102FA00097F90895990F0008550FAA0BE0E8FEEF76
:102FB00016161706E807F907C0F012161306E407FD
:102FC000F50798F0621B730B840B950B39F40A26F6
:102FD00061F0232B242B252B21F408950A2609F4D4
:102FE000A140A6958FEF811D811D089597F99F67D8
:102FF00080E870E060E008959FEF80EC0895002481
:103000000A941616170618060906089500240A944D
:1030100012161306140605060895092E0394000CD3
:1030200011F4882352F0BB0F40F4BF2B11F460FF62
:1030300004C06F5F7F4F8F4F9F4F089557FD90588B
:10304000440F551F59F05F3F71F04795880F97FB6C
:10305000991F61F09F3F79F0879508951216130626
:103060001406551FF2CF4695F1DF08C01616170655
:103070001806991FF1CF869571056105089408958A
:10308000E894BB2766277727CB0197F908958ADF55
:1030900008F48FEF08950BD0C0CFB1DF28F0B6DF72
:1030A00018F0952309F0A2CFA7CF1124EACFC6DFED
:1030B000A0F3959FD1F3950F50E0551F629FF0014B
:1030C000729FBB27F00DB11D639FAA27F00DB11DA4
:1030D000AA1F649F6627B00DA11D661F829F22272D
:1030E000B00DA11D621F739FB00DA11D621F839FB4
:1030F000A00D611D221F749F3327A00D611D231F8A
:10310000849F600D211D822F762F6A2F11249F57D7
:1031100050408AF0E1F088234AF0EE0FFF1FBB1FFA
:10312000661F771F881F91505040A9F79E3F510599
:1031300070F05CCFA6CF5F3FECF3983EDCF3869552
:1031400077956795B795F795E7959F5FC1F7FE2B44
:10315000880F911D9695879597F908959F9305D0AF
:103160000F9007FCEE5F31C047CF70DFE8F3E894C3
:10317000EFEFBB273FE048EC5FE76B3D7307840749
:10318000950708F1FF279F57B25A6A4D7F40894C37
:10319000F04032F4BE556542704F8643FF4F0894AD
:1031A000EE1F915030F0BB0F661F771F881FFF1F67
:1031B000EBCF9EE7882332F0BB0F661F771F881F77
:1031C0009A95C1F79395E09511C0EF93E0FF06C083
:1031D000A2EA2AED3FE049EC5FEBB7DD1EDF0F907E
:1031E000039401FC9058ECEAF0E010C09F3F49F0D6
:1031F000915028F4869577956795B7959F5F8038AD
:103200009F4F880F9695879597F908959F938F9371
:103210007F936F93FF93EF939B01AC013CDFEF91A2
:10322000FF9105D02F913F914F915F9134CFDF9364
:10323000CF931F930F93FF92EF92DF927B018C014C
:10324000689405C0DA2EEF0132DFFE01E894A59103
:103250002591359145915591AEF3EF0176DDFE0153
:103260009701A801DA9479F7DF90EF90FF900F9122
:103270001F91CF91DF910895629FD001739FF0015C
:10328000829FE00DF11D649FE00DF11D929FF00DF6
:10329000839FF00D749FF00D659FF00D9927729F2D
:1032A000B00DE11DF91F639FB00DE11DF91FBD01B8
:1032B000CF011124089597FB092E07260AD077FD28
:1032C00004D049D006D000201AF4709561957F4F44
:1032D0000895F6F7909581959F4F0895A1E21A2ED3
:1032E000AA1BBB1BFD010DC0AA1FBB1FEE1FFF1FAA
:1032F000A217B307E407F50720F0A21BB30BE40BFA
:10330000F50B661F771F881F991F1A9469F7609540
:103310007095809590959B01AC01BD01CF010895FA
:1033200097FB092E05260ED057FD04D0D7DF0AD013
:10333000001C38F450954095309521953F4F4F4FE4
:103340005F4F0895F6F790958095709561957F4F42
:103350008F4F9F4F0895AA1BBB1B51E107C0AA1FA7
:10336000BB1FA617B70710F0A61BB70B881F991F26
:103370005A95A9F780959095BC01CD010895EE0F5F
:10338000FF1F0590F491E02D09942F923F924F92E8
:103390005F926F927F928F929F92AF92BF92CF92E5
:1033A000DF92EF92FF920F931F93CF93DF93CDB7EE
:1033B000DEB7CA1BDB0B0FB6F894DEBF0FBECDBF66
:1033C00009942A88398848885F846E847D848C8437
:1033D0009B84AA84B984C884DF80EE80FD800C8140
:1033E0001B81AA81B981CE0FD11D0FB6F894DEBF23
:0C33F0000FBECDBFED010895F894FFCF93
:1033FC0020005D03000001000000050F28465D461B
:10340C00280F04040000803F44696F3F0681553F3C
:10341C000000803F7CF2703F46B6333F00E1000075
:10342C00000000000101000000003903310300001E
:10343C0000003404200400000000670448047004F9
:10344C00870877075004520400000000AE09A80951
:10345C0000000000960BA10A00000000E510BD1151
:10346C008410AB1092100D111111000000006C159E
:08347C00BD110E16CB15BE15A3
:00000001FF
