:1070000055C000006EC000006CC000006AC00000E7
:1070100068C0000066C0000064C0000062C00000DC
:1070200060C000005EC00000B4C400005AC0000090
:1070300058C0000056C0000054C0000052C00000FC
:1070400050C00000C6C000004CC000004AC0000094
:1070500048C0000046C0000044C0000042C000001C
:1070600040C000003EC000003CC000003AC000002C
:1070700038C0000036C0000034C0000032C000003C
:1070800030C000002EC000002CC000002AC000004C
:1070900028C0000026C0000024C0000022C000005C
:1070A00020C000001EC000001CC0000011241FBE34
:1070B000CFEFDAE0DEBFCDBF11E0A0E0B1E0E6EB5C
:1070C000FEE702C005900D92A83AB107D9F711E08A
:1070D000A8EAB1E001C01D92AE3BB107E1F753D37E
:1070E000E8C68ECF84E08093E9000DC08091E8006F
:1070F0008B778093E80003C08EB3882359F080918A
:10710000E80082FFF9CF8091E80085FFEFCF809102
:10711000F100089580E0089593E09093E900909144
:10712000E80095FD0DC09091E8009E779093E800EF
:1071300003C09EB3992361F09091E80090FFF9CFCE
:107140008093F10084E690E09093AD018093AC01D0
:107150000895F89410926F001092810010928500AB
:107160001092840081E085BF15BE0C940000089544
:107170008091B2019091B30101969093B3018093F5
:10718000B201089584B7877F84BF88E10FB6F89471
:1071900080936000109260000FBE90E880E00FB610
:1071A000F89490936100809361000FBE81E085BFE9
:1071B00082E085BFE1E6F0E09083108210928900C2
:1071C0009AEF9093880080936F0083E08093810012
:1071D000C8C31F920F920FB60F9211242F938F9353
:1071E0009F93EF93FF9310928500109284008091FB
:1071F000AC019091AD01009729F001979093AD01FA
:107200008093AC018091AA019091AB01009729F085
:1072100001979093AB018093AA01E0E0F0E08591A3
:1072200094912FEF8F3F920749F08091A8019091A0
:10723000A90101969093A9018093A801FF91EF9174
:107240009F918F912F910F900FBE0F901F901895C7
:1072500082E061EC42E018D383E061E842E114D3BC
:1072600084E060E842E110C38091B601982F9F77D7
:10727000913249F59091B7019032A1F0913219F510
:10728000813A09F58091E800877F8093E8008EE0DD
:1072900091E067E070E02ED48091E8008B778093D6
:1072A000E8000895813279F48091E800877F809327
:1072B000E8008EE091E067E070E07BD48091E80028
:1072C0008E778093E80008954F925F926F927F923D
:1072D0008F929F92AF92BF92CF92DF92EF92FF92E6
:1072E0000F931F93CF93DF9384E08093E900809105
:1072F000E80082FF37C284E690E09093AB01809370
:10730000AA01F0DEC82F853481F48CE49DE19093CE
:10731000A9018093A80107B600FCFDCFF999FECF23
:1073200081E180935700E89503C0843519F4DADED3
:107330008DE0EEC18C34E1F38035D1F3843721F454
:1073400084E4EADE80E0E4C1813611F489E5E0C13D
:10735000813401F5C7DEC82FC5DE482F50E0440F49
:10736000551F662757FD6095762F3C2F330F20E081
:10737000C901AA2797FDA095BA2F482B592B6A2B34
:107380007B2B4093AE015093AF016093B00170939B
:10739000B101CECF803711F483E5BAC1833541F412
:1073A000C0E0D1E007E08991B7DE0150E1F7B1C15B
:1073B000863521F481E3B0DE80E3AAC1833731F45E
:1073C00087E8AADE85E9A8DE8EE1A2C18536B9F498
:1073D000E0E0F0E093E085E090935700E89507B691
:1073E00000FCFDCF80935700E89507B600FCFDCF69
:1073F000E058FF4F20E7E030F20771F799CF82376E
:1074000019F4E1E0F0E00EC0863419F4E0E0F0E0B9
:1074100009C08E3419F4E3E0F0E004C0813539F49A
:10742000E2E0F0E089E080935700849171C18236F8
:1074300031F489E571DE80E06FDE80E869C1823475
:1074400019F0873609F0DAC01092A9011092A8014C
:1074500049DEC82E47DE082F45DED82F85548230FE
:1074600008F055C13C2D20E010E0022B132B1092A8
:107470006F00C73609F045C081E180935700E89559
:10748000C0E0BB24B39438C0C090AE01D090AF012F
:10749000E090B001F090B101D634B9F4EC2FF0E0F7
:1074A000EC29FD29849138DECC2369F0D701C6018F
:1074B0000296A11DB11D8093AE019093AF01A093E0
:1074C000B001B093B101CB2515C0D701C601B69567
:1074D000A79597958795D7D41FDED701C601029649
:1074E000A11DB11D8093AE019093AF01A093B00197
:1074F000B093B101015010400115110509F0C4CF3E
:1075000079C04090AE015090AF016090B001709092
:10751000B101D63409F05AC083E0F20180935700DC
:10752000E89507B600FCFDCF51C0D63449F5CC2311
:1075300019F1C090AE01D090AF01E090B001F09091
:10754000B101D0DD982E88248B2D90E088299929CF
:10755000F6010C01A0925700E8951124D701C6014D
:107560000296A11DB11D8093AE019093AF01A0932F
:10757000B001B093B10102C0B5DDB82ECA2523C059
:10758000C090AE01D090AF01E090B001F090B10199
:10759000F694E794D794C794A5DD682FC6017BD4F1
:1075A0008091AE019091AF01A091B001B091B10175
:1075B0000296A11DB11D8093AE019093AF01A093DF
:1075C000B001B093B1010150104004C0BB24C0E031
:1075D000AA24A3940115110509F0A7CFD63441F4CC
:1075E00085E0F20180935700E89507B600FCFDCFD7
:1075F0008DE092DD82E080936F008BC0833471F464
:10760000C091AE01D091AF016DDD90E021E0FE01AF
:107610000C0120935700E89511248ACE8336A9F4F3
:10762000C090AE01D090AF01E090B001F090B101F8
:1076300059DDF601E16090E021E00C012093570054
:10764000E8951124D701C60134C08D3661F4E0916C
:10765000AE01F091AF0185E080935700E89507B641
:1076600000FCFDCF65CE823551F4E091AE01F09182
:10767000AF01C591D4918D2F4FDD8C2F49C084343B
:1076800021F5C090AE01D090AF01E090B001F09034
:10769000B101F694E794D794C79424DD682FC6010E
:1076A000FAD38091AE019091AF01A091B001B09159
:1076B000B1010296A11DB11D8093AE019093AF015F
:1076C000A093B001B093B10133CE8436F1F4C090F1
:1076D000AE01D090AF01E090B001F090B101D701C0
:1076E000C601B695A79597958795CDD315DDD7019A
:1076F000C6010296A11DB11D8093AE019093AF010A
:10770000A093B001B093B10104C08B3111F08FE3AD
:1077100003DD83E08093E9009091E8008091E80028
:107720008E778093E80095FF04C010C08EB3882345
:10773000C9F08091E80080FFF9CF8091E8008E7752
:107740008093E80003C08EB3882361F08091E80045
:1077500080FFF9CF84E08093E9008091E8008B7787
:107760008093E800DF91CF911F910F91FF90EF90F0
:10777000DF90CF90BF90AF909F908F907F906F9051
:107780005F904F9008954091000850910108109229
:1077900001081092000824B714BE88E10FB6F894CF
:1077A00080936000109260000FBE30E0F901E2703B
:1077B000F07021FD1AC020FF06C0859194916FEFF3
:1077C0008F3F960789F423FF10C080910B019091A1
:1077D0000C014817590749F0E0E0F0E085919491D9
:1077E0002FEF8F3F920709F0B4DCCCDC7894109235
:1077F000A9011092A8010DC067DD33D38091A801C3
:107800009091A9016FE18134960710F010920D015B
:10781000AFDC80910D01882379F78091E0008160D1
:107820008093E00096DC80E090E00895923029F0AB
:10783000933041F0913061F410C08EE390E027E581
:1078400031E01EC0882371F0813089F08230A1F0D0
:1078500080E090E020E030E013C082E190E025E994
:1078600031E00EC084E090E023E531E009C082E21F
:1078700090E02FE231E004C088E190E025E131E0C2
:10788000FA013183208308958093E900EBEEF0E064
:10789000808181608083EDEEF0E010826093EC00E7
:1078A00040838091EE00881F8827881F089580916B
:1078B000B60187FF11C003C08EB38823B1F0809159
:1078C000E80082FFF9CF8091E8008B778093E80091
:1078D00008958EB3882349F08091E80080FFF9CFA6
:1078E0008091E8008E778093E80008950F931F93AE
:1078F000CF93DF9341D048D0C8EDD0E088818F7717
:10790000888388818068888388818F7D888319BC7B
:107910001EBA1092B40100EE10E0F80180818B7F56
:10792000808388818160888380E060E042E0ACDF12
:10793000E1EEF0E080818E7F8083E2EEF0E08081F6
:1079400081608083808188608083F80180818E7F60
:107950008083888180618883DF91CF911F910F910F
:107960000895E7EDF0E08081816080838AE482BF42
:1079700081E08093B501BACFE8EDF0E080818E7FA1
:1079800080831092E20008951092DA001092E100D4
:1079900008951F920F920FB60F9211242F933F93C9
:1079A0004F935F936F937F938F939F93AF93BF9307
:1079B000EF93FF938091DA0080FF1BC08091D80085
:1079C00080FF17C08091DA008E7F8093DA0080916B
:1079D000D90080FF0BC080E189BD82E189BD09B477
:1079E00000FEFDCF81E08EBB3BD203C019BC1EBAA6
:1079F00037D28091E10080FF17C08091E20080FFC4
:107A000013C08091E2008E7F8093E2008091E200BB
:107A100080618093E2008091D80080628093D800DA
:107A200019BC85E08EBB1CD28091E10084FF2CC084
:107A30008091E20084FF28C080E189BD82E189BD98
:107A400009B400FEFDCF8091D8008F7D8093D800CF
:107A50008091E1008F7E8093E1008091E2008F7E33
:107A60008093E2008091E20081608093E200809147
:107A7000B401882321F48091E30087FF02C084E0F1
:107A800001C081E08EBBECD18091E10083FF21C079
:107A90008091E20083FF1DC08091E100877F809389
:107AA000E10082E08EBB1092B4018091E1008E7FF4
:107AB0008093E1008091E2008E7F8093E2008091CC
:107AC000E20080618093E20080E060E042E0DCDE82
:107AD000C7D1FF91EF91BF91AF919F918F917F910E
:107AE0006F915F914F913F912F910F900FBE0F902B
:107AF0001F9018954091BC015091BD014617570742
:107B000020F4BA01FC0140E03BC061157105D1F7DA
:107B10004091E8004E774093E800F4CF8EB388237D
:107B200009F443C08530E9F18091E80083FD3BC052
:107B30008091E80082FD2FC08091E80080FF20C086
:107B40009091F3008091F200392F20E090E0822B99
:107B5000932B06C041914093F10061507040019613
:107B60006115710519F088309105A0F341E0883066
:107B7000910509F040E08091E8008E778093E8005D
:107B80006115710559F6442349F605C08EB3882363
:107B900061F0853061F08091E80082FFF7CF80E0EE
:107BA000089583E0089581E0089582E0089583E0D8
:107BB00008956115710529F44091E8004B774093D1
:107BC000E800582F492F2AC08EB38823D1F1853081
:107BD000A1F18091E80083FD32C08091E80082FF2E
:107BE000F3CFE52FF42F08C08091F10081935E2F31
:107BF0004F2F6150704069F05E2F4F2F9091F3002E
:107C00008091F200392F20E090E0822B932B009797
:107C100059F78091E8008B778093E8006115710532
:107C200099F605C08EB3882361F0853061F08091AC
:107C3000E80080FFF7CF80E0089583E0089581E0B9
:107C4000089582E0089583E008950F931F93CF93E2
:107C5000DF9300D0CDB7DEB788E0E6EBF1E090919E
:107C6000F10091938150D9F7FFDA8091E80083FF0A
:107C7000E2C08091B6019091B701953009F46BC0D4
:107C8000963040F4913061F1913070F0933009F00A
:107C9000D2C026C0983009F4A1C0993009F4B0C010
:107CA000963009F0C8C07AC0803809F4C4C0823860
:107CB00009F0C1C08091BA0187708093E90090916A
:107CC000EB001092E9008091E800877F8093E80044
:107CD00081E095FF80E08093F1001092F10089C06F
:107CE000882319F0823009F0A6C08F71823009F024
:107CF000A2C08091B801882341F52091BA01277074
:107D000009F499C02093E9008091EB0080FF1DC029
:107D10008091B701833021F48091EB00806213C021
:107D20008091EB0080618093EB0081E090E002C0E5
:107D3000880F991F2A95E2F78093EA001092EA00D3
:107D40008091EB0088608093EB001092E9008091B5
:107D5000E800877F51C0882309F06DC01091B801F9
:107D60001F770FB7F8948091E800877F8093E80031
:107D70009EDD8091E80080FFFCCF8091E300807859
:107D8000812B8093E30080688093E300112311F03E
:107D900083E001C082E08EBB0FBF4DC080588230AF
:107DA00008F049C08091B8019091B9016091BA0181
:107DB000AE014F5F5F4F3ADDBC01009709F43BC055
:107DC0008091E800877F8093E80089819A8192DE24
:107DD0008091E8008B778093E8002DC0803859F5BA
:107DE0008091E800877F8093E8008091B4018093C0
:107DF000F1008091E8008E778093E80058DD1BC089
:107E00008823C9F49091B8019230A8F48091E800D9
:107E1000877F8093E8009093B40149DD8091B4019D
:107E2000882321F48091E30087FF02C084E001C031
:107E300081E08EBB0DDA8091E80083FF0AC080915B
:107E4000EB0080628093EB008091E800877F809355
:107E5000E8000F900F90DF91CF911F910F9108953F
:107E60000895CF938EB3882361F0C091E900C77065
:107E70001092E9008091E80083FF01C0E6DEC09324
:107E8000E900CF910895F999FECF92BD81BDF89A8E
:107E9000992780B50895262FF999FECF1FBA92BD74
:107EA00081BD20BD0FB6F894FA9AF99A0FBE0196DB
:067EB0000895F894FFCFD5
:107EB6004341544552494E4100000877770100007E
:107EC6000000000008180342006C0069006E006B99
:107ED6000079005400610070006500200000002257
:107EE6000342006C0069006E006B0079005400616B
:107EF60000700065002000200020002000200020E7
:107F06000000000403090409023E00020100803259
:107F160009040000010202010005240010010424E6
:107F260002040524060001070582030800FF090470
:107F36000100020A000000070504021000010705FF
:107F460083021000011201100102000008501D6C8E
:087F56006001000201000100BE
